:1000000049C0000065C0000063C0000061C000007E
:100010005FC000005DC000005BC0000059C0000070
:1000200057C0000055C0000053C0000051C0000080
:100030000C94A8094DC000004BC0000049C000004E
:1000400047C0000045C0000044C0000041C000009F
:100050003FC000000C94180A3BC000000C94D70964
:1000600037C0000035C0000033C0000031C00000C0
:100070002FC000002DC000002BC0000029C00000D0
:100080000C94A10A25C000000C94600A21C0000055
:100090001FC0000011241FBECFEFD0E1DEBFCDBFD7
:1000A00011E0A0E0B1E0EEE4FCE100E00BBF02C033
:1000B00007900D92A831B107D9F712E0A8E1B1E09D
:1000C00001C01D92A037B107E1F700D30C94250EB3
:1000D00097CF1F920F920FB60F9200905B000F9276
:1000E00011242F933F934F935F938F939F93AF93DD
:1000F000BF93EF93FF93DF93CF9300D000D0CDB7A2
:10010000DEB7EDEEF0E080818C831B829CC0EDEECB
:10011000F0E08B818295807F8083EEEEF0E080813D
:10012000829586958770882F90E0817090708823E3
:1001300009F46EC0EFEEF0E080E88083AEEEB0E050
:10014000EEEEF0E080818F7D8C93E2EFF0E0808135
:10015000829586958770282FE3EFF0E08081882FC5
:1001600090E0880F991F880F991F880F991F822B85
:100170008A8319822AC08A81282F30E081E090E0AA
:10018000821B930B880F991F909581959F4FFC01BF
:10019000E85EFE4F408151818A81882F90E001976F
:1001A000FC01E45DFE4F8081282F30E08981882F9B
:1001B00090E0820F931FDA01A80FB91FEAEFF0E079
:1001C00080818C9389818F5F89838981883098F2BF
:1001D0008A81882F90E00197FC01E45DFE4F8081C9
:1001E0008F5F80838081853041F48A81882F90E001
:1001F0000197FC01E45DFE4F10828A81882F90E018
:100200000197FC01E05CFE4F80818F5F80831FC0FF
:10021000EEEEF0E080818295869586958370882F3A
:1002200090E081709070882359F0EFEEF0E010823A
:10023000AEEEB0E0EEEEF0E080818F7B8C9307C0F5
:100240008B818F5F8B838B818F3008F460CFEDEED5
:10025000F0E08C818083AAEDB0E0EAEDF0E08081EF
:100260008C930F900F900F900F90CF91DF91FF9193
:10027000EF91BF91AF919F918F915F914F913F917E
:100280002F910F9000925B000F900FBE0F901F9068
:100290001895DF93CF9300D0CDB7DEB7E8EDF0E04F
:1002A00081E080831A8232C0EDEEF0E08A8182958F
:1002B000807F8083EEEEF0E01082EFEEF0E01082BF
:1002C000E3EFF0E01082E2EFF0E01082E1EFF0E027
:1002D0001082E0EFF0E01082E7EFF0E01082E6EF4E
:1002E000F0E01082E5EFF0E01082E4EFF0E0108241
:1002F000198206C0EAEFF0E0108289818F5F89835E
:1003000089818830B8F38A818F5F8A838A818F30B0
:1003100058F2E8EDF0E082E08083E2EEF0E081E088
:100320008083E3EEF0E088E08083E4EEF0E08EE5A9
:100330008083E5EEF0E01082EBEDF0E080EB80836F
:10034000EFEDF0E08FE78083EEEDF0E08FEF80835C
:1003500078940F900F90CF91DF910895DF93CF9312
:1003600000D000D00F92CDB7DEB79C838B83EDEE2B
:10037000F0E080818983E9EDF0E0808182958F70E3
:10038000882F90E0817090708823A9F7E9EDF0E064
:100390008081869586958695882F90E081709070F3
:1003A000882349F71A823FC0EDEEF0E08A818295FA
:1003B000807F8083EFEEF0E0808182958695869540
:1003C0008370882369F5EFEEF0E08FE08083E3EF40
:1003D000F0E08B819C819070969587959695879596
:1003E000969587958083E2EFF0E08B818295880F68
:1003F000807E8083E6EFF0E080EE8083E7EFF0E040
:100400008FEF8083AFEEB0E0EFEEF0E080818068A8
:100410008C93EDEEF0E08981808381E08D830CC0C8
:100420008A818F5F8A838A818F3008F4BDCFEDEE99
:10043000F0E0898180831D828D810F900F900F9055
:100440000F900F90CF91DF9108950F931F93DF933B
:10045000CF9300D0CDB7DEB78A831BDF198236C0B9
:100460008981882F90E0019679DF8981882F90E03B
:10047000880F991F8C01085E1E4F85E090E061E0B7
:1004800070E00E94FF0CF801918380838981482FDE
:1004900050E08981282F30E08981882F90E0FC018D
:1004A000E05CFE4F1082FC01E05CFE4F8081F901B0
:1004B000EA5CFE4F8083F901EA5CFE4F8081FA011D
:1004C000E45DFE4F808389818F5F898399818A8172
:1004D000981730F20F900F90CF91DF911F910F91ED
:1004E0000895DF93CF9300D000D0CDB7DEB79B83C4
:1004F0008A836C838C81882F90E00197FC01E05CFB
:10050000FE4F80818823B1F3198230C08981282F62
:1005100030E08A819B81DC01A20FB31F8C81282FE0
:1005200030E081E090E0821B930B880F991F90953B
:1005300081959F4FFC01E85EFE4F408151818C8187
:10054000882F90E00197FC01EA5CFE4F8081282F04
:1005500030E08981882F90E0820F931FFA01E80F25
:10056000F91F80818C9389818F5F8983898188308D
:1005700068F28C81882F90E00197FC01EA5CFE4FC5
:1005800080818F5F80838081853041F48C81882FCA
:1005900090E00197FC01EA5CFE4F10828C81882F6D
:1005A00090E09C0121503040F901E05CFE4F8081D9
:1005B0008150F901E05CFE4F808380E00F900F9046
:1005C0000F900F90CF91DF910895DF93CF93CDB728
:1005D000DEB727970FB6F894DEBF0FBECDBF9D8361
:1005E0008C836E83E9EDF0E0808182958F70882F97
:1005F00090E0817090708823A9F7E9EDF0E08081A8
:10060000869586958695882F90E0817090708823D6
:1006100049F7EDEEF0E0808189831A8212C0EDEE99
:10062000F0E08A818295807F8083EFEEF0E0808128
:100630008295869586958370882331F08A818F5FB5
:100640008A838A818F3058F38A818F3019F48FEF33
:100650008F8332C0E2EFF0E08E818295880F807E3A
:100660008083E3EFF0E08E81869586958695808382
:10067000EFEEF0E088E080831B820FC0AAEFB0E0CD
:100680008B81282F30E08C819D81FC01E20FF31FCC
:1006900080818C938B818F5F8B838B81883070F30B
:1006A000AFEEB0E0EFEEF0E0808180648C93EDEE91
:1006B000F0E0898180831F828F8127960FB6F8949E
:1006C000DEBF0FBECDBFCF91DF910895EF92FF92B5
:1006D0000F93DF93CF93CDB7DEB76B970FB6F89438
:1006E000DEBF0FBECDBF88EE93E0ECD5E3E3F0E0D4
:1006F0008FEF80838EE290E064E0C7D480936A023B
:1007000085E290E060E0C1D4809369028EE290E0DF
:1007100062E0BBD480936802198A188A1B8A1A8AFD
:100720001D8A1C8A84E091DE88EE93E0CBD580E0C0
:1007300090E0AAE7B4E48B879C87AD87BE876B8582
:100740007C858D859E8520E030E44CE155E40E9457
:100750009C0CDC01CB018F839887A987BA876F81B6
:10076000788589859A8520E030E040E85FE396D778
:1007700088232CF481E090E09E838D833DC06F81BF
:10078000788589859A8520E03FEF4FE757E40E94FE
:10079000980C181644F56B857C858D859E8520E028
:1007A00030E040E251E40E949C0CDC01CB01BC0132
:1007B000CD01E0D7DC01CB019E838D830FC08AEF92
:1007C00090E09C838B838B819C810197F1F79C83C4
:1007D0008B838D819E8101979E838D838D819E81E8
:1007E000009769F713C06F81788589859A85C2D78C
:1007F000DC01CB019E838D838D819E819A838983C9
:1008000089819A810197F1F79A8389834889598967
:100810006A897B898C899D8988D21F861F861BC027
:100820008F85282F30E0C901880F991F820F931FF1
:10083000880F991FFC01EA5FFE4F40815181628160
:1008400073818481958126E401E0EE24FF2407D0A2
:100850008F858F5F8F878F85833010F3FFCFEF9267
:10086000FF920F93DF93CF93CDB7DEB7CB54D04039
:100870000FB6F894DEBF0FBECDBFFE01EF5BFF4F9A
:100880004083FE01EE5BFF4F5083FE01ED5BFF4FA7
:100890006083FE01EC5BFF4F7083FE01EB5BFF4F5B
:1008A0008083FE01EA5BFF4F9083FE01E95BFF4F0F
:1008B0002083FE01E85BFF4F0083FE01E75BFF4FF3
:1008C000F182E08286E589AFFE01E95BFF4F80811E
:1008D0008AAF6DC080E090E0A8E4B2E48DAB9EAB3F
:1008E000AFABB8AF6DA97EA98FA998AD20E030E479
:1008F0004CE155E40E949C0CDC01CB0189AB9AAB26
:10090000ABABBCAB69A97AA98BA99CA920E030E06C
:1009100040E85FE3C3D688232CF481E090E098ABF5
:100920008FA73BC069A97AA98BA99CA920E03FEFBA
:100930004FE757E4FDD718163CF56DA97EA98FA99E
:1009400098AD20E030E040E251E4F6D7DC01CB0185
:10095000BC01CD010FD7DC01CB0198AB8FA70FC035
:100960008AEF90E09EA78DA78DA59EA50197F1F730
:100970009EA78DA78FA598A9019798AB8FA78FA544
:1009800098A9009769F713C069A97AA98BA99CA9AE
:10099000F1D6DC01CB0198AB8FA78FA598A99CA7B6
:1009A0008BA78BA59CA50197F1F79CA78BA7CE01E0
:1009B000C99663EC0ADE882309F08CCF87E489AFFF
:1009C000FE01EF5BFF4F80819181892F990F990B79
:1009D0008AAFFE01EF5BFF4F808191818BAFFE01FB
:1009E000ED5BFF4F80819181892F990F990B8CAF1F
:1009F000FE01ED5BFF4F808191818DAF1EAEFE0148
:100A0000E85BFF4F80818FAF6CC080E090E0A8E48E
:100A1000B2E48FA398A7A9A7BAA76FA178A589A5C3
:100A20009AA520E030E44CE155E486D7DC01CB0107
:100A30008BA39CA3ADA3BEA36BA17CA18DA19EA102
:100A400020E030E040E85FE329D688232CF481E001
:100A500090E09AA389A33BC06BA17CA18DA19EA12C
:100A600020E03FEF4FE757E463D718163CF56FA13E
:100A700078A589A59AA520E030E040E251E45CD752
:100A8000DC01CB01BC01CD0175D6DC01CB019AA301
:100A900089A30FC08AEF90E098A38F8F8F8D98A1C4
:100AA0000197F1F798A38F8F89A19AA101979AA333
:100AB00089A389A19AA1009769F713C06BA17CA1B2
:100AC0008DA19EA157D6DC01CB019AA389A389A150
:100AD0009AA19E8F8D8F8D8D9E8D0197F1F79E8FA0
:100AE0008D8FCE01C99663EC70DD882309F08DCF20
:100AF00080E589AF6CC080E090E0A8E4B2E4898F23
:100B00009A8FAB8FBC8F698D7A8D8B8D9C8D20E0F9
:100B100030E44CE155E410D7DC01CB018D8B9E8B8A
:100B2000AF8BB88F6D897E898F89988D20E030E0FA
:100B300040E85FE3B3D588232CF481E090E09C8B00
:100B40008B8B3BC06D897E898F89988D20E03FEF2C
:100B50004FE757E4EDD618163CF5698D7A8D8B8DED
:100B60009C8D20E030E040E251E4E6D6DC01CB0190
:100B7000BC01CD01FFD5DC01CB019C8B8B8B0FC061
:100B80008AEF90E09A8B898B89899A890197F1F78E
:100B90009A8B898B8B899C8901979C8B8B8B8B89FA
:100BA0009C89009769F713C06D897E898F89988D1C
:100BB000E1D5DC01CB019C8B8B8B8B899C89988B3D
:100BC0008F878F8598890197F1F7988B8F87CE0152
:100BD000C99663ECFADC882309F08DCFCE01C99663
:100BE00061E07FDC89AD893421F42C961FAE2C970F
:100BF0008CC089AD833529F482E02C968FAF2C9779
:100C000084C089AD853429F481E02C968FAF2C9770
:100C10007CC080E090E0A8E4B2E48B879C87AD873D
:100C2000BE876B857C858D859E8520E030E44CE118
:100C300055E482D6DC01CB018F839887A987BA87D8
:100C40006F81788589859A8520E030E040E85FE310
:100C500025D588232CF481E090E09E838D833BC0D2
:100C60006F81788589859A8520E03FEF4FE757E4CB
:100C70005FD618163CF56B857C858D859E8520E0BA
:100C800030E040E251E458D6DC01CB01BC01CD019B
:100C900071D5DC01CB019E838D830FC08AEF90E07C
:100CA0009C838B838B819C810197F1F79C838B8341
:100CB0008D819E8101979E838D838D819E8100977A
:100CC00069F713C06F81788589859A8553D5DC01D2
:100CD000CB019E838D838D819E819A8389838981B7
:100CE0009A810197F1F79A838983FE01E75BFF4FB1
:100CF00080819181009709F4FBCEFE01E75BFF4FF5
:100D00000190F081E02D0995F3CE2C968FAD2C97B4
:100D1000C55BDF4F0FB6F894DEBF0FBECDBFCF91DE
:100D2000DF910F91FF90EF900895DF93CF93CDB7B0
:100D3000DEB7E3970FB6F894DEBF0FBECDBF4BA76B
:100D40005CA76DA77EA78FA798AB89E48D8F8BA535
:100D50009CA5892F990F990B8E8F8BA59CA58F8FA2
:100D60008DA59EA5892F990F990B88A38DA59EA56A
:100D700089A31AA28FA598A98BA36CC080E090E0EC
:100D8000A8E4B2E4898F9A8FAB8FBC8F698D7A8D7E
:100D90008B8D9C8D20E030E44CE155E4CDD5DC0119
:100DA000CB018D8B9E8BAF8BB88F6D897E898F89A0
:100DB000988D20E030E040E85FE370D488232CF485
:100DC00081E090E09C8B8B8B3BC06D897E898F8905
:100DD000988D20E03FEF4FE757E4AAD518163CF571
:100DE000698D7A8D8B8D9C8D20E030E040E251E45E
:100DF000A3D5DC01CB01BC01CD01BCD4DC01CB010E
:100E00009C8B8B8B0FC08AEF90E09A8B898B8989A2
:100E10009A890197F1F79A8B898B8B899C89019725
:100E20009C8B8B8B8B899C89009769F713C06D898C
:100E30007E898F89988D9ED4DC01CB019C8B8B8B16
:100E40008B899C89988B8F878F8598890197F1F77B
:100E5000988B8F87CE014D9663ECB7DB882309F022
:100E60008DCF80E58D8F6CC080E090E0A8E4B2E487
:100E70008B879C87AD87BE876B857C858D859E859E
:100E800020E030E44CE155E457D5DC01CB018F8301
:100E90009887A987BA876F81788589859A8520E0A8
:100EA00030E040E85FE3FAD388232CF481E090E05F
:100EB0009E838D833BC06F81788589859A8520E0EC
:100EC0003FEF4FE757E434D518163CF56B857C852A
:100ED0008D859E8520E030E040E251E42DD5DC0197
:100EE000CB01BC01CD0146D4DC01CB019E838D83B7
:100EF0000FC08AEF90E09C838B838B819C8101974C
:100F0000F1F79C838B838D819E8101979E838D83D6
:100F10008D819E81009769F713C06F8178858985DF
:100F20009A8528D4DC01CB019E838D838D819E819F
:100F30009A83898389819A810197F1F79A838983BA
:100F4000CE014D9663EC41DB882309F08DCFCE01B5
:100F50004D9661E0C6DA8E8D882F90E0382F2227DB
:100F60008F8D882F90E0822B932B9EA38DA388A139
:100F7000882F90E0382F222789A1882F90E0822B9C
:100F8000932B98A78FA38AA1882F90E0382F222730
:100F90008BA1882F90E0822B932B9AA789A72DA154
:100FA0003EA18BA59CA5A901481B590BCA01AA27E4
:100FB00097FDA095BA2FBC01CD010AD4DC01CB016D
:100FC000BF771BAABC01CD0120E030E040EA50E42D
:100FD000AFD4181614F451E05BAB81E09BA98927CC
:100FE000882309F4B2CE2FA138A58DA59EA5A9010D
:100FF000481B590BCA01AA2797FDA095BA2FBC011F
:10100000CD01E6D3DC01CB01BF771AAABC01CD012B
:1010100020E030E040EA50E48BD4181614F451E09C
:101020005AAB81E09AA98927882309F48ECE29A595
:101030003AA58FA598A9A901481B590BCA01AA274F
:1010400097FDA095BA2FBC01CD01C2D3DC01CB0125
:10105000BF7719AABC01CD0120E030E040EA50E49E
:1010600067D4181614F451E059AB81E099A9892787
:10107000882309F46ACE80E0E3960FB6F894DEBFC9
:101080000FBECDBFCF91DF9108950F931F93DF93D4
:10109000CF9300D000D00F92CDB7DEB79B838A8369
:1010A0006C8380914A018A3010F01D828DC080913E
:1010B0004A01082F10E086E090E0BBD49C01C801F3
:1010C000880F991FFC01E45BFE4F318320838091E0
:1010D0004A01882F90E0880F991FFC01E45BFE4FC6
:1010E00080819181009719F48FEF8D836DC080917D
:1010F0004A01882F90E0880F991FFC01E45BFE4FA6
:101100000190F081E02D8A819B8191838083809181
:101110004A01882F90E0880F991FFC01E45BFE4F85
:101120000190F081E02D8C818283198216C080911C
:101130004A01882F90E0880F991FFC01E45BFE4F65
:10114000208131818981882F90E0820F931FFC01DB
:101150003396108289818F5F89838981833038F348
:101160008A819B81DC0111978A819B81FC013197E7
:101170008081482F8C81282F30E081E090E002C0F0
:10118000880F991F2A95E2F7809584238C93EA8132
:10119000FB818081482F8C81282F30E081E090E016
:1011A000022E02C0880F991F0A94E2F7842BEA816D
:1011B000FB81808380914A01898380914A018F5FFE
:1011C00080934A0189818D838D810F900F900F90BC
:1011D0000F900F90CF91DF911F910F910895DF93A2
:1011E000CF9300D0CDB7DEB78A8319828A81882F4A
:1011F00090E0880F991FFC01E45BFE4F0190F081A5
:10120000E02D80819181FC0132978081282F30E090
:101210008A81882F90E0880F991FFC01E45BFE4FC4
:101220000190F081E02D8281882F90E0A90102C019
:10123000559547958A95E2F7CA018170898389811E
:101240000F900F90CF91DF910895EF92FF920F933F
:101250001F93DF93CF930F92CDB7DEB780914B01F1
:101260008F5F80934B0180914B01833010F010927F
:101270004B0119821AC08981882F90E0880F991F2D
:10128000FC01E45BFE4FE080F18080914B01082F70
:1012900010E08981A4DF282FC701800F911FFC0176
:1012A0003396208389818F5F898390914A01898158
:1012B000891708F30F90CF91DF911F910F91FF9045
:1012C000EF9008950F931F93DF93CF9300D0CDB786
:1012D000DEB79A838983E0E8F0E01082E1E8F0E08D
:1012E00089E0808308E810E089819A81CC01A0E040
:1012F000B0E0BC01CD016AD29B01AC0160E876E9A7
:1013000088E19BE4CFD1DC01CB01BC01CD0120E021
:1013100030E040E05FE35ED1DC01CB01BC01CD01F8
:1013200029D2DC01CB01F80191838083EFE6F0E064
:1013300082E08083AFE5B0E0EFE5F0E08081806897
:101340008C930F900F90CF91DF911F910F91089583
:101350001F920F920FB60F9200905B000F92112414
:101360002F933F934F935F936F937F938F939F93AD
:10137000AF93BF93EF93FF93DF93CF93CDB7DEB7D8
:1013800064DFCF91DF91FF91EF91BF91AF919F917A
:101390008F917F916F915F914F913F912F910F901E
:1013A00000925B000F900FBE0F901F9018951F9238
:1013B0000F920FB60F9200905B000F9211248F9343
:1013C0009F93AF93BF93EF93FF93DF93CF93CDB7EB
:1013D000DEB7809160018823D9F08091600181504F
:1013E00080936001A6ECB0E080916101882F90E0CD
:1013F000FC01E859FE4F80818C93809161018F5FE1
:101400008093610180916101803411F41092610137
:10141000CF91DF91FF91EF91BF91AF919F918F910C
:101420000F9000925B000F900FBE0F901F901895C9
:101430001F920F920FB60F9200905B000F92112433
:101440002F938F939F93EF93FF93DF93CF930F92FD
:10145000CDB7DEB7E0ECF0E0808189838981882F09
:1014600090E08C7190700097D9F480916201882F80
:1014700090E0E6ECF0E02081FC01E855FE4F20838F
:10148000809162018F5F809362018091620180345C
:1014900011F410926201809163018F5F8093630168
:1014A0000F90CF91DF91FF91EF919F918F912F91AD
:1014B0000F9000925B000F900FBE0F901F90189539
:1014C0001F920F920FB60F9200905B000F921124A3
:1014D0008F939F93AF93BF93EF93FF93DF93CF933C
:1014E000CDB7DEB7809164018823D9F08091640183
:1014F000815080936401AEECB0E080916501882F4B
:1015000090E0FC01E851FE4F80818C938091650151
:101510008F5F8093650180916501803411F4109292
:101520006501CF91DF91FF91EF91BF91AF919F91B5
:101530008F910F9000925B000F900FBE0F901F9045
:1015400018951F920F920FB60F9200905B000F92AA
:1015500011242F938F939F93EF93FF93DF93CF9358
:101560000F92CDB7DEB7E8ECF0E080818983898106
:10157000882F90E08C7190700097D9F4809166016B
:10158000882F90E0EEECF0E02081FC01E85DFD4F5B
:101590002083809166018F5F809366018091660150
:1015A000803411F410926601809167018F5F8093FF
:1015B00067010F90CF91DF91FF91EF919F918F91F4
:1015C0002F910F9000925B000F900FBE0F901F9015
:1015D00018955058BB27AA270ED070C161D130F0A2
:1015E00066D120F031F49F3F11F41EF456C10EF481
:1015F000E095E7FB4CC1E92F72D180F3BA1762077F
:1016000073078407950718F071F49EF58AC10EF4EC
:10161000E0950B2EBA2FA02D0B01B90190010C0102
:10162000CA01A0011124FF27591B99F0593F50F41A
:10163000503E68F11A16F040A22F232F342F442772
:10164000585FF3CF469537952795A795F04053956A
:10165000C9F77EF41F16BA0B620B730B840BBAF03A
:101660009150A1F0FF0FBB1F661F771F881FC2F7A5
:101670000EC0BA0F621F731F841F48F487957795B9
:101680006795B795F7959E3F08F0B3CF9395880F70
:1016900008F09927EE0F979587950895D4D008F410
:1016A00081E008950CD00AC102D140F0F9D030F0A9
:1016B00021F45F3F19F0EBC0511134C1EEC00FD1DE
:1016C00098F39923C9F35523B1F3951B550BBB2709
:1016D000AA2762177307840738F09F5F5F4F220FB6
:1016E000331F441FAA1FA9F333D00E2E3AF0E0E8AF
:1016F00030D091505040E695001CCAF729D0FE2FFB
:1017000027D0660F771F881FBB1F2617370748078C
:10171000AB07B0E809F0BB0B802DBF01FF27935842
:101720005F4F2AF09E3F510568F0B1C0FBC05F3F9C
:10173000ECF3983EDCF3869577956795B795F7952A
:101740009F5FC9F7880F911D9695879597F9089522
:10175000E1E0660F771F881FBB1F621773078407BE
:10176000BA0720F0621B730B840BBA0BEE1F88F7CD
:10177000E0950895BCD088F09F5790F0B92F992735
:10178000B751A0F0D1F0660F771F881F991F1AF08C
:10179000BA95C9F712C0B13081F0C3D0B1E0089555
:1017A000C0C0672F782F8827B85F39F0B93FCCF3D6
:1017B000869577956795B395D9F73EF49095809582
:1017C000709561957F4F8F4F9F4F0895E89409C0A2
:1017D00097FB3EF490958095709561957F4F8F4F64
:1017E0009F4F9923A9F0F92F96E9BB279395F6957A
:1017F000879577956795B795F111F8CFFAF4BB0FF8
:1018000011F460FF1BC06F5F7F4F8F4F9F4F16C05B
:10181000882311F096E911C0772321F09EE8872FE5
:10182000762F05C0662371F096E8862F70E060E0A1
:101830002AF09A95660F771F881FDAF7880F96951A
:10184000879597F90895990F0008550FAA0BE0E8BE
:10185000FEEF16161706E807F907C0F01216130672
:10186000E407F50798F0621B730B840B950B39F4B2
:101870000A2661F0232B242B252B21F408950A2618
:1018800009F4A140A6958FEF811D811D089597F958
:101890009F6780E870E060E008959FEF80EC089516
:1018A00000240A941616170618060906089500243F
:1018B0000A9412161306140605060895092E0394B9
:1018C000000C11F4882352F0BB0F40F4BF2B11F42D
:1018D00060FF04C06F5F7F4F8F4F9F4F089557FD8C
:1018E0009058440F551F59F05F3F71F04795880F8E
:1018F00097FB991F61F09F3F79F087950895121625
:1019000013061406551FF2CF4695F1DF08C01616D0
:1019100017061806991FF1CF869571056105089481
:101920000895E894BB2766277727CB0197F9089598
:101930008ADF08F48FEF08950BD0C0CFB1DF28F015
:10194000B6DF18F0952309F0A2CFA7CF1124EACF74
:10195000C6DFA0F3959FD1F3950F50E0551F629F0E
:10196000F001729FBB27F00DB11D639FAA27F00DF8
:10197000B11DAA1F649F6627B00DA11D661F829F1F
:101980002227B00DA11D621F739FB00DA11D621F04
:10199000839FA00D611D221F749F3327A00D611D21
:1019A000231F849F600D211D822F762F6A2F112403
:1019B0009F5750408AF0E1F088234AF0EE0FFF1F56
:1019C000BB1F661F771F881F91505040A9F79E3F8D
:1019D000510570F05CCFA6CF5F3FECF3983EDCF38F
:1019E000869577956795B795F795E7959F5FC1F7CA
:1019F000FE2B880F911D9695879597F908950F9363
:101A00001F93CF93DF93689F8001699F100D789F8C
:101A1000100D1124C8010DD0EC01009721F060E0F9
:101A200070E0A8010BD1CE01DF91CF911F910F91F2
:101A30000895CF93DF93BC018230910510F462E0EA
:101A400070E0A0916E02B0916F02ED01E0E0F0E075
:101A500040E050E021C0888199818617970769F49A
:101A60008A819B81309719F09383828304C090937D
:101A70006F0280936E02FE0134C06817790738F454
:101A80004115510519F08417950708F4AC01FE01C2
:101A90008A819B819C01E9012097E9F64115510556
:101AA000A9F1CA01861B970B049708F4BA01E0E07C
:101AB000F0E02AC08D919C91119784179507F9F455
:101AC0006417750781F412968D919C911397309746
:101AD00019F09383828304C090936F0280936E0207
:101AE000FD0132964FC0CA01861B970BFD01E80F1E
:101AF000F91F6193719302978D939C9343C0FD01ED
:101B0000828193819C01D9011097A1F680916C028A
:101B100090916D02892B41F4809102019091030113
:101B200090936D0280936C024091040150910501E5
:101B30004115510541F44DB75EB780910001909178
:101B40000101481B590B20916C0230916D02241742
:101B50003507B0F4CA01821B930B8617970780F0F4
:101B6000AB014E5F5F4F8417950750F0420F531F34
:101B700050936D0240936C02F9016193719302C01E
:101B8000E0E0F0E0CF01DF91CF910895CF93DF93B4
:101B9000009709F450C0EC0122971B821A82A09191
:101BA0006E02B0916F02109709F140E050E0AC175F
:101BB000BD0708F1BB83AA83FE0121913191E20F99
:101BC000F31FAE17BF0779F48D919C911197280FE1
:101BD000391F2E5F3F4F3983288312968D919C9138
:101BE00013979B838A834115510571F4D0936F023B
:101BF000C0936E0220C012968D919C911397AD01F7
:101C0000009711F0DC01D3CFFA01D383C283219175
:101C10003191E20FF31FCE17DF0769F488819981B4
:101C2000280F391F2E5F3F4FFA01318320838A81AD
:101C30009B8193838283DF91CF910895DC0101C062
:0E1C40006D9341505040E0F70895F894FFCFA7
:101C4E00200070020000C80000000000E803000041
:081C5E0000000000000000007E
:00000001FF
