S019000056656C696B695F526F626F745F323031352E737265631B
S113000049C0000065C0000063C0000061C000007A
S11300105FC000005DC000005BC0000059C000006C
S113002057C0000055C0000053C0000051C000007C
S11300300C94F30D4DC000004BC0000049C00000FB
S113004047C0000045C0000044C0000041C000009B
S11300503FC000000C94450F3BC000000C94040FFB
S113006037C0000035C0000033C0000031C00000BC
S11300702FC000002DC000002BC0000029C00000CC
S11300800C94CE0F25C000000C948D0F21C00000ED
S11300901FC0000011241FBECFEFD0E1DEBFCDBFD3
S11300A011E0A0E0B1E0E8EDF9E200E00BBF02C02E
S11300B007900D92A234B107D9F712E0A2E4B1E09F
S11300C001C01D92A03AB107E1F700D30C94EA14E1
S11300D097CF1F920F920FB60F9200905B000F9272
S11300E011242F933F934F935F938F939F93AF93D9
S11300F0BF93EF93FF93DF93CF9300D000D0CDB79E
S1130100DEB7EDEEF0E080818C831B829CC0EDEEC7
S1130110F0E08B818295807F8083EEEEF0E0808139
S1130120829586958770882F90E0817090708823DF
S113013009F46EC0EFEEF0E080E88083AEEEB0E04C
S1130140EEEEF0E080818F7D8C93E2EFF0E0808131
S1130150829586958770282FE3EFF0E08081882FC1
S113016090E0880F991F880F991F880F991F822B81
S11301708A8319822AC08A81282F30E081E090E0A6
S1130180821B930B880F991F909581959F4FFC01BB
S1130190EE5BFE4F408151818A81882F90E0019768
S11301A0FC01EA5AFE4F8081282F30E08981882F94
S11301B090E0820F931FDA01A80FB91FEAEFF0E075
S11301C080818C9389818F5F89838981883098F2BB
S11301D08A81882F90E00197FC01EA5AFE4F8081C2
S11301E08F5F80838081853041F48A81882F90E0FD
S11301F00197FC01EA5AFE4F10828A81882F90E011
S11302000197FC01E659FE4F80818F5F80831FC0F8
S1130210EEEEF0E080818295869586958370882F36
S113022090E081709070882359F0EFEEF0E0108236
S1130230AEEEB0E0EEEEF0E080818F7B8C9307C0F1
S11302408B818F5F8B838B818F3008F460CFEDEED1
S1130250F0E08C818083AAEDB0E0EAEDF0E08081EB
S11302608C930F900F900F900F90CF91DF91FF918F
S1130270EF91BF91AF919F918F915F914F913F917A
S11302802F910F9000925B000F900FBE0F901F9064
S11302901895DF93CF9300D0CDB7DEB7E8EDF0E04B
S11302A081E080831A8232C0EDEEF0E08A8182958B
S11302B0807F8083EEEEF0E01082EFEEF0E01082BB
S11302C0E3EFF0E01082E2EFF0E01082E1EFF0E023
S11302D01082E0EFF0E01082E7EFF0E01082E6EF4A
S11302E0F0E01082E5EFF0E01082E4EFF0E010823D
S11302F0198206C0EAEFF0E0108289818F5F89835A
S113030089818830B8F38A818F5F8A838A818F30AC
S113031058F2E8EDF0E082E08083E2EEF0E081E084
S11303208083E3EEF0E088E08083E4EEF0E08EE5A5
S11303308083E5EEF0E01082EBEDF0E080EB80836B
S1130340EFEDF0E08FE78083EEEDF0E08FEF808358
S113035078940F900F90CF91DF910895DF93CF930E
S113036000D000D00F92CDB7DEB79C838B83EDEE27
S1130370F0E080818983E9EDF0E0808182958F70DF
S1130380882F90E0817090708823A9F7E9EDF0E060
S11303908081869586958695882F90E081709070EF
S11303A0882349F71A823FC0EDEEF0E08A818295F6
S11303B0807F8083EFEEF0E080818295869586953C
S11303C08370882369F5EFEEF0E08FE08083E3EF3C
S11303D0F0E08B819C819070969587959695879592
S11303E0969587958083E2EFF0E08B818295880F64
S11303F0807E8083E6EFF0E080EE8083E7EFF0E03C
S11304008FEF8083AFEEB0E0EFEEF0E080818068A4
S11304108C93EDEEF0E08981808381E08D830CC0C4
S11304208A818F5F8A838A818F3008F4BDCFEDEE95
S1130430F0E0898180831D828D810F900F900F9051
S11304400F900F90CF91DF9108950F931F93DF9337
S1130450CF9300D0CDB7DEB78A831BDF198236C0B5
S11304608981882F90E0019679DF8981882F90E037
S1130470880F991F8C010E5B1E4F85E090E061E0B0
S113048070E00E94C413F801918380838981482F0E
S113049050E08981282F30E08981882F90E0FC0189
S11304A0E659FE4F1082FC01E659FE4F8081F901A6
S11304B0E05AFE4F8083F901E05AFE4F8081FA0131
S11304C0EA5AFE4F808389818F5F898399818A816B
S11304D0981730F20F900F90CF91DF911F910F91E9
S11304E00895DF93CF9300D000D0CDB7DEB79B83C0
S11304F08A836C838C81882F90E00197FC01E659F4
S1130500FE4F80818823B1F3198230C08981282F5E
S113051030E08A819B81DC01A20FB31F8C81282FDC
S113052030E081E090E0821B930B880F991F909537
S113053081959F4FFC01EE5BFE4F408151818C8180
S1130540882F90E00197FC01E05AFE4F8081282F0C
S113055030E08981882F90E0820F931FFA01E80F21
S1130560F91F80818C9389818F5F89838981883089
S113057068F28C81882F90E00197FC01E05AFE4FCD
S113058080818F5F80838081853041F48C81882FC6
S113059090E00197FC01E05AFE4F10828C81882F75
S11305A090E09C0121503040F901E659FE4F8081D2
S11305B08150F901E659FE4F808380E00F900F903F
S11305C00F900F90CF91DF910895DF93CF93CDB724
S11305D0DEB727970FB6F894DEBF0FBECDBF9D835D
S11305E08C836E83E9EDF0E0808182958F70882F93
S11305F090E0817090708823A9F7E9EDF0E08081A4
S1130600869586958695882F90E0817090708823D2
S113061049F7EDEEF0E0808189831A8212C0EDEE95
S1130620F0E08A818295807F8083EFEEF0E0808124
S11306308295869586958370882331F08A818F5FB1
S11306408A838A818F3058F38A818F3019F48FEF2F
S11306508F8332C0E2EFF0E08E818295880F807E36
S11306608083E3EFF0E08E8186958695869580837E
S1130670EFEEF0E088E080831B820FC0AAEFB0E0C9
S11306808B81282F30E08C819D81FC01E20FF31FC8
S113069080818C938B818F5F8B838B81883070F307
S11306A0AFEEB0E0EFEEF0E0808180648C93EDEE8D
S11306B0F0E0898180831F828F8127960FB6F8949A
S11306C0DEBF0FBECDBFCF91DF910895DF93CF93EF
S11306D0CDB7DEB70E94220E0E941610FDCFDF9325
S11306E0CF93CDB7DEB7C754D0400FB6F894DEBF72
S11306F00FBECDBFFE01EE5BFF4F91838083FE01F1
S1130700EC5BFF4F6083FE01EB5BFF4F5183408343
S113071086E58AAFFE01EC5BFF4F80818BAF72C030
S113072080E090E0A8E4B2E48DAB9EABAFABB8AF91
S11307306DA97EA98FA998AD20E030E44CE155E481
S11307400E946113DC01CB0189AB9AABABABBCABB0
S113075069A97AA98BA99CA920E030E040E85FE36D
S11307600E94131288232CF481E090E098AB8FA7A9
S11307703FC069A97AA98BA99CA920E03FEF4FE764
S113078057E40E945D1318164CF56DA97EA98FA934
S113079098AD20E030E040E251E40E946113DC01B6
S11307A0CB01BC01CD010E947F12DC01CB0198ABCF
S11307B08FA70FC08AEF90E09EA78DA78DA59EA559
S11307C00197F1F79EA78DA78FA598A9019798ABDC
S11307D08FA78FA598A9009769F714C069A97AA96A
S11307E08BA99CA90E947F12DC01CB0198AB8FA737
S11307F08FA598A99CA78BA78BA59CA50197F1F71A
S11308009CA78BA7CE01CA9663ECDFDE882309F090
S113081087CF84E48AAFFE01EE5BFF4F8081918134
S1130820892F990F990B8BAFFE01EE5BFF4F8081EF
S11308308CAF72C080E090E0A8E4B2E48FA398A7E4
S1130840A9A7BAA76FA178A589A59AA520E030E445
S11308504CE155E40E946113DC01CB018BA39CA302
S1130860ADA3BEA36BA17CA18DA19EA120E030E02D
S113087040E85FE30E94131288232CF481E090E0A7
S11308809AA389A33FC06BA17CA18DA19EA120E066
S11308903FEF4FE757E40E945D1318164CF56FA124
S11308A078A589A59AA520E030E040E251E40E94B1
S11308B06113DC01CB01BC01CD010E947F12DC017C
S11308C0CB019AA389A30FC08AEF90E098A38F8FDE
S11308D08F8D98A10197F1F798A38F8F89A19AA181
S11308E001979AA389A389A19AA1009769F714C0D3
S11308F06BA17CA18DA19EA10E947F12DC01CB0182
S11309009AA389A389A19AA19E8F8D8F8D8D9E8D87
S11309100197F1F79E8F8D8FCE01CA9663EC55DE59
S1130920882309F087CF80E58AAF72C080E090E029
S1130930A8E4B2E4898F9A8FAB8FBC8F698D7A8DCE
S11309408B8D9C8D20E030E44CE155E40E946113D2
S1130950DC01CB018D8B9E8BAF8BB88F6D897E892B
S11309608F89988D20E030E040E85FE30E94131205
S113097088232CF481E090E09C8B8B8B3FC06D89A5
S11309807E898F89988D20E03FEF4FE757E40E94DE
S11309905D1318164CF5698D7A8D8B8D9C8D20E036
S11309A030E040E251E40E946113DC01CB01BC0160
S11309B0CD010E947F12DC01CB019C8B8B8B0FC07D
S11309C08AEF90E09A8B898B89899A890197F1F74C
S11309D09A8B898B8B899C8901979C8B8B8B8B89B8
S11309E09C89009769F714C06D897E898F89988DD9
S11309F00E947F12DC01CB019C8B8B8B8B899C89A1
S1130A00988B8F878F8598890197F1F7988B8F87BB
S1130A10CE01CA9663ECD9DD882309F087CFCE01D5
S1130A20CA9661E05EDD8AAD893421F428961FAE52
S1130A302897A2C08AAD833529F482E028968FAF27
S1130A4028979AC08AAD853429F481E028968FAF1F
S1130A50289792C080E090E0A8E4B2E48B879C875A
S1130A60AD87BE876B857C858D859E8520E030E4CF
S1130A704CE155E40E946113DC01CB018F8398871C
S1130A80A987BA876F81788589859A8520E030E0C7
S1130A9040E85FE30E94131288232CF481E090E085
S1130AA09E838D833FC06F81788589859A8520E0F8
S1130AB03FEF4FE757E40E945D1318164CF56B8522
S1130AC07C858D859E8520E030E040E251E40E94E3
S1130AD06113DC01CB01BC01CD010E947F12DC015A
S1130AE0CB019E838D830FC08AEF90E09C838B8320
S1130AF08B819C810197F1F79C838B838D819E81EF
S1130B0001979E838D838D819E81009769F714C020
S1130B106F81788589859A850E947F12DC01CB01DB
S1130B209E838D838D819E819A83898389819A8115
S1130B300197F1F79A838983FE01EB5BFF4F808174
S1130B409181009709F4EFCEFE01EB5BFF4F01901A
S1130B50F081E02D099589AF89AD813029F481E0D8
S1130B6028968FAF289708C089AD823009F0DBCE74
S1130B7083E028968FAF289728968FAD2897C95B76
S1130B80DF4F0FB6F894DEBF0FBECDBFCF91DF911C
S1130B900895EF92FF920F93DF93CF93CDB7DEB713
S1130BA0CC54D0400FB6F894DEBF0FBECDBFFE01CB
S1130BB0EE5BFF4F40835183628373838483958309
S1130BC0FE01E85BFF4F2083FE01E75BFF4F0083DC
S1130BD0FE01E65BFF4FF182E08286E58AAFFE010B
S1130BE0E85BFF4F80818BAF72C080E090E0A8E4A7
S1130BF0B2E48DAB9EABAFABB8AF6DA97EA98FA9A4
S1130C0098AD20E030E44CE155E40E946113DC012E
S1130C10CB0189AB9AABABABBCAB69A97AA98BA965
S1130C209CA920E030E040E85FE30E94131288238F
S1130C302CF481E090E098AB8FA73FC069A97AA912
S1130C408BA99CA920E03FEF4FE757E40E945D1376
S1130C5018164CF56DA97EA98FA998AD20E030E057
S1130C6040E251E40E946113DC01CB01BC01CD01DF
S1130C700E947F12DC01CB0198AB8FA70FC08AEFD3
S1130C8090E09EA78DA78DA59EA50197F1F79EA73D
S1130C908DA78FA598A9019798AB8FA78FA598A921
S1130CA0009769F714C069A97AA98BA99CA90E9425
S1130CB07F12DC01CB0198AB8FA78FA598A99CA7C5
S1130CC08BA78BA59CA50197F1F79CA78BA7CE01B9
S1130CD0CA9663EC7ADC882309F087CF87E48AAF6D
S1130CE0FE01EE5BFF4F80819181892F990F990B53
S1130CF08BAFFE01EE5BFF4F808191818CAFFE01D3
S1130D00EE5BFF4F82819381892F990F990B8DAFF1
S1130D10FE01EE5BFF4F828193818EAF1FAEFE0119
S1130D20E75BFF4F8081FE01E05CFF4F808372C070
S1130D3080E090E0A8E4B2E48FA398A7A9A7BAA79B
S1130D406FA178A589A59AA520E030E44CE155E48B
S1130D500E946113DC01CB018BA39CA3ADA3BEA3B2
S1130D606BA17CA18DA19EA120E030E040E85FE36F
S1130D700E94131288232CF481E090E09AA389A3A3
S1130D803FC06BA17CA18DA19EA120E03FEF4FE766
S1130D9057E40E945D1318164CF56FA178A589A538
S1130DA09AA520E030E040E251E40E946113DC01A6
S1130DB0CB01BC01CD010E947F12DC01CB019AA3BF
S1130DC089A30FC08AEF90E098A38F8F8F8D98A18D
S1130DD00197F1F798A38F8F89A19AA101979AA3FC
S1130DE089A389A19AA1009769F714C06BA17CA17A
S1130DF08DA19EA10E947F12DC01CB019AA389A33D
S1130E0089A19AA19E8F8D8F8D8D9E8D0197F1F76B
S1130E109E8F8D8FCE01CA9663ECD7DB882309F0B1
S1130E2087CF80E58AAF72C080E090E0A8E4B2E4A6
S1130E30898F9A8FAB8FBC8F698D7A8D8B8D9C8DAA
S1130E4020E030E44CE155E40E946113DC01CB0165
S1130E508D8B9E8BAF8BB88F6D897E898F89988D92
S1130E6020E030E040E85FE30E94131288232CF472
S1130E7081E090E09C8B8B8B3FC06D897E898F894C
S1130E80988D20E03FEF4FE757E40E945D1318165A
S1130E904CF5698D7A8D8B8D9C8D20E030E040E29D
S1130EA051E40E946113DC01CB01BC01CD010E941D
S1130EB07F12DC01CB019C8B8B8B0FC08AEF90E0FF
S1130EC09A8B898B89899A890197F1F79A8B898BF7
S1130ED08B899C8901979C8B8B8B8B899C89009730
S1130EE069F714C06D897E898F89988D0E947F125D
S1130EF0DC01CB019C8B8B8B8B899C89988B8F8796
S1130F008F8598890197F1F7988B8F87CE01CA96C0
S1130F1063EC5BDB882309F087CFCE01CA9661E0DE
S1130F20E0DA8AAD893421F42D961FAE2D97A2C044
S1130F308AAD833529F482E02D968FAF2D979AC020
S1130F408AAD853429F481E02D968FAF2D9792C018
S1130F5080E090E0A8E4B2E48B879C87AD87BE87ED
S1130F606B857C858D859E8520E030E44CE155E4DD
S1130F700E946113DC01CB018F839887A987BA870C
S1130F806F81788589859A8520E030E040E85FE3C9
S1130F900E94131288232CF481E090E09E838D83B9
S1130FA03FC06F81788589859A8520E03FEF4FE7C0
S1130FB057E40E945D1318164CF56B857C858D856E
S1130FC09E8520E030E040E251E40E946113DC01A0
S1130FD0CB01BC01CD010E947F12DC01CB019E83B9
S1130FE08D830FC08AEF90E09C838B838B819C81DF
S1130FF00197F1F79C838B838D819E8101979E835A
S11310008D838D819E81009769F714C06F817885E7
S113101089859A850E947F12DC01CB019E838D8392
S11310208D819E819A83898389819A810197F1F7C1
S11310309A838983FE01E65BFF4F8081918100974B
S113104009F4EFCEFE01E65BFF4F0190F081E02D45
S1131050099589AF89AD813029F481E02D968FAF50
S11310602D9708C089AD823009F0DBCE83E02D9640
S11310708FAF2D972D968FAD2D97C45BDF4F0FB695
S1131080F894DEBF0FBECDBFCF91DF910F91FF90DB
S1131090EF900895DF93CF93CDB7DEB7E3970FB604
S11310A0F894DEBF0FBECDBF4BA75CA76DA77EA78C
S11310B08FA798AB89E48D8F8BA59CA5892F990F59
S11310C0990B8E8F8BA59CA58F8F8DA59EA5892F9F
S11310D0990F990B88A38DA59EA589A31AA28FA504
S11310E098A98BA372C080E090E0A8E4B2E4898F51
S11310F09A8FAB8FBC8F698D7A8D8B8D9C8D20E000
S113110030E44CE155E40E946113DC01CB018D8B8A
S11311109E8BAF8BB88F6D897E898F89988D20E0E7
S113112030E040E85FE30E94131288232CF481E04E
S113113090E09C8B8B8B3FC06D897E898F89988DC5
S113114020E03FEF4FE757E40E945D1318164CF57B
S1131150698D7A8D8B8D9C8D20E030E040E251E4E6
S11311600E946113DC01CB01BC01CD010E947F12FE
S1131170DC01CB019C8B8B8B0FC08AEF90E09A8BA8
S1131180898B89899A890197F1F79A8B898B8B8945
S11311909C8901979C8B8B8B8B899C89009769F721
S11311A014C06D897E898F89988D0E947F12DC011D
S11311B0CB019C8B8B8B8B899C89988B8F878F859C
S11311C098890197F1F7988B8F87CE014D9663EC40
S11311D0FCD9882309F087CF80E58D8F72C080E029
S11311E090E0A8E4B2E48B879C87AD87BE876B85CB
S11311F07C858D859E8520E030E44CE155E40E9499
S11312006113DC01CB018F839887A987BA876F812B
S1131210788589859A8520E030E040E85FE30E9484
S1131220131288232CF481E090E09E838D833FC0C9
S11312306F81788589859A8520E03FEF4FE757E4F1
S11312400E945D1318164CF56B857C858D859E85F3
S113125020E030E040E251E40E946113DC01CB0164
S1131260BC01CD010E947F12DC01CB019E838D83E2
S11312700FC08AEF90E09C838B838B819C810197C4
S1131280F1F79C838B838D819E8101979E838D834F
S11312908D819E81009769F714C06F817885898557
S11312A09A850E947F12DC01CB019E838D838D8100
S11312B09E819A83898389819A810197F1F79A8320
S11312C08983CE014D9663EC80D9882309F087CFBA
S11312D0CE014D9661E005D98E8D882F90E0382F90
S11312E022278F8D882F90E0822B932B9EA38DA392
S11312F088A1882F90E0382F222789A1882F90E099
S1131300822B932B98A78FA38AA1882F90E0382F44
S113131022278BA1882F90E0822B932B9AA789A751
S11313202DA13EA18BA59CA5A901481B590BCA015F
S1131330AA2797FDA095BA2FBC01CD010E94AD123A
S1131340DC01CB01BF771BAABC01CD0120E030E05A
S113135040EA50E40E945D13181614F451E05BABAC
S113136081E09BA98927882309F4A4CE2FA138A55D
S11313708DA59EA5A901481B590BCA01AA2797FD53
S1131380A095BA2FBC01CD010E94AD12DC01CB01A6
S1131390BF771AAABC01CD0120E030E040EA50E456
S11313A00E945D13181614F451E05AAB81E09AA917
S11313B08927882309F47ECE29A53AA58FA598A963
S11313C0A901481B590BCA01AA2797FDA095BA2F5A
S11313D0BC01CD010E94AD12DC01CB01BF7719AA7B
S11313E0BC01CD0120E030E040EA50E40E945D13EE
S11313F0181614F451E059AB81E099A98927882380
S113140009F458CE80E0E3960FB6F894DEBF0FBE21
S1131410CDBFCF91DF910895DF93CF93CDB7DEB7E2
S1131420C754D0400FB6F894DEBF0FBECDBFFE0147
S1131430EE5BFF4F91838083FE01EC5BFF4F608383
S1131440FE01EB5BFF4F5183408386E58AAFFE01CB
S1131450EC5BFF4F80818BAF70C080E090E0A8E42C
S1131460B2E48DAB9EABAFABB8AF6DA97EA98FA92B
S113147098AD20E030E44CE155E40E946113DC01B6
S1131480CB0189AB9AABABABBCAB69A97AA98BA9ED
S11314909CA920E030E040E85FE3C5D788232CF422
S11314A081E090E098AB8FA73EC069A97AA98BA987
S11314B09CA920E03FEF4FE757E40E945D13181604
S11314C04CF56DA97EA98FA998AD20E030E040E2EB
S11314D051E40E946113DC01CB01BC01CD010E94E7
S11314E07F12DC01CB0198AB8FA70FC08AEF90E08D
S11314F09EA78DA78DA59EA50197F1F79EA78DA701
S11315008FA598A9019798AB8FA78FA598A9009745
S113151069F713C069A97AA98BA99CA9F0D7DC0142
S1131520CB0198AB8FA78FA598A99CA78BA78BA558
S11315309CA50197F1F79CA78BA7CE01CA9663ECF3
S113154044D8882309F089CF84E58AAFFE01EE5B95
S1131550FF4F80819181892F990F990B8BAFFE01E9
S1131560EE5BFF4F80818CAF6FC080E090E0A8E419
S1131570B2E48FA398A7A9A7BAA76FA178A589A554
S11315809AA520E030E44CE155E40E946113DC01AB
S1131590CB018BA39CA3ADA3BEA36BA17CA18DA106
S11315A09EA120E030E040E85FE33DD788232CF49F
S11315B081E090E09AA389A33DC06BA17CA18DA199
S11315C09EA120E03FEF4FE757E40E945D131816F9
S11315D044F56FA178A589A59AA520E030E040E202
S11315E051E40E946113DC01CB01BC01CD0187D71A
S11315F0DC01CB019AA389A30FC08AEF90E098A3E2
S11316008F8F8F8D98A10197F1F798A38F8F89A160
S11316109AA101979AA389A389A19AA1009769F72E
S113162013C06BA17CA18DA19EA169D7DC01CB0164
S11316309AA389A389A19AA19E8F8D8F8D8D9E8D4A
S11316400197F1F79E8F8D8FCE01CA9663EC0E94AD
S1131650E502882309F089CF80E58AAF6DC080E078
S113166090E0A8E4B2E4898F9A8FAB8FBC8F698D28
S11316707A8D8B8D9C8D20E030E44CE155E40E9402
S11316806113DC01CB018D8B9E8BAF8BB88F6D8981
S11316907E898F89988D20E030E040E85FE3C3D6EF
S11316A088232CF481E090E09C8B8B8B3BC06D896C
S11316B07E898F89988D20E03FEF4FE757E4FDD76F
S11316C018163CF5698D7A8D8B8D9C8D20E030E069
S11316D040E251E4F6D7DC01CB01BC01CD010FD7C8
S11316E0DC01CB019C8B8B8B0FC08AEF90E09A8B33
S11316F0898B89899A890197F1F79A8B898B8B89D0
S11317009C8901979C8B8B8B8B899C89009769F7AB
S113171013C06D897E898F89988DF1D6DC01CB0148
S11317209C8B8B8B8B899C89988B8F878F859889D1
S11317300197F1F7988B8F87CE01CA9663EC0E94CC
S1131740E502882309F08BCFCE01CA9661E00E949E
S113175071028AAD893421F428961FAE28979CC063
S11317608AAD833529F482E028968FAF289794C0F8
S11317708AAD853429F481E028968FAF28978CC0F0
S113178080E090E0A8E4B2E48B879C87AD87BE87B5
S11317906B857C858D859E8520E030E44CE155E4A5
S11317A090D7DC01CB018F839887A987BA876F8193
S11317B0788589859A8520E030E040E85FE333D678
S11317C088232CF481E090E09E838D833BC06F815D
S11317D0788589859A8520E03FEF4FE757E46DD7F8
S11317E018163CF56B857C858D859E8520E030E060
S11317F040E251E466D7DC01CB01BC01CD017FD6C8
S1131800DC01CB019E838D830FC08AEF90E09C8323
S11318108B838B819C810197F1F79C838B838D81D2
S11318209E8101979E838D838D819E81009769F7A8
S113183013C06F81788589859A8561D6DC01CB01D7
S11318409E838D838D819E819A83898389819A81E8
S11318500197F1F79A838983FE01EB5BFF4F808147
S11318609181009709F4F8CEFE01EB5BFF4F0190E4
S1131870F081E02D099589AF89AD813029F481E0AB
S113188028968FAF289708C089AD823009F0E4CE3E
S113189083E028968FAF289728968FAD2897C95B49
S11318A0DF4F0FB6F894DEBF0FBECDBFCF91DF91EF
S11318B008950F931F93DF93CF9300D000D00F921E
S11318C0CDB7DEB79B838A836C83809174018A30A1
S11318D010F01D828DC080917401082F10E086E005
S11318E090E06CD79C01C801880F991FFC01EA584D
S11318F0FE4F3183208380917401882F90E0880FFC
S1131900991FFC01EA58FE4F80819181009719F4D8
S11319108FEF8D836DC080917401882F90E0880FC4
S1131920991FFC01EA58FE4F0190F081E02D8A8155
S11319309B819183808380917401882F90E0880F2C
S1131940991FFC01EA58FE4F0190F081E02D8C8133
S11319508283198216C080917401882F90E0880FC9
S1131960991FFC01EA58FE4F208131818981882F1B
S113197090E0820F931FFC013396108289818F5F60
S113198089838981833038F38A819B81DC011197B3
S11319908A819B81FC0131978081482F8C81282F7B
S11319A030E081E090E002C0880F991F2A95E2F7A9
S11319B0809584238C93EA81FB818081482F8C81DC
S11319C0282F30E081E090E0022E02C0880F991F9A
S11319D00A94E2F7842BEA81FB818083809174016D
S11319E08983809174018F5F8093740189818D83D1
S11319F08D810F900F900F900F900F90CF91DF91EA
S1131A001F910F910895DF93CF9300D0CDB7DEB728
S1131A1089838981882F90E0880F991FFC01EA58F7
S1131A20FE4F0190F081E02D23818981882F90E081
S1131A30880F991FFC01EA58FE4F0190F081E02DB8
S1131A408481282B8981882F90E0880F991FFC01BD
S1131A50EA58FE4F0190F081E02D8581822B1A8295
S1131A60882311F481E08A838A810F900F90CF91AB
S1131A70DF910895DF93CF9300D0CDB7DEB78A838B
S1131A8019828A81882F90E0880F991FFC01EA58F7
S1131A90FE4F0190F081E02D80819181FC0132970D
S1131AA08081282F30E08A81882F90E0880F991F49
S1131AB0FC01EA58FE4F0190F081E02D8281882FCD
S1131AC090E0A90102C0559547958A95E2F7CA01AD
S1131AD08170898389810F900F90CF91DF91089550
S1131AE0EF92FF920F931F93DF93CF930F92CDB793
S1131AF0DEB7809175018F5F8093750180917501C8
S1131B00833010F01092750119821AC08981882FD0
S1131B1090E0880F991FFC01EA58FE4FE080F180A5
S1131B2080917501082F10E08981A4DF282FC70157
S1131B30800F911FFC013396208389818F5F8983F5
S1131B40909174018981891708F30F90CF91DF91E7
S1131B501F910F91FF90EF9008950F931F93DF93C0
S1131B60CF9300D0CDB7DEB79A838983E0E8F0E065
S1131B701082E1E8F0E089E0808308E810E08981E0
S1131B809A81CC01A0E0B0E0BC01CD01E4D49B017A
S1131B90AC0160E876E988E19BE449D4DC01CB013F
S1131BA0BC01CD0120E030E040E05FE3D8D3DC01AC
S1131BB0CB01BC01CD01A3D4DC01CB01F80191839D
S1131BC08083EFE6F0E082E08083AFE5B0E0EFE50C
S1131BD0F0E0808180688C930F900F90CF91DF911B
S1131BE01F910F9108951F920F920FB60F920090BC
S1131BF05B000F9211242F933F934F935F936F9346
S1131C007F938F939F93AF93BF93EF93FF93DF9350
S1131C10CF93CDB7DEB764DFCF91DF91FF91EF9122
S1131C20BF91AF919F918F917F916F915F914F91F0
S1131C303F912F910F9000925B000F900FBE0F9079
S1131C401F901895DF93CF93CDB7DEB72E970FB6BD
S1131C50F894DEBF0FBECDBFE3E3F0E08FEF8083E7
S1131C6084E090E00E94250282E290E064E021DEBC
S1131C708093990282E290E065E01BDE80939B02F0
S1131C8082E290E066E015DE8093940282E290E0C6
S1131C9067E00FDE8093980282E290E063E009DE61
S1131CA08093930282E290E062E003DE80939702E5
S1131CB082E290E061E0FDDD8093920282E290E0B6
S1131CC060E0F7DD80939A028EE290E062E0F1DD5D
S1131CD0809395028EE290E063E0EBDD80939602C0
S1131CE07BD081309105E1F388EE93E036DF80E02C
S1131CF090E0AAE7B4E48B879C87AD87BE876B85A9
S1131D007C858D859E8520E030E44CE155E4D9D472
S1131D10DC01CB018F839887A987BA876F81788587
S1131D2089859A8520E030E040E85FE37CD388230E
S1131D302CF481E090E09E838D833BC06F81788595
S1131D4089859A8520E03FEF4FE757E4B6D418160B
S1131D503CF56B857C858D859E8520E030E040E2F6
S1131D6051E4AFD4DC01CB01BC01CD01C8D3DC010B
S1131D70CB019E838D830FC08AEF90E09C838B837D
S1131D808B819C810197F1F79C838B838D819E814C
S1131D9001979E838D838D819E81009769F713C07F
S1131DA06F81788589859A85AAD3DC01CB019E83CE
S1131DB08D838D819E819A83898389819A810197FC
S1131DC0F1F79A8389832E960FB6F894DEBF0FBE7F
S1131DD0CDBFCF91DF910895DF93CF9300D0CDB7DE
S1131DE0DEB7809195020FDE882319F41A821982D6
S1131DF004C081E090E09A83898389819A810F905D
S1131E000F90CF91DF9108951F920F920FB60F920A
S1131E1000905B000F9211248F939F93AF93BF9315
S1131E20EF93FF93DF93CF93CDB7DEB780918A0111
S1131E308823D9F080918A01815080938A01A6EC8D
S1131E40B0E080918B01882F90E0FC01EE56FE4FAC
S1131E5080818C9380918B018F5F80938B01809123
S1131E608B01803411F410928B01CF91DF91FF919B
S1131E70EF91BF91AF919F918F910F9000925B0072
S1131E800F900FBE0F901F9018951F920F920FB6D0
S1131E900F9200905B000F9211242F938F939F93C6
S1131EA0EF93FF93DF93CF930F92CDB7DEB7E0ECC0
S1131EB0F0E0808189838981882F90E08C71907013
S1131EC00097D9F480918C01882F90E0E6ECF0E043
S1131ED02081FC01EE52FE4F208380918C018F5FA4
S1131EE080938C0180918C01803411F410928C01C8
S1131EF080918D018F5F80938D010F90CF91DF9141
S1131F00FF91EF919F918F912F910F9000925B0021
S1131F100F900FBE0F901F9018951F920F920FB63F
S1131F200F9200905B000F9211248F939F93AF93B5
S1131F30BF93EF93FF93DF93CF93CDB7DEB7809139
S1131F408E018823D9F080918E01815080938E0177
S1131F50AEECB0E080918F01882F90E0FC01EE5E42
S1131F60FD4F80818C9380918F018F5F80938F01CF
S1131F7080918F01803411F410928F01CF91DF9101
S1131F80FF91EF91BF91AF919F918F910F9000922C
S1131F905B000F900FBE0F901F9018951F920F9229
S1131FA00FB60F9200905B000F9211242F938F9322
S1131FB09F93EF93FF93DF93CF930F92CDB7DEB749
S1131FC0E8ECF0E0808189838981882F90E08C712E
S1131FD090700097D9F480919001882F90E0EEECF6
S1131FE0F0E02081FC01EE5AFD4F208380919001A6
S1131FF08F5F8093900180919001803411F410924E
S11320009001809191018F5F809391010F90CF9106
S1132010DF91FF91EF919F918F912F910F900092FB
S11320205B000F900FBE0F901F901895EF92FF92D8
S11320300F931F93DF93CF93CDB7DEB7A6970FB659
S1132040F894DEBF0FBECDBF18A21F8E81E08D8F26
S11320508EE590E09AA389A38BE294E09CA38BA3E2
S11320601EA21DA249A15AA16BA17CA18DA19EA172
S113207011D88D8D882F90E081309105D1F78F8D07
S113208088A367C188A1482F50E088A1882F90E0D9
S1132090880F991F9C01220F331F220F331F820FB9
S11320A0931FFC01E45FFE4F108188A1882F90E00C
S11320B0880F991F9C01220F331F220F331F820F99
S11320C0931FFC01E35FFE4F008188A1882F90E0FD
S11320D0880F991F9C01220F331F220F331F820F79
S11320E0931FFC01E25FFE4FA081B181CA01880FFA
S11320F0991F9C01220F331F220F331F820F931F3E
S1132100FC01EA5FFE4F40815181628173818481C9
S11321109581212F7D010E94C9058E8F88A1882376
S113212009F414C188A1813009F410C188A1823056
S113213009F40CC188A1833009F408C188A1843052
S113214009F0F3C08DE290E062E340E050E064D92E
S113215086E990E062E340E050E00E946F0380E093
S113216090E0AAE7B3E4898F9A8FAB8FBC8F698D17
S11321707A8D8B8D9C8D20E030E44CE155E4A1D226
S1132180DC01CB018D8B9E8BAF8BB88F6D897E89E3
S11321908F89988D20E030E040E85FE344D18823C4
S11321A02CF481E090E09C8B8B8B3BC06D897E8905
S11321B08F89988D20E03FEF4FE757E47ED21816C1
S11321C03CF5698D7A8D8B8D9C8D20E030E040E26A
S11321D051E477D2DC01CB01BC01CD0190D1DC010B
S11321E0CB019C8B8B8B0FC08AEF90E09A8B898BF1
S11321F089899A890197F1F79A8B898B8B899C89B4
S113220001979C8B8B8B8B899C89009769F713C0F2
S11322106D897E898F89988D72D1DC01CB019C8B6D
S11322208B8B8B899C89988B8F878F859889019755
S1132230F1F7988B8F878AE69FEF62E340E050E0E6
S11322400E946F0380E090E0AAE7B3E48B879C8749
S1132250AD87BE876B857C858D859E8520E030E4C7
S11322604CE155E42ED2DC01CB018F839887A987FA
S1132270BA876F81788589859A8520E030E040E8C7
S11322805FE3D1D088232CF481E090E09E838D839A
S11322903BC06F81788589859A8520E03FEF4FE7C1
S11322A057E40BD218163CF56B857C858D859E858D
S11322B020E030E040E251E404D2DC01CB01BC0177
S11322C0CD011DD1DC01CB019E838D830FC08AEF2C
S11322D090E09C838B838B819C810197F1F79C8395
S11322E08B838D819E8101979E838D838D819E81B9
S11322F0009769F713C06F81788589859A85FFD027
S1132300DC01CB019E838D838D819E819A83898399
S113231089819A810197F1F79A83898384EC9FEFED
S113232062E340E050E078D811C088A1853071F4B0
S11323308AE090E062E340E050E06ED884E190E00F
S113234062E340E050E00E946F03FFCF88A18F5FFB
S113235088A388A1863008F495CE8BCE5058BB272D
S1132360AA270ED070C161D130F066D120F031F4CB
S11323709F3F11F41EF456C10EF4E095E7FB4CC1E7
S1132380E92F72D180F3BA176207730784079507A0
S113239018F071F49EF58AC10EF4E0950B2EBA2F55
S11323A0A02D0B01B90190010C01CA01A001112457
S11323B0FF27591B99F0593F50F4503E68F11A1603
S11323C0F040A22F232F342F4427585FF3CF469594
S11323D037952795A795F0405395C9F77EF41F16B6
S11323E0BA0B620B730B840BBAF09150A1F0FF0F80
S11323F0BB1F661F771F881FC2F70EC0BA0F621F6C
S1132400731F841F48F4879577956795B795F7955B
S11324109E3F08F0B3CF9395880F08F09927EE0FED
S1132420979587950895D4D008F481E008950CD049
S11324300AC102D140F0F9D030F021F45F3F19F025
S1132440EBC0511134C1EEC00FD198F39923C9F3F5
S11324505523B1F3951B550BBB27AA2762177307A6
S1132460840738F09F5F5F4F220F331F441FAA1F5A
S1132470A9F333D00E2E3AF0E0E830D0915050401A
S1132480E695001CCAF729D0FE2F27D0660F771FC8
S1132490881FBB1F261737074807AB07B0E809F0AA
S11324A0BB0B802DBF01FF2793585F4F2AF09E3F3F
S11324B0510568F0B1C0FBC05F3FECF3983EDCF31C
S11324C0869577956795B795F7959F5FC9F7880FB8
S11324D0911D9695879597F90895E1E0660F771F0A
S11324E0881FBB1F621773078407BA0720F0621B9B
S11324F0730B840BBA0BEE1F88F7E0950895BCD0DC
S113250088F09F5790F0B92F9927B751A0F0D1F0D8
S1132510660F771F881F991F1AF0BA95C9F712C062
S1132520B13081F0C3D0B1E00895C0C0672F782FD7
S11325308827B85F39F0B93FCCF3869577956795CE
S1132540B395D9F73EF490958095709561957F4F3A
S11325508F4F9F4F0895E89409C097FB3EF49095E0
S11325608095709561957F4F8F4F9F4F9923A9F068
S1132570F92F96E9BB279395F695879577956795F7
S1132580B795F111F8CFFAF4BB0F11F460FF1BC03B
S11325906F5F7F4F8F4F9F4F16C0882311F096E9CE
S11325A011C0772321F09EE8872F762F05C066237C
S11325B071F096E8862F70E060E02AF09A95660F35
S11325C0771F881FDAF7880F9695879597F90895EE
S11325D0990F0008550FAA0BE0E8FEEF1616170630
S11325E0E807F907C0F012161306E407F50798F098
S11325F0621B730B840B950B39F40A2661F0232BB1
S1132600242B252B21F408950A2609F4A140A6952C
S11326108FEF811D811D089597F99F6780E870E011
S113262060E008959FEF80EC089500240A94161644
S1132630170618060906089500240A9412161306AC
S1132640140605060895092E0394000C11F488233A
S113265052F0BB0F40F4BF2B11F460FF04C06F5F56
S11326607F4F8F4F9F4F089557FD9058440F551F2C
S113267059F05F3F71F04795880F97FB991F61F000
S11326809F3F79F087950895121613061406551F77
S1132690F2CF4695F1DF08C0161617061806991FE3
S11326A0F1CF86957105610508940895E894BB27D8
S11326B066277727CB0197F908958ADF08F48FEF0F
S11326C008950BD0C0CFB1DF28F0B6DF18F0952302
S11326D009F0A2CFA7CF1124EACFC6DFA0F3959FBC
S11326E0D1F3950F50E0551F629FF001729FBB27F5
S11326F0F00DB11D639FAA27F00DB11DAA1F649FA1
S11327006627B00DA11D661F829F2227B00DA11D53
S1132710621F739FB00DA11D621F839FA00D611DD9
S1132720221F749F3327A00D611D231F849F600DFA
S1132730211D822F762F6A2F11249F5750408AF033
S1132740E1F088234AF0EE0FFF1FBB1F661F771FBF
S1132750881F91505040A9F79E3F510570F05CCFFF
S1132760A6CF5F3FECF3983EDCF3869577956795AB
S1132770B795F795E7959F5FC1F7FE2B880F911DDD
S11327809695879597F908950F931F93CF93DF93A9
S1132790689F8001699F100D789F100D1124C80156
S11327A00DD0EC01009721F060E070E0A8010BD19E
S11327B0CE01DF91CF911F910F910895CF93DF93B5
S11327C0BC018230910510F462E070E0A0919E0299
S11327D0B0919F02ED01E0E0F0E040E050E021C064
S11327E0888199818617970769F48A819B8130973C
S11327F019F09383828304C090939F0280939E0276
S1132800FE0134C06817790738F44115510519F0F1
S11328108417950708F4AC01FE018A819B819C0111
S1132820E9012097E9F641155105A9F1CA01861B72
S1132830970B049708F4BA01E0E0F0E02AC08D9108
S11328409C91119784179507F9F46417750781F41F
S113285012968D919C911397309719F093838283EC
S113286004C090939F0280939E02FD0132964FC054
S1132870CA01861B970BFD01E80FF91F6193719341
S113288002978D939C9343C0FD01828193819C01A7
S1132890D9011097A1F680919C0290919D02892BF9
S11328A041F4809102019091030190939D028093E1
S11328B09C0240910401509105014115510541F4D8
S11328C04DB75EB78091000190910101481B590BEF
S11328D020919C0230919D0224173507B0F4CA015F
S11328E0821B930B8617970780F0AB014E5F5F4FF7
S11328F08417950750F0420F531F50939D02409345
S11329009C02F9016193719302C0E0E0F0E0CF0111
S1132910DF91CF910895CF93DF93009709F450C0CE
S1132920EC0122971B821A82A0919E02B0919F0211
S1132930109709F140E050E0AC17BD0708F1BB83E4
S1132940AA83FE0121913191E20FF31FAE17BF0755
S113295079F48D919C911197280F391F2E5F3F4F69
S11329603983288312968D919C9113979B838A8334
S11329704115510571F4D0939F02C0939E0220C06B
S113298012968D919C911397AD01009711F0DC0183
S1132990D3CFFA01D383C28321913191E20FF31F84
S11329A0CE17DF0769F488819981280F391F2E5FBC
S11329B03F4FFA01318320838A819B8193838283F1
S11329C0DF91CF910895DC0101C06D9341505040D7
S10B29D0E0F70895F894FFCF2D
S11329D82000A002000058022B040000FA010000A5
S11329E852034B050000FA010000140578050000A5
S11329F8FA0100004C04AE060000FA010000C2010E
S1132A08AE060000FA010000C80008070000320101
S1052A180000B8
S9030000FC
