:1000000049C0000065C0000063C0000061C000007E
:100010005FC000005DC000005BC0000059C0000070
:1000200057C0000055C0000053C0000051C0000080
:100030000C941E0E4DC000004BC0000049C00000D3
:1000400047C0000045C0000044C0000041C000009F
:100050003FC000000C948E0E3BC000000C944D0E6F
:1000600037C0000035C0000033C0000031C00000C0
:100070002FC000002DC000002BC0000029C00000D0
:100080000C94170F25C000000C94D60E21C0000060
:100090001FC0000011241FBECFEFD0E1DEBFCDBFD7
:1000A00011E0A0E0B1E0EAE3F5E200E00BBF02C03E
:1000B00007900D92AA31B107D9F712E0AAE1B1E099
:1000C00001C01D92A237B107E1F740D50C949B12F5
:1000D00097CF1F920F920FB60F9200905B000F9276
:1000E00011242F933F934F935F938F939F93AF93DD
:1000F000BF93EF93FF93DF93CF9300D000D0CDB7A2
:10010000DEB7EDEEF0E080818C831B829CC0EDEECB
:10011000F0E08B818295807F8083EEEEF0E080813D
:10012000829586958770882F90E0817090708823E3
:1001300009F46EC0EFEEF0E080E88083AEEEB0E050
:10014000EEEEF0E080818F7D8C93E2EFF0E0808135
:10015000829586958770282FE3EFF0E08081882FC5
:1001600090E0880F991F880F991F880F991F822B85
:100170008A8319822AC08A81282F30E081E090E0AA
:10018000821B930B880F991F909581959F4FFC01BF
:10019000E65EFE4F408151818A81882F90E0019771
:1001A000FC01E25DFE4F8081282F30E08981882F9D
:1001B00090E0820F931FDA01A80FB91FEAEFF0E079
:1001C00080818C9389818F5F89838981883098F2BF
:1001D0008A81882F90E00197FC01E25DFE4F8081CB
:1001E0008F5F80838081853041F48A81882F90E001
:1001F0000197FC01E25DFE4F10828A81882F90E01A
:100200000197FC01EE5BFE4F80818F5F80831FC0F2
:10021000EEEEF0E080818295869586958370882F3A
:1002200090E081709070882359F0EFEEF0E010823A
:10023000AEEEB0E0EEEEF0E080818F7B8C9307C0F5
:100240008B818F5F8B838B818F3008F460CFEDEED5
:10025000F0E08C818083AAEDB0E0EAEDF0E08081EF
:100260008C930F900F900F900F90CF91DF91FF9193
:10027000EF91BF91AF919F918F915F914F913F917E
:100280002F910F9000925B000F900FBE0F901F9068
:100290001895DF93CF9300D0CDB7DEB7E8EDF0E04F
:1002A00081E080831A8232C0EDEEF0E08A8182958F
:1002B000807F8083EEEEF0E01082EFEEF0E01082BF
:1002C000E3EFF0E01082E2EFF0E01082E1EFF0E027
:1002D0001082E0EFF0E01082E7EFF0E01082E6EF4E
:1002E000F0E01082E5EFF0E01082E4EFF0E0108241
:1002F000198206C0EAEFF0E0108289818F5F89835E
:1003000089818830B8F38A818F5F8A838A818F30B0
:1003100058F2E8EDF0E082E08083E2EEF0E081E088
:100320008083E3EEF0E088E08083E4EEF0E08EE5A9
:100330008083E5EEF0E01082EBEDF0E080EB80836F
:10034000EFEDF0E08FE78083EEEDF0E08FEF80835C
:1003500078940F900F90CF91DF910895DF93CF9312
:1003600000D000D00F92CDB7DEB79C838B83EDEE2B
:10037000F0E080818983E9EDF0E0808182958F70E3
:10038000882F90E0817090708823A9F7E9EDF0E064
:100390008081869586958695882F90E081709070F3
:1003A000882349F71A823FC0EDEEF0E08A818295FA
:1003B000807F8083EFEEF0E0808182958695869540
:1003C0008370882369F5EFEEF0E08FE08083E3EF40
:1003D000F0E08B819C819070969587959695879596
:1003E000969587958083E2EFF0E08B818295880F68
:1003F000807E8083E6EFF0E080EE8083E7EFF0E040
:100400008FEF8083AFEEB0E0EFEEF0E080818068A8
:100410008C93EDEEF0E08981808381E08D830CC0C8
:100420008A818F5F8A838A818F3008F4BDCFEDEE99
:10043000F0E0898180831D828D810F900F900F9055
:100440000F900F90CF91DF9108950F931F93DF933B
:10045000CF9300D0CDB7DEB78A831BDF198236C0B9
:100460008981882F90E0019679DF8981882F90E03B
:10047000880F991F8C01065E1E4F85E090E061E0B9
:1004800070E00E947511F801918380838981482F63
:1004900050E08981282F30E08981882F90E0FC018D
:1004A000EE5BFE4F1082FC01EE5BFE4F8081F90196
:1004B000E85CFE4F8083F901E85CFE4F8081FA0121
:1004C000E25DFE4F808389818F5F898399818A8174
:1004D000981730F20F900F90CF91DF911F910F91ED
:1004E0000895DF93CF9300D000D0CDB7DEB79B83C4
:1004F0008A836C838C81882F90E00197FC01EE5BEE
:10050000FE4F80818823B1F3198230C08981282F62
:1005100030E08A819B81DC01A20FB31F8C81282FE0
:1005200030E081E090E0821B930B880F991F90953B
:1005300081959F4FFC01E65EFE4F408151818C8189
:10054000882F90E00197FC01E85CFE4F8081282F06
:1005500030E08981882F90E0820F931FFA01E80F25
:10056000F91F80818C9389818F5F8983898188308D
:1005700068F28C81882F90E00197FC01E85CFE4FC7
:1005800080818F5F80838081853041F48C81882FCA
:1005900090E00197FC01E85CFE4F10828C81882F6F
:1005A00090E09C0121503040F901EE5BFE4F8081CC
:1005B0008150F901EE5BFE4F808380E00F900F9039
:1005C0000F900F90CF91DF910895DF93CF93CDB728
:1005D000DEB727970FB6F894DEBF0FBECDBF9D8361
:1005E0008C836E83E9EDF0E0808182958F70882F97
:1005F00090E0817090708823A9F7E9EDF0E08081A8
:10060000869586958695882F90E0817090708823D6
:1006100049F7EDEEF0E0808189831A8212C0EDEE99
:10062000F0E08A818295807F8083EFEEF0E0808128
:100630008295869586958370882331F08A818F5FB5
:100640008A838A818F3058F38A818F3019F48FEF33
:100650008F8332C0E2EFF0E08E818295880F807E3A
:100660008083E3EFF0E08E81869586958695808382
:10067000EFEEF0E088E080831B820FC0AAEFB0E0CD
:100680008B81282F30E08C819D81FC01E20FF31FCC
:1006900080818C938B818F5F8B838B81883070F30B
:1006A000AFEEB0E0EFEEF0E0808180648C93EDEE91
:1006B000F0E0898180831F828F8127960FB6F8949E
:1006C000DEBF0FBECDBFCF91DF910895DF93CF93F3
:1006D000CDB7DEB780916A020E942E0D813061F0A5
:1006E00080916B020E942E0D813031F080916C025E
:1006F0000E942E0D813021F4E4E3F0E081E080835C
:1007000080E0CF91DF910895DF93CF93CDB7DEB72F
:100710002F970FB6F894DEBF0FBECDBF80916A024F
:100720000E942E0D813069F080916B020E942E0D87
:10073000813039F080916C020E942E0D813009F0D9
:100740008DC0E4E3F0E083E0808380E09DD280917F
:100750006A020E942E0D8130D1F380916B020E94BB
:100760002E0D8130A1F380916C020E942E0D8130FC
:1007700071F380E090E0A8ECB2E48B879C87AD87B2
:10078000BE876B857C858D859E8520E030E44CE1BD
:1007900055E40E941211DC01CB018F839887A98751
:1007A000BA876F81788589859A8520E030E040E8B6
:1007B0005FE30E94C40F88232CF481E090E09E83C5
:1007C0008D833FC06F81788589859A8520E03FEFD2
:1007D0004FE757E40E940E1118164CF56B857C8587
:1007E0008D859E8520E030E040E251E40E941211A8
:1007F000DC01CB01BC01CD010E943010DC01CB013A
:100800009E838D830FC08AEF90E09C838B838B81C6
:100810009C810197F1F79C838B838D819E81019749
:100820009E838D838D819E81009769F714C06F81AF
:10083000788589859A850E943010DC01CB019E83E2
:100840008D838D819E819A83898389819A81019785
:10085000F1F79A83898382E08F8701C01F868F8595
:100860002F960FB6F894DEBF0FBECDBFCF91DF91AC
:100870000895EF92FF920F931F93DF93CF93CDB71D
:10088000DEB7A6970FB6F894DEBF0FBECDBF18A295
:100890001F8E81E08D8F1AA219A284EF91E09CA394
:1008A0008BA31EA21DA249A15AA16BA17CA18DA15F
:1008B0009EA177D680E090E0A8E4B2E4898F9A8F79
:1008C000AB8FBC8F698D7A8D8B8D9C8D20E030E451
:1008D0004CE155E40E941211DC01CB018D8B9E8B03
:1008E000AF8BB88F6D897E898F89988D20E030E03D
:1008F00040E85FE30E94C40F88232CF481E090E07D
:100900009C8B8B8B3FC06D897E898F89988D20E071
:100910003FEF4FE757E40E940E1118164CF5698D12
:100920007A8D8B8D9C8D20E030E040E251E40E9476
:100930001211DC01CB01BC01CD010E943010DC01A1
:10094000CB019C8B8B8B0FC08AEF90E09A8B898BAD
:1009500089899A890197F1F79A8B898B8B899C8970
:1009600001979C8B8B8B8B899C89009769F714C0AE
:100970006D897E898F89988D0E943010DC01CB01B2
:100980009C8B8B8B8B899C89988B8F878F85988983
:100990000197F1F7988B8F87E4E3F0E010828D8D5B
:1009A000882F90E08130910509F084CF8F8D88A346
:1009B000C8C088A1482F50E088A1882F90E0880FF8
:1009C000991F9C01220F331F220F331F820F931F89
:1009D000FC01E45FFE4F108188A1882F90E0880F12
:1009E000991F9C01220F331F220F331F820F931F69
:1009F000FC01E35FFE4F008188A1882F90E0880F03
:100A0000991F9C01220F331F220F331F820F931F48
:100A1000FC01E25FFE4FA081B181CA01880F991FDE
:100A20009C01220F331F220F331F820F931FFC01E3
:100A3000EA5FFE4F4081518162817381848195819B
:100A4000212F7D0147D28E8F8E8D813009F076C0A7
:100A5000E4E3F0E08FEF808380E090E4ACE9B5E47C
:100A60008B879C87AD87BE876B857C858D859E85B2
:100A700020E030E44CE155E40E941211DC01CB018E
:100A80008F839887A987BA876F81788589859A85AA
:100A900020E030E040E85FE30E94C40F88232CF49C
:100AA00081E090E09E838D833FC06F81788589854A
:100AB0009A8520E03FEF4FE757E40E940E11181689
:100AC0004CF56B857C858D859E8520E030E040E28D
:100AD00051E40E941211DC01CB01BC01CD010E9446
:100AE0003010DC01CB019E838D830FC08AEF90E034
:100AF0009C838B838B819C810197F1F79C838B83F3
:100B00008D819E8101979E838D838D819E8100972B
:100B100069F714C06F81788589859A850E943010A5
:100B2000DC01CB019E838D838D819E819A83898395
:100B300089819A810197F1F79A83898388A18F5FD0
:100B400088A388A1823008F434CFB4CEDF93CF934A
:100B5000CDB7DEB72E970FB6F894DEBF0FBECDBF70
:100B600088EE93E00E94D80DE3E3F0E08FEF8083FE
:100B700082E290E067E0C8D680936C0282E290E067
:100B800066E0C2D680936B0282E290E064E0BCD65D
:100B900080936A0284E059DC88EE93E00E94D80DCD
:100BA00080E090E0AAE7B4E48B879C87AD87BE879E
:100BB0006B857C858D859E8520E030E44CE155E495
:100BC0000E941211DC01CB018F839887A987BA8715
:100BD0006F81788589859A8520E030E040E85FE381
:100BE0000E94C40F88232CF481E090E09E838D83C3
:100BF0003FC06F81788589859A8520E03FEF4FE778
:100C000057E40E940E1118164CF56B857C858D8576
:100C10009E8520E030E040E251E40E941211DC01A8
:100C2000CB01BC01CD010E943010DC01CB019E83C1
:100C30008D830FC08AEF90E09C838B838B819C8196
:100C40000197F1F79C838B838D819E8101979E8311
:100C50008D838D819E81009769F714C06F8178859F
:100C600089859A850E943010DC01CB019E838D839B
:100C70008D819E819A83898389819A810197F1F779
:100C80009A838983F6DDFECFDF93CF93CDB7DEB7AE
:100C9000A6970FB6F894DEBF0FBECDBF8DA38DA172
:100CA000882319F483E58D8F7BC08DA1813019F4E1
:100CB00083E78D8F75C081E08EA302C180E090E054
:100CC000A8E4B2E4898F9A8FAB8FBC8F698D7A8D3F
:100CD0008B8D9C8D20E030E44CE155E40E94121194
:100CE000DC01CB018D8B9E8BAF8BB88F6D897E899C
:100CF0008F89988D20E030E040E85FE30E94C40FC8
:100D000088232CF481E090E09C8B8B8B3FC06D8915
:100D10007E898F89988D20E03FEF4FE757E40E944E
:100D20000E1118164CF5698D7A8D8B8D9C8D20E0F7
:100D300030E040E251E40E941211DC01CB01BC0121
:100D4000CD010E943010DC01CB019C8B8B8B0FC03E
:100D50008AEF90E09A8B898B89899A890197F1F7BC
:100D60009A8B898B8B899C8901979C8B8B8B8B8928
:100D70009C89009769F714C06D897E898F89988D49
:100D80000E943010DC01CB019C8B8B8B8B899C8962
:100D9000988B8F878F8598890197F1F7988B8F872C
:100DA000CE014D9663EC11DC882309F087CF80E5F6
:100DB0008D8F72C080E090E0A8E4B2E48B879C87BE
:100DC000AD87BE876B857C858D859E8520E030E470
:100DD0004CE155E40E941211DC01CB018F8398870E
:100DE000A987BA876F81788589859A8520E030E068
:100DF00040E85FE30E94C40F88232CF481E090E078
:100E00009E838D833FC06F81788589859A8520E098
:100E10003FEF4FE757E40E940E1118164CF56B8513
:100E20007C858D859E8520E030E040E251E40E9483
:100E30001211DC01CB01BC01CD010E943010DC019C
:100E4000CB019E838D830FC08AEF90E09C838B83C0
:100E50008B819C810197F1F79C838B838D819E818F
:100E600001979E838D838D819E81009769F714C0C1
:100E70006F81788589859A850E943010DC01CB01CD
:100E80009E838D838D819E819A83898389819A81B6
:100E90000197F1F79A838983CE014D9663EC95DB38
:100EA000882309F087CFCE014D9661E01ADB8D8D46
:100EB0008D3409F4F4CE8D8D823509F4F0CE1EA266
:100EC0008EA1A6960FB6F894DEBF0FBECDBFCF9110
:100ED000DF910895EF92FF920F931F93DF93CF93CB
:100EE000CDB7DEB7CA55D0400FB6F894DEBF0FBEFF
:100EF000CDBFFE01E05BFF4F40835183628373836C
:100F000084839583FE01EA5AFF4F2083FE01E95A4C
:100F1000FF4F0083FE01E85AFF4FF182E082FE019D
:100F2000E85BFF4F86E58083DE01A85BBF4FFE01D3
:100F3000EA5AFF4F808111968C93119784C0FE016D
:100F4000ED5BFF4F80E090E0A8E4B2E48083918302
:100F5000A283B3838E01015C1F4FFE01ED5BFF4F47
:100F6000608171818281938120E030E44CE155E41D
:100F70000E941211DC01CB01F80180839183A283CE
:100F8000B383FE01FF96608171818281938120E0AD
:100F900030E040E85FE3F8D788232CF481E090E06C
:100FA0009EAF8DAF46C0FE01FF9660817181828148
:100FB000938120E03FEF4FE757E40E940E1118168F
:100FC00064F5FE01ED5BFF4F608171818281938149
:100FD00020E030E040E251E40E941211DC01CB013C
:100FE000BC01CD010E943010DC01CB019EAF8DAF62
:100FF0000FC08AEF90E09CAF8BAF8BAD9CAD01979B
:10100000F1F79CAF8BAF8DAD9EAD01979EAF8DAFCD
:101010008DAD9EAD009769F716C0FE01FF96608109
:101020007181828193810E943010DC01CB019EAFDF
:101030008DAF8DAD9EAD9AAF89AF89AD9AAD019759
:10104000F1F79AAF89AFCE01885B9F4F63ECBDDAB1
:10105000882309F074CFFE01E85BFF4F87E48083AB
:10106000FE01E05BFF4F80819181892F990F990BE1
:10107000FE01E85BFF4F8183FE01E05BFF4F808153
:101080009181FE01E85BFF4F8283FE01E05BFF4F31
:1010900082819381892F990F990BFE01E85BFF4FA5
:1010A0008383FE01E05BFF4F82819381FE01E85B59
:1010B000FF4F8483FE01E85BFF4F1582FE01E95A72
:1010C000FF4F8081FE01E85BFF4F86836FC080E0A9
:1010D00090E0A8E4B2E48DAB9EABAFABB8AF6DA926
:1010E0007EA98FA998AD20E030E44CE155E40E9440
:1010F0001211DC01CB0189AB9AABABABBCAB69A9DC
:101100007AA98BA99CA920E030E040E85FE33CD7B6
:1011100088232CF481E090E098AB8FA73DC069A9AB
:101120007AA98BA99CA920E03FEF4FE757E40E94E2
:101130000E11181644F56DA97EA98FA998AD20E06F
:1011400030E040E251E40E941211DC01CB01BC010D
:10115000CD0186D7DC01CB0198AB8FA70FC08AEFFA
:1011600090E09EA78DA78DA59EA50197F1F79EA75C
:101170008DA78FA598A9019798AB8FA78FA598A940
:10118000009769F713C069A97AA98BA99CA968D7A8
:10119000DC01CB0198AB8FA78FA598A99CA78BA743
:1011A0008BA59CA50197F1F79CA78BA7CE01885B27
:1011B0009F4F63EC0ADA882309F089CFFE01E85BD0
:1011C000FF4F80E580836DC080E090E0A8E4B2E44A
:1011D0008FA398A7A9A7BAA76FA178A589A59AA553
:1011E00020E030E44CE155E40E941211DC01CB0117
:1011F0008BA39CA3ADA3BEA36BA17CA18DA19EA13B
:1012000020E030E040E85FE3BFD688232CF481E0A3
:1012100090E09AA389A33BC06BA17CA18DA19EA164
:1012200020E03FEF4FE757E4F9D718163CF56FA1E0
:1012300078A589A59AA520E030E040E251E4F2D7F4
:10124000DC01CB01BC01CD010BD7DC01CB019AA3A2
:1012500089A30FC08AEF90E098A38F8F8F8D98A1FC
:101260000197F1F798A38F8F89A19AA101979AA36B
:1012700089A389A19AA1009769F713C06BA17CA1EA
:101280008DA19EA1EDD6DC01CB019AA389A389A1F2
:101290009AA19E8F8D8F8D8D9E8D0197F1F79E8FD8
:1012A0008D8FCE01885B9F4F63EC8FD9882309F027
:1012B0008BCFCE01885B9F4F61E013D9FE01E85BC5
:1012C000FF4F8081893421F46B961FAE6B9758C114
:1012D000FE01E85BFF4F8081833529F4F2E06B96D5
:1012E000FFAF6B974DC1FE01E85BFF4F80818534F6
:1012F00029F481E06B968FAF6B9742C180E090E05C
:10130000A8E4B2E4898F9A8FAB8FBC8F698D7A8DF8
:101310008B8D9C8D20E030E44CE155E483D7DC01DB
:10132000CB018D8B9E8BAF8BB88F6D897E898F891A
:10133000988D20E030E040E85FE326D688232CF447
:1013400081E090E09C8B8B8B3BC06D897E898F897F
:10135000988D20E03FEF4FE757E460D718163CF533
:10136000698D7A8D8B8D9C8D20E030E040E251E4D8
:1013700059D7DC01CB01BC01CD0172D6DC01CB0118
:101380009C8B8B8B0FC08AEF90E09A8B898B89891D
:101390009A890197F1F79A8B898B8B899C890197A0
:1013A0009C8B8B8B8B899C89009769F713C06D8907
:1013B0007E898F89988D54D6DC01CB019C8B8B8BD9
:1013C0008B899C89988B8F878F8598890197F1F7F6
:1013D000988B8F87FE01E85AFF4F8081918100979B
:1013E00009F4ECCEFE01E85AFF4F0190F081E02DA8
:1013F0000995FE01E95BFF4F8083FE01E95BFF4F2A
:101400008081813029F4E1E06B96EFAF6B97B8C033
:10141000FE01E95BFF4F8081823009F0CFCEFE01F3
:10142000E85BFF4F87E48083FE01E05BFF4F808134
:101430009181892F990F990BFE01E85BFF4F818302
:10144000FE01E05BFF4F80819181FE01E85BFF4F71
:101450008283FE01E05BFF4F82819381892F990F88
:10146000990BFE01E85BFF4F8383FE01E05BFF4FBA
:1014700082819381FE01E85BFF4F8483FE01E85B7C
:10148000FF4F1582FE01E95AFF4F8081FE01E85BA4
:10149000FF4F86836CC080E090E0A8E4B2E48B87C5
:1014A0009C87AD87BE876B857C858D859E8520E07A
:1014B00030E44CE155E4B6D6DC01CB018F8398874C
:1014C000A987BA876F81788589859A8520E030E081
:1014D00040E85FE359D588232CF481E090E09E83B7
:1014E0008D833BC06F81788589859A8520E03FEFA9
:1014F0004FE757E493D618163CF56B857C858D85B0
:101500009E8520E030E040E251E48CD6DC01CB0146
:10151000BC01CD01A5D5DC01CB019E838D830FC01D
:101520008AEF90E09C838B838B819C810197F1F7FC
:101530009C838B838D819E8101979E838D838D817A
:101540009E81009769F713C06F81788589859A8598
:1015500087D5DC01CB019E838D838D819E819A830B
:10156000898389819A810197F1F79A838983CE01D2
:10157000885B9F4F63EC29D8882309F08CCF1ECE5F
:101580006B968FAD6B97C65ADF4F0FB6F894DEBFE0
:101590000FBECDBFCF91DF911F910F91FF90EF90C4
:1015A0000895DF93CF93CDB7DEB7E3970FB6F894E6
:1015B000DEBF0FBECDBF4BA75CA76DA77EA78FA7D1
:1015C00098AB89E48D8F8BA59CA5892F990F990BDA
:1015D0008E8F8BA59CA58F8F8DA59EA5892F990F8A
:1015E000990B88A38DA59EA589A31AA28FA598A95A
:1015F0008BA36CC080E090E0A8E4B2E4898F9A8F5E
:10160000AB8FBC8F698D7A8D8B8D9C8D20E030E403
:101610004CE155E407D6DC01CB018D8B9E8BAF8B63
:10162000B88F6D897E898F89988D20E030E040E801
:101630005FE3AAD488232CF481E090E09C8B8B8B11
:101640003BC06D897E898F89988D20E03FEF4FE701
:1016500057E4E4D518163CF5698D7A8D8B8D9C8DF9
:1016600020E030E040E251E4DDD5DC01CB01BC01FB
:10167000CD01F6D4DC01CB019C8B8B8B0FC08AEFA4
:1016800090E09A8B898B89899A890197F1F79A8BD7
:10169000898B8B899C8901979C8B8B8B8B899C89EF
:1016A000009769F713C06D897E898F89988DD8D48A
:1016B000DC01CB019C8B8B8B8B899C89988B8F87D2
:1016C0008F8598890197F1F7988B8F87CE014D967A
:1016D00063EC0E94E502882309F08CCF80E58D8FB2
:1016E0006CC080E090E0A8E4B2E48B879C87AD8773
:1016F000BE876B857C858D859E8520E030E44CE13E
:1017000055E490D5DC01CB018F839887A987BA87F0
:101710006F81788589859A8520E030E040E85FE335
:1017200033D488232CF481E090E09E838D833BC0EA
:101730006F81788589859A8520E03FEF4FE757E4F0
:101740006DD518163CF56B857C858D859E8520E0D2
:1017500030E040E251E466D5DC01CB01BC01CD01B3
:101760007FD4DC01CB019E838D830FC08AEF90E094
:101770009C838B838B819C810197F1F79C838B8366
:101780008D819E8101979E838D838D819E8100979F
:1017900069F713C06F81788589859A8561D4DC01EA
:1017A000CB019E838D838D819E819A8389838981DC
:1017B0009A810197F1F79A838983CE014D9663EC64
:1017C0000E94E502882309F08CCFCE014D9661E09E
:1017D0000E9471028E8D882F90E0382F22278F8DE6
:1017E000882F90E0822B932B9EA38DA388A1882F16
:1017F00090E0382F222789A1882F90E0822B932B0D
:1018000098A78FA38AA1882F90E0382F22278BA139
:10181000882F90E0822B932B9AA789A72DA13EA118
:101820008BA59CA5A901481B590BCA01AA2797FDA6
:10183000A095BA2FBC01CD0141D4DC01CB01BF770B
:101840001BAABC01CD0120E030E040EA50E4E6D420
:10185000181614F451E05BAB81E09BA9892788231B
:1018600009F4AFCE2FA138A58DA59EA5A901481BCF
:10187000590BCA01AA2797FDA095BA2FBC01CD012B
:101880001DD4DC01CB01BF771AAABC01CD0120E039
:1018900030E040EA50E4C2D4181614F451E05AABD8
:1018A00081E09AA98927882309F48BCE29A53AA536
:1018B0008FA598A9A901481B590BCA01AA2797FD12
:1018C000A095BA2FBC01CD01F9D3DC01CB01BF77C4
:1018D00019AABC01CD0120E030E040EA50E49ED4DA
:1018E000181614F451E059AB81E099A9892788238F
:1018F00009F467CE80E0E3960FB6F894DEBF0FBE22
:10190000CDBFCF91DF9108950F931F93DF93CF93B6
:1019100000D000D00F92CDB7DEB79B838A836C8353
:1019200080914C018A3010F01D828DC080914C0155
:10193000082F10E086E090E0F2D49C01C801880FE7
:10194000991FFC01E25BFE4F3183208380914C01A3
:10195000882F90E0880F991FFC01E25BFE4F808189
:101960009181009719F48FEF8D836DC080914C01A8
:10197000882F90E0880F991FFC01E25BFE4F0190D9
:10198000F081E02D8A819B819183808380914C013D
:10199000882F90E0880F991FFC01E25BFE4F0190B9
:1019A000F081E02D8C818283198216C080914C01D8
:1019B000882F90E0880F991FFC01E25BFE4F208189
:1019C00031818981882F90E0820F931FFC0133962B
:1019D000108289818F5F89838981833038F38A817E
:1019E0009B81DC0111978A819B81FC013197808169
:1019F000482F8C81282F30E081E090E002C0880FD2
:101A0000991F2A95E2F7809584238C93EA81FB81C4
:101A10008081482F8C81282F30E081E090E0022ED9
:101A200002C0880F991F0A94E2F7842BEA81FB8198
:101A3000808380914C01898380914C018F5F8093DA
:101A40004C0189818D838D810F900F900F900F90A5
:101A50000F90CF91DF911F910F910895DF93CF9356
:101A600000D0CDB7DEB789838981882F90E0880FB9
:101A7000991FFC01E25BFE4F0190F081E02D238174
:101A80008981882F90E0880F991FFC01E25BFE4F4F
:101A90000190F081E02D8481282B8981882F90E0AE
:101AA000880F991FFC01E25BFE4F0190F081E02D51
:101AB0008581822B1A82882311F481E08A838A81AE
:101AC0000F900F90CF91DF910895DF93CF9300D0C7
:101AD000CDB7DEB78A8319828A81882F90E0880F7C
:101AE000991FFC01E25BFE4F0190F081E02D8081A7
:101AF0009181FC0132978081282F30E08A81882FE4
:101B000090E0880F991FFC01E25BFE4F0190F0818D
:101B1000E02D8281882F90E0A90102C0559547955C
:101B20008A95E2F7CA018170898389810F900F90AD
:101B3000CF91DF910895EF92FF920F931F93DF9360
:101B4000CF930F92CDB7DEB780914D018F5F809319
:101B50004D0180914D01833010F010924D0119829A
:101B60001AC08981882F90E0880F991FFC01E25BE1
:101B7000FE4FE080F18080914D01082F10E08981B7
:101B8000A4DF282FC701800F911FFC01339620830B
:101B900089818F5F898390914C018981891708F32E
:101BA0000F90CF91DF911F910F91FF90EF900895CB
:101BB0000F931F93DF93CF9300D0CDB7DEB79A83F7
:101BC0008983E0E8F0E01082E1E8F0E089E08083DA
:101BD00008E810E089819A81CC01A0E0B0E0BC0166
:101BE000CD016AD29B01AC0160E876E988E19BE413
:101BF000CFD1DC01CB01BC01CD0120E030E040E0E1
:101C00005FE35ED1DC01CB01BC01CD0129D2DC0157
:101C1000CB01F80191838083EFE6F0E082E08083DE
:101C2000AFE5B0E0EFE5F0E0808180688C930F9045
:101C30000F90CF91DF911F910F9108951F920F92F6
:101C40000FB60F9200905B000F9211242F933F93D9
:101C50004F935F936F937F938F939F93AF93BF93B4
:101C6000EF93FF93DF93CF93CDB7DEB764DFCF91D0
:101C7000DF91FF91EF91BF91AF919F918F917F91F4
:101C80006F915F914F913F912F910F9000925B0068
:101C90000F900FBE0F901F9018951F920F920FB6C6
:101CA0000F9200905B000F9211248F939F93AF933C
:101CB000BF93EF93FF93DF93CF93CDB7DEB78091C0
:101CC00062018823D9F08091620181508093620182
:101CD000A6ECB0E080916301882F90E0FC01E6590A
:101CE000FE4F80818C93809163018F5F80936301AD
:101CF00080916301803411F410926301CF91DF91E0
:101D0000FF91EF91BF91AF919F918F910F900092B2
:101D10005B000F900FBE0F901F9018951F920F92AF
:101D20000FB60F9200905B000F9211242F938F93A8
:101D30009F93EF93FF93DF93CF930F92CDB7DEB7CF
:101D4000E0ECF0E0808189838981882F90E08C71BC
:101D500090700097D9F480916401882F90E0E6ECB0
:101D6000F0E02081FC01E655FE4F20838091640164
:101D70008F5F8093640180916401803411F410922C
:101D80006401809165018F5F809365010F90CF9111
:101D9000DF91FF91EF919F918F912F910F90009282
:101DA0005B000F900FBE0F901F9018951F920F921F
:101DB0000FB60F9200905B000F9211248F939F93A8
:101DC000AF93BF93EF93FF93DF93CF93CDB7DEB77E
:101DD000809166018823D9F08091660181508093BB
:101DE0006601AEECB0E080916701882F90E0FC01C5
:101DF000E651FE4F80818C93809167018F5F8093C5
:101E0000670180916701803411F410926701CF91CE
:101E1000DF91FF91EF91BF91AF919F918F910F90C3
:101E200000925B000F900FBE0F901F9018951F92AD
:101E30000F920FB60F9200905B000F9211242F9318
:101E40008F939F93EF93FF93DF93CF930F92CDB731
:101E5000DEB7E8ECF0E0808189838981882F90E00B
:101E60008C7190700097D9F480916801882F90E070
:101E7000EEECF0E02081FC01E65DFD4F20838091D7
:101E800068018F5F8093680180916801803411F44C
:101E900010926801809169018F5F809369010F90B2
:101EA000CF91DF91FF91EF919F918F912F910F90A3
:101EB00000925B000F900FBE0F901F901895505826
:101EC000BB27AA270ED070C161D130F066D120F0B7
:101ED00031F49F3F11F41EF456C10EF4E095E7FB78
:101EE0004CC1E92F72D180F3BA17620773078407D8
:101EF000950718F071F49EF58AC10EF4E0950B2E4B
:101F0000BA2FA02D0B01B90190010C01CA01A0014B
:101F10001124FF27591B99F0593F50F4503E68F1A6
:101F20001A16F040A22F232F342F4427585FF3CFE7
:101F3000469537952795A795F0405395C9F77EF4B8
:101F40001F16BA0B620B730B840BBAF09150A1F001
:101F5000FF0FBB1F661F771F881FC2F70EC0BA0F87
:101F6000621F731F841F48F4879577956795B7950F
:101F7000F7959E3F08F0B3CF9395880F08F0992707
:101F8000EE0F979587950895D4D008F481E00895D1
:101F90000CD00AC102D140F0F9D030F021F45F3FFB
:101FA00019F0EBC0511134C1EEC00FD198F3992351
:101FB000C9F35523B1F3951B550BBB27AA2762170D
:101FC0007307840738F09F5F5F4F220F331F441F52
:101FD000AA1FA9F333D00E2E3AF0E0E830D091508A
:101FE0005040E695001CCAF729D0FE2F27D0660F77
:101FF000771F881FBB1F261737074807AB07B0E8B6
:1020000009F0BB0B802DBF01FF2793585F4F2AF0CB
:102010009E3F510568F0B1C0FBC05F3FECF3983EB6
:10202000DCF3869577956795B795F7959F5FC9F728
:10203000880F911D9695879597F90895E1E0660FB1
:10204000771F881FBB1F621773078407BA0720F02A
:10205000621B730B840BBA0BEE1F88F7E095089593
:10206000BCD088F09F5790F0B92F9927B751A0F0B6
:10207000D1F0660F771F881F991F1AF0BA95C9F71C
:1020800012C0B13081F0C3D0B1E00895C0C0672F55
:10209000782F8827B85F39F0B93FCCF386957795CC
:1020A0006795B395D9F73EF49095809570956195B5
:1020B0007F4F8F4F9F4F0895E89409C097FB3EF4E0
:1020C00090958095709561957F4F8F4F9F4F992385
:1020D000A9F0F92F96E9BB279395F6958795779503
:1020E0006795B795F111F8CFFAF4BB0F11F460FFC3
:1020F0001BC06F5F7F4F8F4F9F4F16C0882311F01B
:1021000096E911C0772321F09EE8872F762F05C02E
:10211000662371F096E8862F70E060E02AF09A95C9
:10212000660F771F881FDAF7880F9695879597F9BE
:102130000895990F0008550FAA0BE0E8FEEF161658
:102140001706E807F907C0F012161306E407F507AB
:1021500098F0621B730B840B950B39F40A2661F01F
:10216000232B242B252B21F408950A2609F4A140C2
:10217000A6958FEF811D811D089597F99F6780E8CF
:1021800070E060E008959FEF80EC089500240A94C9
:102190001616170618060906089500240A94121642
:1021A0001306140605060895092E0394000C11F475
:1021B000882352F0BB0F40F4BF2B11F460FF04C022
:1021C0006F5F7F4F8F4F9F4F089557FD9058440F7B
:1021D000551F59F05F3F71F04795880F97FB991F86
:1021E00061F09F3F79F08795089512161306140643
:1021F000551FF2CF4695F1DF08C0161617061806D0
:10220000991FF1CF86957105610508940895E894AA
:10221000BB2766277727CB0197F908958ADF08F453
:102220008FEF08950BD0C0CFB1DF28F0B6DF18F0E4
:10223000952309F0A2CFA7CF1124EACFC6DFA0F3E0
:10224000959FD1F3950F50E0551F629FF001729F4B
:10225000BB27F00DB11D639FAA27F00DB11DAA1F6A
:10226000649F6627B00DA11D661F829F2227B00DB7
:10227000A11D621F739FB00DA11D621F839FA00D42
:10228000611D221F749F3327A00D611D231F849F92
:10229000600D211D822F762F6A2F11249F575040E9
:1022A0008AF0E1F088234AF0EE0FFF1FBB1F661F84
:1022B000771F881F91505040A9F79E3F510570F03D
:1022C0005CCFA6CF5F3FECF3983EDCF38695779525
:1022D0006795B795F795E7959F5FC1F7FE2B880F38
:1022E000911D9695879597F908950F931F93CF9316
:1022F000DF93689F8001699F100D789F100D112456
:10230000C8010DD0EC01009721F060E070E0A80159
:102310000BD1CE01DF91CF911F910F910895CF93F3
:10232000DF93BC018230910510F462E070E0A0916F
:102330007002B0917102ED01E0E0F0E040E050E0A9
:1023400021C0888199818617970769F48A819B81CA
:10235000309719F09383828304C090937102809325
:102360007002FE0134C06817790738F44115510531
:1023700019F08417950708F4AC01FE018A819B814E
:102380009C01E9012097E9F641155105A9F1CA011F
:10239000861B970B049708F4BA01E0E0F0E02AC02E
:1023A0008D919C91119784179507F9F4641775071F
:1023B00081F412968D919C911397309719F0938325
:1023C000828304C09093710280937002FD01329663
:1023D0004FC0CA01861B970BFD01E80FF91F6193DF
:1023E000719302978D939C9343C0FD0182819381E9
:1023F0009C01D9011097A1F680916E0290916F0215
:10240000892B41F4809102019091030190936F0216
:1024100080936E02409104015091050141155105D0
:1024200041F44DB75EB78091000190910101481BC6
:10243000590B20916E0230916F0224173507B0F4CA
:10244000CA01821B930B8617970780F0AB014E5F82
:102450005F4F8417950750F0420F531F50936F0240
:1024600040936E02F9016193719302C0E0E0F0E0E5
:10247000CF01DF91CF910895CF93DF93009709F4B7
:1024800050C0EC0122971B821A82A0917002B09179
:102490007102109709F140E050E0AC17BD0708F158
:1024A000BB83AA83FE0121913191E20FF31FAE1786
:1024B000BF0779F48D919C911197280F391F2E5FDA
:1024C0003F4F3983288312968D919C9113979B835C
:1024D0008A834115510571F4D0937102C093700243
:1024E00020C012968D919C911397AD01009711F029
:1024F000DC01D3CFFA01D383C28321913191E20F62
:10250000F31FCE17DF0769F488819981280F391FDF
:102510002E5F3F4FFA01318320838A819B81938311
:102520008283DF91CF910895DC0101C06D9341500A
:0A2530005040E0F70895F894FFCF43
:10253A00200072020000F401F40100003201660377
:0A254A000000F401000032FF8403DA
:00000001FF
