:1000000049C0000066C0000064C0000062C000007B
:1000100060C000005EC000005CC000005AC000006C
:1000200058C0000056C0000054C0000052C000007C
:100030000C94491D4EC000004CC000004AC0000096
:1000400048C0000046C00000ECC5000042C00000EF
:1000500040C000000C948C1F3CC000000C944B1F4F
:1000600038C0000036C0000034C0000032C00000BC
:1000700030C000002EC000002CC000002AC00000CC
:100080000C94152026C000000C94D41F22C0000040
:1000900020C0000011241FBECFEFD0E1DEBFCDBFD6
:1000A00014E0A0E0B1E0E6ECF7E500E00BBF02C031
:1000B00007900D92AC37B107D9F718E0ACE7B4E080
:1000C00001C01D92A831B107E1F70E94E8110C941C
:1000D000E12B96CFDF93CF93CDB7DEB7A5970FB6C1
:1000E000F894DEBF0FBECDBF8DA381E48D8F8DA1AF
:1000F000813009F07DC081E08E8F72C080E090E099
:10010000A8E4B2E4898F9A8FAB8FBC8F698D7A8D0A
:100110008B8D9C8D20E030E44CE155E40E94BF279C
:10012000DC01CB018D8B9E8BAF8BB88F6D897E8967
:100130008F89988D20E030E040E85FE30E947126CF
:1001400088232CF481E090E09C8B8B8B3FC06D89E1
:100150007E898F89988D20E03FEF4FE757E40E941A
:10016000BB2718164CF5698D7A8D8B8D9C8D20E000
:1001700030E040E251E40E94BF27DC01CB01BC012A
:10018000CD010E94DD26DC01CB019C8B8B8B0FC047
:100190008AEF90E09A8B898B89899A890197F1F788
:1001A0009A8B898B8B899C8901979C8B8B8B8B89F4
:1001B0009C89009769F714C06D897E898F89988D15
:1001C0000E94DD26DC01CB019C8B8B8B8B899C896B
:1001D000988B8F878F8598890197F1F7988B8F87F8
:1001E000CE014D9664ED99D7882309F087CF7CC066
:1001F0008FEF8E8F72C080E090E0A8E4B2E48B872E
:100200009C87AD87BE876B857C858D859E8520E02C
:1002100030E44CE155E40E94BF27DC01CB018F8321
:100220009887A987BA876F81788589859A8520E024
:1002300030E040E85FE30E94712688232CF481E0DF
:1002400090E09E838D833FC06F81788589859A85F4
:1002500020E03FEF4FE757E40E94BB2718164CF50C
:100260006B857C858D859E8520E030E040E251E401
:100270000E94BF27DC01CB01BC01CD010E94DD261D
:10028000DC01CB019E838D830FC08AEF90E09C83BD
:100290008B838B819C810197F1F79C838B838D816C
:1002A0009E8101979E838D838D819E81009769F742
:1002B00014C06F81788589859A850E94DD26DC01CE
:1002C000CB019E838D838D819E819A8389838981D1
:1002D0009A810197F1F79A838983CE014D9664ED57
:1002E0001CD7882309F087CFA5960FB6F894DEBFF8
:1002F0000FBECDBFCF91DF910895DF93CF93CDB7E0
:10030000DEB7A5970FB6F894DEBF0FBECDBF8DA3A5
:1003100082E48D8F8DA1813009F07DC081E08E8FC8
:1003200072C080E090E0A8E4B2E4898F9A8FAB8F2E
:10033000BC8F698D7A8D8B8D9C8D20E030E44CE1F3
:1003400055E40E94BF27DC01CB018D8B9E8BAF8BC8
:10035000B88F6D897E898F89988D20E030E040E8E4
:100360005FE30E94712688232CF481E090E09C8B4F
:100370008B8B3FC06D897E898F89988D20E03FEF00
:100380004FE757E40E94BB2718164CF5698D7A8D0C
:100390008B8D9C8D20E030E040E251E40E94BF272D
:1003A000DC01CB01BC01CD010E94DD26DC01CB01CB
:1003B0009C8B8B8B0FC08AEF90E09A8B898B8989FD
:1003C0009A890197F1F79A8B898B8B899C89019780
:1003D0009C8B8B8B8B899C89009769F714C06D89E6
:1003E0007E898F89988D0E94DD26DC01CB019C8B54
:1003F0008B8B8B899C89988B8F878F8598890197A8
:10040000F1F7988B8F87CE014D9664ED86D68823C1
:1004100009F087CF7CC08FEF8E8F72C080E090E0B4
:10042000A8E4B2E48B879C87AD87BE876B857C850B
:100430008D859E8520E030E44CE155E40E94BF2785
:10044000DC01CB018F839887A987BA876F81788574
:1004500089859A8520E030E040E85FE30E947126BC
:1004600088232CF481E090E09E838D833FC06F81D0
:10047000788589859A8520E03FEF4FE757E40E9411
:10048000BB2718164CF56B857C858D859E8520E0F5
:1004900030E040E251E40E94BF27DC01CB01BC0107
:1004A000CD010E94DD26DC01CB019E838D830FC030
:1004B0008AEF90E09C838B838B819C810197F1F77D
:1004C0009C838B838D819E8101979E838D838D81FB
:1004D0009E81009769F714C06F81788589859A8518
:1004E0000E94DD26DC01CB019E838D838D819E8160
:1004F0009A83898389819A810197F1F79A83898305
:10050000CE014D9664ED09D6882309F087CFA596D4
:100510000FB6F894DEBF0FBECDBFCF91DF91089527
:10052000DF93CF93CDB7DEB7A5970FB6F894DEBFB4
:100530000FBECDBF8DA383E48D8F8DA1813009F0D7
:100540007DC081E08E8F72C080E090E0A8E4B2E4CC
:10055000898F9A8FAB8FBC8F698D7A8D8B8D9C8D97
:1005600020E030E44CE155E40E94BF27DC01CB01E0
:100570008D8B9E8BAF8BB88F6D897E898F89988D7F
:1005800020E030E040E85FE30E94712688232CF4ED
:1005900081E090E09C8B8B8B3FC06D897E898F8939
:1005A000988D20E03FEF4FE757E40E94BB271816D5
:1005B0004CF5698D7A8D8B8D9C8D20E030E040E28A
:1005C00051E40E94BF27DC01CB01BC01CD010E9498
:1005D000DD26DC01CB019C8B8B8B0FC08AEF90E07A
:1005E0009A8B898B89899A890197F1F79A8B898BE4
:1005F0008B899C8901979C8B8B8B8B899C8900971D
:1006000069F714C06D897E898F89988D0E94DD26D7
:10061000DC01CB019C8B8B8B8B899C89988B8F8782
:100620008F8598890197F1F7988B8F87CE014D962A
:1006300064ED73D5882309F087CF7CC08FEF8E8F50
:1006400072C080E090E0A8E4B2E48B879C87AD871D
:10065000BE876B857C858D859E8520E030E44CE1EE
:1006600055E40E94BF27DC01CB018F839887A987BF
:10067000BA876F81788589859A8520E030E040E8E7
:100680005FE30E94712688232CF481E090E09E8332
:100690008D833FC06F81788589859A8520E03FEF03
:1006A0004FE757E40E94BB2718164CF56B857C85F5
:1006B0008D859E8520E030E040E251E40E94BF2716
:1006C000DC01CB01BC01CD010E94DD26DC01CB01A8
:1006D0009E838D830FC08AEF90E09C838B838B81F8
:1006E0009C810197F1F79C838B838D819E8101977B
:1006F0009E838D838D819E81009769F714C06F81E1
:10070000788589859A850E94DD26DC01CB019E8350
:100710008D838D819E819A83898389819A810197B6
:10072000F1F79A838983CE014D9664EDF6D4882340
:1007300009F087CFA5960FB6F894DEBF0FBECDBFE8
:10074000CF91DF910895DF93CF93CDB7DEB7A59713
:100750000FB6F894DEBF0FBECDBF8DA384E48D8F9E
:100760008DA1813009F07DC081E08E8F72C080E064
:1007700090E0A8E4B2E4898F9A8FAB8FBC8F698D2B
:100780007A8D8B8D9C8D20E030E44CE155E40E9405
:10079000BF27DC01CB018D8B9E8BAF8BB88F6D8912
:1007A0007E898F89988D20E030E040E85FE30E94E9
:1007B000712688232CF481E090E09C8B8B8B3FC0CA
:1007C0006D897E898F89988D20E03FEF4FE757E450
:1007D0000E94BB2718164CF5698D7A8D8B8D9C8DE8
:1007E00020E030E040E251E40E94BF27DC01CB0171
:1007F000BC01CD010E94DD26DC01CB019C8B8B8BE3
:100800000FC08AEF90E09A8B898B89899A8901972A
:10081000F1F79A8B898B8B899C8901979C8B8B8BA9
:100820008B899C89009769F714C06D897E898F89AF
:10083000988D0E94DD26DC01CB019C8B8B8B8B89F4
:100840009C89988B8F878F8598890197F1F7988B72
:100850008F87CE014D9664ED60D4882309F087CF51
:100860007CC08FEF8E8F72C080E090E0A8E4B2E48D
:100870008B879C87AD87BE876B857C858D859E85A4
:1008800020E030E44CE155E40E94BF27DC01CB01BD
:100890008F839887A987BA876F81788589859A859C
:1008A00020E030E040E85FE30E94712688232CF4CA
:1008B00081E090E09E838D833FC06F81788589853C
:1008C0009A8520E03FEF4FE757E40E94BB271816B8
:1008D0004CF56B857C858D859E8520E030E040E27F
:1008E00051E40E94BF27DC01CB01BC01CD010E9475
:1008F000DD26DC01CB019E838D830FC08AEF90E063
:100900009C838B838B819C810197F1F79C838B83E4
:100910008D819E8101979E838D838D819E8100971D
:1009200069F714C06F81788589859A850E94DD26D4
:10093000DC01CB019E838D838D819E819A83898387
:1009400089819A810197F1F79A838983CE014D9627
:1009500064EDE3D3882309F087CFA5960FB6F8940A
:10096000DEBF0FBECDBFCF91DF910895DF93CF9350
:10097000CDB7DEB7A5970FB6F894DEBF0FBECDBFDB
:100980008DA385E48D8F8DA1813009F07DC081E03C
:100990008E8F72C080E090E0A8E4B2E4898F9A8FD5
:1009A000AB8FBC8F698D7A8D8B8D9C8D20E030E470
:1009B0004CE155E40E94BF27DC01CB018D8B9E8B5F
:1009C000AF8BB88F6D897E898F89988D20E030E05C
:1009D00040E85FE30E94712688232CF481E090E0D8
:1009E0009C8B8B8B3FC06D897E898F89988D20E091
:1009F0003FEF4FE757E40E94BB2718164CF5698D6F
:100A00007A8D8B8D9C8D20E030E040E251E40E9495
:100A1000BF27DC01CB01BC01CD010E94DD26DC013A
:100A2000CB019C8B8B8B0FC08AEF90E09A8B898BCC
:100A300089899A890197F1F79A8B898B8B899C898F
:100A400001979C8B8B8B8B899C89009769F714C0CD
:100A50006D897E898F89988D0E94DD26DC01CB010E
:100A60009C8B8B8B8B899C89988B8F878F859889A2
:100A70000197F1F7988B8F87CE014D9664ED4DD39A
:100A8000882309F087CF7CC08FEF8E8F72C080E003
:100A900090E0A8E4B2E48B879C87AD87BE876B8526
:100AA0007C858D859E8520E030E44CE155E40E94F4
:100AB000BF27DC01CB018F839887A987BA876F8115
:100AC000788589859A8520E030E040E85FE30E94E0
:100AD000712688232CF481E090E09E838D833FC0B3
:100AE0006F81788589859A8520E03FEF4FE757E44D
:100AF0000E94BB2718164CF56B857C858D859E85DD
:100B000020E030E040E251E40E94BF27DC01CB014D
:100B1000BC01CD010E94DD26DC01CB019E838D83CB
:100B20000FC08AEF90E09C838B838B819C8101971F
:100B3000F1F79C838B838D819E8101979E838D83AA
:100B40008D819E81009769F714C06F8178858985B2
:100B50009A850E94DD26DC01CB019E838D838D81E9
:100B60009E819A83898389819A810197F1F79A837B
:100B70008983CE014D9664EDD0D2882309F087CFCA
:100B8000A5960FB6F894DEBF0FBECDBFCF91DF9113
:100B90000895DF93CF9300D00F92CDB7DEB789834E
:100BA0006A8389818130D1F48A81813019F481E0AE
:100BB000CADD0AC08A818F3F19F481E0B1DC04C02C
:100BC00081E0C1DD81E0ACDC81E0D0DE81E00E942B
:100BD000231F0097E9F48FEF8B831CC08FEFC6DED5
:100BE0008A81813019F48FEFAEDD0AC08A818F3F90
:100BF00019F48FEF95DC04C081E0A5DD81E090DC85
:100C00008FEF0E94231F009719F48FEF8B8302C090
:100C100081E08B838B810F900F900F90CF91DF91AC
:100C200008951F920F920FB60F9200905B000F92E3
:100C300011242F933F934F935F938F939F93AF9381
:100C4000BF93EF93FF93DF93CF9300D000D0CDB746
:100C5000DEB7EDEEF0E080818C831B829CC0EDEE70
:100C6000F0E08B818295807F8083EEEEF0E08081E2
:100C7000829586958770882F90E081709070882388
:100C800009F46EC0EFEEF0E080E88083AEEEB0E0F5
:100C9000EEEEF0E080818F7D8C93E2EFF0E08081DA
:100CA000829586958770282FE3EFF0E08081882F6A
:100CB00090E0880F991F880F991F880F991F822B2A
:100CC0008A8319822AC08A81282F30E081E090E04F
:100CD000821B930B880F991F909581959F4FFC0164
:100CE000E458FB4F408151818A81882F90E0019721
:100CF000FC01E057FB4F8081282F30E08981882F4D
:100D000090E0820F931FDA01A80FB91FEAEFF0E01D
:100D100080818C9389818F5F89838981883098F263
:100D20008A81882F90E00197FC01E057FB4F80817A
:100D30008F5F80838081853041F48A81882F90E0A5
:100D40000197FC01E057FB4F10828A81882F90E0C9
:100D50000197FC01EC55FB4F80818F5F80831FC0A2
:100D6000EEEEF0E080818295869586958370882FDF
:100D700090E081709070882359F0EFEEF0E01082DF
:100D8000AEEEB0E0EEEEF0E080818F7B8C9307C09A
:100D90008B818F5F8B838B818F3008F460CFEDEE7A
:100DA000F0E08C818083AAEDB0E0EAEDF0E0808194
:100DB0008C930F900F900F900F90CF91DF91FF9138
:100DC000EF91BF91AF919F918F915F914F913F9123
:100DD0002F910F9000925B000F900FBE0F901F900D
:100DE0001895DF93CF9300D0CDB7DEB7E8EDF0E0F4
:100DF00081E080831A8232C0EDEEF0E08A81829534
:100E0000807F8083EEEEF0E01082EFEEF0E0108263
:100E1000E3EFF0E01082E2EFF0E01082E1EFF0E0CB
:100E20001082E0EFF0E01082E7EFF0E01082E6EFF2
:100E3000F0E01082E5EFF0E01082E4EFF0E01082E5
:100E4000198206C0EAEFF0E0108289818F5F898302
:100E500089818830B8F38A818F5F8A838A818F3055
:100E600058F2E8EDF0E082E08083E2EEF0E081E02D
:100E70008083E3EEF0E088E08083E4EEF0E08EE54E
:100E80008083E5EEF0E01082EBEDF0E080EB808314
:100E9000EFEDF0E08FE78083EEEDF0E08FEF808301
:100EA00078940F900F90CF91DF910895DF93CF93B7
:100EB00000D000D00F92CDB7DEB79C838B83EDEED0
:100EC000F0E080818983E9EDF0E0808182958F7088
:100ED000882F90E0817090708823A9F7E9EDF0E009
:100EE0008081869586958695882F90E08170907098
:100EF000882349F71A823FC0EDEEF0E08A8182959F
:100F0000807F8083EFEEF0E08081829586958695E4
:100F10008370882369F5EFEEF0E08FE08083E3EFE4
:100F2000F0E08B819C81907096958795969587953A
:100F3000969587958083E2EFF0E08B818295880F0C
:100F4000807E8083E6EFF0E080EE8083E7EFF0E0E4
:100F50008FEF8083AFEEB0E0EFEEF0E0808180684D
:100F60008C93EDEEF0E08981808381E08D830CC06D
:100F70008A818F5F8A838A818F3008F4BDCFEDEE3E
:100F8000F0E0898180831D828D810F900F900F90FA
:100F90000F900F90CF91DF9108950F931F93DF93E0
:100FA000CF9300D0CDB7DEB78A831BDF198236C05E
:100FB0008981882F90E0019679DF8981882F90E0E0
:100FC000880F991F8C0104581B4F85E090E061E069
:100FD00070E00E942228F801918380838981482F44
:100FE00050E08981282F30E08981882F90E0FC0132
:100FF000EC55FB4F1082FC01EC55FB4F8081F90151
:10100000E656FB4F8083F901E656FB4F8081FA01DB
:10101000E057FB4F808389818F5F898399818A8123
:10102000981730F20F900F90CF91DF911F910F9191
:101030000895DF93CF9300D000D0CDB7DEB79B8368
:101040008A836C838C81882F90E00197FC01EC559A
:10105000FB4F80818823B1F3198230C08981282F0A
:1010600030E08A819B81DC01A20FB31F8C81282F85
:1010700030E081E090E0821B930B880F991F9095E0
:1010800081959F4FFC01E458FB4F408151818C8139
:10109000882F90E00197FC01E656FB4F8081282FB6
:1010A00030E08981882F90E0820F931FFA01E80FCA
:1010B000F91F80818C9389818F5F89838981883032
:1010C00068F28C81882F90E00197FC01E656FB4F77
:1010D00080818F5F80838081853041F48C81882F6F
:1010E00090E00197FC01E656FB4F10828C81882F1F
:1010F00090E09C0121503040F901EC55FB4F80817C
:101100008150F901EC55FB4F808380E00F900F90E8
:101110000F900F90CF91DF910895DF93CF93CDB7CC
:10112000DEB727970FB6F894DEBF0FBECDBF9D8305
:101130008C836E83E9EDF0E0808182958F70882F3B
:1011400090E0817090708823A9F7E9EDF0E080814C
:10115000869586958695882F90E08170907088237B
:1011600049F7EDEEF0E0808189831A8212C0EDEE3E
:10117000F0E08A818295807F8083EFEEF0E08081CD
:101180008295869586958370882331F08A818F5F5A
:101190008A838A818F3058F38A818F3019F48FEFD8
:1011A0008F8332C0E2EFF0E08E818295880F807EDF
:1011B0008083E3EFF0E08E81869586958695808327
:1011C000EFEEF0E088E080831B820FC0AAEFB0E072
:1011D0008B81282F30E08C819D81FC01E20FF31F71
:1011E00080818C938B818F5F8B838B81883070F3B0
:1011F000AFEEB0E0EFEEF0E0808180648C93EDEE36
:10120000F0E0898180831F828F8127960FB6F89442
:10121000DEBF0FBECDBFCF91DF910895DF93CF9397
:10122000CDB7DEB7CF91DF910895DF93CF93CDB7E0
:10123000DEB729970FB6F894DEBF0FBECDBF8C8303
:101240004D835E836F8378871A82BAD0E091B504AC
:10125000F091B6048C81806409958C81883119F0F5
:101260008C818131A9F580912004813089F5E0914C
:10127000B504F091B6048D819E81AF81B885072EAB
:101280007FE0B695A795979587957A95D1F7702DBC
:101290000995E091B504F091B6048D819E81AF81EE
:1012A000B885689416F8B695A7959795879516947E
:1012B000D1F70995E091B504F091B6048D81880FBE
:1012C0000995E091B504F091B60480E009952CC031
:1012D000E091B504F091B6048D819E81AF81B8850F
:1012E0008B2F9927AA27BB270995E091B504F09188
:1012F000B6048D819E81AF81B885CD01AA27BB2719
:101300000995E091B504F091B6048D819E81AF817D
:10131000B885892F9A2FAB2FBB270995E091B5048B
:10132000F091B6048D8109958C81882339F4E09180
:10133000B504F091B60485E909951EC08C81813110
:10134000D9F4E091B504F091B6048FEF099514C07B
:101350008A818F5F8A838A81893C70F000D0EDB7E3
:10136000FEB7319680E091E09183808357DF0F9044
:101370000F908FEF89871AC0E091B504F091B60401
:101380008FEF09958B838B81882314F3198209C011
:10139000E091B504F091B6048FEF099589818F5FD4
:1013A000898389818830A0F38B81898789852996F3
:1013B0000FB6F894DEBF0FBECDBFCF91DF91089579
:1013C000DF93CF93CDB7DEB7A091B704B091B80447
:1013D000E091B704F091B8048081482F8091B9045E
:1013E000282F30E081E090E0022E02C0880F991F84
:1013F0000A94E2F7809584238C93CF91DF9108952E
:10140000DF93CF9300D000D000D0CDB7DEB78A8372
:101410004B835C836D837E832B813C814D815E8118
:101420008A81BA01A90101DF89830AD089812696C0
:101430000FB6F894DEBF0FBECDBFCF91DF910895F8
:10144000DF93CF93CDB7DEB7A091B704B091B804C6
:10145000E091B704F091B8048081482F8091B904DD
:10146000282F30E081E090E0022E02C0880F991F03
:101470000A94E2F7842B8C93CF91DF910895EF9239
:10148000FF920F931F93DF93CF93CDB7DEB72A97C9
:101490000FB6F894DEBF0FBECDBF8A834B835C834B
:1014A0006D837E832B813C814D815E818A81BA016F
:1014B000A901BBDE898389818F3F09F443C0E09194
:1014C000B504F091B6048FEF0995882F90E0A0E065
:1014D000B0E0182F0027FF24EE24E091B504F0912E
:1014E000B6048FEF0995882F90E0A0E0B0E0DC0112
:1014F00099278827E82AF92A0A2B1B2BE091B504A3
:10150000F091B6048FEF0995882F90E0982F8827E7
:10151000AA2797FDA095BA2FE82AF92A0A2B1B2B98
:10152000E091B504F091B6048FEF0995882F90E013
:10153000A0E0B0E08E299F29A02BB12B8B839C8348
:10154000AD83BE83E091B504F091B6048FEF0995A9
:1015500077DF89818F3F49F48FEF9FEFAFEFBFEFC8
:101560008F839887A987BA8708C08B819C81AD81BA
:10157000BE818F839887A987BA878F819885A9852F
:10158000BA85BC01CD012A960FB6F894DEBF0FBE16
:10159000CDBFCF91DF911F910F91FF90EF900895F4
:1015A000DF93CF93CDB7DEB72F970FB6F894DEBF9A
:1015B0000FBECDBF998788877B876A874C873E8718
:1015C0002D878D859E859093B8048093B7048C8574
:1015D0008093B9048A859B859093B6048093B50463
:1015E000E885F98509952CDF1F821E820BC0E091EA
:1015F000B504F091B6048FEF09958E819F81019615
:101600009F838E838E819F818C33910584F380E04C
:1016100040E050E060E070E0F3DE813019F02FEF41
:101620002F87A4C088E04AEA51E060E070E027DF3D
:10163000DC01CB0189839A83AB83BC831F821E822A
:1016400087E340E050E060E070E0DADE89E240E00D
:1016500050E060E070E4D4DE8D838E819F8101963E
:101660009F838E838E819F818E319105ACF089811D
:101670009A81AB81BC81A070B0708A3A21E0920758
:1016800020E0A20720E0B20719F48FEF8F876EC029
:101690008DE48093AE0403C08D81882389F689810F
:1016A0009A81AB81BC81A070B0708A3A21E0920728
:1016B00020E0A20720E0B20709F582E38093AE04A0
:1016C0008AE340E050E060E070E0D9DEDC01CB016D
:1016D00089839A83AB83BC8389819A81AB81BC81E6
:1016E00080709070A070B0740097A105B10589F169
:1016F00081E08093200481E08F8738C08091AE0420
:101700008D3421F51F821E8218C08E819F81019623
:101710009F838E838E819F81893C910574F000D0D8
:10172000EDB7FEB7319686E191E09183808376DD57
:101730000F900F902FEF2F8719C081E040E050E00D
:1017400060E070E05DDE882301F703C081E38093F1
:10175000AE0480E140E052E060E070E051DE8823BA
:1017600019F08FEF8F8702C021E02F878F852F968A
:101770000FB6F894DEBF0FBECDBFCF91DF910895B5
:10178000DF93CF93CDB7DEB72B970FB6F894DEBFBC
:101790000FBECDBF9E838D834F83588769877A871D
:1017A000E091B504F091B6048FEF09958823C1F359
:1017B000E091B504F091B6048FEF09952F8138853B
:1017C00049855A8588E1BA01A9012FDD89831CC0AA
:1017D0002F81388549855A8588E1BA01A90125DD1F
:1017E00089838981282F30E000D000D0EDB7FEB783
:1017F000319689E291E091838083338322830EDDE9
:101800000F900F900F900F908981882309F7E09136
:10181000B504F091B6048FEF0995E091B504F0910D
:10182000B6048FEF09950CDEE091B504F091B60493
:101830008EEF09951C821B8213C04091B504509114
:10184000B6042B813C818D819E81FC01E20FF31F48
:101850008081FA0109958B819C8101969C838B8301
:101860008B819C8122E0803092073CF3E091B504AB
:10187000F091B6048FEF0995E091B504F091B604AC
:101880008FEF09959DDDE091B504F091B6048FEFDF
:10189000099589838981882F90E0817090700097E5
:1018A00091F38981869587708A831C821B820BC085
:1018B000E091B504F091B6048FEF09958B819C817E
:1018C00001969C838B838B819C818830910584F366
:1018D0008A81823019F481E08B8716C0B1DD89815D
:1018E000282F30E000D000D0EDB7FEB7319686E467
:1018F00091E0918380833383228390DC0F900F905B
:101900000F900F902FEF2B878B852B960FB6F894A7
:10191000DEBF0FBECDBFCF91DF9108950F931F9310
:10192000DF93CF93CDB7DEB72A970FB6F894DEBF1B
:101930000FBECDBF9D838C834E835F83688779877D
:101940001B821A82E091B504F091B6048FEF0995DD
:101950008823C1F32E813F814885598581E1BA01F1
:10196000A90163DC89838981882379F18981282F02
:1019700030E000D000D0EDB7FEB7319686E691E0BA
:10198000918380833383228349DC0F900F900F90E3
:101990000F902FEF2A8766C08A819B8101969B83D7
:1019A0008A838A819B81E3E081329E0774F000D0B4
:1019B000EDB7FEB7319680E891E0918380832EDC0D
:1019C0000F900F90FFEFFA874DC0E091B504F091B2
:1019D000B6048FEF09958E3FF9F61B821A8214C068
:1019E0002A813B818C819D818C01020F131FE09124
:1019F000B504F091B6048FEF0995F80180838A81D0
:101A00009B8101969B838A838A819B81F2E080304F
:101A10009F0734F3E091B504F091B6048FEF099578
:101A2000E091B504F091B6048FEF099509DD1B82B2
:101A30001A820BC0E091B504F091B6048FEF0995BE
:101A40008A819B8101969B838A838A819B818830CE
:101A5000910584F38E819F819093CB068093CA0673
:101A600021E02A878A852A960FB6F894DEBF0FBE3A
:101A7000CDBFCF91DF911F910F910895DF93CF9349
:101A800000D000D00F92CDB7DEB78091C8069091FC
:101A9000C9069C838B831A82198273C08B819C81B7
:101AA0009C0140E050E08AEB94E0BA01A90136DFE6
:101AB00000D000D0EDB7FEB7319683E991E0918375
:101AC00080838B819C8193838283A8DB0F900F900E
:101AD0000F900F901A82198248C089819A81FC0167
:101AE000E654FB4F80818823D9F589819A8101963C
:101AF000FC01E654FB4F8081882391F589819A810E
:101B0000AC01569547952091C0063091C1068B8156
:101B10009C81821B930B982F8827840F951F90938D
:101B2000C7068093C6062091C6063091C70600D02E
:101B300000D0EDB7FEB7319687EA91E091838083BC
:101B4000338322836BDB0F900F900F900F908B816C
:101B50009C819093C9068093C80621E02D8323C001
:101B600089819A8102969A83898389819A8122E068
:101B70008030920708F4B1CF8B819C8101969C83C1
:101B80008B832091C2063091C3068091C00690914C
:101B9000C106280F391F8B819C818217930708F497
:101BA0007DCF8FEF8D838D810F900F900F900F90D1
:101BB0000F90CF91DF910895DF93CF93CDB7DEB72C
:101BC0008AEB94E040E050E060E070E0A7DEE7ECF4
:101BD000F4E080818093CC06E9ECF4E08081882FEA
:101BE00090E0382F2227E8ECF4E08081882F90E005
:101BF000822B932B9C018091BA069091BB06820F99
:101C0000931F9093C1068093C006E1EDF4E08081BC
:101C1000882F90E0382F2227E0EDF4E08081882F94
:101C200090E0822B932B9093C3068093C206409141
:101C3000C0065091C106EAECF4E08081282F30E024
:101C40008091C2069091C306BC01269FC001279FC8
:101C5000900D369F900D1124840F951F9093BF0611
:101C60008093BE068091CB04282F30E08091CC0475
:101C7000882F90E0982F8827822B932B880F991F0D
:101C800082959295907F9827807F9827892F992712
:101C900086959093C5068093C4062091BE06309128
:101CA000BF068091C4069091C506820F931F909342
:101CB000BD068093BC068091C0069091C1069093AA
:101CC000C9068093C806DADE2091BA063091BB06B9
:101CD00000D000D0EDB7FEB731968FEB91E0918345
:101CE0008083338322839ADA0F900F900F900F90A6
:101CF0008091CC06282F30E000D000D0EDB7FEB7A1
:101D000031968DED91E0918380833383228386DA4F
:101D10000F900F900F900F902091C0063091C10648
:101D200000D000D0EDB7FEB7319681E092E091830C
:101D300080833383228372DA0F900F900F900F907D
:101D40002091C2063091C30600D000D0EDB7FEB797
:101D5000319689E192E091838083338322835EDA36
:101D60000F900F900F900F902091BE063091BF06FC
:101D700000D000D0EDB7FEB731968BE292E09183B0
:101D80008083338322834ADA0F900F900F900F9055
:101D90002091C4063091C50600D000D0EDB7FEB743
:101DA000319684E492E0918380833383228336DA10
:101DB0000F900F900F900F902091BC063091BD06B0
:101DC00000D000D0EDB7FEB7319687E592E0918361
:101DD00080833383228322DA0F900F900F900F902D
:101DE0008091BE069091BF069C0140E050E08AEBD6
:101DF00094E0BA01A90192DD88E190E00E943C28BC
:101E00009093B4048093B304E091B304F091B404CC
:101E10001086E091B304F091B4048091BE069091D5
:101E2000BF0695878487A091B304B091B404E09174
:101E3000B304F091B404118A108A80899189539671
:101E40009C938E935297E091B304F091B404118661
:101E5000A091B304B091B404E091B304F091B40440
:101E6000178A168A8689978955969C938E935497DC
:101E7000E091B304F091B404138612868091CE06EB
:101E80008F5F8093CE068091B0048F5F8093B00403
:101E90001092AF0481E08093CD0681E0CF91DF9175
:101EA0000895DF93CF93CDB7DEB72D970FB6F89493
:101EB000DEBF0FBECDBF9B878A876C871F821E82C5
:101EC0008091B3049091B4049D838C830CC0EC8109
:101ED000FD8191858C85981751F0EC81FD81848975
:101EE00095899D838C838C819D81009781F78C815E
:101EF0009D81009719F42FEF2D8760C2EC81FD8141
:101F000084859585998788872091CA063091CB066C
:101F1000EC81FD81848595852817390761F0EC8176
:101F2000FD81848595859C0140E050E08AEB94E03A
:101F3000BA01A901F3DC8C85882309F042C030C0C6
:101F40008E819F8142E08030940728F11F821E829B
:101F5000888599850196998788872091BE0630915A
:101F6000BF0688859985AC01421B530B9A0180916D
:101F7000C4069091C5068217930710F41D861EC2F1
:101F8000888599859C0140E050E08AEB94E0BA0195
:101F9000A901C4DC05C08E819F8180969F838E83BA
:101FA0008E819F81FC01E654FB4F8081882349F09C
:101FB0008E819F81FC01E654FB4F8081853E09F0B4
:101FC000BFCF1B8218C08B81282F30E08E819F816C
:101FD000A901480F591F8B81282F30E08A859B85E6
:101FE000FC01E20FF31F8081FA01E654FB4F80836E
:101FF0008B818F5F8B838B81282F30E08A859B8537
:10200000FC01E20FF31F8081882399F08B818830D7
:10201000D0F20FC08B81282F30E08E819F81820FFC
:10202000931FFC01E654FB4F80E280838B818F5F1E
:102030008B838B81883070F38E819F81AC01485FE8
:102040005F4F8E819F819C01265F3F4FF901E654CF
:10205000FB4F84E58083F901E654FB4F8081FA0150
:10206000E654FB4F80838E819F810996FC01E654E4
:10207000FB4F88E580838E819F810B96FC01E6549F
:10208000FB4F80E280831B8218C08B81282F30E0B9
:102090008E819F81820F931F9C01245F3F4F8B8114
:1020A000882F90E0FC01EF5DFB4F8081F901E65441
:1020B000FB4F80838B818F5F8B838B818A3028F3EA
:1020C0008E819F819C01265E3F4F8091C606909134
:1020D000C706F901E654FB4F80838E819F819C01E6
:1020E000255E3F4F8091C6069091C706892F99279C
:1020F000F901E654FB4F80838E819F814C96FC0151
:10210000E654FB4F10828E819F814D96FC01E65470
:10211000FB4F10828E819F814E96FC01E654FB4F4F
:1021200010828E819F814F96FC01E654FB4F1082F6
:102130008E819F814696FC01E654FB4F88E48083A4
:102140008E819F814796FC01E654FB4F87E7808391
:102150008E819F814896FC01E654FB4F81E9808384
:102160008E819F814996FC01E654FB4F86E4808373
:1021700000D000D0EDB7FEB731968AE893E09183A6
:102180008083888599859383828348D80F900F90A8
:102190000F900F902091C6063091C70600D000D056
:1021A000EDB7FEB7319684EC93E09183808333835F
:1021B000228334D80F900F900F900F9088859985C7
:1021C0009C0140E050E08AEB94E0BA01A901D8DA22
:1021D0008F3F11F41D86F2C086E190E00E943C28FA
:1021E0009A838983E981FA8188859985978786878B
:1021F000E981FA818E819F81918B808B8091C606C7
:102200009091C706880F991F9C01232F332726958D
:102210008091C0069091C106820F931F998788878D
:102220008091C6069091C706880F991F91709F8371
:102230008E83888599859C0140E050E08AEB94E08C
:10224000BA01A9016BDB8F3F11F41D86B7C04E8127
:102250005F818E819F819C012F5F3F4FF901E65482
:10226000FB4F8FEF8083F901E654FB4F8081FA0129
:10227000E654FB4F808300D000D0EDB7FEB7319617
:1022800084EE93E09183808388859985938382830C
:102290000E940E090F900F900F900F9088859985DE
:1022A0009C0140E050E08AEB94E0BA01A90168DAB1
:1022B0008F3F19F45FEF5D8781C08091CD06E98182
:1022C000FA8181878F5F8093CD068091C6069091B9
:1022D000C7069C01225030408091CC06882F90E0A8
:1022E000A901489F9001499F300D589F300D11243E
:1022F0008091BC069091BD06820F931FE981FA81FF
:10230000938782878091C6069091C706E981FA81FA
:1023100095878487E981FA818C8580871B8215C027
:102320008B81482F50E08B81282F30E08A859B8558
:10233000FC01E20FF31F208189819A81FC01E40FE7
:10234000F51F20838B818F5F8B838B81883040F3D7
:1023500095DBE981FA81158A148A8091B104909104
:10236000B204009789F08091B1049091B204E981A0
:10237000FA81938B828BE091B104F091B204898150
:102380009A81958B848B04C0E981FA81138A128A21
:1023900089819A819093B2048093B104E981FA8192
:1023A000868597859C0140E050E08AEB94E0BA0175
:1023B000A901B4DAE981FA8151855D878D852D9671
:1023C0000FB6F894DEBF0FBECDBFCF91DF91089559
:1023D000DF93CF93CDB7DEB70E948B1D0E94A8205C
:1023E000FDCFDF93CF93CDB7DEB7A5970FB6F894A7
:1023F000DEBF0FBECDBF8DA38DA18D8F72C080E0DB
:1024000090E0A8E4B2E4898F9A8FAB8FBC8F698D7E
:102410007A8D8B8D9C8D20E030E44CE155E40E9458
:10242000BF27DC01CB018D8B9E8BAF8BB88F6D8965
:102430007E898F89988D20E030E040E85FE30E943C
:10244000712688232CF481E090E09C8B8B8B3FC01D
:102450006D897E898F89988D20E03FEF4FE757E4A3
:102460000E94BB2718164CF5698D7A8D8B8D9C8D3B
:1024700020E030E040E251E40E94BF27DC01CB01C4
:10248000BC01CD010E94DD26DC01CB019C8B8B8B36
:102490000FC08AEF90E09A8B898B89899A8901977E
:1024A000F1F79A8B898B8B899C8901979C8B8B8BFD
:1024B0008B899C89009769F714C06D897E898F8903
:1024C000988D0E94DD26DC01CB019C8B8B8B8B8948
:1024D0009C89988B8F878F8598890197F1F7988BC6
:1024E0008F87CE014D9663EC0E948D08882309F0FA
:1024F00086CF80E58D8F72C080E090E0A8E4B2E4E2
:102500008B879C87AD87BE876B857C858D859E85F7
:1025100020E030E44CE155E40E94BF27DC01CB0110
:102520008F839887A987BA876F81788589859A85EF
:1025300020E030E040E85FE30E94712688232CF41D
:1025400081E090E09E838D833FC06F81788589858F
:102550009A8520E03FEF4FE757E40E94BB2718160B
:102560004CF56B857C858D859E8520E030E040E2D2
:1025700051E40E94BF27DC01CB01BC01CD010E94C8
:10258000DD26DC01CB019E838D830FC08AEF90E0B6
:102590009C838B838B819C810197F1F79C838B8338
:1025A0008D819E8101979E838D838D819E81009771
:1025B00069F714C06F81788589859A850E94DD2628
:1025C000DC01CB019E838D838D819E819A838983DB
:1025D00089819A810197F1F79A838983CE014D967B
:1025E00063EC0E948D08882309F086CFCE014D96BA
:1025F00061E00E9419088D8D8D3409F4FDCE8D8D1A
:10260000823509F4F9CE80E0A5960FB6F894DEBFC6
:102610000FBECDBFCF91DF910895DF93CF93CDB79C
:10262000DEB7CB54D0400FB6F894DEBF0FBECDBF9F
:10263000FE01EA5BFF4F91838083FE01E85BFF4F61
:102640006083FE01E75BFF4F5183408386E58EAFD9
:10265000FE01E85BFF4F80818FAF72C080E090E0A9
:10266000A8E4B2E48DAB9EABAFABB8AF6DA97EA9C9
:102670008FA998AD20E030E44CE155E40E94BF27DB
:10268000DC01CB0189AB9AABABABBCAB69A97AA936
:102690008BA99CA920E030E040E85FE30E9471260E
:1026A00088232CF481E090E098AB8FA73FC069A904
:1026B0007AA98BA99CA920E03FEF4FE757E40E943D
:1026C000BB2718164CF56DA97EA98FA998AD20E0FF
:1026D00030E040E251E40E94BF27DC01CB01BC01A5
:1026E000CD010E94DD26DC01CB0198AB8FA70FC086
:1026F0008AEF90E09EA78DA78DA59EA50197F1F783
:102700009EA78DA78FA598A9019798AB8FA78FA596
:1027100098A9009769F714C069A97AA98BA99CA9FF
:102720000E94DD26DC01CB0198AB8FA78FA598A96D
:102730009CA78BA78BA59CA50197F1F79CA78BA7BE
:10274000CE01CE9663EC0E948D08882309F086CFD7
:1027500084E48EAFFE01EA5BFF4F80819181892F77
:10276000990F990B8FAFFE01EA5BFF4F8081FE014D
:10277000E05CFF4F808372C080E090E0A8E4B2E4A8
:102780008FA398A7A9A7BAA76FA178A589A59AA58D
:1027900020E030E44CE155E40E94BF27DC01CB018E
:1027A0008BA39CA3ADA3BEA36BA17CA18DA19EA175
:1027B00020E030E040E85FE30E94712688232CF49B
:1027C00081E090E09AA389A33FC06BA17CA18DA179
:1027D0009EA120E03FEF4FE757E40E94BB27181669
:1027E0004CF56FA178A589A59AA520E030E040E2DC
:1027F00051E40E94BF27DC01CB01BC01CD010E9446
:10280000DD26DC01CB019AA389A30FC08AEF90E0FB
:1028100098A38F8F8F8D98A10197F1F798A38F8F31
:1028200089A19AA101979AA389A389A19AA1009746
:1028300069F714C06BA17CA18DA19EA10E94DD2629
:10284000DC01CB019AA389A389A19AA19E8F8D8FC8
:102850008D8D9E8D0197F1F79E8F8D8FCE01CE9637
:1028600063EC0E948D08882309F086CF0E94B61E73
:10287000AA2797FDA095BA2F89AF9AAFABAFBCAF8F
:1028800080E58EAF72C080E090E0A8E4B2E4898F6A
:102890009A8FAB8FBC8F698D7A8D8B8D9C8D20E04C
:1028A00030E44CE155E40E94BF27DC01CB018D8B65
:1028B0009E8BAF8BB88F6D897E898F89988D20E034
:1028C00030E040E85FE30E94712688232CF481E029
:1028D00090E09C8B8B8B3FC06D897E898F89988D12
:1028E00020E03FEF4FE757E40E94BB2718164CF556
:1028F000698D7A8D8B8D9C8D20E030E040E251E433
:102900000E94BF27DC01CB01BC01CD010E94DD2666
:10291000DC01CB019C8B8B8B0FC08AEF90E09A8BF4
:10292000898B89899A890197F1F79A8B898B8B8991
:102930009C8901979C8B8B8B8B899C89009769F76D
:1029400014C06D897E898F89988D0E94DD26DC01F7
:10295000CB019C8B8B8B8B899C89988B8F878F85E8
:1029600098890197F1F7988B8F87CE01CE9663EC0B
:102970000E948D08882309F086CFCE01CE9661E0B3
:102980000E9419088EAD893421F42C961FAE2C9725
:10299000A8C08EAD833529F482E02C968FAF2C979A
:1029A000A0C08EAD853429F481E02C968FAF2C9792
:1029B00098C080E090E0A8E4B2E48B879C87AD8764
:1029C000BE876B857C858D859E8520E030E44CE15B
:1029D00055E40E94BF27DC01CB018F839887A9872C
:1029E000BA876F81788589859A8520E030E040E854
:1029F0005FE30E94712688232CF481E090E09E839F
:102A00008D833FC06F81788589859A8520E03FEF6F
:102A10004FE757E40E94BB2718164CF56B857C8561
:102A20008D859E8520E030E040E251E40E94BF2782
:102A3000DC01CB01BC01CD010E94DD26DC01CB0114
:102A40009E838D830FC08AEF90E09C838B838B8164
:102A50009C810197F1F79C838B838D819E810197E7
:102A60009E838D838D819E81009769F714C06F814D
:102A7000788589859A850E94DD26DC01CB019E83BD
:102A80008D838D819E819A83898389819A81019723
:102A9000F1F79A838983FE01E75BFF4F8081918183
:102AA000009709F4EDCEFE01E75BFF4F89AD9AADCB
:102AB000ABADBCAD0190F081E02DBC01CD0109951D
:102AC0008DAF8DAD813029F481E02C968FAF2C979E
:102AD00008C08DAD823009F0D3CE83E02C968FAF45
:102AE0002C972C968FAD2C97C55BDF4F0FB6F894C3
:102AF000DEBF0FBECDBFCF91DF910895EF92FF9261
:102B00000F93DF93CF93CDB7DEB7C055D0400FB64C
:102B1000F894DEBF0FBECDBFFE01EA5BFF4F4083DE
:102B200051836283738384839583FE01E45BFF4F4B
:102B30002083FE01E35BFF4F0083FE01E25BFF4F5A
:102B4000F182E08286E58EAFFE01E45BFF4F80817B
:102B50008FAF72C080E090E0A8E4B2E48DAB9EAB92
:102B6000AFABB8AF6DA97EA98FA998AD20E030E4D6
:102B70004CE155E40E94BF27DC01CB0189AB9AAB45
:102B8000ABABBCAB69A97AA98BA99CA920E030E0CA
:102B900040E85FE30E94712688232CF481E090E0F6
:102BA00098AB8FA73FC069A97AA98BA99CA920E0FF
:102BB0003FEF4FE757E40E94BB2718164CF56DA96D
:102BC0007EA98FA998AD20E030E040E251E40E9458
:102BD000BF27DC01CB01BC01CD010E94DD26DC0159
:102BE000CB0198AB8FA70FC08AEF90E09EA78DA76F
:102BF0008DA59EA50197F1F79EA78DA78FA598A9F2
:102C0000019798AB8FA78FA598A9009769F714C073
:102C100069A97AA98BA99CA90E94DD26DC01CB01B8
:102C200098AB8FA78FA598A99CA78BA78BA59CA5D0
:102C30000197F1F79CA78BA7CE01CE9663EC0E947B
:102C40008D08882309F086CF87E48EAFFE01EA5B0A
:102C5000FF4F80819181892F990F990B8FAFFE01D2
:102C6000EA5BFF4F80819181FE01E05CFF4F808332
:102C7000FE01EA5BFF4F82819381892F990F990BA7
:102C8000FE01EF5BFF4F8083FE01EA5BFF4F828115
:102C90009381FE01EE5BFF4F8083FE01ED5BFF4FF2
:102CA0001082FE01E35BFF4F8081FE01EC5BFF4F72
:102CB000808372C080E090E0A8E4B2E48FA398A77C
:102CC000A9A7BAA76FA178A589A59AA520E030E4A5
:102CD0004CE155E40E94BF27DC01CB018BA39CA3F0
:102CE000ADA3BEA36BA17CA18DA19EA120E030E08D
:102CF00040E85FE30E94712688232CF481E090E095
:102D00009AA389A33FC06BA17CA18DA19EA120E0C5
:102D10003FEF4FE757E40E94BB2718164CF56FA111
:102D200078A589A59AA520E030E040E251E40E9410
:102D3000BF27DC01CB01BC01CD010E94DD26DC01F7
:102D4000CB019AA389A30FC08AEF90E098A38F8F3D
:102D50008F8D98A10197F1F798A38F8F89A19AA1E0
:102D600001979AA389A389A19AA1009769F714C032
:102D70006BA17CA18DA19EA10E94DD26DC01CB016F
:102D80009AA389A389A19AA19E8F8D8F8D8D9E8DE7
:102D90000197F1F79E8F8D8FCE01CE9663EC0E9446
:102DA0008D08882309F086CFE1D7AA2797FDA09543
:102DB000BA2F89AF9AAFABAFBCAF80E58EAF72C010
:102DC00080E090E0A8E4B2E4898F9A8FAB8FBC8F4B
:102DD000698D7A8D8B8D9C8D20E030E44CE155E43B
:102DE0000E94BF27DC01CB018D8B9E8BAF8BB88FF0
:102DF0006D897E898F89988D20E030E040E85FE31F
:102E00000E94712688232CF481E090E09C8B8B8BB0
:102E10003FC06D897E898F89988D20E03FEF4FE715
:102E200057E40E94BB2718164CF5698D7A8D8B8D5F
:102E30009C8D20E030E040E251E40E94BF27DC019D
:102E4000CB01BC01CD010E94DD26DC01CB019C8BB6
:102E50008B8B0FC08AEF90E09A8B898B89899A8936
:102E60000197F1F79A8B898B8B899C8901979C8BB1
:102E70008B8B8B899C89009769F714C06D897E893B
:102E80008F89988D0E94DD26DC01CB019C8B8B8B7A
:102E90008B899C89988B8F878F8598890197F1F70B
:102EA000988B8F87CE01CE9663EC0E948D08882385
:102EB00009F086CFCE01CE9661E00E9419088EAD52
:102EC000893421F461961FAE6197A8C08EAD833519
:102ED00029F482E061968FAF6197A0C08EAD8534F2
:102EE00029F481E061968FAF619798C080E090E00F
:102EF000A8E4B2E48B879C87AD87BE876B857C8511
:102F00008D859E8520E030E44CE155E40E94BF278A
:102F1000DC01CB018F839887A987BA876F81788579
:102F200089859A8520E030E040E85FE30E947126C1
:102F300088232CF481E090E09E838D833FC06F81D5
:102F4000788589859A8520E03FEF4FE757E40E9416
:102F5000BB2718164CF56B857C858D859E8520E0FA
:102F600030E040E251E40E94BF27DC01CB01BC010C
:102F7000CD010E94DD26DC01CB019E838D830FC035
:102F80008AEF90E09C838B838B819C810197F1F782
:102F90009C838B838D819E8101979E838D838D8100
:102FA0009E81009769F714C06F81788589859A851D
:102FB0000E94DD26DC01CB019E838D838D819E8165
:102FC0009A83898389819A810197F1F79A8389830A
:102FD000FE01E25BFF4F80819181009709F4EDCE05
:102FE000FE01E25BFF4F89AD9AADABADBCAD019088
:102FF000F081E02DBC01CD0109958DAF8DAD813003
:1030000029F481E061968FAF619708C08DAD823061
:1030100009F0D3CE83E061968FAF619761968FAD53
:103020006197C05BDF4F0FB6F894DEBF0FBECDBF18
:10303000CF91DF910F91FF90EF900895DF93CF93A1
:10304000CDB7DEB7E3970FB6F894DEBF0FBECDBFA6
:103050004BA75CA76DA77EA78FA798AB89E48D8F40
:103060008BA59CA5892F990F990B8E8F8BA59CA55D
:103070008F8F8DA59EA5892F990F990B88A38DA55C
:103080009EA589A31AA28FA598A98BA372C080E0E0
:1030900090E0A8E4B2E4898F9A8FAB8FBC8F698DE2
:1030A0007A8D8B8D9C8D20E030E44CE155E40E94BC
:1030B000BF27DC01CB018D8B9E8BAF8BB88F6D89C9
:1030C0007E898F89988D20E030E040E85FE30E94A0
:1030D000712688232CF481E090E09C8B8B8B3FC081
:1030E0006D897E898F89988D20E03FEF4FE757E407
:1030F0000E94BB2718164CF5698D7A8D8B8D9C8D9F
:1031000020E030E040E251E40E94BF27DC01CB0127
:10311000BC01CD010E94DD26DC01CB019C8B8B8B99
:103120000FC08AEF90E09A8B898B89899A890197E1
:10313000F1F79A8B898B8B899C8901979C8B8B8B60
:103140008B899C89009769F714C06D897E898F8966
:10315000988D0E94DD26DC01CB019C8B8B8B8B89AB
:103160009C89988B8F878F8598890197F1F7988B29
:103170008F87CE014D9663EC0E948D08882309F05D
:1031800086CF80E58D8F72C080E090E0A8E4B2E445
:103190008B879C87AD87BE876B857C858D859E855B
:1031A00020E030E44CE155E40E94BF27DC01CB0174
:1031B0008F839887A987BA876F81788589859A8553
:1031C00020E030E040E85FE30E94712688232CF481
:1031D00081E090E09E838D833FC06F8178858985F3
:1031E0009A8520E03FEF4FE757E40E94BB2718166F
:1031F0004CF56B857C858D859E8520E030E040E236
:1032000051E40E94BF27DC01CB01BC01CD010E942B
:10321000DD26DC01CB019E838D830FC08AEF90E019
:103220009C838B838B819C810197F1F79C838B839B
:103230008D819E8101979E838D838D819E810097D4
:1032400069F714C06F81788589859A850E94DD268B
:10325000DC01CB019E838D838D819E819A8389833E
:1032600089819A810197F1F79A838983CE014D96DE
:1032700063EC0E948D08882309F086CFCE014D961D
:1032800061E00E9419088E8D882F90E0382F222748
:103290008F8D882F90E0822B932B9EA38DA388A1E6
:1032A000882F90E0382F222789A1882F90E0822B49
:1032B000932B98A78FA38AA1882F90E0382F2227DD
:1032C0008BA1882F90E0822B932B9AA789A72DA101
:1032D0003EA18BA59CA5A901481B590BCA01AA2791
:1032E00097FDA095BA2FBC01CD010E940B27DC01F0
:1032F000CB01BF771BAABC01CD0120E030E040EA42
:1033000050E40E94BB27181614F451E05BAB81E037
:103310009BA98927882309F4A1CE2FA138A58DA5C3
:103320009EA5A901481B590BCA01AA2797FDA09584
:10333000BA2FBC01CD010E940B27DC01CB01BF7766
:103340001AAABC01CD0120E030E040EA50E40E941E
:10335000BB27181614F451E05AAB81E09AA98927CB
:10336000882309F47BCE29A53AA58FA598A9A901A0
:10337000481B590BCA01AA2797FDA095BA2FBC017B
:10338000CD010E940B27DC01CB01BF7719AABC013C
:10339000CD0120E030E040EA50E40E94BB2718163F
:1033A00014F451E059AB81E099A98927882309F4E5
:1033B00055CE80E0E3960FB6F894DEBF0FBECDBFCA
:1033C000CF91DF910895DF93CF93CDB7DEB7CB5484
:1033D000D0400FB6F894DEBF0FBECDBFFE01EA5B52
:1033E000FF4F91838083FE01E85BFF4F6083FE0106
:1033F000E75BFF4F5183408386E58EAFFE01E85BBC
:10340000FF4F80818FAF72C080E090E0A8E4B2E40B
:103410008DAB9EABAFABB8AF6DA97EA98FA998ADB0
:1034200020E030E44CE155E40E94BF27DC01CB01F1
:1034300089AB9AABABABBCAB69A97AA98BA99CA9A8
:1034400020E030E040E85FE30E94712688232CF4FE
:1034500081E090E098AB8FA73FC069A97AA98BA9BA
:103460009CA920E03FEF4FE757E40E94BB271816C6
:103470004CF56DA97EA98FA998AD20E030E040E21F
:1034800051E40E94BF27DC01CB01BC01CD010E94A9
:10349000DD26DC01CB0198AB8FA70FC08AEF90E04F
:1034A0009EA78DA78DA59EA50197F1F79EA78DA735
:1034B0008FA598A9019798AB8FA78FA598A900977A
:1034C00069F714C069A97AA98BA99CA90E94DD2675
:1034D000DC01CB0198AB8FA78FA598A99CA78BA7E0
:1034E0008BA59CA50197F1F79CA78BA7CE01CE9643
:1034F00063EC0E948D08882309F086CF84E58EAFA7
:10350000FE01EA5BFF4F80819181892F990F990B12
:103510008FAFFE01EA5BFF4F8081FE01E05CFF4F51
:10352000808372C080E090E0A8E4B2E48FA398A703
:10353000A9A7BAA76FA178A589A59AA520E030E42C
:103540004CE155E40E94BF27DC01CB018BA39CA377
:10355000ADA3BEA36BA17CA18DA19EA120E030E014
:1035600040E85FE30E94712688232CF481E090E01C
:103570009AA389A33FC06BA17CA18DA19EA120E04D
:103580003FEF4FE757E40E94BB2718164CF56FA199
:1035900078A589A59AA520E030E040E251E40E9498
:1035A000BF27DC01CB01BC01CD010E94DD26DC017F
:1035B000CB019AA389A30FC08AEF90E098A38F8FC5
:1035C0008F8D98A10197F1F798A38F8F89A19AA168
:1035D00001979AA389A389A19AA1009769F714C0BA
:1035E0006BA17CA18DA19EA10E94DD26DC01CB01F7
:1035F0009AA389A389A19AA19E8F8D8F8D8D9E8D6F
:103600000197F1F79E8F8D8FCE01CE9663EC0E94CD
:103610008D08882309F086CFA9D3AA2797FDA09506
:10362000BA2F89AF9AAFABAFBCAF80E58EAF72C097
:1036300080E090E0A8E4B2E4898F9A8FAB8FBC8FD2
:10364000698D7A8D8B8D9C8D20E030E44CE155E4C2
:103650000E94BF27DC01CB018D8B9E8BAF8BB88F77
:103660006D897E898F89988D20E030E040E85FE3A6
:103670000E94712688232CF481E090E09C8B8B8B38
:103680003FC06D897E898F89988D20E03FEF4FE79D
:1036900057E40E94BB2718164CF5698D7A8D8B8DE7
:1036A0009C8D20E030E040E251E40E94BF27DC0125
:1036B000CB01BC01CD010E94DD26DC01CB019C8B3E
:1036C0008B8B0FC08AEF90E09A8B898B89899A89BE
:1036D0000197F1F79A8B898B8B899C8901979C8B39
:1036E0008B8B8B899C89009769F714C06D897E89C3
:1036F0008F89988D0E94DD26DC01CB019C8B8B8B02
:103700008B899C89988B8F878F8598890197F1F792
:10371000988B8F87CE01CE9663EC0E948D0888230C
:1037200009F086CFCE01CE9661E00E9419088EADD9
:10373000893421F42C961FAE2C97A8C08EAD83350A
:1037400029F482E02C968FAF2C97A0C08EAD8534E3
:1037500029F481E02C968FAF2C9798C080E090E000
:10376000A8E4B2E48B879C87AD87BE876B857C8598
:103770008D859E8520E030E44CE155E40E94BF2712
:10378000DC01CB018F839887A987BA876F81788501
:1037900089859A8520E030E040E85FE30E94712649
:1037A00088232CF481E090E09E838D833FC06F815D
:1037B000788589859A8520E03FEF4FE757E40E949E
:1037C000BB2718164CF56B857C858D859E8520E082
:1037D00030E040E251E40E94BF27DC01CB01BC0194
:1037E000CD010E94DD26DC01CB019E838D830FC0BD
:1037F0008AEF90E09C838B838B819C810197F1F70A
:103800009C838B838D819E8101979E838D838D8187
:103810009E81009769F714C06F81788589859A85A4
:103820000E94DD26DC01CB019E838D838D819E81EC
:103830009A83898389819A810197F1F79A83898391
:10384000FE01E75BFF4F80819181009709F4EDCE87
:10385000FE01E75BFF4F89AD9AADABADBCAD01900A
:10386000F081E02DBC01CD0109958DAF8DAD81308A
:1038700029F481E02C968FAF2C9708C08DAD823053
:1038800009F0D3CE83E02C968FAF2C972C968FAD7A
:103890002C97C55BDF4F0FB6F894DEBF0FBECDBFD0
:1038A000CF91DF910895DF93CF9300D0CDB7DEB7EE
:1038B00089838981882F90E0880F991FFC01EE523F
:1038C000F94F0190F081E02D23818981882F90E0CC
:1038D000880F991FFC01EE52F94F0190F081E02D05
:1038E0008481282B8981882F90E0880F991FFC0103
:1038F000EE52F94F0190F081E02D8581822B1A82E2
:10390000882311F481E08A838A810F900F90CF91F0
:10391000DF910895DF93CF9300D0CDB7DEB78A83D0
:1039200019828A81882F90E0880F991FFC01EE523E
:10393000F94F0190F081E02D80819181FC01329757
:103940008081282F30E08A81882F90E0880F991F8E
:10395000FC01EE52F94F0190F081E02D8281882F19
:1039600090E0A90102C0559547958A95E2F7CA01F2
:103970008170898389810F900F90CF91DF91089595
:10398000EF92FF920F931F93DF93CF930F92CDB7D8
:10399000DEB78091D0068F5F8093D0068091D006ED
:1039A000833014F01092D00619821CC08981882FB0
:1039B00090E0880F991FFC01EE52F94FE080F180F2
:1039C0008091D006082F112707FD10958981A2DF6D
:1039D000282FC701800F911FFC0133962083898116
:1039E0008F5F89839091CF0689818917F8F20F90B4
:1039F000CF91DF911F910F91FF90EF9008950F935A
:103A00001F93DF93CF9300D0CDB7DEB79A8389831E
:103A1000E0E8F0E01082E1E8F0E089E0808308E887
:103A200010E089819A81CC01A0E0B0E0BC01CD0119
:103A30000E9409279B01AC0160E876E988E19BE4DC
:103A40000E947526DC01CB01BC01CD0120E030E0F5
:103A500040E05FE30E940D26DC01CB01BC01CD01FB
:103A60000E94DD26DC01CB01F80191838083EFE623
:103A7000F0E082E08083AFE5B0E0EFE5F0E0808148
:103A800080688C930F900F90CF91DF911F910F91D1
:103A900008951F920F920FB60F9200905B000F9245
:103AA00011242F933F934F935F936F937F938F9343
:103AB0009F93AF93BF93EF93FF93DF93CF93CDB7D4
:103AC000DEB75EDF8091FA069091FB06A091FC06BE
:103AD000B091FD060196A11DB11D8093FA06909349
:103AE000FB06A093FC06B093FD06CF91DF91FF91FA
:103AF000EF91BF91AF919F918F917F916F915F9166
:103B00004F913F912F910F9000925B000F900FBE4D
:103B10000F901F901895DF93CF93CDB7DEB76C97BA
:103B20000FB6F894DEBF0FBECDBFE3E3F0E08FEF3A
:103B30008083E4E3F0E0108280E090E0AFE2B4E460
:103B4000898F9A8FAB8FBC8F698D7A8D8B8D9C8D71
:103B500020E030E44CE155E40E94BF27DC01CB01BA
:103B60008D8B9E8BAF8BB88F6D897E898F89988D59
:103B700020E030E040E85FE30E94712688232CF4C7
:103B800081E090E09C8B8B8B3FC06D897E898F8913
:103B9000988D20E03FEF4FE757E40E94BB271816AF
:103BA0004CF5698D7A8D8B8D9C8D20E030E040E264
:103BB00051E40E94BF27DC01CB01BC01CD010E9472
:103BC000DD26DC01CB019C8B8B8B0FC08AEF90E054
:103BD0009A8B898B89899A890197F1F79A8B898BBE
:103BE0008B899C8901979C8B8B8B8B899C890097F7
:103BF00069F714C06D897E898F89988D0E94DD26B2
:103C0000DC01CB019C8B8B8B8B899C89988B8F875C
:103C10008F8598890197F1F7988B8F878FED9EE1BB
:103C20002FEF3EE1B90140E025E230E00E94D00AEA
:103C30008F3F11F00E94DC0D80E090E0AFE2B4E431
:103C40008B879C87AD87BE876B857C858D859E85A0
:103C500020E030E44CE155E40E94BF27DC01CB01B9
:103C60008F839887A987BA876F81788589859A8598
:103C700020E030E040E85FE30E94712688232CF4C6
:103C800081E090E09E838D833FC06F817885898538
:103C90009A8520E03FEF4FE757E40E94BB271816B4
:103CA0004CF56B857C858D859E8520E030E040E27B
:103CB00051E40E94BF27DC01CB01BC01CD010E9471
:103CC000DD26DC01CB019E838D830FC08AEF90E05F
:103CD0009C838B838B819C810197F1F79C838B83E1
:103CE0008D819E8101979E838D838D819E8100971A
:103CF00069F714C06F81788589859A850E94DD26D1
:103D0000DC01CB019E838D838D819E819A83898383
:103D100089819A810197F1F79A83898386E194E0FA
:103D200060E00E94510F8093D10688EE93E067DE39
:103D300084E00E94CD072BD081309105E1F31092F1
:103D4000FA061092FB061092FC061092FD061092E5
:103D50000B0810921308109206086C960FB6F89490
:103D6000DEBF0FBECDBFCF91DF910895DF93CF931C
:103D7000CDB7DEB78091FA069091FB06A091FC06C4
:103D8000B091FD06BC01CD01CF91DF910895DF9385
:103D9000CF9300D0CDB7DEB780910A0884DD8823A9
:103DA00019F41A82198204C081E090E09A83898311
:103DB00089819A810F900F90CF91DF910895DF93C1
:103DC000CF93CDB7DEB7A4E2B0E0E4E2F0E08081CB
:103DD00087608C93A4E2B0E0E4E2F0E08081877F2A
:103DE0008C93A5E2B0E0E5E2F0E0808181608C9305
:103DF000ECE4F0E082E58083CF91DF910895DF93DA
:103E0000CF930F92CDB7DEB78983A5E2B0E0E5E2AC
:103E1000F0E080818E7F8C93EEE4F0E089818083F6
:103E2000EDE4F0E080818823DCF7A5E2B0E0E5E294
:103E3000F0E0808181608C93EEE4F0E080810F906F
:103E4000CF91DF910895DF93CF9300D00F92CDB73C
:103E5000DEB789838981813051F48091080823DDA0
:103E6000813079F481E090E09B838A830CC080915B
:103E70000D0819DD813029F482E090E09B838A836C
:103E800002C01B821A828A819B810F900F900F9033
:103E9000CF91DF9108951F920F920FB60F9200906D
:103EA0005B000F9211248F939F93AF93BF93EF9377
:103EB000FF93DF93CF93CDB7DEB78091FE068823C3
:103EC000D9F08091FE0681508093FE06A6ECB0E00A
:103ED0008091FF06882F90E0FC01EA5FF84F808117
:103EE0008C938091FF068F5F8093FF068091FF0681
:103EF000803411F41092FF06CF91DF91FF91EF9182
:103F0000BF91AF919F918F910F9000925B000F90A6
:103F10000FBE0F901F9018951F920F920FB60F9221
:103F200000905B000F9211242F938F939F93EF9338
:103F3000FF93DF93CF930F92CDB7DEB7E0ECF0E0C5
:103F4000808189838981882F90E08C71907000979F
:103F5000D9F480910007882F90E0E6ECF0E0208112
:103F6000FC01EA5BF84F2083809100078F5F80930C
:103F7000000780910007803411F4109200078091AF
:103F800001078F5F809301070F90CF91DF91FF9121
:103F9000EF919F918F912F910F9000925B000F9066
:103FA0000FBE0F901F9018951F920F920FB60F9291
:103FB00000905B000F9211248F939F93AF93BF9358
:103FC000EF93FF93DF93CF93CDB7DEB780910207D6
:103FD0008823D9F080910207815080930207AEECCC
:103FE000B0E080910307882F90E0FC01EA57F84F7A
:103FF00080818C93809103078F5F8093030780916A
:104000000307803411F410920307CF91DF91FF91E1
:10401000EF91BF91AF919F918F910F9000925B00B4
:104020000F900FBE0F901F9018951F920F920FB612
:104030000F9200905B000F9211242F938F939F9308
:10404000EF93FF93DF93CF930F92CDB7DEB7E8ECFA
:10405000F0E0808189838981882F90E08C71907055
:104060000097D9F480910407882F90E0EEECF0E0FF
:104070002081FC01EA53F84F2083809104078F5F71
:104080008093040780910407803411F41092040790
:10409000809105078F5F809305070F90CF91DF9187
:1040A000FF91EF919F918F912F910F9000925B0064
:1040B0000F900FBE0F901F901895DF93CF9300D0F5
:1040C00000D0CDB7DEB769837A838B839C838091E0
:1040D0000B088823C9F44ADEDC01CB0129813A812F
:1040E0004B815C81821B930BA40BB50B883C910523
:1040F000A105B10530F08FEF0E946A008FEF0E949A
:104100006A0081E080930B0880E00F900F900F9081
:104110000F90CF91DF910895DF93CF9300D000D01F
:10412000CDB7DEB769837A838B839C838091130834
:10413000882331F481E00E947D0181E0809313089F
:1041400080E00F900F900F900F90CF91DF91089526
:10415000EF92FF920F931F93DF93CF93CDB7DEB70C
:10416000CA57D0400FB6F894DEBF0FBECDBFFE01D8
:10417000EC58FF4F1082FE01ED58FF4F1082FE01F8
:10418000EF58FF4F81E08083FE01EB58FF4F8EE533
:1041900090E091838083FE01EB58FF4F8BE294E027
:1041A00093838283FE01EB58FF4F15821482FE0138
:1041B000EB58FF4F408151816281738184819581E9
:1041C0000E941E18FE01EF58FF4F8081882F90E05B
:1041D00081309105B9F7FE01EC58FF4FDE01AD5873
:1041E000BF4F8C91808310C5FE01EC58FF4F80813A
:1041F000482F50E0FE01EC58FF4F8081882F90E05F
:10420000880F991F9C01220F331F220F331F820F2B
:10421000931FFC01EF5CFB4F1081FE01EC58FF4F38
:104220008081882F90E0880F991F9C01220F331FF7
:10423000220F331F820F931FFC01EE5CFB4F0081A6
:10424000FE01EC58FF4F8081882F90E0880F991F66
:104250009C01220F331F220F331F820F931FFC017B
:10426000ED5CFB4F80819181DC01CA01880F991FB1
:104270009C01220F331F220F331F820F931FFC015B
:10428000E55DFB4F4081518162817381848195811D
:10429000212F7D010E947E15FE01EE58FF4F808385
:1042A000FE01EC58FF4F8081882309F4A4C4FE016D
:1042B000EC58FF4F8081813009F0B6C08FEF6FEF6F
:1042C0000E94C905FE01E359FF4F80E090E0AAEF8C
:1042D000B3E480839183A283B3838E0107591F4F78
:1042E000FE01E359FF4F608171818281938120E05B
:1042F00030E44CE155E443D6DC01CB01F801808386
:104300009183A283B383FE01E759FF4F60817181DE
:104310008281938120E030E040E85FE3E2D48823AB
:1043200044F4FE01E959FF4F81E090E091838083DE
:1043300060C0FE01E759FF4F6081718182819381E6
:1043400020E03FEF4FE757E416D618160CF041C0B7
:10435000FE01E359FF4F608171818281938120E0EA
:1043600030E040E251E40BD6DC01CB018E0109596B
:104370001F4FBC01CD0121D5DC01CB01F801918398
:1043800080831FC0FE01EB59FF4F8AEF90E09183BD
:104390008083FE01EB59FF4F808191810197F1F7F6
:1043A000FE01EB59FF4F91838083DE01A959BF4F76
:1043B000FE01E959FF4F80819181019711969C93ED
:1043C0008E93FE01E959FF4F808191810097D1F6CC
:1043D00026C08E0109591F4FFE01E759FF4F60812A
:1043E000718182819381E9D4DC01CB01F801918351
:1043F0008083DE01AD59BF4FFE01E959FF4F808137
:1044000091818D939C93FE01ED59FF4F80819181A5
:104410000197F1F7FE01ED59FF4F9183808381E011
:104420006FEF0E94C905E7C3FE01EC58FF4F808182
:10443000823009F0E5C183E70E94F111FE01E15AE3
:10444000FF4F80E090E0A8E4B2E480839183A283F0
:10445000B3838E01055A1F4FFE01E15AFF4F608161
:1044600071818281938120E030E44CE155E487D56D
:10447000DC01CB01F80180839183A283B383FE0129
:10448000E55AFF4F608171818281938120E030E0A5
:1044900040E85FE326D4882344F4FE01E75AFF4F47
:1044A00081E090E09183808360C0FE01E55AFF4F78
:1044B000608171818281938120E03FEF4FE757E473
:1044C0005AD518160CF041C0FE01E15AFF4F608129
:1044D00071818281938120E030E040E251E44FD548
:1044E000DC01CB018E01075A1F4FBC01CD0165D401
:1044F000DC01CB01F801918380831FC0FE01E95AE2
:10450000FF4F8AEF90E091838083FE01E95AFF4FCD
:10451000808191810197F1F7FE01E95AFF4F918364
:104520008083DE01A75ABF4FFE01E75AFF4F80810B
:104530009181019711969C938E93FE01E75AFF4F4C
:10454000808191810097D1F626C08E01075A1F4FB6
:10455000FE01E55AFF4F60817181828193812DD4E4
:10456000DC01CB01F80191838083DE01AB5ABF4FA0
:10457000FE01E75AFF4F808191818D939C93FE014C
:10458000EB5AFF4F808191810197F1F7FE01EB5AC1
:10459000FF4F918380838FEF6FEF0E94C905FE016B
:1045A000EF5AFF4F80E090E0AAEFB3E4808391835D
:1045B000A283B3838E01035B1F4FFE01EF5AFF4FAF
:1045C000608171818281938120E030E44CE155E487
:1045D000D6D4DC01CB01F80180839183A283B3831D
:1045E000FE01E35BFF4F608171818281938120E056
:1045F00030E040E85FE375D3882344F4FE01E55BD7
:10460000FF4F81E090E09183808360C0FE01E35B17
:10461000FF4F608171818281938120E03FEF4FE7FE
:1046200057E4A9D418160CF041C0FE01EF5AFF4F11
:10463000608171818281938120E030E040E251E429
:104640009ED4DC01CB018E01055B1F4FBC01CD0167
:10465000B4D3DC01CB01F801918380831FC0FE013C
:10466000E75BFF4F8AEF90E091838083FE01E75B79
:10467000FF4F808191810197F1F7FE01E75BFF4FCA
:1046800091838083DE01A55BBF4FFE01E55BFF4F99
:1046900080819181019711969C938E93FE01E55B39
:1046A000FF4F808191810097D1F626C08E01055B76
:1046B0001F4FFE01E35BFF4F608171818281938117
:1046C0007CD3DC01CB01F80191838083DE01A95BFF
:1046D000BF4FFE01E55BFF4F808191818D939C93DD
:1046E000FE01E95BFF4F808191810197F1F7FE01A7
:1046F000E95BFF4F9183808381E06FEF0E94C905E2
:10470000FE01ED5BFF4F80E090E0AAEFB3E4808311
:104710009183A283B3838E01015C1F4FFE01ED5B89
:10472000FF4F608171818281938120E030E44CE110
:1047300055E425D4DC01CB01F80180839183A28369
:10474000B383FE01FF96608171818281938120E0B5
:1047500030E040E85FE3C5D288232CF481E090E0AC
:104760009EAF8DAF42C0FE01FF9660817181828154
:10477000938120E03FEF4FE757E4FDD3181654F53F
:10478000FE01ED5BFF4F608171818281938120E0AA
:1047900030E040E251E4F3D3DC01CB01BC01CD01B8
:1047A0000CD3DC01CB019EAF8DAF0FC08AEF90E040
:1047B0009CAF8BAF8BAD9CAD0197F1F79CAF8BAFEE
:1047C0008DAD9EAD01979EAF8DAF8DAD9EAD009727
:1047D00069F711C2FE01FF96608171818281938128
:1047E000ECD2DC01CB019EAF8DAF8DAD9EAD9AAF0B
:1047F00089AF89AD9AAD0197F1F79AAF89AFFBC147
:10480000FE01EC58FF4F8081833009F4F4C1FE01B2
:10481000EC58FF4F8081843009F0CBC183E70E94C0
:10482000F11180E090E0A8E4B2E48DAB9EABAFABB9
:10483000B8AF6DA97EA98FA998AD20E030E44CE116
:1048400055E49DD3DC01CB0189AB9AABABABBCABE0
:1048500069A97AA98BA99CA920E030E040E85FE330
:1048600040D288232CF481E090E098AB8FA73BC026
:1048700069A97AA98BA99CA920E03FEF4FE757E4EB
:104880007AD318163CF56DA97EA98FA998AD20E0C2
:1048900030E040E251E473D3DC01CB01BC01CD0137
:1048A0008CD2DC01CB0198AB8FA70FC08AEF90E0D0
:1048B0009EA78DA78DA59EA50197F1F79EA78DA711
:1048C0008FA598A9019798AB8FA78FA598A9009756
:1048D00069F713C069A97AA98BA99CA96ED2DC01DA
:1048E000CB0198AB8FA78FA598A99CA78BA78BA569
:1048F0009CA50197F1F79CA78BA78FEF6FEF0E9404
:10490000C90580E090E0AAEFB3E48FA398A7A9A718
:10491000BAA76FA178A589A59AA520E030E44CE15B
:1049200055E42DD3DC01CB018BA39CA3ADA3BEA387
:104930006BA17CA18DA19EA120E030E040E85FE367
:10494000D0D188232CF481E090E09AA389A33BC0C6
:104950006BA17CA18DA19EA120E03FEF4FE757E422
:104960000AD318163CF56FA178A589A59AA520E071
:1049700030E040E251E403D3DC01CB01BC01CD01C6
:104980001CD2DC01CB019AA389A30FC08AEF90E06F
:1049900098A38F8F8F8D98A10197F1F798A38F8F90
:1049A00089A19AA101979AA389A389A19AA10097A5
:1049B00069F713C06BA17CA18DA19EA1FED1DC0182
:1049C000CB019AA389A389A19AA19E8F8D8F8D8DEA
:1049D0009E8D0197F1F79E8F8D8F81E06FEF0E9482
:1049E000C90580E090E0AAEFB3E4898F9A8FAB8F7E
:1049F000BC8F698D7A8D8B8D9C8D20E030E44CE1ED
:104A000055E4BDD2DC01CB018D8B9E8BAF8BB88F73
:104A10006D897E898F89988D20E030E040E85FE3E2
:104A200060D188232CF481E090E09C8B8B8B3BC081
:104A30006D897E898F89988D20E03FEF4FE757E49D
:104A40009AD218163CF5698D7A8D8B8D9C8D20E05D
:104A500030E040E251E493D2DC01CB01BC01CD0156
:104A6000ACD1DC01CB019C8B8B8B0FC08AEF90E02B
:104A70009A8B898B89899A890197F1F79A8B898B0F
:104A80008B899C8901979C8B8B8B8B899C89009748
:104A900069F713C06D897E898F89988D8ED1DC016D
:104AA000CB019C8B8B8B8B899C89988B8F878F8577
:104AB00098890197F1F7988B8F872CE830E286EA86
:104AC0009FEF62E3A9010E94E31980E090E0AAE76A
:104AD000B3E48B879C87AD87BE876B857C858D858E
:104AE0009E8520E030E44CE155E449D2DC01CB0165
:104AF0008F839887A987BA876F81788589859A85FA
:104B000020E030E040E85FE3ECD088232CF481E043
:104B100090E09E838D833BC06F81788589859A85DF
:104B200020E03FEF4FE757E426D218163CF56B859F
:104B30007C858D859E8520E030E040E251E41FD2E7
:104B4000DC01CB01BC01CD0138D1DC01CB019E835E
:104B50008D830FC08AEF90E09C838B838B819C8137
:104B60000197F1F79C838B838D819E8101979E83B2
:104B70008D838D819E81009769F713C06F81788541
:104B800089859A851AD1DC01CB019E838D838D8125
:104B90009E819A83898389819A810197F1F79A830B
:104BA00089838AE590E062E340E050E00E94E319E7
:104BB00022C0FE01EC58FF4F8081853079F48AE0F5
:104BC00090E062E340E050E00E94E31984E190E06D
:104BD00062E340E050E00E940D130DC0FE01EC586E
:104BE000FF4F8081863039F0FE01EC58FF4F808105
:104BF000873009F4FFCFDE01AC58BF4FFE01EC58FF
:104C0000FF4F80818F5F8C93FE01EC58FF4F8081B6
:104C1000883008F4E9CAD6CA5058BB27AA270ED054
:104C200070C161D130F066D120F031F49F3F11F4B2
:104C30001EF456C10EF4E095E7FB4CC1E92F72D18A
:104C400080F3BA17620773078407950718F071F4A9
:104C50009EF58AC10EF4E0950B2EBA2FA02D0B0104
:104C6000B90190010C01CA01A0011124FF27591BB1
:104C700099F0593F50F4503E68F11A16F040A22FB7
:104C8000232F342F4427585FF3CF46953795279528
:104C9000A795F0405395C9F77EF41F16BA0B620B27
:104CA000730B840BBAF09150A1F0FF0FBB1F661F6E
:104CB000771F881FC2F70EC0BA0F621F731F841FB1
:104CC00048F4879577956795B795F7959E3F08F0D7
:104CD000B3CF9395880F08F09927EE0F9795879596
:104CE0000895D4D008F481E008950CD00AC102D10F
:104CF00040F0F9D030F021F45F3F19F0EBC05111D2
:104D000034C1EEC00FD198F39923C9F35523B1F301
:104D1000951B550BBB27AA2762177307840738F02A
:104D20009F5F5F4F220F331F441FAA1FA9F333D089
:104D30000E2E3AF0E0E830D091505040E695001C3D
:104D4000CAF729D0FE2F27D0660F771F881FBB1FF9
:104D5000261737074807AB07B0E809F0BB0B802DD3
:104D6000BF01FF2793585F4F2AF09E3F510568F01F
:104D7000B1C0FBC05F3FECF3983EDCF386957795BE
:104D80006795B795F7959F5FC9F7880F911D969521
:104D9000879597F90895E1E0660F771F881FBB1F7D
:104DA000621773078407BA0720F0621B730B840B2A
:104DB000BA0BEE1F88F7E0950895BCD088F09F5796
:104DC00090F0B92F9927B751A0F0D1F0660F771F57
:104DD000881F991F1AF0BA95C9F712C0B13081F037
:104DE000C3D0B1E00895C0C0672F782F8827B85F7F
:104DF00039F0B93FCCF3869577956795B395D9F798
:104E00003EF490958095709561957F4F8F4F9F4FA1
:104E10000895E89409C097FB3EF4909580957095AD
:104E200061957F4F8F4F9F4F9923A9F0F92F96E9F6
:104E3000BB279395F695879577956795B795F1116B
:104E4000F8CFFAF4BB0F11F460FF1BC06F5F7F4F08
:104E50008F4F9F4F16C0882311F096E911C077231A
:104E600021F09EE8872F762F05C0662371F096E823
:104E7000862F70E060E02AF09A95660F771F881FF2
:104E8000DAF7880F9695879597F90895990F000896
:104E9000550FAA0BE0E8FEEF16161706E807F9070C
:104EA000C0F012161306E407F50798F0621B730BA7
:104EB000840B950B39F40A2661F0232B242B252B28
:104EC00021F408950A2609F4A140A6958FEF811DCB
:104ED000811D089597F99F6780E870E060E008956C
:104EE0009FEF80EC089500240A9416161706180602
:104EF0000906089500240A941216130614060506DE
:104F00000895092E0394000C11F4882352F0BB0F6E
:104F100040F4BF2B11F460FF04C06F5F7F4F8F4FD1
:104F20009F4F089557FD9058440F551F59F05F3F0C
:104F300071F04795880F97FB991F61F09F3F79F0BB
:104F400087950895121613061406551FF2CF46953D
:104F5000F1DF08C0161617061806991FF1CF8695BF
:104F60007105610508940895E894BB2766277727A3
:104F7000CB0197F908958ADF08F48FEF08950BD0DD
:104F8000C0CFB1DF28F0B6DF18F0952309F0A2CF2B
:104F9000A7CF1124EACFC6DFA0F3959FD1F3950FD9
:104FA00050E0551F629FF001729FBB27F00DB11DAD
:104FB000639FAA27F00DB11DAA1F649F6627B00D3D
:104FC000A11D661F829F2227B00DA11D621F739F26
:104FD000B00DA11D621F839FA00D611D221F749F34
:104FE0003327A00D611D231F849F600D211D822F7B
:104FF000762F6A2F11249F5750408AF0E1F08823C2
:105000004AF0EE0FFF1FBB1F661F771F881F9150CE
:105010005040A9F79E3F510570F05CCFA6CF5F3F8F
:10502000ECF3983EDCF3869577956795B795F79501
:10503000E7959F5FC1F7FE2B880F911D9695879589
:1050400097F908950F931F93CF93DF93689F800183
:10505000699F100D789F100D1124C8010DD0EC012F
:10506000009721F060E070E0A8010BD1CE01DF9144
:10507000CF911F910F910895CF93DF93BC018230A0
:10508000910510F462E070E0A0911608B091170845
:10509000ED01E0E0F0E040E050E021C0888199813E
:1050A0008617970769F48A819B81309719F093835B
:1050B000828304C09093170880931608FE0134C0C1
:1050C0006817790738F44115510519F084179507C9
:1050D00008F4AC01FE018A819B819C01E9012097C3
:1050E000E9F641155105A9F1CA01861B970B0497F2
:1050F00008F4BA01E0E0F0E02AC08D919C9111978C
:1051000084179507F9F46417750781F412968D9149
:105110009C911397309719F09383828304C09093E6
:10512000170880931608FD0132964FC0CA01861BEE
:10513000970BFD01E80FF91F6193719302978D930F
:105140009C9343C0FD01828193819C01D9011097FA
:10515000A1F68091140890911508892B41F4809153
:105160001C0490911D04909315088093140840919D
:105170001E0450911F044115510541F44DB75EB70F
:1051800080911A0490911B04481B590B209114081C
:105190003091150824173507B0F4CA01821B930B10
:1051A0008617970780F0AB014E5F5F4F8417950716
:1051B00050F0420F531F5093150840931408F90103
:1051C0006193719302C0E0E0F0E0CF01DF91CF91F5
:1051D0000895CF93DF93009709F450C0EC01229714
:1051E0001B821A82A0911608B0911708109709F136
:1051F00040E050E0AC17BD0708F1BB83AA83FE0175
:1052000021913191E20FF31FAE17BF0779F48D9111
:105210009C911197280F391F2E5F3F4F39832883A8
:1052200012968D919C9113979B838A83411551050A
:1052300071F4D0931708C093160820C012968D9170
:105240009C911397AD01009711F0DC01D3CFFA01C7
:10525000D383C28321913191E20FF31FCE17DF0771
:1052600069F488819981280F391F2E5F3F4FFA0119
:10527000318320838A819B8193838283DF91CF91C5
:105280000895DC0101C06D9341505040E0F708954E
:105290002F923F924F925F926F927F928F929F9246
:1052A000AF92BF92CF92DF92EF92FF920F931F9334
:1052B000DF93CF93CDB7DEB72B970FB6F894DEBF51
:1052C0000FBECDBF3C012B015A01FC011782168293
:1052D000838181FD03C06FEF7FEFB9C19AE0892E12
:1052E0001E010894211C311CF3012381F20123FDCE
:1052F000859123FF81912F01882309F4A5C185326F
:1053000039F423FD859123FF81912F01853221F40A
:1053100090E0B301CCD1E8CF982FFF24EE2499245C
:10532000FFE1FF15D0F09B3269F09C3228F49032F7
:1053300059F0933291F40EC09D3249F0903369F4E4
:1053400041E024C052E0F52A84E0F82A28C098E021
:10535000F92A25C0E0E1FE2A22C0F7FC29C0892FE6
:1053600080538A3070F4F6FE05C0989C902C11246E
:10537000980E15C0E89CE02C1124E80EF0E2FF2AFC
:105380000EC09E3229F4F6FC5FC140E4F42A07C047
:105390009C3619F450E8F52A02C0983649F4F20117
:1053A00023FD959123FF91912F01992309F0B8CF07
:1053B000892F8554833018F08052833038F444E0CC
:1053C00050E0A40EB51E5FE359830FC0933631F051
:1053D000933779F0933509F052C01FC0F5018081F1
:1053E000898342E050E0A40EB51E610101E010E0A7
:1053F00011C0F501C080D180F6FC03C06FEF7FEFD4
:1054000002C0692D70E042E050E0A40EB51EC60156
:1054100043D18C015FE7F52213C0F501C080D18034
:10542000F6FC03C06FEF7FEF02C0692D70E042E031
:1054300050E0A40EB51EC60124D18C0150E8F52A17
:10544000F3FE06C018C080E290E0B30130D1EA94C8
:105450008E2D90E008171907B0F30DC0F601F7FC88
:105460008591F7FE81916F0190E0B30120D1E110A9
:10547000EA94015010400115110581F7E2C09436FD
:1054800011F0993661F5F7FE08C0F50120813181F0
:105490004281538184E090E00AC0F50180819181CE
:1054A0009C01442737FD4095542F82E090E0A80EE0
:1054B000B91E9FE6F92257FF09C0509540953095D7
:1054C00021953F4F4F4F5F4FE0E8FE2ACA01B901D7
:1054D000A1012AE030E017D1D82ED2183FC095376D
:1054E00029F41F2D1F7E2AE030E01DC01F2D197FDB
:1054F0009F3661F0903720F4983509F0A5C00FC0B1
:10550000903739F0983709F09FC004C028E030E0A8
:105510000AC0106114FD146020E130E004C014FDE5
:10552000166020E132E017FF08C0F501608171814B
:105530008281938144E050E008C0F501808191812F
:10554000BC0180E090E042E050E0A40EB51EA10155
:10555000DAD0D82ED2188FE7F82EF122F6FE0BC043
:105560005EEFF522D91438F4F4FE07C0F2FC05C052
:105570008FEEF82202C01D2D01C0192DF4FE0DC0C2
:10558000FE01ED0DF11D8081803319F499EEF922B1
:1055900008C01F5FF2FE05C003C08F2D867809F09A
:1055A0001F5F0F2DF3FC13C0F0FE0EC01E1510F090
:1055B0009D2C0AC09D2C9E0C911A1E2D05C080E2C8
:1055C00090E0B30174D01F5F1E15C8F304C01E1510
:1055D00010F4E11A01C0EE2404FF0EC080E390E055
:1055E000B30165D002FF1BC001FD03C088E790E056
:1055F0000EC088E590E00BC0802F867881F001FF17
:1056000002C08BE201C080E2F7FC8DE290E0B301C2
:105610004ED005C080E390E0B30149D09A94D914EC
:10562000C8F3DA94F101ED0DF11D808190E0B30132
:105630003ED0DD20B1F705C080E290E0B30137D065
:10564000EA94EE20C9F750CEF30166817781CB0151
:105650002B960FB6F894DEBF0FBECDBFCF91DF9172
:105660001F910F91FF90EF90DF90CF90BF90AF9080
:105670009F908F907F906F905F904F903F902F9072
:105680000895FC010590615070400110D8F7809595
:1056900090958E0F9F1F0895FC01615070400190FE
:1056A0000110D8F7809590958E0F9F1F08950F9346
:1056B0001F93CF93DF938C01EB018B8181FF1BC084
:1056C00082FF0DC02E813F818C819D812817390773
:1056D00064F4E881F9810193F983E88306C0E885E1
:1056E000F985802F0995892B31F48E819F81019650
:1056F0009F838E8302C00FEF1FEFC801DF91CF9110
:105700001F910F910895FA01AA27283051F12031F5
:1057100081F1E8946F936E7F6E5F7F4F8F4F9F4F45
:10572000AF4FB1E03ED0B4E03CD0670F781F891F87
:105730009A1FA11D680F791F8A1F911DA11D6A0F55
:10574000711D811D911DA11D20D009F468943F9108
:105750002AE0269F11243019305D3193DEF6CF0107
:105760000895462F4770405D4193B3E00FD0C9F7CD
:10577000F6CF462F4F70405D4A3318F0495D31FD3A
:105780004052419302D0A9F7EACFB4E0A69597958D
:10579000879577956795BA95C9F700976105710563
:1057A00008959B01AC010A2E0694579547953795AD
:1057B0002795BA95C9F7620F731F841F951FA01D07
:0657C0000895F894FFCFEC
:1057C60053504920636F6D6D616E64206661696C2C
:1057D60065642E0A0D004D4D4320696E697420667E
:1057E60061696C65642E0A0D005772697474696E7E
:1057F6006720736563746F72206661696C65642ED9
:105806002025640A0D005772697474696E672073E7
:105816006563746F72206661696C6564202D203142
:105826002025640A0D0052656164696E6720736500
:1058360063746F72206661696C2E2025640A0D0000
:1058460052656164696E672074696D656F75742E43
:105856000A0D0052656164696E6720736563746F33
:10586600722025640A0D004E65787420667265659F
:1058760020636C75737465723A2025640A0D004CBA
:1058860042412D20424F4F5420737461727420613F
:105896006464726573733A2025640A0D00416C6C6A
:1058A6006F636174696F6E20756E69742D20636C09
:1058B60075737465722073697A653A2025640A0DDA
:1058C6000046415420737461727420616464726589
:1058D60073733A2025640A0D0053697A65206F6652
:1058E600204641543A2025640A0D00526F6F7420F9
:1058F600737461727420616464726573733A2025EF
:10590600640A0D0053697A65206F6620726F6F74A2
:105916003A2025640A0D0044617461207374617233
:105926007420616464726573733A2025640A0D00FD
:1059360046696C6520666F756E640A0D0046696C73
:1059460065206E6F7420666F756E64206F6E2052D0
:105956004F4F540A0D0046696C65206E6F742066C1
:105966006F756E64206F6E20444154410A0D0044E9
:1059760069726563746F727920666F756E642E0A3C
:105986000D004469726563746F7279206E6F7420BE
:10599600666F756E64206F6E20524F4F542E0A0D3F
:1059A600004469726563746F7279206E6F74206645
:1059B6006F756E64206F6E20444154412E0A0D00AF
:1059C6004661696C656420617420777269747469D4
:1059D6006E6720646573726970746F722E0A0D00AB
:1059E6004E657720636C7573746572207265736596
:1059F60072766174696F6E20647572696E6720775E
:105A060072697465206E65656465642E0A0D0054BE
:105A16007279696E6720746F207772697465206485
:105A2600617461206F6E20736563746F72202564E4
:105A36000A0D005772697474696E67206461746137
:105A4600206661696C65640A0D00417474656D7049
:105A560074696E6720746F20777269746520646557
:105A66007363726970746F7220736563746F7220EA
:105A76006372656174696E672066696C652025646A
:105A86000A0D2000526573657276656420636C7535
:105A96007374657220666F722066696C653A20259C
:105AA600640A0D00417474656D7074696E672074C4
:105AB6006F2077726974652046415420736563745C
:105AC6006F72206372656174696E672066696C65C2
:105AD6002025640A0D004C4F4700200018080000DE
