S019000056656C696B695F526F626F745F323031352E737265631B
S113000049C0000065C0000063C0000061C000007A
S11300105FC000005DC000005BC0000059C000006C
S113002057C0000055C0000053C0000051C000007C
S11300300C94D8094DC000004BC0000049C000001A
S113004047C0000045C000007DC3000041C000005F
S11300503FC000000C94E90A3BC000000C94A80ABD
S113006037C0000035C0000033C0000031C00000BC
S11300702FC000002DC000002BC0000029C00000CC
S11300800C94720B25C000000C94310B21C00000AD
S11300901FC0000011241FBECFEFD0E1DEBFCDBFD3
S11300A011E0A0E0B1E0E0EFFDE100E00BBF02C031
S11300B007900D92A630B107D9F712E0A6E0B1E09F
S11300C001C01D92A036B107E1F7C5D50C94F60E18
S11300D097CFDF93CF93CDB7DEB7A5970FB6F8943C
S11300E0DEBF0FBECDBF8DA383E48D8F8DA1813084
S11300F009F07DC081E08E8F72C080E090E0A8E4BA
S1130100B2E4898F9A8FAB8FBC8F698D7A8D8B8D7A
S11301109C8D20E030E44CE155E40E946D0DDC013F
S1130120CB018D8B9E8BAF8BB88F6D897E898F8928
S1130130988D20E030E040E85FE30E941F0C8823A4
S11301402CF481E090E09C8B8B8B3FC06D897E8981
S11301508F89988D20E03FEF4FE757E40E94690DA7
S113016018164CF5698D7A8D8B8D9C8D20E030E0CE
S113017040E251E40E946D0DDC01CB01BC01CD01D4
S11301800E948B0CDC01CB019C8B8B8B0FC08AEF04
S113019090E09A8B898B89899A890197F1F79A8BD8
S11301A0898B8B899C8901979C8B8B8B8B899C89F0
S11301B0009769F714C06D897E898F89988D0E9494
S11301C08B0CDC01CB019C8B8B8B8B899C89988B52
S11301D08F878F8598890197F1F7988B8F87CE0148
S11301E04D9664EDB7D4882309F087CF7CC08FEF98
S11301F08E8F72C080E090E0A8E4B2E48B879C8785
S1130200AD87BE876B857C858D859E8520E030E437
S11302104CE155E40E946D0DDC01CB018F8398877E
S1130220A987BA876F81788589859A8520E030E02F
S113023040E85FE30E941F0C88232CF481E090E0E7
S11302409E838D833FC06F81788589859A8520E060
S11302503FEF4FE757E40E94690D18164CF56B8584
S11302607C858D859E8520E030E040E251E40E944B
S11302706D0DDC01CB01BC01CD010E948B0CDC01B6
S1130280CB019E838D830FC08AEF90E09C838B8388
S11302908B819C810197F1F79C838B838D819E8157
S11302A001979E838D838D819E81009769F714C089
S11302B06F81788589859A850E948B0CDC01CB013E
S11302C09E838D838D819E819A83898389819A817E
S11302D00197F1F79A838983CE014D9664ED3AD460
S11302E0882309F087CFA5960FB6F894DEBF0FBE1A
S11302F0CDBFCF91DF910895DF93CF93CDB7DEB714
S1130300A5970FB6F894DEBF0FBECDBF8DA384E4CE
S11303108D8F8DA1813009F07DC081E08E8F72C0F8
S113032080E090E0A8E4B2E4898F9A8FAB8FBC8F11
S1130330698D7A8D8B8D9C8D20E030E44CE155E401
S11303400E946D0DDC01CB018D8B9E8BAF8BB88F22
S11303506D897E898F89988D20E030E040E85FE3E5
S11303600E941F0C88232CF481E090E09C8B8B8BE3
S11303703FC06D897E898F89988D20E03FEF4FE7DC
S113038057E40E94690D18164CF5698D7A8D8B8D92
S11303909C8D20E030E040E251E40E946D0DDC01D0
S11303A0CB01BC01CD010E948B0CDC01CB019C8BE9
S11303B08B8B0FC08AEF90E09A8B898B89899A89FD
S11303C00197F1F79A8B898B8B899C8901979C8B78
S11303D08B8B8B899C89009769F714C06D897E8902
S11303E08F89988D0E948B0CDC01CB019C8B8B8BAD
S11303F08B899C89988B8F878F8598890197F1F7D2
S1130400988B8F87CE014D9664EDA4D3882309F091
S113041087CF7CC08FEF8E8F72C080E090E0A8E41D
S1130420B2E48B879C87AD87BE876B857C858D8581
S11304309E8520E030E44CE155E40E946D0DDC0122
S1130440CB018F839887A987BA876F81788589853F
S11304509A8520E030E040E85FE30E941F0C882387
S11304602CF481E090E09E838D833FC06F8178857A
S113047089859A8520E03FEF4FE757E40E94690D94
S113048018164CF56B857C858D859E8520E030E0C3
S113049040E251E40E946D0DDC01CB01BC01CD01B1
S11304A00E948B0CDC01CB019E838D830FC08AEFED
S11304B090E09C838B838B819C810197F1F79C83D3
S11304C08B838D819E8101979E838D838D819E81F7
S11304D0009769F714C06F81788589859A850E9491
S11304E08B0CDC01CB019E838D838D819E819A834D
S11304F0898389819A810197F1F79A838983CE014F
S11305004D9664ED27D3882309F087CFA5960FB6BF
S1130510F894DEBF0FBECDBFCF91DF910895DF9376
S1130520CF93CDB7DEB7A5970FB6F894DEBF0FBE55
S1130530CDBF8DA385E48D8F8DA1813009F07DC061
S113054081E08E8F72C080E090E0A8E4B2E4898FED
S11305509A8FAB8FBC8F698D7A8D8B8D9C8D20E0AB
S113056030E44CE155E40E946D0DDC01CB018D8B30
S11305709E8BAF8BB88F6D897E898F89988D20E093
S113058030E040E85FE30E941F0C88232CF481E0F4
S113059090E09C8B8B8B3FC06D897E898F89988D71
S11305A020E03FEF4FE757E40E94690D18164CF521
S11305B0698D7A8D8B8D9C8D20E030E040E251E492
S11305C00E946D0DDC01CB01BC01CD010E948B0C9E
S11305D0DC01CB019C8B8B8B0FC08AEF90E09A8B54
S11305E0898B89899A890197F1F79A8B898B8B89F1
S11305F09C8901979C8B8B8B8B899C89009769F7CD
S113060014C06D897E898F89988D0E948B0CDC01C2
S1130610CB019C8B8B8B8B899C89988B8F878F8547
S113062098890197F1F7988B8F87CE014D9664EDE9
S113063091D2882309F087CF7CC08FEF8E8F72C050
S113064080E090E0A8E4B2E48B879C87AD87BE8706
S11306506B857C858D859E8520E030E44CE155E4F6
S11306600E946D0DDC01CB018F839887A987BA871F
S11306706F81788589859A8520E030E040E85FE3E2
S11306800E941F0C88232CF481E090E09E838D83CC
S11306903FC06F81788589859A8520E03FEF4FE7D9
S11306A057E40E94690D18164CF56B857C858D8581
S11306B09E8520E030E040E251E40E946D0DDC01B3
S11306C0CB01BC01CD010E948B0CDC01CB019E83CC
S11306D08D830FC08AEF90E09C838B838B819C81F8
S11306E00197F1F79C838B838D819E8101979E8373
S11306F08D838D819E81009769F714C06F81788501
S113070089859A850E948B0CDC01CB019E838D83A5
S11307108D819E819A83898389819A810197F1F7DA
S11307209A838983CE014D9664ED14D2882309F00F
S113073087CFA5960FB6F894DEBF0FBECDBFCF917D
S1130740DF9108951F920F920FB60F9200905B00F5
S11307500F9211242F933F934F935F938F939F9303
S1130760AF93BF93EF93FF93DF93CF9300D000D069
S1130770CDB7DEB7EDEEF0E080818C831B829CC0A8
S1130780EDEEF0E08B818295807F8083EEEEF0E0E9
S11307908081829586958770882F90E08170907013
S11307A0882309F46EC0EFEEF0E080E88083AEEEBB
S11307B0B0E0EEEEF0E080818F7D8C93E2EFF0E02C
S11307C08081829586958770282FE3EFF0E0808101
S11307D0882F90E0880F991F880F991F880F991F01
S11307E0822B8A8319822AC08A81282F30E081E0F3
S11307F090E0821B930B880F991F909581959F4FD2
S1130800FC01EA5FFE4F408151818A81882F90E08C
S11308100197FC01E65EFE4F8081282F30E089813C
S1130820882F90E0820F931FDA01A80FB91FEAEF17
S1130830F0E080818C9389818F5F898389818830FE
S113084098F28A81882F90E00197FC01E65EFE4FC2
S113085080818F5F80838081853041F48A81882FF5
S113086090E00197FC01E65EFE4F10828A81882F9A
S113087090E00197FC01E25DFE4F80818F5F8083F1
S11308801FC0EEEEF0E08081829586958695837098
S1130890882F90E081709070882359F0EFEEF0E09B
S11308A01082AEEEB0E0EEEEF0E080818F7B8C93B0
S11308B007C08B818F5F8B838B818F3008F460CF6F
S11308C0EDEEF0E08C818083AAEDB0E0EAEDF0E09B
S11308D080818C930F900F900F900F90CF91DF91A8
S11308E0FF91EF91BF91AF919F918F915F914F9144
S11308F03F912F910F9000925B000F900FBE0F90CD
S11309001F901895DF93CF9300D0CDB7DEB7E8EDF5
S1130910F0E081E080831A8232C0EDEEF0E08A815B
S11309208295807F8083EEEEF0E01082EFEEF0E0BF
S11309301082E3EFF0E01082E2EFF0E01082E1EFEA
S1130940F0E01082E0EFF0E01082E7EFF0E01082D8
S1130950E6EFF0E01082E5EFF0E01082E4EFF0E083
S11309601082198206C0EAEFF0E0108289818F5F5D
S1130970898389818830B8F38A818F5F8A838A81E9
S11309808F3058F2E8EDF0E082E08083E2EEF0E0B0
S113099081E08083E3EEF0E088E08083E4EEF0E041
S11309A08EE58083E5EEF0E01082EBEDF0E080EB85
S11309B08083EFEDF0E08FE78083EEEDF0E08FEFE2
S11309C0808378940F900F90CF91DF910895DF93F7
S11309D0CF9300D000D00F92CDB7DEB79C838B832A
S11309E0EDEEF0E080818983E9EDF0E0808182958D
S11309F08F70882F90E0817090708823A9F7E9EDBB
S1130A00F0E08081869586958695882F90E08170A8
S1130A109070882349F71A823FC0EDEEF0E08A8196
S1130A208295807F8083EFEEF0E0808182958695C9
S1130A3086958370882369F5EFEEF0E08FE080837C
S1130A40E3EFF0E08B819C81907096958795969565
S1130A508795969587958083E2EFF0E08B81829568
S1130A60880F807E8083E6EFF0E080EE8083E7EFFE
S1130A70F0E08FEF8083AFEEB0E0EFEEF0E0808146
S1130A8080688C93EDEEF0E08981808381E08D8332
S1130A900CC08A818F5F8A838A818F3008F4BDCF2E
S1130AA0EDEEF0E0898180831D828D810F900F909F
S1130AB00F900F900F90CF91DF9108950F931F9394
S1130AC0DF93CF9300D0CDB7DEB78A831BDF1982C3
S1130AD036C08981882F90E0019679DF8981882F3B
S1130AE090E0880F991F8C010A5F1E4F85E090E00B
S1130AF061E070E00E94D00DF801918380838981C8
S1130B00482F50E08981282F30E08981882F90E098
S1130B10FC01E25DFE4F1082FC01E25DFE4F80812C
S1130B20F901EC5DFE4F8083F901EC5DFE4F80819D
S1130B30FA01E65EFE4F808389818F5F8983998104
S1130B408A81981730F20F900F90CF91DF911F9107
S1130B500F910895DF93CF93CDB7DEB727970FB6E4
S1130B60F894DEBF0FBECDBF9D838C836E83E9ED09
S1130B70F0E0808182958F70882F90E08170907072
S1130B808823A9F7E9EDF0E080818695869586951E
S1130B90882F90E081709070882349F7EDEEF0E0A3
S1130BA0808189831A8212C0EDEEF0E08A818295F9
S1130BB0807F8083EFEEF0E0808182958695869534
S1130BC08370882331F08A818F5F8A838A818F3092
S1130BD058F38A818F3019F48FEF8F8332C0E2EF9C
S1130BE0F0E08E818295880F807E8083E3EFF0E0D1
S1130BF08E818695869586958083EFEEF0E088E079
S1130C0080831B820FC0AAEFB0E08B81282F30E0D5
S1130C108C819D81FC01E20FF31F80818C938B8179
S1130C208F5F8B838B81883070F3AFEEB0E0EFEE93
S1130C30F0E0808180648C93EDEEF0E08981808324
S1130C401F828F8127960FB6F894DEBF0FBECDBFEB
S1130C50CF91DF9108950F931F93DF93CF93CDB777
S1130C60DEB7C654D0400FB6F894DEBF0FBECDBF7A
S1130C70CED381E02EDAFE01ED5BFF4F80E090E001
S1130C80AAE7B4E480839183A283B3838E01015CD9
S1130C901F4FFE01ED5BFF4F608171818281938163
S1130CA020E030E44CE155E418D7DC01CB01F80135
S1130CB080839183A283B383FE01FF966081718157
S1130CC08281938120E030E040E85FE3B8D5882357
S1130CD02CF481E090E09EAF8DAF42C0FE01FF9600
S1130CE0608171818281938120E03FEF4FE757E477
S1130CF0F0D6181654F5FE01ED5BFF4F608171814B
S1130D008281938120E030E040E251E4E6D6DC01C8
S1130D10CB01BC01CD01FFD5DC01CB019EAF8DAF72
S1130D200FC08AEF90E09CAF8BAF8BAD9CAD019769
S1130D30F1F79CAF8BAF8DAD9EAD01979EAF8DAF9C
S1130D408DAD9EAD009769F715C0FE01FF966081D9
S1130D50718182819381DFD5DC01CB019EAF8DAFA0
S1130D608DAD9EAD9AAF89AF89AD9AAD0197F1F77C
S1130D709AAF89AF8FEFADD980E090E0AAE7B4E4F1
S1130D808DAB9EABAFABB8AF6DA97EA98FA998AD63
S1130D9020E030E44CE155E4A0D6DC01CB0189AB82
S1130DA09AABABABBCAB69A97AA98BA99CA920E08F
S1130DB030E040E85FE343D588232CF481E090E001
S1130DC098AB8FA73BC069A97AA98BA99CA920E0FD
S1130DD03FEF4FE757E47DD618163CF56DA97EA981
S1130DE08FA998AD20E030E040E251E476D6DC01F2
S1130DF0CB01BC01CD018FD5DC01CB0198AB8FA712
S1130E000FC08AEF90E09EA78DA78DA59EA50197A0
S1130E10F1F79EA78DA78FA598A9019798AB8FA7E7
S1130E208FA598A9009769F713C069A97AA98BA916
S1130E309CA971D5DC01CB0198AB8FA78FA598A98C
S1130E409CA78BA78BA59CA50197F1F79CA78BA7C3
S1130E5081E052DA80E090E0AAE7B4E48FA398A797
S1130E60A9A7BAA76FA178A589A59AA520E030E41F
S1130E704CE155E432D6DC01CB018BA39CA3ADA39A
S1130E80BEA36BA17CA18DA19EA120E030E040E82F
S1130E905FE3D5D488232CF481E090E09AA389A35E
S1130EA03BC06BA17CA18DA19EA120E03FEF4FE749
S1130EB057E40FD618163CF56FA178A589A59AA515
S1130EC020E030E040E251E408D6DC01CB01BC0173
S1130ED0CD0121D5DC01CB019AA389A30FC08AEFF0
S1130EE090E098A38F8F8F8D98A10197F1F798A325
S1130EF08F8F89A19AA101979AA389A389A19AA105
S1130F00009769F713C06BA17CA18DA19EA103D5A5
S1130F10DC01CB019AA389A389A19AA19E8F8D8F0D
S1130F208D8D9E8D0197F1F79E8F8D8F8FEFE4D974
S1130F3080E090E0AAE7B4E4898F9A8FAB8FBC8FEE
S1130F40698D7A8D8B8D9C8D20E030E44CE155E4E5
S1130F50C4D5DC01CB018D8B9E8BAF8BB88F6D8993
S1130F607E898F89988D20E030E040E85FE367D484
S1130F7088232CF481E090E09C8B8B8B3BC06D89A3
S1130F807E898F89988D20E03FEF4FE757E4A1D504
S1130F9018163CF5698D7A8D8B8D9C8D20E030E0A0
S1130FA040E251E49AD5DC01CB01BC01CD01B3D4BC
S1130FB0DC01CB019C8B8B8B0FC08AEF90E09A8B6A
S1130FC0898B89899A890197F1F79A8B898B8B8907
S1130FD09C8901979C8B8B8B8B899C89009769F7E3
S1130FE013C06D897E898F89988D95D4DC01CB01DE
S1130FF09C8B8B8B8B899C89988B8F878F85988909
S11310000197F1F7988B8F8781E089DA80E090E08F
S1131010AAE7B4E48B879C87AD87BE876B857C8504
S11310208D859E8520E030E44CE155E456D5DC0105
S1131030CB018F839887A987BA876F817885898543
S11310409A8520E030E040E85FE3F9D388232CF46C
S113105081E090E09E838D833BC06F817885898594
S11310609A8520E03FEF4FE757E433D518163CF557
S11310706B857C858D859E8520E030E040E251E4DF
S11310802CD5DC01CB01BC01CD0145D4DC01CB0165
S11310909E838D830FC08AEF90E09C838B838B812A
S11310A09C810197F1F79C838B838D819E810197AD
S11310B09E838D838D819E81009769F713C06F8114
S11310C0788589859A8527D4DC01CB019E838D831D
S11310D08D819E819A83898389819A810197F1F711
S11310E09A8389838FEF1BDAC4CD0F931F93DF9309
S11310F0CF9300D000D00F92CDB7DEB79B838A8305
S11311006C83809138018A3010F01D828DC08091EB
S11311103801082F10E086E090E05CD59C01C801FE
S1131120880F991FFC01E65CFE4F31832083809178
S11311303801882F90E0880F991FFC01E65CFE4F70
S113114080819181009719F48FEF8D836DC0809118
S11311503801882F90E0880F991FFC01E65CFE4F50
S11311600190F081E02D8A819B819183808380911D
S11311703801882F90E0880F991FFC01E65CFE4F30
S11311800190F081E02D8C818283198216C08091B8
S11311903801882F90E0880F991FFC01E65CFE4F10
S11311A0208131818981882F90E0820F931FFC0177
S11311B03396108289818F5F89838981833038F3E4
S11311C08A819B81DC0111978A819B81FC01319783
S11311D08081482F8C81282F30E081E090E002C08C
S11311E0880F991F2A95E2F7809584238C93EA81CE
S11311F0FB818081482F8C81282F30E081E090E0B2
S1131200022E02C0880F991F0A94E2F7842BEA8108
S1131210FB818083809138018983809138018F5FBD
S11312208093380189818D838D810F900F900F9069
S11312300F900F90CF91DF911F910F910895DF933D
S1131240CF9300D0CDB7DEB78A8319828A81882FE5
S113125090E0880F991FFC01E65CFE4F0190F0813D
S1131260E02D80819181FC0132978081282F30E02C
S11312708A81882F90E0880F991FFC01E65CFE4F5D
S11312800190F081E02D8281882F90E0A90102C0B5
S1131290559547958A95E2F7CA01817089838981BA
S11312A00F900F90CF91DF910895EF92FF920F93DB
S11312B01F93DF93CF930F92CDB7DEB7809139019F
S11312C08F5F8093390180913901833010F010923F
S11312D0390119821AC08981882F90E0880F991FDB
S11312E0FC01E65CFE4FE080F18080913901082F1B
S11312F010E08981A4DF282FC701800F911FFC0112
S11313003396208389818F5F898390913801898105
S1131310891708F30F90CF91DF911F910F91FF90E0
S1131320EF9008950F931F93DF93CF9300D0CDB721
S1131330DEB79A838983E0E8F0E01082E1E8F0E028
S113134089E0808308E810E089819A81CC01A0E0DB
S1131350B0E0BC01CD010BD39B01AC0160E876E9A0
S113136088E19BE470D2DC01CB01BC01CD0120E01B
S113137030E040E05FE3FFD1DC01CB01BC01CD01F3
S1131380CAD2DC01CB01F80191838083EFE6F0E05F
S113139082E08083AFE5B0E0EFE5F0E08081806833
S11313A08C930F900F90CF91DF911F910F9108951F
S11313B01F920F920FB60F9200905B000F921124B0
S11313C02F933F934F935F936F937F938F939F9349
S11313D0AF93BF93EF93FF93DF93CF93CDB7DEB774
S11313E064DFCF91DF91FF91EF91BF91AF919F9116
S11313F08F917F916F915F914F913F912F910F90BA
S113140000925B000F900FBE0F901F901895DF9312
S1131410CF93CDB7DEB72E970FB6F894DEBF0FBECD
S1131420CDBF88EE93E07EDFE3E3F0E08FEF8083CF
S113143084E090E043DB82E290E064E056DE809357
S1131440590282E290E065E050DE80935B0282E222
S113145090E066E04ADE8093570282E290E067E023
S113146044DE8093580280E090E0AAE7B4E48B87DE
S11314709C87AD87BE876B857C858D859E8520E0A6
S113148030E44CE155E429D3DC01CB018F83988708
S1131490A987BA876F81788589859A8520E030E0AD
S11314A040E85FE3CCD188232CF481E090E09E8374
S11314B08D833BC06F81788589859A8520E03FEFD5
S11314C04FE757E406D318163CF56B857C858D856C
S11314D09E8520E030E040E251E4FFD2DC01CB0104
S11314E0BC01CD0118D2DC01CB019E838D830FC0DA
S11314F08AEF90E09C838B838B819C810197F1F729
S11315009C838B838D819E8101979E838D838D81A6
S11315109E81009769F713C06F81788589859A85C4
S1131520FAD1DC01CB019E838D838D819E819A83C8
S1131530898389819A810197F1F79A8389832E9609
S11315400FB6F894DEBF0FBECDBFCF91DF910895E3
S11315501F920F920FB60F9200905B000F9211240E
S11315608F939F93AF93BF93EF93FF93DF93CF93A7
S1131570CDB7DEB780914E018823D9F080914E011A
S1131580815080934E01A6ECB0E080914F01882FEA
S113159090E0FC01EA5AFE4F80818C9380914F01C8
S11315A08F5F80934F0180914F01803411F410922A
S11315B04F01CF91DF91FF91EF91BF91AF919F9137
S11315C08F910F9000925B000F900FBE0F901F90B1
S11315D018951F920F920FB60F9200905B000F9216
S11315E011242F938F939F93EF93FF93DF93CF93C4
S11315F00F92CDB7DEB7E0ECF0E08081898389817A
S1131600882F90E08C7190700097D9F480915001EC
S1131610882F90E0E6ECF0E02081FC01EA56FE4FD2
S11316202083809150018F5F8093500180915001FD
S1131630803411F410925001809151018F5F809396
S113164051010F90CF91DF91FF91EF919F918F9175
S11316502F910F9000925B000F900FBE0F901F9080
S113166018951F920F920FB60F9200905B000F9285
S113167011248F939F93AF93BF93EF93FF93DF93C3
S1131680CF93CDB7DEB7809152018823D9F08091F2
S11316905201815080935201AEECB0E0809153012D
S11316A0882F90E0FC01EA52FE4F80818C93809158
S11316B053018F5F8093530180915301803411F45F
S11316C010925301CF91DF91FF91EF91BF91AF91B0
S11316D09F918F910F9000925B000F900FBE0F901F
S11316E01F9018951F920F920FB60F9200905B00F7
S11316F00F9211242F938F939F93EF93FF93DF9374
S1131700CF930F92CDB7DEB7E8ECF0E08081898308
S11317108981882F90E08C7190700097D9F4809122
S11317205401882F90E0EEECF0E02081FC01EA5EA9
S1131730FD4F2083809154018F5F809354018091E9
S11317405401803411F410925401809155018F5F3B
S1131750809355010F90CF91DF91FF91EF919F916D
S11317608F912F910F9000925B000F900FBE0F90FE
S11317701F9018955058BB27AA270ED070C161D16D
S113178030F066D120F031F49F3F11F41EF456C1BD
S11317900EF4E095E7FB4CC1E92F72D180F3BA1740
S11317A0620773078407950718F071F49EF58AC1E0
S11317B00EF4E0950B2EBA2FA02D0B01B901900168
S11317C00C01CA01A0011124FF27591B99F0593FAC
S11317D050F4503E68F11A16F040A22F232F342FF4
S11317E04427585FF3CF469537952795A795F04042
S11317F05395C9F77EF41F16BA0B620B730B840B57
S1131800BAF09150A1F0FF0FBB1F661F771F881F0E
S1131810C2F70EC0BA0F621F731F841F48F4879566
S113182077956795B795F7959E3F08F0B3CF939555
S1131830880F08F09927EE0F979587950895D4D0CF
S113184008F481E008950CD00AC102D140F0F9D027
S113185030F021F45F3F19F0EBC0511134C1EEC0F8
S11318600FD198F39923C9F35523B1F3951B550B65
S1131870BB27AA2762177307840738F09F5F5F4F5F
S1131880220F331F441FAA1FA9F333D00E2E3AF0A0
S1131890E0E830D091505040E695001CCAF729D0BA
S11318A0FE2F27D0660F771F881FBB1F2617370709
S11318B04807AB07B0E809F0BB0B802DBF01FF2739
S11318C093585F4F2AF09E3F510568F0B1C0FBC0AA
S11318D05F3FECF3983EDCF3869577956795B79573
S11318E0F7959F5FC9F7880F911D9695879597F98E
S11318F00895E1E0660F771F881FBB1F6217730707
S11319008407BA0720F0621B730B840BBA0BEE1F1B
S113191088F7E0950895BCD088F09F5790F0B92FD0
S11319209927B751A0F0D1F0660F771F881F991F30
S11319301AF0BA95C9F712C0B13081F0C3D0B1E042
S11319400895C0C0672F782F8827B85F39F0B93F52
S1131950CCF3869577956795B395D9F73EF4909532
S11319608095709561957F4F8F4F9F4F0895E894B0
S113197009C097FB3EF490958095709561957F4FD3
S11319808F4F9F4F9923A9F0F92F96E9BB27939581
S1131990F695879577956795B795F111F8CFFAF491
S11319A0BB0F11F460FF1BC06F5F7F4F8F4F9F4FC2
S11319B016C0882311F096E911C0772321F09EE820
S11319C0872F762F05C0662371F096E8862F70E086
S11319D060E02AF09A95660F771F881FDAF7880F60
S11319E09695879597F90895990F0008550FAA0BB6
S11319F0E0E8FEEF16161706E807F907C0F012161E
S1131A001306E407F50798F0621B730B840B950B20
S1131A1039F40A2661F0232B242B252B21F4089575
S1131A200A2609F4A140A6958FEF811D811D089512
S1131A3097F99F6780E870E060E008959FEF80EC7D
S1131A40089500240A941616170618060906089520
S1131A5000240A9412161306140605060895092E86
S1131A600394000C11F4882352F0BB0F40F4BF2BF5
S1131A7011F460FF04C06F5F7F4F8F4F9F4F089535
S1131A8057FD9058440F551F59F05F3F71F047952B
S1131A90880F97FB991F61F09F3F79F08795089510
S1131AA0121613061406551FF2CF4695F1DF08C02F
S1131AB0161617061806991FF1CF8695710561054C
S1131AC008940895E894BB2766277727CB0197F9F4
S1131AD008958ADF08F48FEF08950BD0C0CFB1DFEB
S1131AE028F0B6DF18F0952309F0A2CFA7CF112470
S1131AF0EACFC6DFA0F3959FD1F3950F50E0551FB1
S1131B00629FF001729FBB27F00DB11D639FAA274E
S1131B10F00DB11DAA1F649F6627B00DA11D661F9D
S1131B20829F2227B00DA11D621F739FB00DA11DBE
S1131B30621F839FA00D611D221F749F3327A00D78
S1131B40611D231F849F600D211D822F762F6A2F14
S1131B5011249F5750408AF0E1F088234AF0EE0F99
S1131B60FF1FBB1F661F771F881F91505040A9F7A6
S1131B709E3F510570F05CCFA6CF5F3FECF3983EDB
S1131B80DCF3869577956795B795F795E7959F5F0D
S1131B90C1F7FE2B880F911D9695879597F90895A7
S1131BA00F931F93CF93DF93689F8001699F100D5C
S1131BB0789F100D1124C8010DD0EC01009721F07D
S1131BC060E070E0A8010BD1CE01DF91CF911F91AD
S1131BD00F910895CF93DF93BC018230910510F4E7
S1131BE062E070E0A0915E02B0915F02ED01E0E07E
S1131BF0F0E040E050E021C0888199818617970782
S1131C0069F48A819B81309719F09383828304C09D
S1131C1090935F0280935E02FE0134C068177907D7
S1131C2038F44115510519F08417950708F4AC01EF
S1131C30FE018A819B819C01E9012097E9F6411507
S1131C405105A9F1CA01861B970B049708F4BA0140
S1131C50E0E0F0E02AC08D919C91119784179507DC
S1131C60F9F46417750781F412968D919C9113977A
S1131C70309719F09383828304C090935F0280931A
S1131C805E02FD0132964FC0CA01861B970BFD010F
S1131C90E80FF91F6193719302978D939C9343C04E
S1131CA0FD01828193819C01D9011097A1F6809155
S1131CB05C0290915D02892B41F480910201909124
S1131CC0030190935D0280935C0240910401509162
S1131CD005014115510541F44DB75EB780910001EE
S1131CE090910101481B590B20915C0230915D02D7
S1131CF024173507B0F4CA01821B930B8617970784
S1131D0080F0AB014E5F5F4F8417950750F0420F90
S1131D10531F50935D0240935C02F90161937193E8
S1131D2002C0E0E0F0E0CF01DF91CF910895CF93BE
S1131D30DF93009709F450C0EC0122971B821A82AA
S1131D40A0915E02B0915F02109709F140E050E06B
S1131D50AC17BD0708F1BB83AA83FE012191319121
S1131D60E20FF31FAE17BF0779F48D919C91119781
S1131D70280F391F2E5F3F4F3983288312968D9188
S1131D809C9113979B838A834115510571F4D093D9
S1131D905F02C0935E0220C012968D919C911397AE
S1131DA0AD01009711F0DC01D3CFFA01D383C283D4
S1131DB021913191E20FF31FCE17DF0769F4888177
S1131DC09981280F391F2E5F3F4FFA0131832083F9
S1131DD08A819B8193838283DF91CF910895DC0173
S1131DE001C06D9341505040E0F70895F894FFCF3F
S1091DF020006002000067
S9030000FC
