S019000056656C696B695F526F626F745F323031352E737265631B
S113000049C0000065C0000063C0000061C000007A
S11300105FC000005DC000005BC0000059C000006C
S113002057C0000055C0000053C0000051C000007C
S113003080C400004DC000004BC0000049C0000057
S113004047C0000045C00000F4C0000041C00000EB
S11300503FC0000052C500003BC000000CC50000BA
S113006037C0000035C0000033C0000031C00000BC
S11300702FC000002DC000002BC0000029C00000CC
S1130080CAC5000025C0000084C5000021C00000CE
S11300901FC0000011241FBECFEFD0E1DEBFCDBFD3
S11300A011E0A0E0B1E0E0EBF8E100E00BBF02C03A
S11300B007900D92A630B107D9F722E0A6E0B1E08F
S11300C001C01D92A238B207E1F7DFD20C94560C9E
S11300D097CF2F923F924F925F926F927F928F921F
S11300E09F92AF92BF92CF92DF92EF92FF920F93C3
S11300F01F93CF93DF9300D000D0CDB7DEB79A83A0
S113010089838DE290E02DE230E0F90120812863BB
S1130110FC01208384E990E0FC011182108288E9CB
S113012090E0FC01118210828AE990E0FC011182C6
S113013010828CE990E0FC011182108280E990E049
S11301402EEFFC01208381E990E029E1FC0120836A
S113015086E990E09C838B8389819A819C0140E0AD
S113016050E060E070E0CB016894222427F80F2E61
S1130170F6E93F2EF02D0F2EF8E94F2EF02D512CDD
S1130180612C712C812C912CA22EB32EC42ED52E31
S1130190E62EF72E082F192F222D332D442D552D01
S11301A0662D772D882D992D49D7222E332E442E56
S11301B0552E662E772E882E992EA22CB32CC42C65
S11301C0D52CE62CF72C082D192D2A2D3B2D4C2D42
S11301D05D2D6E2D7F2D802F912F9FD6DC01CB01BD
S11301E020E030E040E05FE3BC01CD0160D5DC01FC
S11301F0CB01BC01CD0128D6DC01CB01EB81FC8114
S1130200918380830F900F900F900F90DF91CF9187
S11302101F910F91FF90EF90DF90CF90BF90AF9020
S11302209F908F907F906F905F904F903F902F9012
S113023008951F920F9200905F000F921124009076
S11302405B000F922F933F934F935F938F939F93F2
S1130250EF93FF93CF93DF9300D000D0CDB7DEB7F9
S11302608DEE90E0FC0180818B831982A4C08DEE19
S113027090E029812295207FFC0120838EEE90E07E
S1130280FC018081829586958770882F90E081702B
S11302909927009709F470C08FEE90E020E8FC01E4
S11302A020838EEE90E02EEE30E0F90120812F7D48
S11302B0FC01208382EF90E0FC0180818295869589
S11302C08770282F83EF90E0FC018081882F90E0D5
S11302D0880F991F880F991F880F991F822B8C8371
S11302E01A8226C08C81882F90E081509048880F14
S11302F0991F8A5F9E4FFC01208131818C81882F58
S113030090E00197865E9E4FFC018081482F50E06B
S11303108A81882F90E0840F951F820F931F2AEF04
S113032030E0F9012081FC0120838A818F5F8A8378
S11303308A818830B8F28C81882F90E00197865E9C
S11303409E4FFC0120812F5FFC012083253041F466
S11303508C81882F90E00197865E9E4FFC0110826D
S11303608C81882F90E00197825D9E4FFC01208153
S11303702F5FFC01208323C08EEE90E0FC0180817E
S11303808295869586958370882F90E08170992751
S1130390009771F08FEE90E0FC0110828EEE90E0F9
S11303A02EEE30E0F90120812F7BFC01208307C071
S11303B089818F5F898389818F3008F458CF8DEECE
S11303C090E02B81FC0120838AED90E02AED30E05F
S11303D0F9012081FC0120830F900F900F900F9062
S11303E0DF91CF91FF91EF919F918F915F914F9109
S11303F03F912F910F9000925B000F9000925F004D
S11304000F901F901895CF93DF9300D0CDB7DEB730
S113041088ED90E021E0FC01208319823EC08DEE3E
S113042090E029812295207FFC0120838EEE90E0CC
S1130430FC0110828FEE90E0FC01108283EF90E0CB
S1130440FC01108282EF90E0FC01108281EF90E0C9
S1130450FC01108280EF90E0FC01108287EF90E0B5
S1130460FC01108286EF90E0FC01108285EF90E0A1
S1130470FC01108284EF90E0FC0110821A8207C014
S11304808AEF90E0FC0110828A818F5F8A838A81DF
S11304908830B0F389818F5F898389818F3008F434
S11304A0BECF88ED90E022E0FC01208382EE90E054
S11304B021E0FC01208383EE90E028E0FC0120830E
S11304C084EE90E02EE5FC01208385EE90E0FC01B3
S11304D010828BED90E020EBFC0120838FED90E007
S11304E02FE7FC0120838EED90E02FEFFC012083A9
S11304F078940F900F90DF91CF910895CF93DF936D
S113050000D000D0CDB7DEB79C838B838DEE90E016
S1130510FC0180818A83000089ED90E0FC018081E8
S113052082958F70882F90E0817099270097A1F7AA
S113053089ED90E0FC018081869586958695882FCB
S113054090E081709927009739F7198249C08DEEA0
S113055090E029812295207FFC0120838FEE90E09A
S1130560FC0180818295869586958370882321F08D
S113057089818F5F898334C08FEE90E02FE0FC0186
S1130580208383EF90E02B813C8133273695279598
S11305903695279536952795FC01208382EF90E0C8
S11305A02B812295220F207EFC01208386EF90E090
S11305B020EEFC01208387EF90E02FEFFC012083E5
S11305C08FEE90E02FEE30E0F90120812068FC01ED
S11305D020838DEE90E02A81FC01208381E00AC013
S11305E089818F3008F4B3CF8DEE90E02A81FC012D
S11305F0208380E00F900F900F900F90DF91CF91A8
S113060008950F931F93CF93DF9300D0CDB7DEB738
S11306108A83F9DE19822EC08981882F90E00196A1
S11306206DDF8981882F90E0880F991F8C010A5F04
S11306301E4F61E070E085E090E05CD5F8019183A5
S113064080838981882F90E02981222F30E049819D
S1130650442F50E060E0425D5E4FFA0160832C5D00
S11306603E4FF9016083865E9E4FFC016083898161
S11306708F5F898399818A81981770F20F900F9008
S1130680DF91CF911F910F910895CF93DF93CDB751
S1130690DEB793D1FFCF0F931F93CF93DF9300D097
S11306A000D0CDB7DEB79B838A836C8380916001D1
S11306B0843110F080E073C080916001082F10E055
S11306C086E090E031D59C01C801880F991F885CB1
S11306D09E4FFC013183208380916001882F90E03C
S11306E0880F991F885C9E4FFC018081918100973F
S11306F011F48FEF54C080916001882F90E0880F2F
S1130700991F885C9E4FFC01808191812A813B81E5
S1130710FC013183208380916001882F90E0880F51
S1130720991F885C9E4FFC01808191812C81FC0182
S11307302283198216C080916001882F90E0880F6F
S1130740991F885C9E4FFC01208131818981882F0B
S113075090E0820F931F0396FC01108289818F5FC2
S113076089838981833038F38A819B810197FC01D5
S113077080818A819B810197FC0110828A819B81FF
S1130780FC0180818A819B81FC011082809160013F
S11307908983809160018F5F8093600189810F90CC
S11307A00F900F900F90DF91CF911F910F910895AB
S11307B0CF93DF9300D0CDB7DEB78A8319828A81C5
S11307C0882F90E0880F991F885C9E4FFC018081E0
S11307D09181FC01808191810297FC018081882FA5
S11307E090E02A81222F30E0220F331F285C3E4FF5
S11307F0F90120813181F9012281222F30E0022E7A
S113080002C0959587950A94E2F78170898389815E
S11308100F900F90DF91CF910895EF92FF920F9375
S11308201F93CF93DF931F92CDB7DEB780916501FD
S11308308F5F8093650180916501833014F010927D
S1130840650119821CC08981882F90E0880F991F47
S1130850885C9E4FFC01E080F18080916501082F47
S1130860112707FD10958981A3DF282FC701800F69
S1130870911F0396FC01208389818F5F8983809176
S1130880600199819817F8F20F90DF91CF911F9131
S11308900F91FF90EF9008950F931F93CF93DF93E1
S11308A000D0CDB7DEB79A83898380E890E0FC015D
S11308B0108281E890E029E0FC01208308E810E040
S11308C089819A81CC01A0E0B0E0BC01CD01E8D2DD
S11308D0DC01CB019C01AD0160E876E988E19BE491
S11308E04BD2DC01CB0120E030E040E05FE3BC010F
S11308F0CD01DED1DC01CB01BC01CD01A5D2DC01EF
S1130900CB01F801918380838FE690E022E0FC0123
S113091020838FE590E02FE530E0F9012081206805
S1130920FC0120830F900F90DF91CF911F910F91C5
S113093008951F920F9200905F000F92112400906F
S11309405B000F922F933F934F935F936F937F932B
S11309508F939F93AF93BF93EF93FF93CF93DF93C3
S1130960CDB7DEB75ADF8091610190916201A09109
S11309706301B09164010196A11DB11D80936101D1
S113098090936201A0936301B0936401DF91CF91CE
S1130990FF91EF91BF91AF919F918F917F916F9153
S11309A05F914F913F912F910F9000925B000F90B8
S11309B000925F000F901F901895CF93DF93CDB7EF
S11309C0DEB783E390E02FEFFC01208388EE93E011
S11309D063DF84E016DE64E082E290E05CDE809314
S11309E0780265E082E290E056DE80937B0260E06C
S11309F082E290E050DE8093720261E082E290E055
S1130A004ADE8093770260E081E390E044DE8093E5
S1130A107C0267E082E290E03EDE8093710266E051
S1130A2082E290E038DE8093760262E082E290E037
S1130A3032DE8093700263E082E290E02CDE8093E9
S1130A40790261E081E390E026DE80936F021092E8
S1130A50610110926201109263011092640184E6B4
S1130A6090E037DB1092740210927D0210926E02B5
S1130A70DF91CF9108951F920F9200905F000F9223
S1130A80112400905B000F922F933F938F939F93B9
S1130A90EF93FF93CF93DF93CDB7DEB78091A60199
S1130AA08823D1F08091A60181508093A60186EC21
S1130AB090E02091A701222F30E02A593E4FF901FE
S1130AC02081FC0120838091A7018F5F8093A7017F
S1130AD0803411F41092A701DF91CF91FF91EF912F
S1130AE09F918F913F912F910F9000925B000F90F7
S1130AF000925F000F901F9018951F920F92009024
S1130B005F000F92112400905B000F922F933F938C
S1130B108F939F93EF93FF93CF93DF931F92CDB760
S1130B20DEB780EC90E0FC01808189838981882F85
S1130B3090E08C7199270097D1F48091E801882F77
S1130B4090E026EC30E0F901208188559E4FFC01AD
S1130B5020838091E8018F5F8093E801803411F451
S1130B601092E8018091E9018F5F8093E9010F9071
S1130B70DF91CF91FF91EF919F918F913F912F91B1
S1130B800F9000925B000F9000925F000F901F90F7
S1130B9018951F920F9200905F000F9211240090FD
S1130BA05B000F922F933F938F939F93EF93FF9349
S1130BB0CF93DF93CDB7DEB780912A028823D1F09B
S1130BC080912A02815080932A028EEC90E0209139
S1130BD02B02222F30E026513E4FF9012081FC01E7
S1130BE0208380912B028F5F80932B02803411F439
S1130BF010922B02DF91CF91FF91EF919F918F91F2
S1130C003F912F910F9000925B000F9000925F0034
S1130C100F901F9018951F920F9200905F000F92F3
S1130C20112400905B000F922F933F938F939F9317
S1130C30EF93FF93CF93DF931F92CDB7DEB788EC8A
S1130C4090E0FC01808189838981882F90E08C71F8
S1130C5099270097D1F480916C02882F90E02EECB4
S1130C6030E0F9012081845D9D4FFC012083809157
S1130C706C028F5F80936C02803411F410926C02CA
S1130C8080916D028F5F80936D020F90DF91CF9101
S1130C90FF91EF919F918F913F912F910F9000922F
S1130CA05B000F9000925F000F901F9018955058B2
S1130CB0BB27AA270ED086C177D130F07CD120F093
S1130CC031F49F3F11F41EF46CC10EF4E095E7FB80
S1130CD062C1E92F88D180F3BA17620773078407CA
S1130CE0950718F071F49EF5A0C10EF4E0950B2E53
S1130CF0BA2FA02D0B01B90190010C01CA01A0016A
S1130D001124FF27591B99F0593F50F4503E68F1C4
S1130D101A16F040A22F232F342F4427585FF3CF05
S1130D20469537952795A795F0405395C9F77EF4D6
S1130D301F16BA0B620B730B840BBAF09150A1F01F
S1130D40FF0FBB1F661F771F881FC2F70EC0BA0FA5
S1130D50621F731F841F48F4879577956795B7952D
S1130D60F7959E3F08F0B3CF9395880F08F0992725
S1130D70EE0F9795879508950CD024C11CD140F0AF
S1130D8013D130F021F45F3F19F005C151114EC168
S1130D9008C129D198F39923C9F35523B1F3951BBD
S1130DA0550BBB27AA2762177307840738F09F5F88
S1130DB05F4F220F331F441FAA1FA9F333D00E2EF7
S1130DC03AF0E0E830D091505040E695001CCAF764
S1130DD029D0FE2F27D0660F771F881FBB1F261729
S1130DE037074807AB07B0E809F0BB0B802DBF01FC
S1130DF0FF2793585F4F2AF09E3F510568F0CBC000
S1130E0015C15F3FECF3983EDCF3869577956795C3
S1130E10B795F7959F5FC9F7880F911D96958795AC
S1130E2097F90895E1E0660F771F881FBB1F6217CB
S1130E3073078407BA0720F0621B730B840BBA0B89
S1130E40EE1F88F7E0950895D6D088F09F5790F06C
S1130E50B92F9927B751A0F0D1F0660F771F881FDB
S1130E60991F1AF0BA95C9F712C0B13081F0DDD0DC
S1130E70B1E00895DAC0672F782F8827B85F39F07A
S1130E80B93FCCF3869577956795B395D9F73EF43A
S1130E9090958095709561957F4F8F4F9F4F0895E2
S1130EA0E89409C097FB3EF4909580957095619500
S1130EB07F4F8F4F9F4F9923A9F0F92F96E9BB27B6
S1130EC09395F695879577956795B795F111F8CF32
S1130ED0FAF4BB0F11F460FF1BC06F5F7F4F8F4F9D
S1130EE09F4F16C0882311F096E911C0772321F093
S1130EF09EE8872F762F05C0662371F096E8862F2B
S1130F0070E060E02AF09A95660F771F881FDAF781
S1130F10880F9695879597F90895E894F92F96EB9D
S1130F20FF2381F0121613061406440B9395F695CD
S1130F3087957795679557954040FF23B9F71BC070
S1130F4099270895882351F49850D2F7872B762F48
S1130F50652F542F432F322F20E0B1F312161306BE
S1130F601406440B88233AF09A95440F551F661FC4
S1130F70771F881FCAF755234AF4440F551F11F4ED
S1130F8060FF04C06F5F7F4F8F4F9F4F880F969510
S1130F90879597F9089597F99F6780E870E060E076
S1130FA008959FEF80EC089500240A9416161706FE
S1130FB018060906089500240A9412161306140646
S1130FC005060895092E0394000C11F4882352F0A9
S1130FD0BB0F40F4BF2B11F460FF04C06F5F7F4F61
S1130FE08F4F9F4F089557FD9058440F551F59F048
S1130FF05F3F71F04795880F97FB991F61F09F3F02
S113100079F087950895121613061406551FF2CF2A
S11310104695F1DF08C0161617061806991FF1CF7A
S113102086957105610508940895E894BB276627A1
S11310307727CB0197F90895689401C0E8948F92BB
S11310409F92CF93DF9305D0DF91CF919F908F90A4
S1131050089588249924F401E401B0E49F93AA2715
S11310609A158B049C04ED05FE05CF05D007A10756
S113107098F4AD2FDC2FCF2FFE2FE92D982C892E3D
S1131080982F872F762F652F542F432F322F222707
S1131090B85031F7BF9127C01B2EBF91BB27220F39
S11310A0331F441F551F661F771F881F991F881CF5
S11310B0991CEE1FFF1FCC1FDD1FAA1FBB1F8A1424
S11310C09B04EC05FD05CE05DF05A007B10748F03C
S11310D08A189B08EC09FD09CE09DF09A00BB10BA6
S11310E021601A94E1F62EF49401AF01BE01CD0102
S11310F0000C08950F931F93CF93DF93869F800175
S1131100879F100D969F100D1124C8010DD0EC017E
S1131110009721F0A80160E070E02DD1CE01DF91AD
S1131120CF911F910F910895CF93DF938230910552
S113113010F482E090E0E0918002F091810220E0DE
S113114030E0A0E0B0E0309739F140815181481798
S11311505907B8F04817590771F4828193811097A1
S113116029F013969C938E9312972CC0909381022E
S11311708093800227C02115310531F042175307AF
S113118018F0A901DB0101C0EF019A01BD01DF01E3
S11311900280F381E02DD7CF21153105F9F0281B0A
S11311A0390B2430310580F48A819B8161157105E6
S11311B021F0FB019383828304C090938102809386
S11311C08002FE01329644C0FE01E20FF31F8193B8
S11311D0919322503109398328833AC020917E02A9
S11311E030917F02232B41F42091020130910301BD
S11311F030937F0220937E022091000130910101FF
S11312002115310541F42DB73EB7409104015091A9
S11312100501241B350BE0917E02F0917F02E21759
S1131220F307A0F42E1B3F0B2817390778F0AC0105
S11312304E5F5F4F2417350748F04E0F5F1F5093E2
S11312407F0240937E028193919302C0E0E0F0E03C
S1131250CF01DF91CF910895CF93DF93009709F4E5
S113126087C0FC01329713821282C0918002D09110
S11312708102209781F420813181280F391F8091C8
S11312807E0290917F028217930779F5F0937F0293
S1131290E0937E026DC0DE0120E030E0AE17BF07B0
S11312A050F412964D915C9113979D01411551058F
S11312B009F1DA01F3CFB383A28340815181840F12
S11312C0951F8A179B0771F48D919C911197840F38
S11312D0951F02969183808312968D919C9113970A
S11312E0938382832115310529F4F0938102E093DD
S11312F080023EC0D9011396FC93EE9312974D9150
S11313005D91A40FB51FEA17FB0779F480819181E1
S1131310840F951F0296D90111969C938E93828116
S1131320938113969C938E931297E0E0F0E08A8168
S11313309B81009719F0FE01EC01F9CFCE010296D2
S113134028813981820F931F20917E0230917F0280
S11313502817390769F4309729F410928102109202
S1131360800202C013821282D0937F02C0937E0255
S1131370DF91CF910895DC0101C06D93415050403D
S1131380E0F708952F923F924F925F926F927F926F
S11313908F929F92AF92BF92CF92DF92EF92FF9281
S11313A00F931F93CF93DF93CDB7DEB72C970FB670
S11313B0F894DEBF0FBECDBF7C016B018A01FC0136
S11313C017821682838181FFB0C1CE0101964C0140
S11313D0F7019381F60193FD859193FF81916F014C
S11313E0882309F49EC1853239F493FD859193FFD6
S11313F081916F01853221F4B70190E0C7D1E8CF24
S1131400512C312C20E02032A0F48B3269F030F4DE
S1131410803259F0833269F420612CC08D3239F066
S1131420803339F4216026C02260246023C0286000
S113143021C027FD27C030ED380F3A3078F426FF5D
S113144006C0FAE05F9E300D1124532E13C08AE0CB
S1131450389E300D1124332E20620CC08E3221F4BC
S113146026FD5FC1206406C08C3611F4206802C0DA
S1131470883641F4F60193FD859193FF81916F01C4
S11314808111C1CF982F9F7D9554933028F40C5F20
S11314901F4FFFE3F9830DC0833631F0833771F0BA
S11314A0833509F057C021C0F801808189830E5F1C
S11314B01F4F44244394512C540114C03801F2E0CA
S11314C06F0E711CF801A080B18026FF03C0652D4A
S11314D070E002C06FEF7FEFC5012C874CD12C0167
S11314E083012C852F77222E16C03801F2E06F0E6F
S11314F0711CF801A080B18026FF03C0652D70E047
S113150002C06FEF7FEFC5012C872AD12C012C85F7
S11315102068222E830123FC19C0832D90E04816F5
S11315205906A0F4B70180E290E030D13A94F5CFA7
S1131530F50127FC859127FE81915F01B70190E0B9
S113154025D131103A94F1E04F1A51084114510455
S113155079F7DEC0843611F0893631F5F80127FFBA
S113156007C060817181828193810C5F1F4F08C025
S113157060817181882777FD8095982F0E5F1F4FBA
S11315802F76B22E97FF09C090958095709561953E
S11315907F4F8F4F9F4F2068B22E2AE030E0A40186
S11315A027D1A82EA81843C0853729F42F7EB22E40
S11315B02AE030E025C0F22FF97FBF2E8F36C1F02C
S11315C018F4883579F0ADC0803719F0883721F0E8
S11315D0A8C02F2F2061B22EB4FE0DC08B2D8460C5
S11315E0B82E09C024FF0AC09F2F9660B92E06C0EA
S11315F028E030E005C020E130E002C020E132E024
S1131600F801B7FE07C060817181828193810C5F0C
S11316101F4F06C06081718180E090E00E5F1F4F14
S1131620A401E6D0A82EA818FB2DFF77BF2EB6FE86
S11316300BC02B2D2E7FA51450F4B4FE0AC0B2FCAF
S113164008C02B2D2E7E05C07A2C2B2D03C07A2C9E
S113165001C0752C24FF0DC0FE01EA0DF11D80812F
S1131660803311F4297E09C022FF06C07394739459
S113167004C0822F867809F0739423FD12C020FFE2
S113168006C05A2C731418F4530C5718732C731483
S113169060F4B70180E290E02C8778D073942C85B5
S11316A0F6CF731410F4371801C0312C24FF11C085
S11316B0B70180E390E02C8769D02C8522FF16C007
S11316C021FF03C088E590E002C088E790E0B701FD
S11316D00CC0822F867851F021FD02C080E201C047
S11316E08BE227FD8DE2B70190E050D0A51430F4D1
S11316F0B70180E390E04AD05A94F8CFAA94F40159
S1131700EA0DF11D8081B70190E040D0A110F6CF21
S1131710332009F45DCEB70180E290E037D03A94EB
S1131720F7CFF7018681978102C08FEF9FEF2C9648
S11317300FB6F894DEBF0FBECDBFDF91CF911F91DE
S11317400F91FF90EF90DF90CF90BF90AF909F905C
S11317508F907F906F905F904F903F902F9008955F
S1131760FC010590615070400110D8F78095909568
S11317708E0F9F1F0895FC0161507040019001106D
S1131780D8F7809590958E0F9F1F08950F931F9300
S1131790CF93DF93182F092FEB018B8181FD03C0B9
S11317A08FEF9FEF20C082FF10C04E815F812C819C
S11317B03D81421753077CF4E881F9819F012F5F33
S11317C03F4F39832883108306C0E885F985812F2C
S11317D00995892B29F72E813F812F5F3F4F3F8346
S11317E02E83812F902FDF91CF911F910F91089518
S11317F0FA01AA27283051F1203181F1E8946F933E
S11318006E7F6E5F7F4F8F4F9F4FAF4FB1E03ED0E3
S1131810B4E03CD0670F781F891F9A1FA11D680F81
S1131820791F8A1F911DA11D6A0F711D811D911DB4
S1131830A11D20D009F468943F912AE0269F112429
S11318403019305D3193DEF6CF010895462F47708D
S1131850405D4193B3E00FD0C9F7F6CF462F4F70E8
S1131860405D4A3318F0495D31FD4052419302D046
S1131870A9F7EACFB4E0A6959795879577956795EC
S1131880BA95C9F700976105710508959B01AC01EC
S11318900A2E06945795479537952795BA95C9F713
S11318A0620F731F841F951FA01D0895F894FFCF26
S10918B00000820220008A
S9030000FC
