S019000056656C696B695F526F626F745F323031352E737265631B
S113000049C0000066C0000064C0000062C0000077
S113001060C000005EC000005CC000005AC0000068
S113002058C0000056C0000054C0000052C0000078
S11300300C9409464EC000004CC000004AC00000A9
S113004048C0000046C000000C945A0942C0000099
S113005040C000000C948F483CC000000C944D48F4
S113006038C0000036C0000034C0000032C00000B8
S113007030C000002EC000002CC000002AC00000C8
S11300800C941D4926C000000C94DB4822C00000DB
S113009020C0000011241FBECFEFD0E1DEBFCDBFD2
S11300A011E0A0E0B1E0E4E3FEEE00E00BBF02C02B
S11300B007900D92A23EB107D9F723E0A2EEB1E07A
S11300C001C01D92AC36B207E1F70E9403390C94CB
S11300D0187796CFCF93DF93CDB7DEB7A6970FB639
S11300E0F894DEBF0FBECDBF8DA36EA381E48D8FC8
S11300F08DA1813019F481E08E8F02C08FEF8E8F35
S11301008EA1813009F07EC081E08F8F72C080E0C3
S113011090E0A8E4B2E489839A83AB83BC8320E0B3
S113012030E44CE155E469817A818B819C810E94A1
S1130130D972DC01CB018D839E83AF83B88720E025
S113014030E040E85FE36D817E818F8198850E9475
S11301508B7188232CF481E090E09A8789873FC0D3
S113016020E03FEF4FE757E46D817E818F819885D2
S11301700E94D57218164CF520E030E040E251E4BC
S113018069817A818B819C810E94D972DC01CB01C7
S1130190BC01CD010E94F771DC01CB019A878987EC
S11301A00FC08AEF90E09C878B878B859C85019795
S11301B0F1F79C878B8789859A8501979A87898728
S11301C089859A85009769F714C06D817E818F8136
S11301D098850E94F771DC01CB019A87898789850C
S11301E09A859E878D878D859E850197F1F79E87D9
S11301F08D87CE014D9664ED0E94F70B882309F09C
S113020086CF81C08EA18F3F09F07DC08FEF8F8F85
S113021072C080E090E0A8E4B2E48F87988BA98B49
S1130220BA8B20E030E44CE155E46F857889898904
S11302309A890E94D972DC01CB018B8B9C8BAD8B8C
S1130240BE8B20E030E040E85FE36B897C898D89D8
S11302509E890E948B7188232CF481E090E0988F12
S11302608F8B3FC020E03FEF4FE757E46B897C89D9
S11302708D899E890E94D57218164CF520E030E0D5
S113028040E251E46F85788989899A890E94D972FC
S1130290DC01CB01BC01CD010E94F771DC01CB0173
S11302A0988F8F8B0FC08AEF90E09A8F898F898DFA
S11302B09A8D0197F1F79A8F898F8F89988D01977D
S11302C0988F8F8B8F89988D009769F714C06B89ED
S11302D07C898D899E890E94F771DC01CB01988FFE
S11302E08F8B8F89988D9C8F8B8F8B8D9C8D019795
S11302F0F1F79C8F8B8FCE014D9664ED0E94F70B26
S1130300882309F086CFA6960FB6F894DEBF0FBEF9
S1130310CDBFDF91CF9108950F931F93CF93DF93B8
S1130320CDB7DEB7C055D1090FB6F894DEBF0FBE06
S1130330CDBF9E01215B3F4FF9018083CE01805BDD
S11303409F4FFC016083CE01895B9F4F22E4FC0137
S11303502083CE01815B9F4FFC018081813009F0B5
S113036083C0CE01895B9F4F21E0FC01218372C0D1
S113037080E090E0A8E4B2E489839A83AB83BC83F1
S113038020E030E44CE155E469817A818B819C81E1
S11303900E94D972DC01CB018D839E83AF83B88721
S11303A020E030E040E85FE36D817E818F819885B5
S11303B00E948B7188232CF481E090E09A878987CE
S11303C03FC020E03FEF4FE757E46D817E818F818E
S11303D098850E94D57218164CF520E030E040E272
S11303E051E469817A818B819C810E94D972DC01FC
S11303F0CB01BC01CD010E94F771DC01CB019A87CE
S113040089870FC08AEF90E09C878B878B859C85BA
S11304100197F1F79C878B8789859A8501979A873D
S1130420898789859A85009769F714C06D817E81D3
S11304308F8198850E94F771DC01CB019A878987A7
S113044089859A859E878D878D859E850197F1F78D
S11304509E878D87CE01895B9F4F64ED0E94F70BC9
S1130460882309F085CF82C0CE01895B9F4F2FEF8F
S1130470FC01218372C080E090E0A8E4B2E48F879D
S1130480988BA98BBA8B20E030E44CE155E46F855E
S1130490788989899A890E94D972DC01CB018B8B76
S11304A09C8BAD8BBE8B20E030E040E85FE36B8932
S11304B07C898D899E890E948B7188232CF481E02C
S11304C090E0988F8F8B3FC020E03FEF4FE757E4D9
S11304D06B897C898D899E890E94D57218164CF58A
S11304E020E030E040E251E46F85788989899A8977
S11304F00E94D972DC01CB01BC01CD010E94F771CD
S1130500DC01CB01988F8F8B0FC08AEF90E09A8F1C
S1130510898F898D9A8D0197F1F79A8F898F8F89A9
S1130520988D0197988F8F8B8F89988D009769F795
S113053014C06B897C898D899E890E94F771DC01C6
S1130540CB01988F8F8B8F89988D9C8F8B8F8B8D00
S11305509C8D0197F1F79C8F8B8FCE01895B9F4F08
S113056064ED0E94F70B882309F085CFCE01805BF0
S11305709F4FFC018081813009F083C0CE01895BEB
S11305809F4F21E0FC01228372C080E090E0A8E448
S1130590B2E48D8F9E8FAF8FB8A320E030E44CE19E
S11305A055E46D8D7E8D8F8D98A10E94D972DC01EA
S11305B0CB0189A39AA3ABA3BCA320E030E040E81D
S11305C05FE369A17AA18BA19CA10E948B7188230E
S11305D02CF481E090E09EA38DA33FC020E03FEF88
S11305E04FE757E469A17AA18BA19CA10E94D5721F
S11305F018164CF520E030E040E251E46D8D7E8D1C
S11306008F8D98A10E94D972DC01CB01BC01CD0170
S11306100E94F771DC01CB019EA38DA30FC08AEF6A
S113062090E098A78FA38FA198A50197F1F798A7B9
S11306308FA38DA19EA101979EA38DA38DA19EA1A1
S1130640009769F714C069A17AA18BA19CA10E94AB
S1130650F771DC01CB019EA38DA38DA19EA19AA766
S113066089A789A59AA50197F1F79AA789A7CE0129
S1130670895B9F4F64ED0E94F70B882309F085CFB7
S113068057C1CE01805B9F4FFC0180818F3F09F0F1
S113069083C0CE01895B9F4F2FEFFC01228372C080
S11306A080E090E0A8E4B2E48BA79CA7ADA7BEA726
S11306B020E030E44CE155E46BA57CA58DA59EA516
S11306C00E94D972DC01CB018FA798ABA9ABBAAB5E
S11306D020E030E040E85FE36FA578A989A99AA9F2
S11306E00E948B7188232CF481E090E09CAB8BAB4F
S11306F03FC020E03FEF4FE757E46FA578A989A9F1
S11307009AA90E94D57218164CF520E030E040E218
S113071051E46BA57CA58DA59EA50E94D972DC0130
S1130720CB01BC01CD010E94F771DC01CB019CAB74
S11307308BAB0FC08AEF90E09EAB8DAB8DA99EA9C9
S11307400197F1F79EAB8DAB8BA99CA901979CAB4C
S11307508BAB8BA99CA9009769F714C06FA578A9E6
S113076089A99AA90E94F771DC01CB019CAB8BABE0
S11307708BA99CA998AF8FAB8FA998AD0197F1F77E
S113078098AF8FABCE01895B9F4F64ED0E94F70B4E
S1130790882309F085CFCCC0CE01805B9F4FFC013C
S11307A08081823009F0C4C0CE01895B9F4F22E072
S11307B0FC012283B5C080E090E0A8E4B2E489AFF4
S11307C09AAFABAFBCAF20E030E44CE155E469AD87
S11307D07AAD8BAD9CAD0E94D972DC01CB019E0138
S11307E0235C3F4FF90180839183A283B38320E08C
S11307F030E040E85FE3CE01CD96FC016081718179
S1130800828193810E948B7188234CF4CE018F5B8B
S11308109F4F21E030E0FC013183208367C020E05A
S11308203FEF4FE757E4CE01CD96FC016081718123
S1130830828193810E94D57218160CF046C020E084
S113084030E040E251E469AD7AAD8BAD9CAD0E94DD
S1130850D972DC01CB018E010F5B1F4FBC01CD01AE
S11308600E94F771DC01CB01F8019183808324C0DD
S1130870CE018D5B9F4F2AEF30E0FC013183208352
S1130880CE018D5B9F4FFC01808191810197F1F72F
S11308909E012D5B3F4FF90191838083CE018F5BD5
S11308A09F4F9E012F5B3F4FF901208131812150E1
S11308B03109FC0131832083CE018F5B9F4FFC0102
S11308C0808191810097A1F62BC08E010F5B1F4F91
S11308D0CE01CD96FC0160817181828193810E9459
S11308E0F771DC01CB01F80191838083CE018B5B2E
S11308F09F4F9E012F5B3F4FF90120813181FC0105
S113090031832083CE018B5B9F4FFC0180819181D9
S11309100197F1F79E012B5B3F4FF901918380838F
S1130920CE01895B9F4F64ED62D7882309F043CFE2
S1130930C05BDF4F0FB6F894DEBF0FBECDBFDF91B3
S1130940CF911F910F910895CF93DF93CDB7DEB769
S1130950A5970FB6F894DEBF0FBECDBF8DA383E479
S11309608D8F8DA1813009F07DC081E08E8F72C0A2
S113097080E090E0A8E4B2E489839A83AB83BC83EB
S113098020E030E44CE155E469817A818B819C81DB
S11309900E94D972DC01CB018D839E83AF83B8871B
S11309A020E030E040E85FE36D817E818F819885AF
S11309B00E948B7188232CF481E090E09A878987C8
S11309C03FC020E03FEF4FE757E46D817E818F8188
S11309D098850E94D57218164CF520E030E040E26C
S11309E051E469817A818B819C810E94D972DC01F6
S11309F0CB01BC01CD010E94F771DC01CB019A87C8
S1130A0089870FC08AEF90E09C878B878B859C85B4
S1130A100197F1F79C878B8789859A8501979A8737
S1130A20898789859A85009769F714C06D817E81CD
S1130A308F8198850E94F771DC01CB019A878987A1
S1130A4089859A859E878D878D859E850197F1F787
S1130A509E878D87CE014D9664EDC9D6882309F013
S1130A6087CF7CC08FEF8E8F72C080E090E0A8E4C7
S1130A70B2E48F87988BA98BBA8B20E030E44CE1E9
S1130A8055E46F85788989899A890E94D972DC0135
S1130A90CB018B8B9C8BAD8BBE8B20E030E040E890
S1130AA05FE36B897C898D899E890E948B71882381
S1130AB02CF481E090E0988F8F8B3FC020E03FEFD3
S1130AC04FE757E46B897C898D899E890E94D57292
S1130AD018164CF520E030E040E251E46F85788947
S1130AE089899A890E94D972DC01CB01BC01CD01AC
S1130AF00E94F771DC01CB01988F8F8B0FC08AEFB6
S1130B0090E09A8F898F898D9A8D0197F1F79A8F4A
S1130B10898F8F89988D0197988F8F8B8F89988D66
S1130B20009769F714C06B897C898D899E890E941E
S1130B30F771DC01CB01988F8F8B8F89988D9C8FF7
S1130B408B8F8B8D9C8D0197F1F79C8F8B8FCE01B2
S1130B504D9664ED4CD6882309F087CFA5960FB641
S1130B60F894DEBF0FBECDBFDF91CF910895CF9330
S1130B70DF93CDB7DEB7A5970FB6F894DEBF0FBEEF
S1130B80CDBF8DA384E48D8F8DA1813009F07DC00C
S1130B9081E08E8F72C080E090E0A8E4B2E48983A3
S1130BA09A83AB83BC8320E030E44CE155E4698153
S1130BB07A818B819C810E94D972DC01CB018D8367
S1130BC09E83AF83B88720E030E040E85FE36D8127
S1130BD07E818F8198850E948B7188232CF481E01B
S1130BE090E09A8789873FC020E03FEF4FE757E4C2
S1130BF06D817E818F8198850E94D57218164CF57F
S1130C0020E030E040E251E469817A818B819C816B
S1130C100E94D972DC01CB01BC01CD010E94F771A5
S1130C20DC01CB019A8789870FC08AEF90E09C870B
S1130C308B878B859C850197F1F79C878B878985AA
S1130C409A8501979A87898789859A85009769F794
S1130C5014C06D817E818F8198850E94F771DC01BB
S1130C60CB019A87898789859A859E878D878D850B
S1130C709E850197F1F79E878D87CE014D9664ED91
S1130C80B6D5882309F087CF7CC08FEF8E8F72C0D2
S1130C9080E090E0A8E4B2E48F87988BA98BBA8BAC
S1130CA020E030E44CE155E46F85788989899A899C
S1130CB00E94D972DC01CB018B8B9C8BAD8BBE8BDC
S1130CC020E030E040E85FE36B897C898D899E8970
S1130CD00E948B7188232CF481E090E0988F8F8B95
S1130CE03FC020E03FEF4FE757E46B897C898D8953
S1130CF09E890E94D57218164CF520E030E040E23F
S1130D0051E46F85788989899A890E94D972DC01B6
S1130D10CB01BC01CD010E94F771DC01CB01988F9E
S1130D208F8B0FC08AEF90E09A8F898F898D9A8D6F
S1130D300197F1F79A8F898F8F89988D0197988FF2
S1130D408F8B8F89988D009769F714C06B897C8984
S1130D508D899E890E94F771DC01CB01988F8F8B5E
S1130D608F89988D9C8F8B8F8B8D9C8D0197F1F73C
S1130D709C8F8B8FCE014D9664ED39D5882309F075
S1130D8087CFA5960FB6F894DEBF0FBECDBFDF9117
S1130D90CF910895CF93DF93CDB7DEB7A5970FB664
S1130DA0F894DEBF0FBECDBF8DA385E48D8F8DA1DA
S1130DB0813009F07DC081E08E8F72C080E090E0C8
S1130DC0A8E4B2E489839A83AB83BC8320E030E453
S1130DD04CE155E469817A818B819C810E94D972AE
S1130DE0DC01CB018D839E83AF83B88720E030E0A4
S1130DF040E85FE36D817E818F8198850E948B71CD
S1130E0088232CF481E090E09A8789873FC020E012
S1130E103FEF4FE757E46D817E818F8198850E9473
S1130E20D57218164CF520E030E040E251E46981B7
S1130E307A818B819C810E94D972DC01CB01BC0137
S1130E40CD010E94F771DC01CB019A8789870FC01D
S1130E508AEF90E09C878B878B859C850197F1F7BF
S1130E609C878B8789859A8501979A878987898545
S1130E709A85009769F714C06D817E818F8198856A
S1130E800E94F771DC01CB019A87898789859A854D
S1130E909E878D878D859E850197F1F79E878D8727
S1130EA0CE014D9664EDA3D4882309F087CF7CC08E
S1130EB08FEF8E8F72C080E090E0A8E4B2E48F8759
S1130EC0988BA98BBA8B20E030E44CE155E46F8514
S1130ED0788989899A890E94D972DC01CB018B8B2C
S1130EE09C8BAD8BBE8B20E030E040E85FE36B89E8
S1130EF07C898D899E890E948B7188232CF481E0E2
S1130F0090E0988F8F8B3FC020E03FEF4FE757E48E
S1130F106B897C898D899E890E94D57218164CF53F
S1130F2020E030E040E251E46F85788989899A892C
S1130F300E94D972DC01CB01BC01CD010E94F77182
S1130F40DC01CB01988F8F8B0FC08AEF90E09A8FD2
S1130F50898F898D9A8D0197F1F79A8F898F8F895F
S1130F60988D0197988F8F8B8F89988D009769F74B
S1130F7014C06B897C898D899E890E94F771DC017C
S1130F80CB01988F8F8B8F89988D9C8F8B8F8B8DB6
S1130F909C8D0197F1F79C8F8B8FCE014D9664ED5C
S1130FA026D4882309F087CFA5960FB6F894DEBF20
S1130FB00FBECDBFDF91CF910895CF93DF9300D0C3
S1130FC0CDB7DEB789836A8389818130C9F48A8188
S1130FD0813019F481E0CBDD0AC08A818F3F19F496
S1130FE081E0B2DC04C081E0C2DD81E0ADDC81E0FF
S1130FF0D1DE81E00E9461478F3FD9F48FEF1AC0A0
S11310008FEFC8DE8A81813019F48FEFB0DD0AC01A
S11310108A818F3F19F48FEF97DC04C08FEFA7DD2F
S11310208FEF92DC8FEF0E9461478F3F11F48FEFB7
S113103001C081E00F900F90DF91CF9108950F933D
S11310401F93CF93DF9300D0CDB7DEB79A83898304
S11310508DE290E02DE230E0F90120812863FC016B
S1131060208384E990E0FC011182108288E990E0F9
S1131070FC01118210828AE990E0FC011182108245
S11310808CE990E0FC011182108280E990E02EEF5F
S1131090FC01208381E990E02AE1FC01208306E938
S11310A010E089819A81880F991F880F991F880FF2
S11310B0991FCC01A0E0B0E0BC01CD010E942372D5
S11310C0DC01CB019C01AD0160E876E988E19BE499
S11310D00E948F71DC01CB0120E030E040E05FE34F
S11310E0BC01CD010E942671DC01CB01BC01CD0104
S11310F00E94F771DC01CB01F801918380830F908A
S11311000F90DF91CF911F910F910895CF92DF92AD
S1131110EF92FF920F931F93CF93DF931F92CDB75C
S1131120DEB7898308E910E086E990E0FC0180815C
S11311309181CC01A0E0B0E0BC01CD010E942372FA
S1131140DC01CB0120E030E04FE753E4BC01CD01EA
S11311500E948F71DC01CB016C017D018981882F94
S113116090E0AA2797FDA095BA2FBC01CD010E945B
S11311702572DC01CB019C01AD01C701B6010E94BF
S1131180D972DC01CB0120E030E040E05FE3BC0138
S1131190CD010E942771DC01CB01BC01CD010E946D
S11311A0F771DC01CB01F801918380830F90DF910B
S11311B0CF911F910F91FF90EF90DF90CF90089502
S11311C0CF92DF92EF92FF920F931F93CF93DF930F
S11311D01F92CDB7DEB789830AE910E086E990E073
S11311E0FC0180819181CC01A0E0B0E0BC01CD0183
S11311F00E942372DC01CB0120E030E04FE753E48E
S1131200BC01CD010E948F71DC01CB016C017D0119
S11312108981882F90E0AA2797FDA095BA2FBC0159
S1131220CD010E942572DC01CB019C01AD01C701F7
S1131230B6010E94D972DC01CB0120E030E040E02D
S11312405FE3BC01CD010E942771DC01CB01BC012D
S1131250CD010E94F771DC01CB01F80191838083F9
S11312600F90DF91CF911F910F91FF90EF90DF903E
S1131270CF900895CF93DF9300D0CDB7DEB78983A5
S11312806A838981813049F48A81813019F487ED38
S11312903DDF0BC080EF3ADF08C08A81813019F44A
S11312A08BEE8EDF02C087ED8BDF0F900F90DF9106
S11312B0CF9108951F920F9200905F000F92112416
S11312C000905B000F922F933F934F935F938F9304
S11312D09F93EF93FF93CF93DF9300D000D0CDB7CC
S11312E0DEB78DEE90E0FC0180818B831982A4C06F
S11312F08DEE90E029812295207FFC0120838EEEE3
S113130090E0FC018081829586958770882F90E01B
S113131081709927009709F470C08FEE90E020E85F
S1131320FC0120838EEE90E02EEE30E0F901208166
S11313302F7DFC01208382EF90E0FC018081829567
S113134086958770282F83EF90E0FC018081882F99
S113135090E0880F991F880F991F880F991F822B7F
S11313608C831A8226C08C81882F90E0815090480B
S1131370880F991F8E519E4FFC01208131818C81F1
S1131380882F90E001978A509E4FFC018081482F5E
S113139050E08A81882F90E0840F951F820F931F5D
S11313A02AEF30E0F9012081FC0120838A818F5FDC
S11313B08A838A818830B8F28C81882F90E00197E3
S11313C08A509E4FFC0120812F5FFC012083253031
S11313D041F48C81882F90E001978A509E4FFC0144
S11313E010828C81882F90E00197865F9D4FFC01CD
S11313F020812F5FFC01208323C08EEE90E0FC014E
S113140080818295869586958370882F90E081707F
S11314109927009771F08FEE90E0FC0110828EEE18
S113142090E02EEE30E0F90120812F7BFC01208337
S113143007C089818F5F898389818F3008F458CFF1
S11314408DEE90E02B81FC0120838AED90E02AED63
S113145030E0F9012081FC0120830F900F900F9060
S11314600F90DF91CF91FF91EF919F918F915F91B9
S11314704F913F912F910F9000925B000F9000923B
S11314805F000F901F901895CF93DF9300D0CDB7D6
S1131490DEB788ED90E021E0FC01208319823EC094
S11314A08DEE90E029812295207FFC0120838EEE31
S11314B090E0FC0110828FEE90E0FC01108283EF3B
S11314C090E0FC01108282EF90E0FC01108281EF39
S11314D090E0FC01108280EF90E0FC01108287EF25
S11314E090E0FC01108286EF90E0FC01108285EF11
S11314F090E0FC01108284EF90E0FC0110821A82DB
S113150007C08AEF90E0FC0110828A818F5F8A8392
S11315108A818830B0F389818F5F898389818F3094
S113152008F4BECF88ED90E022E0FC01208382EE37
S113153090E021E0FC01208383EE90E028E0FC01B0
S1131540208384EE90E02EE5FC01208385EE90E07C
S1131550FC0110828BED90E020EBFC0120838FEDE9
S113156090E02FE7FC0120838EED90E02FEFFC014B
S1131570208378940F900F90DF91CF910895CF93AB
S1131580DF9300D000D0CDB7DEB79C838B838DEE84
S113159090E0FC0180818A83000089ED90E0FC01E9
S11315A0808182958F70882F90E0817099270097B1
S11315B0A1F789ED90E0FC0180818695869586955A
S11315C0882F90E081709927009739F7198249C0D4
S11315D08DEE90E029812295207FFC0120838FEEFF
S11315E090E0FC018081829586958695837088239E
S11315F021F089818F5F898334C08FEE90E02FE0E2
S1131600FC01208383EF90E02B813C8133273695C6
S113161027953695279536952795FC01208382EFEB
S113162090E02B812295220F207EFC01208386EFFF
S113163090E020EEFC01208387EF90E02FEFFC0187
S113164020838FEE90E02FEE30E0F90120812068B6
S1131650FC0120838DEE90E02A81FC01208381E04F
S11316600AC089818F3008F4B3CF8DEE90E02A81CF
S1131670FC01208380E00F900F900F900F90DF917A
S1131680CF9108950F931F93CF93DF9300D0CDB7DD
S1131690DEB78A83F9DE19822FC08981882F90E012
S11316A001966DDF8981882F90E0880F991F8C0146
S11316B00E511E4F61E070E085E090E00E943C73A3
S11316C0F801918380838981882F90E02981222FDA
S11316D030E04981442F50E060E0465F5D4FFA01FD
S11316E0608320503E4FF90160838A509E4FFC0175
S11316F0608389818F5F898399818A81981768F2D1
S11317000F900F90DF91CF911F910F910895CF9378
S1131710DF9300D000D0CDB7DEB79B838A836C8380
S113172000008C81882F90E00197865F9D4FFC011B
S113173080818823B1F319822CC08981882F90E09D
S11317402A813B81820F931F2C81222F30E021506C
S11317503048220F331F2E513E4FF90140815181F1
S11317602C81222F30E02150310920503E4FF901C5
S11317702081622F70E02981222F30E0260F371F4D
S1131780240F351FF9012081FC01208389818F5F9B
S113179089838981883088F28C81882F90E0019731
S11317A080509E4FFC0120812F5FFC012083253057
S11317B041F48C81882F90E0019780509E4FFC016A
S11317C010828C81882F90E001979C01265F3D4F09
S11317D0F90120812150865F9D4FFC01208380E028
S11317E00F900F900F900F90DF91CF910895CF93AA
S11317F0DF9300D000D000D0CDB7DEB79D838C83BB
S11318006E83000089ED90E0FC01808182958F70E9
S1131810882F90E0817099270097A1F789ED90E0D7
S1131820FC018081869586958695882F90E081704D
S11318309927009739F78DEE90E0FC0180818B8326
S11318401A8215C08DEE90E02A812295207FFC013A
S113185020838FEE90E0FC018081829586958695A9
S11318608370882309F406C08A818F5F8A838A8102
S11318708F3040F38A818F3011F48FEF39C082EFBB
S113188090E02E812295220F207EFC01208383EF9D
S113189090E02E81269526952695FC0120838FEED7
S11318A090E028E0FC012083198210C08AEF90E0C8
S11318B02981222F30E04C815D81240F351FF901ED
S11318C02081FC01208389818F5F8983898188300D
S11318D068F38FEE90E02FEE30E0F9012081206470
S11318E0FC0120838DEE90E02B81FC01208380E0BD
S11318F026960FB6F894DEBF0FBECDBFDF91CF9111
S11319000895CF93DF9300D000D0CDB7DEB76983BD
S11319107A838B839C8381E00E947E47813029F007
S11319208EEF0E947E47813029F483E50E941339AB
S113193081E001C080E00F900F900F900F90DF9135
S1131940CF910895CF93DF9300D000D0CDB7DEB709
S113195069837A838B839C838FEF0E947E478130D7
S113196029F08EEF0E947E47813029F483E50E949E
S1131970133981E001C080E00F900F900F900F9019
S1131980DF91CF910895CF93DF9300D000D0CDB7EE
S1131990DEB769837A838B839C8383E00E947E47CE
S11319A0813051F484E390E02FEFFC01208383E540
S11319B00E94133981E005C084E390E0FC011082A9
S11319C080E00F900F900F900F90DF91CF910895CA
S11319D0CF93DF9300D000D0CDB7DEB769837A838D
S11319E08B839C8383E00E94BB47813051F484E362
S11319F090E02FEFFC01208383E50E94133981E0FE
S1131A0005C084E390E0FC01108280E00F900F9009
S1131A100F900F90DF91CF910895CF93DF9300D073
S1131A2000D0CDB7DEB769837A838B839C838EEF36
S1131A300E947E47813051F484E390E02FEFFC0153
S1131A40208383E50E94133981E005C084E390E09C
S1131A50FC01108280E00F900F900F900F90DF91A7
S1131A60CF910895CF93DF9300D000D0CDB7DEB7E8
S1131A7069837A838B839C8383E00E947E478130D1
S1131A8051F484E390E02FEFFC01208383E50E946E
S1131A90133981E011C084E390E0FC0110821092BC
S1131AA04B0380914B03882331F48FEF0E94A404ED
S1131AB081E080934B0380E00F900F900F900F9084
S1131AC0DF91CF910895CF93DF9300D000D0CDB7AD
S1131AD0DEB769837A838B839C836FEF8FEF0E94D9
S1131AE08C0180E00F900F900F900F90DF91CF91B9
S1131AF00895CF93DF93CDB7DEB7A0970FB6F894D0
S1131B00DEBF0FBECDBF6D8F7E8F8F8F98A38EEFFC
S1131B100E94BB47813019F483E50E9413398091F8
S1131B205103882309F0EFC080E090E0A6E1B3E41C
S1131B3089839A83AB83BC8320E030E44CE155E491
S1131B4069817A818B819C810E94D972DC01CB01ED
S1131B508D839E83AF83B88720E030E040E85FE365
S1131B606D817E818F8198850E948B7188232CF4EE
S1131B7081E090E09A8789873FC020E03FEF4FE7FC
S1131B8057E46D817E818F8198850E94D5721816E5
S1131B904CF520E030E040E251E469817A818B81A8
S1131BA09C810E94D972DC01CB01BC01CD010E9451
S1131BB0F771DC01CB019A8789870FC08AEF90E027
S1131BC09C878B878B859C850197F1F79C878B87F6
S1131BD089859A8501979A87898789859A85009747
S1131BE069F714C06D817E818F8198850E94F77199
S1131BF0DC01CB019A87898789859A859E878D87A1
S1131C008D859E850197F1F79E878D876FEF81E023
S1131C100E946A0080E090E0A6E9B4E48F87988B84
S1131C20A98BBA8B20E030E44CE155E46F857889C8
S1131C3089899A890E94D972DC01CB018B8B9C8B98
S1131C40AD8BBE8B20E030E040E85FE36B897C899C
S1131C508D899E890E948B7188232CF481E090E009
S1131C60988F8F8B3FC020E03FEF4FE757E46B899D
S1131C707C898D899E890E94D57218164CF520E0C6
S1131C8030E040E251E46F85788989899A890E941D
S1131C90D972DC01CB01BC01CD010E94F771DC01DA
S1131CA0CB01988F8F8B0FC08AEF90E09A8F898F2A
S1131CB0898D9A8D0197F1F79A8F898F8F89988DE5
S1131CC00197988F8F8B8F89988D009769F714C02F
S1131CD06B897C898D899E890E94F771DC01CB0117
S1131CE0988F8F8B8F89988D9C8F8B8F8B8D9C8DEC
S1131CF00197F1F79C8F8B8F61E081E00E946A006D
S1131D0081E08093510380E0A0960FB6F894DEBF83
S1131D100FBECDBFDF91CF910895CF93DF9300D055
S1131D2000D0CDB7DEB769837A838B839C8380919F
S1131D305903882339F461E08FEF0E948C0181E01C
S1131D408093590380E00F900F900F900F90DF91D4
S1131D50CF910895AF92BF92CF92DF92EF92FF920C
S1131D600F931F93CF93DF93CDB7DEB7C45DD240FB
S1131D700FB6F894DEBF0FBECDBF19821A8281E080
S1131D808B83CE0181539D4F2EE530E0FC013183DE
S1131D902083CE0181539D4F2BE234E0FC01338339
S1131DA02283CE0181539D4FFC01158214829E0132
S1131DB021533D4FF9014081F9015181F9016281BB
S1131DC0F9017381F9018481F90195810E943E3FF3
S1131DD08B81882F90E08330910559F083359105EC
S1131DE011F40C948A238130910511F40C94542439
S1131DF0EFCF8981882309F004C180E090E0A8E452
S1131E00B3E48D839E83AF83B88720E030E44CE154
S1131E1055E46D817E818F8198850E94D972DC01A1
S1131E20CB0189879A87AB87BC8720E030E040E804
S1131E305FE369857A858B859C850E948B718823F5
S1131E402CF481E090E09E878D873FC020E03FEF37
S1131E504FE757E469857A858B859C850E94D57206
S1131E6018164CF520E030E040E251E46D817E81AB
S1131E708F8198850E94D972DC01CB01BC01CD0110
S1131E800E94F771DC01CB019E878D870FC08AEF1A
S1131E9090E0988B8F878F8598890197F1F7988BBD
S1131EA08F878D859E8501979E878D878D859E85DD
S1131EB0009769F787C069857A858B859C850E9420
S1131EC0F771DC01CB019E878D878D859E859A8B6A
S1131ED0898B89899A890197F1F79A8B898B72C0CA
S1131EE080E090E0A8ECB2E48B8B9C8BAD8BBE8B36
S1131EF020E030E44CE155E46B897C898D899E892E
S1131F000E94D972DC01CB018F8B988FA98FBA8F75
S1131F1020E030E040E85FE36F89788D898D9A8D09
S1131F200E948B7188232CF481E090E09C8F8B8F2E
S1131F303FC020E03FEF4FE757E46F89788D898DEC
S1131F409A8D0E94D57218164CF520E030E040E2DC
S1131F5051E46B897C898D899E890E94D972DC0148
S1131F60CB01BC01CD010E94F771DC01CB019C8F38
S1131F708B8F0FC08AEF90E09E8F8D8F8D8D9E8DFD
S1131F800197F1F79E8F8D8F8B8D9C8D01979C8F80
S1131F908B8F8B8D9C8D009769F714C06F89788D1A
S1131FA0898D9A8D0E94F771DC01CB019C8F8B8FF8
S1131FB08B8D9C8D98A38F8F8F8D98A10197F1F7AE
S1131FC098A38F8F8981882F90E0880F991F9C0197
S1131FD0220F331F220F331F820F931F825F9E4FE6
S1131FE0FC012081318160E070E0CB01F9010995A9
S1131FF0882309F075CF89818A8381E08B830C94CF
S1132000E3388981813009F004C180E090E0A8E4DC
S1132010B3E489A39AA3ABA3BCA320E030E44CE1CE
S113202055E469A17AA18BA19CA10E94D972DC011B
S1132030CB018DA39EA3AFA3B8A720E030E040E876
S11320405FE36DA17EA18FA198A50E948B71882367
S11320502CF481E090E09AA789A73FC020E03FEFED
S11320604FE757E46DA17EA18FA198A50E94D57278
S113207018164CF520E030E040E251E469A17AA161
S11320808BA19CA10E94D972DC01CB01BC01CD01C2
S11320900E94F771DC01CB019AA789A70FC08AEFD0
S11320A090E09CA78BA78BA59CA50197F1F79CA713
S11320B08BA789A59AA501979AA789A789A59AA507
S11320C0009769F787C06DA17EA18FA198A50E9492
S11320D0F771DC01CB019AA789A789A59AA59EA7C8
S11320E08DA78DA59EA50197F1F79EA78DA772C018
S11320F080E090E0A8ECB2E48FA798ABA9ABBAABB0
S113210020E030E44CE155E46FA578A989A99AA9A7
S11321100E94D972DC01CB018BAB9CABADABBEABE7
S113212020E030E040E85FE36BA97CA98DA99EA97B
S11321300E948B7188232CF481E090E098AF8FABE0
S11321403FC020E03FEF4FE757E46BA97CA98DA97E
S11321509EA90E94D57218164CF520E030E040E2AA
S113216051E46FA578A989A99AA90E94D972DC01C2
S1132170CB01BC01CD010E94F771DC01CB0198AF0A
S11321808FAB0FC08AEF90E09AAF89AF89AD9AAD5B
S11321900197F1F79AAF89AF8FA998AD019798AFDE
S11321A08FAB8FA998AD009769F714C06BA97CA970
S11321B08DA99EA90E94F771DC01CB0198AF8FAB6A
S11321C08FA998AD9CAF8BAF8BAD9CAD0197F1F708
S11321D09CAF8BAF8981882F90E0880F991F9C0159
S11321E0220F331F220F331F820F931F825F9E4FD4
S11321F0FC012081318160E070E0CB01F901099597
S1132200882309F075CF89818A8381E08B830C94BC
S1132210E3388981823009F04FC480E090E0A8E47B
S1132220B3E49E01235C3F4FF90180839183A28331
S1132230B3838E010F5B1F4F20E030E44CE155E483
S1132240CE01CD96FC0160817181828193810E94CF
S1132250D972DC01CB01F80180839183A283B3831B
S1132260CE018F5B9F4F20E030E040E85FE3FC014C
S113227060817181828193810E948B7188234CF4E7
S1132280CE018B5B9F4F21E030E0FC013183208342
S11322906CC0CE018F5B9F4F20E03FEF4FE757E4C8
S11322A0FC0160817181828193810E94D57218162C
S11322B00CF049C020E030E040E251E4CE01CD967C
S11322C0FC0160817181828193810E94D972DC0159
S11322D0CB018E010B5B1F4FBC01CD010E94F77136
S11322E0DC01CB01F8019183808324C0CE01895B9A
S11322F09F4F2AEF30E0FC0131832083CE01895BBC
S11323009F4FFC01808191810197F1F79E01295B28
S11323103F4FF90191838083CE018B5B9F4F9E01D8
S11323202B5B3F4FF9012081318121503109FC01A0
S113233031832083CE018B5B9F4FFC01808191818F
S11323400097A1F62CC08E010B5B1F4FCE018F5B53
S11323509F4FFC0160817181828193810E94F7719A
S1132360DC01CB01F80191838083CE01875B9F4F11
S11323709E012B5B3F4FF90120813181FC013183A8
S11323802083CE01875B9F4FFC018081918101975F
S1132390F1F79E01275B3F4FF901918380830E94EF
S11323A06743A22EB32EC42ED52EE62EF72E082F69
S11323B0192F2A2D3B2D4C2D5D2D6E2D7F2D802F19
S11323C0912F20935A0330935B0340935C03509303
S11323D05D0360935E0370935F0380915A03909151
S11323E05B038E37F4E09F072CF481E00E94F847EA
S11323F0813021F483E50E941339C4C09E01255B1A
S11324003F4F80E090E0AAE7B4E4F9018083918330
S1132410A283B3838E01015B1F4FCE01855B9F4F67
S113242020E030E44CE155E4FC016081718182815B
S113243093810E94D972DC01CB01F80180839183DE
S1132440A283B383CE01815B9F4F20E030E040E85C
S11324505FE3FC0160817181828193810E948B71B1
S113246088234CF4CE018D5A9F4F21E030E0FC01CB
S1132470318320836DC0CE01815B9F4F20E03FEF0D
S11324804FE757E4FC0160817181828193810E944E
S1132490D57218160CF04AC0CE01855B9F4F20E020
S11324A030E040E251E4FC016081718182819381DA
S11324B00E94D972DC01CB018E010D5A1F4FBC0161
S11324C0CD010E94F771DC01CB01F8019183808377
S11324D024C0CE018B5A9F4F2AEF30E0FC01318398
S11324E02083CE018B5A9F4FFC01808191810197FB
S11324F0F1F79E012B5A3F4FF90191838083CE015E
S11325008D5A9F4F9E012D5A3F4FF90120813181F1
S113251021503109FC0131832083CE018D5A9F4F14
S1132520FC01808191810097A1F62CC08E010D5A87
S11325301F4FCE01815B9F4FFC01608171818281BD
S113254093810E94F771DC01CB01F80191838083B0
S1132550CE01895A9F4F9E012D5A3F4FF901208188
S11325603181FC0131832083CE01895A9F4FFC01C4
S1132570808191810197F1F79E01295A3F4FF9011A
S11325809183808361E08FEF0E94DD079E01275ACB
S11325903F4F80E090E0AAEFB3E4F9018083918398
S11325A0A283B3838E01035A1F4FCE01875A9F4FD4
S11325B020E030E44CE155E4FC01608171818281CA
S11325C093810E94D972DC01CB01F801808391834D
S11325D0A283B383CE01835A9F4F20E030E040E8CA
S11325E05FE3FC0160817181828193810E948B7120
S11325F088234CF4CE018F599F4F21E030E0FC0139
S1132600318320836DC0CE01835A9F4F20E03FEF7A
S11326104FE757E4FC0160817181828193810E94BC
S1132620D57218160CF04AC0CE01875A9F4F20E08D
S113263030E040E251E4FC01608171818281938148
S11326400E94D972DC01CB018E010F591F4FBC01CE
S1132650CD010E94F771DC01CB01F80191838083E5
S113266024C0CE018D599F4F2AEF30E0FC01318305
S11326702083CE018D599F4FFC0180819181019768
S1132680F1F79E012D593F4FF90191838083CE01CB
S11326908F599F4F9E012F593F4FF901208131815E
S11326A021503109FC0131832083CE018F599F4F82
S11326B0FC01808191810097A1F62CC08E010F59F5
S11326C01F4FCE01835A9F4FFC016081718182812B
S11326D093810E94F771DC01CB01F801918380831F
S11326E0CE018B599F4F9E012F593F4FF9012081F5
S11326F03181FC0131832083CE018B599F4FFC0132
S1132700808191810197F1F79E012B593F4FF90187
S11327109183808381E00E94B7059E0129593F4F30
S113272080E090E0AAEFB3E4F90180839183A2836F
S1132730B3838E0105591F4FCE0189599F4F20E065
S113274030E44CE155E4FC01608171818281938124
S11327500E94D972DC01CB01F80180839183A283AA
S1132760B383CE0185599F4F20E030E040E85FE31A
S1132770FC0160817181828193810E948B71882325
S11327804CF4CE0181599F4F21E030E0FC013183AC
S113279020836DC0CE0185599F4F20E03FEF4FE766
S11327A057E4FC0160817181828193810E94D5721A
S11327B018160CF04AC0CE0189599F4F20E030E032
S11327C040E251E4FC0160817181828193810E9425
S11327D0D972DC01CB018E0101591F4FBC01CD011F
S11327E00E94F771DC01CB01F8019183808324C03E
S11327F0CE018F589F4F2AEF30E0FC0131832083B4
S1132800CE018F589F4FFC01808191810197F1F790
S11328109E012F583F4FF90191838083CE01815946
S11328209F4F9E0121593F4FF90120813181215051
S11328303109FC0131832083CE0181599F4FFC0172
S1132840808191810097A1F62CC08E0101591F4F00
S1132850CE0185599F4FFC016081718182819381F2
S11328600E94F771DC01CB01F80191838083CE01D2
S11328708D589F4F9E0121593F4FF901208131818D
S1132880FC0131832083CE018D589F4FFC01808150
S113289091810197F1F79E012D583F4FF9019183E2
S11328A0808361E081E00E94DD079E012B583F4F49
S11328B080E090E0AAEFB3E4F90180839183A283DE
S11328C0B3838E0107581F4FCE018B589F4F20E0D2
S11328D030E44CE155E4FC01608171818281938193
S11328E00E94D972DC01CB01F80180839183A28319
S11328F0B383CE0187589F4F20E030E040E85FE388
S1132900FC0160817181828193810E948B71882393
S11329104CF4CE0183589F4F21E030E0FC01318319
S113292020836DC0CE0187589F4F20E03FEF4FE7D3
S113293057E4FC0160817181828193810E94D57288
S113294018160CF04AC0CE018B589F4F20E030E09F
S113295040E251E4FC0160817181828193810E9493
S1132960D972DC01CB018E0103581F4FBC01CD018C
S11329700E94F771DC01CB01F8019183808324C0AC
S1132980CE0181589F4F2AEF30E0FC013183208330
S1132990CE0181589F4FFC01808191810197F1F70D
S11329A09E0121583F4FF90191838083CE018358C2
S11329B09F4F9E0123583F4FF901208131812150BF
S11329C03109FC0131832083CE0183589F4FFC01E0
S11329D0808191810097A1F62CC08E0103581F4F6E
S11329E0CE0187589F4FFC01608171818281938160
S11329F00E94F771DC01CB01F80191838083CE0141
S1132A008F579F4F9E0123583F4FF90120813181F9
S1132A10FC0131832083CE018F579F4FFC018081BD
S1132A2091810197F1F79E012F573F4FF90191834F
S1132A3080830E946743A22EB32EC42ED52EE62E89
S1132A40F72E082F192F2A2D3B2D4C2D5D2D6E2D81
S1132A507F2D802F912F20935A0330935B03409353
S1132A605C0350935D0360935E0370935F038091F6
S1132A705A0390915B03885C910990935B03809364
S1132A805A03E12CF12C0FEF26E940915A0350919F
S1132A905B0360915C0370915D0380915E03909190
S1132AA05F030E94983C89818F5F898389818A832F
S1132AB081E08B830C94E3388981833009F0A8C1C9
S1132AC09E012D573F4F80E090E0A8E4B3E4F90164
S1132AD080839183A283B3838E0109571F4FCE0154
S1132AE08D579F4F20E030E44CE155E4FC016081B8
S1132AF07181828193810E94D972DC01CB01F8013A
S1132B0080839183A283B383CE0189579F4F20E0B2
S1132B1030E040E85FE3FC01608171818281938150
S1132B200E948B7188234CF4CE0185579F4F21E07E
S1132B3030E0FC01318320836DC0CE0189579F4F63
S1132B4020E03FEF4FE757E4FC016081718182810F
S1132B5093810E94D57218160CF04AC0CE018D578D
S1132B609F4F20E030E040E251E4FC01608171813C
S1132B70828193810E94D972DC01CB018E010557B9
S1132B801F4FBC01CD010E94F771DC01CB01F8019C
S1132B909183808324C0CE0183579F4F2AEF30E076
S1132BA0FC0131832083CE0183579F4FFC01808138
S1132BB091810197F1F79E0123573F4FF9019183CA
S1132BC08083CE0185579F4F9E0125573F4FF901C2
S1132BD02081318121503109FC0131832083CE01D0
S1132BE085579F4FFC01808191810097A1F6F1C028
S1132BF08E0105571F4FCE0189579F4FFC016081FD
S1132C007181828193810E94F771DC01CB01F8010B
S1132C1091838083CE0181579F4F9E0125573F4F5B
S1132C20F90120813181FC0131832083CE01815758
S1132C309F4FFC01808191810197F1F79E012157FB
S1132C403F4FF90191838083C4C09E012F563F4FAB
S1132C5080E090E0A8ECB2E4F90180839183A28340
S1132C60B3838E010B561F4FCE018F569F4F20E02A
S1132C7030E44CE155E4FC016081718182819381EF
S1132C800E94D972DC01CB01F80180839183A28375
S1132C90B383CE018B569F4F20E030E040E85FE3E2
S1132CA0FC0160817181828193810E948B718823F0
S1132CB04CF4CE0187569F4F21E030E0FC01318374
S1132CC020836DC0CE018B569F4F20E03FEF4FE72E
S1132CD057E4FC0160817181828193810E94D572E5
S1132CE018160CF04AC0CE018F569F4F20E030E0FA
S1132CF040E251E4FC0160817181828193810E94F0
S1132D00D972DC01CB018E0107561F4FBC01CD01E6
S1132D100E94F771DC01CB01F8019183808324C008
S1132D20CE0185569F4F2AEF30E0FC01318320838A
S1132D30CE0185569F4FFC01808191810197F1F767
S1132D409E0125563F4FF90191838083CE0187561A
S1132D509F4F9E0127563F4FF90120813181215019
S1132D603109FC0131832083CE0187569F4FFC013A
S1132D70808191810097A1F62CC08E0107561F4FC8
S1132D80CE018B569F4FFC016081718182819381BA
S1132D900E94F771DC01CB01F80191838083CE019D
S1132DA083569F4F9E0127563F4FF9012081318161
S1132DB0FC0131832083CE0183569F4FFC01808127
S1132DC091810197F1F79E0123563F4FF9019183B9
S1132DD080838981882F90E0880F991F9C01220F9E
S1132DE0331F220F331F820F931F825F9E4FFC01FC
S1132DF02081318160E070E0CB01F90109958823DD
S1132E0009F023CF89818A8381E08B830C94E33892
S1132E108981843009F0A8C19E0121563F4F80E08A
S1132E2090E0A8E4B3E4F90180839183A283B3839F
S1132E308E010D551F4FCE0181569F4F20E030E487
S1132E404CE155E4FC0160817181828193810E948F
S1132E50D972DC01CB01F80180839183A283B3830F
S1132E60CE018D559F4F20E030E040E85FE3FC0148
S1132E7060817181828193810E948B7188234CF4DB
S1132E80CE0189559F4F21E030E0FC01318320833E
S1132E906DC0CE018D559F4F20E03FEF4FE757E4C3
S1132EA0FC0160817181828193810E94D572181620
S1132EB00CF04AC0CE0181569F4F20E030E040E242
S1132EC051E4FC0160817181828193810E94D972F5
S1132ED0DC01CB018E0109551F4FBC01CD010E94BD
S1132EE0F771DC01CB01F8019183808324C0CE010A
S1132EF087559F4F2AEF30E0FC0131832083CE01B8
S1132F0087559F4FFC01808191810197F1F79E01C4
S1132F1027553F4FF90191838083CE0189559F4FF7
S1132F209E0129553F4FF9012081318121503109FA
S1132F30FC0131832083CE0189559F4FFC018081A0
S1132F4091810097A1F6F1C08E0109551F4FCE0162
S1132F508D559F4FFC0160817181828193810E9414
S1132F60F771DC01CB01F80191838083CE01855593
S1132F709F4F9E0129553F4FF90120813181FC016A
S1132F8031832083CE0185559F4FFC01808191813F
S1132F900197F1F79E0125553F4FF90191838083F5
S1132FA0C4C09E0123553F4F80E090E0A8ECB2E4FA
S1132FB0F90180839183A283B3838E010F541F4F41
S1132FC0CE0183559F4F20E030E44CE155E4FC01F1
S1132FD060817181828193810E94D972DC01CB016D
S1132FE0F80180839183A283B383CE018F549F4FD2
S1132FF020E030E040E85FE3FC0160817181828180
S113300093810E948B7188234CF4CE018B549F4F83
S113301021E030E0FC01318320836DC0CE018F5468
S11330209F4F20E03FEF4FE757E4FC01608171813F
S1133030828193810E94D57218160CF04AC0CE0189
S113304083559F4F20E030E040E251E4FC01608171
S11330507181828193810E94D972DC01CB018E013E
S11330600B541F4FBC01CD010E94F771DC01CB0151
S1133070F8019183808324C0CE0189549F4F2AEFA5
S113308030E0FC0131832083CE0189549F4FFC0141
S1133090808191810197F1F79E0129543F4FF901F5
S11330A091838083CE018B549F4F9E012B543F4FBD
S11330B0F9012081318121503109FC0131832083C0
S11330C0CE018B549F4FFC01808191810097A1F622
S11330D02CC08E010B541F4FCE018F549F4FFC0107
S11330E060817181828193810E94F771DC01CB013F
S11330F0F80191838083CE0187549F4F9E012B5406
S11331003F4FF90120813181FC0131832083CE01BD
S113311087549F4FFC01808191810197F1F79E01B3
S113312027543F4FF901918380838981882F90E050
S1133130880F991F9C01220F331F220F331F820F08
S1133140931F825F9E4FFC012081318160E070E01B
S1133150CB01F9010995882309F023CF89818A835A
S113316081E08B830C94E3388981853009F0A8C110
S11331709E0125543F4F80E090E0A8E4B3E4F901B8
S113318080839183A283B3838E0101541F4FCE01A8
S113319085549F4F20E030E44CE155E4FC0160810C
S11331A07181828193810E94D972DC01CB01F80183
S11331B080839183A283B383CE0181549F4F20E007
S11331C030E040E85FE3FC0160817181828193819A
S11331D00E948B7188234CF4CE018D539F4F21E0C4
S11331E030E0FC01318320836DC0CE0181549F4FB8
S11331F020E03FEF4FE757E4FC0160817181828159
S113320093810E94D57218160CF04AC0CE018554E1
S11332109F4F20E030E040E251E4FC016081718185
S1133220828193810E94D972DC01CB018E010D53FE
S11332301F4FBC01CD010E94F771DC01CB01F801E5
S11332409183808324C0CE018B539F4F2AEF30E0BB
S1133250FC0131832083CE018B539F4FFC0180817D
S113326091810197F1F79E012B533F4FF90191830F
S11332708083CE018D539F4F9E012D533F4FF90103
S11332802081318121503109FC0131832083CE0119
S11332908D539F4FFC01808191810097A1F6F1C06D
S11332A08E010D531F4FCE0181549F4FFC0160814D
S11332B07181828193810E94F771DC01CB01F80155
S11332C091838083CE0189539F4F9E012D533F4F9D
S11332D0F90120813181FC0131832083CE0189539E
S11332E09F4FFC01808191810197F1F79E01295341
S11332F03F4FF90191838083C4C09E0127533F4F00
S113330080E090E0A8ECB2E4F90180839183A28389
S1133310B3838E0103531F4FCE0187539F4F20E089
S113332030E44CE155E4FC01608171818281938138
S11333300E94D972DC01CB01F80180839183A283BE
S1133340B383CE0183539F4F20E030E040E85FE336
S1133350FC0160817181828193810E948B71882339
S11333604CF4CE018F529F4F21E030E0FC013183B9
S113337020836DC0CE0183539F4F20E03FEF4FE782
S113338057E4FC0160817181828193810E94D5722E
S113339018160CF04AC0CE0187539F4F20E030E04E
S11333A040E251E4FC0160817181828193810E9439
S11333B0D972DC01CB018E010F521F4FBC01CD012C
S11333C00E94F771DC01CB01F8019183808324C052
S11333D0CE018D529F4F2AEF30E0FC0131832083D0
S11333E0CE018D529F4FFC01808191810197F1F7AD
S11333F09E012D523F4FF90191838083CE018F525C
S11334009F4F9E012F523F4FF9012081318121505E
S11334103109FC0131832083CE018F529F4FFC017F
S1133420808191810097A1F62CC08E010F521F4F0D
S1133430CE0183539F4FFC0160817181828193810E
S11334400E94F771DC01CB01F80191838083CE01E6
S11334508B529F4F9E012F523F4FF90120813181A2
S1133460FC0131832083CE018B529F4FFC0180816C
S113347091810197F1F79E012B523F4FF9019183FE
S113348080838981882F90E0880F991F9C01220FE7
S1133490331F220F331F820F931F825F9E4FFC0145
S11334A02081318160E070E0CB01F9010995882326
S11334B009F023CF89818A8381E08B830C94E338DC
S11334C08981863009F076C29E0129523F4F80E0FF
S11334D090E0A8E4B3E4F90180839183A283B383E9
S11334E08E0105521F4FCE0189529F4F20E030E4D8
S11334F04CE155E4FC0160817181828193810E94D9
S1133500D972DC01CB01F80180839183A283B38358
S1133510CE0185529F4F20E030E040E85FE3FC019C
S113352060817181828193810E948B7188234CF424
S1133530CE0181529F4F21E030E0FC013183208392
S11335406DC0CE0185529F4F20E03FEF4FE757E417
S1133550FC0160817181828193810E94D572181669
S11335600CF04AC0CE0189529F4F20E030E040E287
S113357051E4FC0160817181828193810E94D9723E
S1133580DC01CB018E0101521F4FBC01CD010E9411
S1133590F771DC01CB01F8019183808324C0CE0153
S11335A08F519F4F2AEF30E0FC0131832083CE01FD
S11335B08F519F4FFC01808191810197F1F79E010A
S11335C02F513F4FF90191838083CE0181529F4F48
S11335D09E0121523F4FF90120813181215031094F
S11335E0FC0131832083CE0181529F4FFC018081F5
S11335F091810097A1F62CC08E0101521F4FCE017C
S113360085529F4FFC0160817181828193810E9468
S1133610F771DC01CB01F80191838083CE018D51D8
S11336209F4F9E0121523F4FF90120813181FC01BE
S113363031832083CE018D519F4FFC018081918184
S11336400197F1F79E012D513F4FF901918380833A
S113365083E50E9413399E012B513F4F80E090E097
S1133660A8ECB2E4F90180839183A283B3838E0131
S113367007511F4FCE018B519F4F20E030E44CE1A6
S113368055E4FC0160817181828193810E94D97229
S1133690DC01CB01F80180839183A283B383CE0143
S11336A087519F4F20E030E040E85FE3FC016081F8
S11336B07181828193810E948B7188234CF4CE01A5
S11336C083519F4F21E030E0FC01318320836DC0A2
S11336D0CE0187519F4F20E03FEF4FE757E4FC01B5
S11336E060817181828193810E94D57218160CF0D9
S11336F04AC0CE018B519F4F20E030E040E251E4BC
S1133700FC0160817181828193810E94D972DC0104
S1133710CB018E0103511F4FBC01CD010E94F771F3
S1133720DC01CB01F8019183808324C0CE01815157
S11337309F4F2AEF30E0FC0131832083CE01815179
S11337409F4FFC01808191810197F1F79E012151E6
S11337503F4FF90191838083CE0183519F4F9E0196
S113376023513F4FF9012081318121503109FC015E
S113377031832083CE0183519F4FFC01808191814D
S11337800097A1F62CC08E0103511F4FCE01875123
S11337909F4FFC0160817181828193810E94F77146
S11337A0DC01CB01F80191838083CE018F509F4FC0
S11337B09E0123513F4FF90120813181FC01318366
S11337C02083CE018F509F4FFC018081918101970E
S11337D0F1F79E012F503F4FF9019183808382EDD1
S11337E095E090935B0380935A038CEF93E090935E
S11337F05D0380935C03E12CF12C01E026E9409108
S11338005A0350915B0360915C0370915D03809156
S11338105E0390915F030E94983C9E012D503F4FA0
S113382080E090E0A8E4B3E4F90180839183A2836B
S1133830B3838E0109501F4FCE018D509F4F20E05E
S113384030E44CE155E4FC01608171818281938113
S11338500E94D972DC01CB01F80180839183A28399
S1133860B383CE0189509F4F20E030E040E85FE30E
S1133870FC0160817181828193810E948B71882314
S11338804CF4CE0185509F4F21E030E0FC013183A0
S113389020836DC0CE0189509F4F20E03FEF4FE75A
S11338A057E4FC0160817181828193810E94D57209
S11338B018160CF04AC0CE018D509F4F20E030E026
S11338C040E251E4FC0160817181828193810E9414
S11338D0D972DC01CB018E0105501F4FBC01CD0113
S11338E00E94F771DC01CB01F8019183808324C02D
S11338F0CE0183509F4F2AEF30E0FC0131832083B7
S1133900CE0183509F4FFC01808191810197F1F793
S11339109E0123503F4FF90191838083CE0185504E
S11339209F4F9E0125503F4FF90120813181215045
S11339303109FC0131832083CE0185509F4FFC0166
S1133940808191810097A1F62CC08E0105501F4FF4
S1133950CE0189509F4FFC016081718182819381E6
S11339600E94F771DC01CB01F80191838083CE01C1
S113397081509F4F9E0125503F4FF9012081318195
S1133980FC0131832083CE0181509F4FFC01808153
S113399091810197F1F79E0121503F4FF9019183E5
S11339A0808389818F5F898389818A8381E08B8386
S11339B00C94E3388981873009F0A8C19E012F5FF8
S11339C03E4F80E090E0A8E4B3E4F9018083918362
S11339D0A283B3838E010B5F1E4FCE018F5F9E4F78
S11339E020E030E44CE155E4FC0160817181828186
S11339F093810E94D972DC01CB01F8018083918309
S1133A00A283B383CE018B5F9E4F20E030E040E879
S1133A105FE3FC0160817181828193810E948B71DB
S1133A2088234CF4CE01875F9E4F21E030E0FC01F7
S1133A30318320836DC0CE018B5F9E4F20E03FEF2A
S1133A404FE757E4FC0160817181828193810E9478
S1133A50D57218160CF04AC0CE018F5F9E4F20E03D
S1133A6030E040E251E4FC01608171818281938104
S1133A700E94D972DC01CB018E01075F1E4FBC018D
S1133A80CD010E94F771DC01CB01F80191838083A1
S1133A9024C0CE01855F9E4F2AEF30E0FC013183C4
S1133AA02083CE01855F9E4FFC0180819181019727
S1133AB0F1F79E01255F3E4FF90191838083CE018A
S1133AC0875F9E4F9E01275F3E4FF9012081318120
S1133AD021503109FC0131832083CE01875F9E4F41
S1133AE0FC01808191810097A1F6F1C08E01075FEE
S1133AF01E4FCE018B5F9E4FFC01608171818281DC
S1133B0093810E94F771DC01CB01F80191838083DA
S1133B10CE01835F9E4F9E01275F3E4FF9012081B6
S1133B203181FC0131832083CE01835F9E4FFC01F0
S1133B30808191810197F1F79E01235F3E4FF90146
S1133B4091838083C4C09E01215F3E4F80E090E05A
S1133B50A8ECB2E4F90180839183A283B3838E013C
S1133B600D5E1E4FCE01815F9E4F20E030E44CE19C
S1133B7055E4FC0160817181828193810E94D97234
S1133B80DC01CB01F80180839183A283B383CE014E
S1133B908D5E9E4F20E030E040E85FE3FC016081F1
S1133BA07181828193810E948B7188234CF4CE01B0
S1133BB0895E9E4F21E030E0FC01318320836DC09B
S1133BC0CE018D5E9E4F20E03FEF4FE757E4FC01AE
S1133BD060817181828193810E94D57218160CF0E4
S1133BE04AC0CE01815F9E4F20E030E040E251E4C4
S1133BF0FC0160817181828193810E94D972DC0110
S1133C00CB018E01095E1E4FBC01CD010E94F771EC
S1133C10DC01CB01F8019183808324C0CE01875E4F
S1133C209E4F2AEF30E0FC0131832083CE01875E72
S1133C309E4FFC01808191810197F1F79E01275EDF
S1133C403E4FF90191838083CE01895E9E4F9E0190
S1133C50295E3E4FF9012081318121503109FC0157
S1133C6031832083CE01895E9E4FFC018081918146
S1133C700097A1F62CC08E01095E1E4FCE018D5E09
S1133C809E4FFC0160817181828193810E94F77152
S1133C90DC01CB01F80191838083CE01855E9E4FC8
S1133CA09E01295E3E4FF90120813181FC0131835F
S1133CB02083CE01855E9E4FFC0180819181019716
S1133CC0F1F79E01255E3E4FF9019183808389813E
S1133CD0882F90E0880F991F9C01220F331F220F19
S1133CE0331F820F931F825F9E4FFC01208131811D
S1133CF060E070E0CB01F9010995882309F023CF36
S1133D0089818A8381E08B830C94E33889818830AC
S1133D1009F0A8C19E01235E3E4F80E090E0A8E434
S1133D20B3E4F90180839183A283B3838E010F5D91
S1133D301E4FCE01835E9E4F20E030E44CE155E4FB
S1133D40FC0160817181828193810E94D972DC01BE
S1133D50CB01F80180839183A283B383CE018F5D6D
S1133D609E4F20E030E040E85FE3FC016081718118
S1133D70828193810E948B7188234CF4CE018B5DE8
S1133D809E4F21E030E0FC01318320836DC0CE01E1
S1133D908F5D9E4F20E03FEF4FE757E4FC016081C9
S1133DA07181828193810E94D57218160CF04AC0E9
S1133DB0CE01835E9E4F20E030E040E251E4FC01FE
S1133DC060817181828193810E94D972DC01CB016F
S1133DD08E010B5D1E4FBC01CD010E94F771DC0109
S1133DE0CB01F8019183808324C0CE01895D9E4F6D
S1133DF02AEF30E0FC0131832083CE01895D9E4FA0
S1133E00FC01808191810197F1F79E01295D3E4F6C
S1133E10F90191838083CE018B5D9E4F9E012B5DC2
S1133E203E4FF9012081318121503109FC01318358
S1133E302083CE018B5D9E4FFC0180819181009790
S1133E40A1F6F1C08E010B5D1E4FCE018F5D9E4F1A
S1133E50FC0160817181828193810E94F771DC0190
S1133E60CB01F80191838083CE01875D9E4F9E0133
S1133E702B5D3E4FF90120813181FC013183208388
S1133E80CE01875D9E4FFC01808191810197F1F7FE
S1133E909E01275D3E4FF90191838083C4C09E013A
S1133EA0255D3E4F80E090E0A8ECB2E4F901808308
S1133EB09183A283B3838E01015D1E4FCE01855D84
S1133EC09E4F20E030E44CE155E4FC0160817181B7
S1133ED0828193810E94D972DC01CB01F801808335
S1133EE09183A283B383CE01815D9E4F20E030E0B5
S1133EF040E85FE3FC0160817181828193810E94CB
S1133F008B7188234CF4CE018D5C9E4F21E030E010
S1133F10FC01318320836DC0CE01815D9E4F20E082
S1133F203FEF4FE757E4FC01608171818281938107
S1133F300E94D57218160CF04AC0CE01855D9E4FC2
S1133F4020E030E040E251E4FC0160817181828133
S1133F5093810E94D972DC01CB018E010D5C1E4F4E
S1133F60BC01CD010E94F771DC01CB01F801918302
S1133F70808324C0CE018B5C9E4F2AEF30E0FC018D
S1133F8031832083CE018B5C9E4FFC018081918123
S1133F900197F1F79E012B5C3E4FF90191838083D9
S1133FA0CE018D5C9E4F9E012D5C3E4FF901208118
S1133FB0318121503109FC0131832083CE018D5C94
S1133FC09E4FFC01808191810097A1F62CC08E0147
S1133FD00D5C1E4FCE01815D9E4FFC01608171819D
S1133FE0828193810E94F771DC01CB01F8019183F6
S1133FF08083CE01895C9E4F9E012D5C3E4FF9016A
S113400020813181FC0131832083CE01895C9E4F64
S1134010FC01808191810197F1F79E01295C3E4F5B
S1134020F901918380838981882F90E0880F991FFB
S11340309C01220F331F220F331F820F931F825FB5
S11340409E4FFC012081318160E070E0CB01F901D9
S11340500995882309F023CF89818A8381E08B83A2
S11340600C94E3388981893009F0A8C19E01275C4A
S11340703E4F80E090E0A8E4B3E4F90180839183AB
S1134080A283B3838E01035C1E4FCE01875C9E4FD7
S113409020E030E44CE155E4FC01608171818281CF
S11340A093810E94D972DC01CB01F8018083918352
S11340B0A283B383CE01835C9E4F20E030E040E8CE
S11340C05FE3FC0160817181828193810E948B7125
S11340D088234CF4CE018F5B9E4F21E030E0FC013D
S11340E0318320836DC0CE01835C9E4F20E03FEF7F
S11340F04FE757E4FC0160817181828193810E94C2
S1134100D57218160CF04AC0CE01875C9E4F20E091
S113411030E040E251E4FC0160817181828193814D
S11341200E94D972DC01CB018E010F5B1E4FBC01D2
S1134130CD010E94F771DC01CB01F80191838083EA
S113414024C0CE018D5B9E4F2AEF30E0FC01318309
S11341502083CE018D5B9E4FFC018081918101976C
S1134160F1F79E012D5B3E4FF90191838083CE01CF
S11341708F5B9E4F9E012F5B3E4FF9012081318161
S113418021503109FC0131832083CE018F5B9E4F86
S1134190FC01808191810097A1F6F1C08E010F5B33
S11341A01E4FCE01835C9E4FFC0160817181828130
S11341B093810E94F771DC01CB01F8019183808324
S11341C0CE018B5B9E4F9E012F5B3E4FF9012081F8
S11341D03181FC0131832083CE018B5B9E4FFC0136
S11341E0808191810197F1F79E012B5B3E4FF9018C
S11341F091838083C4C09E01295B3E4F80E090E0A0
S1134200A8ECB2E4F90180839183A283B3838E0185
S1134210055B1E4FCE01895B9E4F20E030E44CE1EC
S113422055E4FC0160817181828193810E94D9727D
S1134230DC01CB01F80180839183A283B383CE0197
S1134240855B9E4F20E030E040E85FE3FC01608145
S11342507181828193810E948B7188234CF4CE01F9
S1134260815B9E4F21E030E0FC01318320836DC0EF
S1134270CE01855B9E4F20E03FEF4FE757E4FC0102
S113428060817181828193810E94D57218160CF02D
S11342904AC0CE01895B9E4F20E030E040E251E409
S11342A0FC0160817181828193810E94D972DC0159
S11342B0CB018E01015B1E4FBC01CD010E94F77141
S11342C0DC01CB01F8019183808324C0CE018F5A95
S11342D09E4F2AEF30E0FC0131832083CE018F5AB8
S11342E09E4FFC01808191810197F1F79E012F5A25
S11342F03E4FF90191838083CE01815B9E4F9E01E5
S1134300215B3E4FF9012081318121503109FC01AB
S113431031832083CE01815B9E4FFC01808191819A
S11343200097A1F62CC08E01015B1E4FCE01855B68
S11343309E4FFC0160817181828193810E94F7719B
S1134340DC01CB01F80191838083CE018D5A9E4F0D
S11343509E01215B3E4FF90120813181FC013183B3
S11343602083CE018D5A9E4FFC018081918101975B
S1134370F1F79E012D5A3E4FF90191838083898183
S1134380882F90E0880F991F9C01220F331F220F62
S1134390331F820F931F825F9E4FFC012081318166
S11343A060E070E0CB01F9010995882309F023CF7F
S11343B089818A8381E08B830C94E33889818A30F4
S11343C009F0A8C19E012B5A3E4F80E090E0A8E47A
S11343D0B3E4F90180839183A283B3838E01075AE6
S11343E01E4FCE018B5A9E4F20E030E44CE155E441
S11343F0FC0160817181828193810E94D972DC0108
S1134400CB01F80180839183A283B383CE01875AC1
S11344109E4F20E030E040E85FE3FC016081718161
S1134420828193810E948B7188234CF4CE01835A3C
S11344309E4F21E030E0FC01318320836DC0CE012A
S1134440875A9E4F20E03FEF4FE757E4FC0160811D
S11344507181828193810E94D57218160CF04AC032
S1134460CE018B5A9E4F20E030E040E251E4FC0143
S113447060817181828193810E94D972DC01CB01B8
S11344808E01035A1E4FBC01CD010E94F771DC015D
S1134490CB01F8019183808324C0CE01815A9E4FC1
S11344A02AEF30E0FC0131832083CE01815A9E4FF4
S11344B0FC01808191810197F1F79E01215A3E4FC1
S11344C0F90191838083CE01835A9E4F9E01235A22
S11344D03E4FF9012081318121503109FC013183A2
S11344E02083CE01835A9E4FFC01808191810097E5
S11344F0A1F6F1C08E01035A1E4FCE01875A9E4F7A
S1134500FC0160817181828193810E94F771DC01D9
S1134510CB01F80191838083CE018F599E4F9E0178
S1134520235A3E4FF90120813181FC0131832083DC
S1134530CE018F599E4FFC01808191810197F1F743
S11345409E012F593E4FF90191838083C4C09E017F
S11345502D593E4F80E090E0A8ECB2E4F90180834D
S11345609183A283B3838E0109591E4FCE018D59C5
S11345709E4F20E030E44CE155E4FC016081718100
S1134580828193810E94D972DC01CB01F80180837E
S11345909183A283B383CE0189599E4F20E030E0FA
S11345A040E85FE3FC0160817181828193810E9414
S11345B08B7188234CF4CE0185599E4F21E030E065
S11345C0FC01318320836DC0CE0189599E4F20E0C8
S11345D03FEF4FE757E4FC01608171818281938151
S11345E00E94D57218160CF04AC0CE018D599E4F08
S11345F020E030E040E251E4FC016081718182817D
S113460093810E94D972DC01CB018E0105591E4FA2
S1134610BC01CD010E94F771DC01CB01F80191834B
S1134620808324C0CE0183599E4F2AEF30E0FC01E1
S113463031832083CE0183599E4FFC018081918177
S11346400197F1F79E0123593E4FF901918380832D
S1134650CE0185599E4F9E0125593E4FF901208177
S1134660318121503109FC0131832083CE018559E8
S11346709E4FFC01808191810097A1F62CC08E0190
S113468005591E4FCE0189599E4FFC0160817181ED
S1134690828193810E94F771DC01CB01F80191833F
S11346A08083CE0181599E4F9E0125593E4FF901C9
S11346B020813181FC0131832083CE0181599E4FB9
S11346C0FC01808191810197F1F79E0121593E4FB0
S11346D0F901918380838981882F90E0880F991F45
S11346E09C01220F331F220F331F820F931F825FFF
S11346F09E4FFC012081318160E070E0CB01F90123
S11347000995882309F023CF89818A8381E08B83EB
S11347100C94E3389E012F583E4F80E090E0AAE7C6
S1134720B4E4F90180839183A283B3838E010B588F
S11347301E4FCE018F589E4F20E030E44CE155E4EB
S1134740FC0160817181828193810E94D972DC01B4
S1134750CB01F80180839183A283B383CE018B586C
S11347609E4F20E030E040E85FE3FC01608171810E
S1134770828193810E948B7188234CF4CE018758E7
S11347809E4F21E030E0FC01318320836DC0CE01D7
S11347908B589E4F20E03FEF4FE757E4FC016081C8
S11347A07181828193810E94D57218160CF04AC0DF
S11347B0CE018F589E4F20E030E040E251E4FC01EE
S11347C060817181828193810E94D972DC01CB0165
S11347D08E0107581E4FBC01CD010E94F771DC0108
S11347E0CB01F8019183808324C0CE0185589E4F6C
S11347F02AEF30E0FC0131832083CE0185589E4F9F
S1134800FC01808191810197F1F79E0125583E4F6B
S1134810F90191838083CE0187589E4F9E012758CA
S11348203E4FF9012081318121503109FC0131834E
S11348302083CE0187589E4FFC018081918100978F
S1134840A1F62CC08E0107581E4FCE018B589E4FE7
S1134850FC0160817181828193810E94F771DC0186
S1134860CB01F80191838083CE0183589E4F9E0132
S113487027583E4FF90120813181FC013183208387
S1134880CE0183589E4FFC01808191810197F1F7FD
S11348909E0123583E4FF9019183808381E08B83ED
S11348A089818A830C94E3388A8189830C94DD3866
S11348B08981882F90E0880F991F9C01220F331F54
S11348C0220F331F820F931F825F9E4FFC012081B2
S11348D031818981882F90E0880F991FAC01440FA2
S11348E0551F440F551F840F951F835F9E4FFC0176
S11348F070818981882F90E0880F991FAC01440F43
S1134900551F440F551F840F951F845F9E4FFC0154
S113491060818981882F90E0880F991FAC01440F32
S1134920551F440F551F840F951FFC01EA5FFE4F6E
S11349307901072F262F40815181628173818481FF
S113494095810E94983C8C838C81813021F483E092
S11349508B830C94E2388981882311F40C94DA381F
S11349608981813031F461E081E00E94DD070C949B
S1134970DA388981823009F095C183E70E941339BE
S11349809E0121583E4F80E090E0A8E4B2E4F90192
S113499080839183A283B3838E010D571E4FCE0172
S11349A081589E4F20E030E44CE155E4FC016081E5
S11349B07181828193810E94D972DC01CB01F8015B
S11349C080839183A283B383CE018D579E4F20E0D1
S11349D030E040E85FE3FC01608171818281938172
S11349E00E948B7188234CF4CE0189579E4F21E09D
S11349F030E0FC01318320836DC0CE018D579E4F82
S1134A0020E03FEF4FE757E4FC0160817181828130
S1134A1093810E94D57218160CF04AC0CE018158B9
S1134A209E4F20E030E040E251E4FC01608171815E
S1134A30828193810E94D972DC01CB018E010957D6
S1134A401E4FBC01CD010E94F771DC01CB01F801BE
S1134A509183808324C0CE0187579E4F2AEF30E094
S1134A60FC0131832083CE0187579E4FFC01808156
S1134A7091810197F1F79E0127573E4FF9019183E8
S1134A808083CE0189579E4F9E0129573E4FF901DD
S1134A902081318121503109FC0131832083CE01F1
S1134AA089579E4FFC01808191810097A1F62CC00B
S1134AB08E0109571E4FCE018D579E4FFC01608118
S1134AC07181828193810E94F771DC01CB01F8012D
S1134AD091838083CE0185579E4F9E0129573E4F77
S1134AE0F90120813181FC0131832083CE01855776
S1134AF09E4FFC01808191810197F1F79E0125571A
S1134B003E4FF9019183808361E08FEF0E94DD07BE
S1134B109E0123573E4F80E090E0AAEFB3E4F901F1
S1134B2080839183A283B3838E010F561E4FCE01DF
S1134B3083579E4F20E030E44CE155E4FC01608152
S1134B407181828193810E94D972DC01CB01F801C9
S1134B5080839183A283B383CE018F569E4F20E03E
S1134B6030E040E85FE3FC016081718182819381E0
S1134B700E948B7188234CF4CE018B569E4F21E00A
S1134B8030E0FC01318320836DC0CE018F569E4FEF
S1134B9020E03FEF4FE757E4FC016081718182819F
S1134BA093810E94D57218160CF04AC0CE01835727
S1134BB09E4F20E030E040E251E4FC0160817181CD
S1134BC0828193810E94D972DC01CB018E010B5644
S1134BD01E4FBC01CD010E94F771DC01CB01F8012D
S1134BE09183808324C0CE0189569E4F2AEF30E002
S1134BF0FC0131832083CE0189569E4FFC018081C4
S1134C0091810197F1F79E0129563E4FF901918355
S1134C108083CE018B569E4F9E012B563E4FF90149
S1134C202081318121503109FC0131832083CE015F
S1134C308B569E4FFC01808191810097A1F62CC078
S1134C408E010B561E4FCE018F569E4FFC01608184
S1134C507181828193810E94F771DC01CB01F8019B
S1134C6091838083CE0187569E4F9E012B563E4FE3
S1134C70F90120813181FC0131832083CE018756E3
S1134C809E4FFC01808191810197F1F79E01275687
S1134C903E4FF9019183808361E081E00E94DD074A
S1134CA00C94DA388981833011F40C94DA388981D0
S1134CB0843011F00C94C82E83E70E9413399E01AE
S1134CC025563E4F80E090E0A8E4B2E4F9018083E9
S1134CD09183A283B3838E0101561E4FCE01855664
S1134CE09E4F20E030E44CE155E4FC016081718189
S1134CF0828193810E94D972DC01CB01F801808307
S1134D009183A283B383CE0181569E4F20E030E08D
S1134D1040E85FE3FC0160817181828193810E949C
S1134D208B7188234CF4CE018D559E4F21E030E0E9
S1134D30FC01318320836DC0CE0181569E4F20E05B
S1134D403FEF4FE757E4FC016081718182819381D9
S1134D500E94D57218160CF04AC0CE0185569E4F9B
S1134D6020E030E040E251E4FC0160817181828105
S1134D7093810E94D972DC01CB018E010D551E4F27
S1134D80BC01CD010E94F771DC01CB01F8019183D4
S1134D90808324C0CE018B559E4F2AEF30E0FC0166
S1134DA031832083CE018B559E4FFC0180819181FC
S1134DB00197F1F79E012B553E4FF90191838083B2
S1134DC0CE018D559E4F9E012D553E4FF9012081F8
S1134DD0318121503109FC0131832083CE018D556D
S1134DE09E4FFC01808191810097A1F62CC08E0119
S1134DF00D551E4FCE0181569E4FFC01608171817D
S1134E00828193810E94F771DC01CB01F8019183C7
S1134E108083CE0189559E4F9E012D553E4FF90149
S1134E2020813181FC0131832083CE0189559E4F3D
S1134E30FC01808191810197F1F79E0129553E4F34
S1134E40F9019183808361E08FEF0E94DD079E0169
S1134E5027553E4F80E090E0AAEFB3E4F901808348
S1134E609183A283B3838E0103551E4FCE018755D0
S1134E709E4F20E030E44CE155E4FC0160817181F7
S1134E80828193810E94D972DC01CB01F801808375
S1134E909183A283B383CE0183559E4F20E030E0FB
S1134EA040E85FE3FC0160817181828193810E940B
S1134EB08B7188234CF4CE018F549E4F21E030E057
S1134EC0FC01318320836DC0CE0183559E4F20E0C9
S1134ED03FEF4FE757E4FC01608171818281938148
S1134EE00E94D57218160CF04AC0CE0187559E4F09
S1134EF020E030E040E251E4FC0160817181828174
S1134F0093810E94D972DC01CB018E010F541E4F94
S1134F10BC01CD010E94F771DC01CB01F801918342
S1134F20808324C0CE018D549E4F2AEF30E0FC01D3
S1134F3031832083CE018D549E4FFC018081918169
S1134F400197F1F79E012D543E4FF901918380831F
S1134F50CE018F549E4F9E012F543E4FF901208164
S1134F60318121503109FC0131832083CE018F54DA
S1134F709E4FFC01808191810097A1F62CC08E0187
S1134F800F541E4FCE0183559E4FFC0160817181E9
S1134F90828193810E94F771DC01CB01F801918336
S1134FA08083CE018B549E4F9E012F543E4FF901B6
S1134FB020813181FC0131832083CE018B549E4FAB
S1134FC0FC01808191810197F1F79E012B543E4FA2
S1134FD0F9019183808361E081E00E94DD0740E074
S1134FE050E062E386EF9FEF0E942F3A4DE85EE0C7
S1134FF062E38AE590E00E94FF409E0129543E4FFF
S113500080E090E0AAEFB3E4F90180839183A28366
S1135010B3838E0105541E4FCE0189549E4F20E068
S113502030E44CE155E4FC0160817181828193811B
S11350300E94D972DC01CB01F80180839183A283A1
S1135040B383CE0185549E4F20E030E040E85FE317
S1135050FC0160817181828193810E948B7188231C
S11350604CF4CE0181549E4F21E030E0FC013183A9
S113507020836DC0CE0185549E4F20E03FEF4FE763
S113508057E4FC0160817181828193810E94D57211
S113509018160CF04AC0CE0189549E4F20E030E02F
S11350A040E251E4FC0160817181828193810E941C
S11350B0D972DC01CB018E0101541E4FBC01CD011C
S11350C00E94F771DC01CB01F8019183808324C035
S11350D0CE018F539E4F2AEF30E0FC0131832083B1
S11350E0CE018F539E4FFC01808191810197F1F78E
S11350F09E012F533E4FF90191838083CE01815449
S11351009E4F9E0121543E4FF9012081318121504F
S11351103109FC0131832083CE0181549E4FFC016F
S1135120808191810097A1F62CC08E0101541E4FFD
S1135130CE0185549E4FFC016081718182819381EF
S11351400E94F771DC01CB01F80191838083CE01C9
S11351508D539E4F9E0121543E4FF9012081318190
S1135160FC0131832083CE018D539E4FFC0180814D
S113517091810197F1F79E012D533E4FF9019183DF
S1135180808340E050E062E38CE390E00E942F3A99
S11351906FEF8FEF0E948C0140E050E062E38CE9F6
S11351A09FEF0E942F3A40E050E062E38CE99FEFCA
S11351B00E94FF409E012B533E4F80E090E0AAEFF7
S11351C0B3E4F90180839183A283B3838E010753EF
S11351D01E4FCE018B539E4F20E030E44CE155E44A
S11351E0FC0160817181828193810E94D972DC010A
S11351F0CB01F80180839183A283B383CE018753CB
S11352009E4F20E030E040E85FE3FC016081718163
S1135210828193810E948B7188234CF4CE01835345
S11352209E4F21E030E0FC01318320836DC0CE012C
S113523087539E4F20E03FEF4FE757E4FC01608126
S11352407181828193810E94D57218160CF04AC034
S1135250CE018B539E4F20E030E040E251E4FC014C
S113526060817181828193810E94D972DC01CB01BA
S11352708E0103531E4FBC01CD010E94F771DC0166
S1135280CB01F8019183808324C0CE0181539E4FCA
S11352902AEF30E0FC0131832083CE0181539E4FFD
S11352A0FC01808191810197F1F79E0121533E4FCA
S11352B0F90191838083CE0183539E4F9E01235332
S11352C03E4FF9012081318121503109FC013183A4
S11352D02083CE0183539E4FFC01808191810097EE
S11352E0A1F62CC08E0103531E4FCE0187539E4F4F
S11352F0FC0160817181828193810E94F771DC01DC
S1135300CB01F80191838083CE018F529E4F9E0181
S113531023533E4FF90120813181FC0131832083E5
S1135320CE018F529E4FFC01808191810197F1F74C
S11353309E012F523E4FF901918380830E9467435F
S1135340A22EB32EC42ED52EE62EF72E082F192FFB
S11353502A2D3B2D4C2D5D2D6E2D7F2D802F912FD1
S1135360209360033093610340936203509363037B
S1135370609364037093650380916003909161036B
S1135380805B9F4F909361038093600380916203DD
S11353909091630349979093630380936203E12C94
S11353A0F12C0FEF22E3409160035091610360916F
S11353B062037091630380916403909165030E947A
S11353C0983C9E012D523E4F80E090E0A8E4B2E468
S11353D0F90180839183A283B3838E0109521E4F06
S11353E0CE018D529E4F20E030E44CE155E4FC01A7
S11353F060817181828193810E94D972DC01CB0129
S1135400F80180839183A283B383CE0189529E4F96
S113541020E030E040E85FE3FC016081718182813B
S113542093810E948B7188234CF4CE0185529E4F48
S113543021E030E0FC01318320836DC0CE0189522C
S11354409E4F20E03FEF4FE757E4FC0160817181FC
S1135450828193810E94D57218160CF04AC0CE0145
S11354608D529E4F20E030E040E251E4FC01608127
S11354707181828193810E94D972DC01CB018E01FA
S113548005521E4FBC01CD010E94F771DC01CB0116
S1135490F8019183808324C0CE0183529E4F2AEF6A
S11354A030E0FC0131832083CE0183529E4FFC0106
S11354B0808191810197F1F79E0123523E4FF901BA
S11354C091838083CE0185529E4F9E0125523E4F8B
S11354D0F9012081318121503109FC01318320837C
S11354E0CE0185529E4FFC01808191810097A1F6E7
S11354F02CC08E0105521E4FCE0189529E4FFC01D5
S113550060817181828193810E94F771DC01CB01FA
S1135510F80191838083CE0181529E4F9E012552D2
S11355203E4FF90120813181FC0131832083CE017A
S113553081529E4FFC01808191810197F1F79E0178
S113554021523E4FF9019183808340E050E062E3B1
S11355508EE190E00E94FF409E012F513E4F80E07B
S113556090E0A8E4B2E4F90180839183A283B38339
S11355708E010B511E4FCE018F519E4F20E030E41F
S11355804CE155E4FC0160817181828193810E9428
S1135590D972DC01CB01F80180839183A283B383A8
S11355A0CE018B519E4F20E030E040E85FE3FC01E8
S11355B060817181828193810E948B7188234CF474
S11355C0CE0187519E4F21E030E0FC0131832083DE
S11355D06DC0CE018B519E4F20E03FEF4FE757E463
S11355E0FC0160817181828193810E94D5721816B9
S11355F00CF04AC0CE018F519E4F20E030E040E2D3
S113560051E4FC0160817181828193810E94D9728D
S1135610DC01CB018E0107511E4FBC01CD010E945C
S1135620F771DC01CB01F8019183808324C0CE01A2
S113563085519E4F2AEF30E0FC0131832083CE0157
S113564085519E4FFC01808191810197F1F79E0164
S113565025513E4FF90191838083CE0187519E4F9E
S11356609E0127513E4FF90120813181215031099A
S1135670FC0131832083CE0187519E4FFC01808140
S113568091810097A1F62CC08E0107511E4FCE01C7
S11356908B519E4FFC0160817181828193810E94B4
S11356A0F771DC01CB01F80191838083CE01835132
S11356B09E4F9E0127513E4FF90120813181FC010B
S11356C031832083CE0183519E4FFC0180819181DF
S11356D00197F1F79E0123513E4FF9019183808395
S11356E040E050E066E98EE091E00E942F3A9E018E
S11356F021513E4F80E090E0A8E4B2E4F9018083B8
S11357009183A283B3838E010D501E4FCE0181512C
S11357109E4F20E030E44CE155E4FC01608171814E
S1135720828193810E94D972DC01CB01F8018083CC
S11357309183A283B383CE018D509E4F20E030E04D
S113574040E85FE3FC0160817181828193810E9462
S11357508B7188234CF4CE0189509E4F21E030E0B8
S1135760FC01318320836DC0CE018D509E4F20E01B
S11357703FEF4FE757E4FC0160817181828193819F
S11357800E94D57218160CF04AC0CE0181519E4F6A
S113579020E030E040E251E4FC01608171818281CB
S11357A093810E94D972DC01CB018E0109501E4FF6
S11357B0BC01CD010E94F771DC01CB01F80191839A
S11357C0808324C0CE0187509E4F2AEF30E0FC0135
S11357D031832083CE0187509E4FFC0180819181CB
S11357E00197F1F79E0127503E4FF9019183808381
S11357F0CE0189509E4F9E0129503E4FF9012081D0
S1135800318121503109FC0131832083CE0189503B
S11358109E4FFC01808191810097A1F62CC08E01DE
S113582009501E4FCE018D509E4FFC016081718145
S1135830828193810E94F771DC01CB01F80191838D
S11358408083CE0185509E4F9E0129503E4FF90121
S113585020813181FC0131832083CE0185509E4F0C
S1135860FC01808191810197F1F79E0125503E4F03
S1135870F9019183808340E050E06EE18DE790E090
S11358800E942F3A40E050E062E38BEF9FEF0E94CA
S1135890FF4040E050E06EE188E290E00E942F3A41
S11358A061E08FEF0E94DD079E0123503E4F80E0B0
S11358B090E0AAEFB3E4F90180839183A283B383D8
S11358C08E010F5F1D4FCE0183509E4F20E030E4C8
S11358D04CE155E4FC0160817181828193810E94D5
S11358E0D972DC01CB01F80180839183A283B38355
S11358F0CE018F5F9D4F20E030E040E85FE3FC0184
S113590060817181828193810E948B7188234CF420
S1135910CE018B5F9D4F21E030E0FC013183208379
S11359206DC0CE018F5F9D4F20E03FEF4FE757E4FE
S1135930FC0160817181828193810E94D572181665
S11359400CF04AC0CE0183509E4F20E030E040E28C
S113595051E4FC0160817181828193810E94D9723A
S1135960DC01CB018E010B5F1D4FBC01CD010E94F8
S1135970F771DC01CB01F8019183808324C0CE014F
S1135980895F9D4F2AEF30E0FC0131832083CE01F3
S1135990895F9D4FFC01808191810197F1F79E0100
S11359A0295F3D4FF90191838083CE018B5F9D4F29
S11359B09E012B5F3D4FF901208131812150310936
S11359C0FC0131832083CE018B5F9D4FFC018081DC
S11359D091810097A1F62CC08E010B5F1D4FCE0163
S11359E08F5F9D4FFC0160817181828193810E9450
S11359F0F771DC01CB01F80191838083CE01875FCD
S1135A009D4F9E012B5F3D4FF90120813181FC01A7
S1135A1031832083CE01875F9D4FFC01808191817A
S1135A200197F1F79E01275F3D4FF9019183808330
S1135A3081E00E94A40481E00E94B7059E01255FD5
S1135A403D4F80E090E0A8E4B2E4F90180839183C3
S1135A50A283B3838E01015F1D4FCE01855F9D4FED
S1135A6020E030E44CE155E4FC01608171818281E5
S1135A7093810E94D972DC01CB01F8018083918368
S1135A80A283B383CE01815F9D4F20E030E040E8E4
S1135A905FE3FC0160817181828193810E948B713B
S1135AA088234CF4CE018D5E9D4F21E030E0FC0153
S1135AB0318320836DC0CE01815F9D4F20E03FEF95
S1135AC04FE757E4FC0160817181828193810E94D8
S1135AD0D57218160CF04AC0CE01855F9D4F20E0A8
S1135AE030E040E251E4FC01608171818281938164
S1135AF00E94D972DC01CB018E010D5E1D4FBC01E9
S1135B00CD010E94F771DC01CB01F8019183808300
S1135B1024C0CE018B5E9D4F2AEF30E0FC0131831F
S1135B202083CE018B5E9D4FFC0180819181019782
S1135B30F1F79E012B5E3D4FF90191838083CE01E5
S1135B408D5E9D4F9E012D5E3D4FF9012081318177
S1135B5021503109FC0131832083CE018D5E9D4F9C
S1135B60FC01808191810097A1F62CC08E010D5E0D
S1135B701D4FCE01815F9D4FFC0160817181828147
S1135B8093810E94F771DC01CB01F801918380833A
S1135B90CE01895E9D4F9E012D5E3D4FF90120810E
S1135BA03181FC0131832083CE01895E9D4FFC014C
S1135BB0808191810197F1F79E01295E3D4FF901A2
S1135BC09183808340E050E062E38AE090E00E94A9
S1135BD0FF409E01275E3D4F80E090E0A8E4B2E4E0
S1135BE0F90180839183A283B3838E01035E1D4FE9
S1135BF0CE01875E9D4F20E030E44CE155E4FC018A
S1135C0060817181828193810E94D972DC01CB0110
S1135C10F80180839183A283B383CE01835E9D4F79
S1135C2020E030E040E85FE3FC0160817181828123
S1135C3093810E948B7188234CF4CE018F5D9D4F1C
S1135C4021E030E0FC01318320836DC0CE01835E0E
S1135C509D4F20E03FEF4FE757E4FC0160817181E5
S1135C60828193810E94D57218160CF04AC0CE012D
S1135C70875E9D4F20E030E040E251E4FC0160810A
S1135C807181828193810E94D972DC01CB018E01E2
S1135C900F5D1D4FBC01CD010E94F771DC01CB01EA
S1135CA0F8019183808324C0CE018D5D9D4F2AEF3E
S1135CB030E0FC0131832083CE018D5D9D4FFC01DA
S1135CC0808191810197F1F79E012D5D3D4FF9018E
S1135CD091838083CE018F5D9D4F9E012F5D3D4F4B
S1135CE0F9012081318121503109FC013183208364
