S019000056656C696B695F526F626F745F323031352E737265631B
S113000049C0000066C0000064C0000062C0000077
S113001060C000005EC000005CC000005AC0000068
S113002058C0000056C0000054C0000052C0000078
S11300300C948A304EC000004CC000004AC000003E
S113004048C0000046C000000C94F80E42C00000F6
S113005040C000000C94D5313CC000000C94933196
S113006038C0000036C0000034C0000032C00000B8
S113007030C000002EC000002CC000002AC00000C8
S11300800C94633226C000000C94213222C000007C
S113009020C0000011241FBECFEFD0E1DEBFCDBFD2
S11300A012E0A0E0B1E0E0EDFDE800E00BBF02C02B
S11300B007900D92A23EB107D9F714E0A2EEB2E088
S11300C001C01D92A336B107E1F70E94A1230C944D
S11300D0E64696CFAEE5B0E0E0E7F0E00C94F042FF
S11300E0A8E04E010894811C911CF4016A2E11921F
S11300F06A94E9F729833A834B835C836D837E8317
S11301008F839887CE010996FC011192AA95E9F78D
S1130110A986BA86CB86DC86ED86FE860F87188B89
S113012029843A844B845C84ED84FE840F85188989
S113013069807A808B809C806DA67EA68FA698AA03
S11301406D807E808F809884E114F104010511058F
S113015009F0B3C3621473048404950408F03DC128
S113016000E0201600E0300601E0400600E0500602
S113017088F41FEF211631044104510439F030F0A2
S113018048E0E42EF12C012D112D18C0EE24FF249B
S1130190870114C020E0221620E0320620E0420647
S11301A021E0520630F038E1E32EF12C012D112D1F
S11301B005C020E1E22EF12C012D112DD201C10147
S11301C00E2C04C0B695A795979587950A94D2F7F7
S11301D080509F4FDC012C9180E290E0A0E0B0E0E1
S11301E08E199F09A00BB10B7C018D01E21AF10855
S11301F001091109E114F10401051105A1F10E2C05
S113020004C0220C331C441C551C0A94D2F7A401CC
S113021093010E2C04C0220F331F441F551F0A9450
S1130220D2F780E290E08E199F096DA47EA48FA47A
S113023098A804C096948794779467948A95D2F783
S1130240622A732A842A952AADA4BEA4CFA4D8A86E
S113025004C0AA0CBB1CCC1CDD1CEA94D2F7ADA6CE
S1130260BEA6CFA6D8AA6201EE24FF24CDAADEAA98
S1130270EFAAF8AE920181012070307009AF1AAF75
S11302802BAF3CAFC401B301A70196010E94AF425A
S11302907B018C01C401B3012DA93EA94FA958AD1E
S11302A00E94AF42C901DA013C014D01C401B3010E
S11302B029AD3AAD4BAD5CAD0E94D1429B01AC017E
S11302C08701FF24EE24ADA4BEA4CFA4D8A8C60100
S11302D0AA27BB2757016801A82AB92ACA2ADB2AF8
S11302E0A216B306C406D506E0F4089461087108A2
S11302F081089108A20CB31CC41CD51CA214B3041D
S1130300C404D50470F0A216B306C406D50648F496
S113031008946108710881089108A20CB31CC41CDC
S1130320D51CA21AB30AC40AD50AC601B5012DA95F
S11303303EA94FA958AD0E94AF427B018C01C60172
S1130340B5012DA93EA94FA958AD0E94AF42C901DC
S1130350DA015C016D01C601B50129AD3AAD4BADC1
S11303605CAD0E94D1429B01AC018701FF24EE24C5
S11303708DA59EA5AFA5B8A9A070B070E82AF92AEA
S11303800A2B1B2BE216F30604071507C0F4089486
S1130390A108B108C108D108E20CF31C041D151D05
S11303A0E214F3040405150550F0E216F3060407FD
S11303B0150728F40894A108B108C108D108D3018D
S11303C09927882786017501E82AF92A0A2B1B2B0D
S11303D0E9AAFAAA0BAB1CABCFC421143104410423
S11303E0510471F461E070E080E090E020E030E0DE
S11303F040E050E00E94AF42C901DA011C012D0126
S113040000E0201600E0300601E0400600E050065F
S113041088F41FEF211631044104510431F028F00F
S113042048E050E060E070E017C040E050E060E079
S113043070E012C020E0221620E0320620E04206DE
S113044021E0520628F048E150E060E070E004C08A
S113045040E150E060E070E0D201C101042E04C02C
S1130460B695A795979587950A94D2F780509F4F94
S1130470DC012C91E0E2EE2EF12C012D112DD8019E
S1130480C701841B950BA60BB70B821B9109A1090D
S1130490B1090097A105B10561F464015301A218E3
S11304A0B308C408D50831E0632E712C812C912C3B
S11304B01EC16F968FAF6F97082E04C0220C331C99
S11304C0441C551C0A94D2F7EE2DE81B6401530119
S11304D00E2E04C0D694C794B794A7940A94D2F766
S11304E0A40193016F960FAC6F9704C0220F331FC2
S11304F0441F551F0A94D2F76DA47EA48FA498A814
S11305000E2E04C096948794779467940A94D2F735
S113051084017301E22AF32A042B152BE9A6FAA617
S11305200BA71CA732018824992492018101207011
S1130530307021960CAF1DAF2EAF3FAF2197C6018F
S1130540B501A40193010E94AF427B018C01C60155
S1130550B501A40193010E94AF42C901DA012596B5
S11305608CAF9DAFAEAFBFAF2597BC01CD01219637
S11305702CAD3DAD4EAD5FAD21970E94D1429B01A4
S1130580AC018701FF24EE24A9A4BAA4CBA4DCA463
S1130590C601AA27BB275C016D01AE28BF28C02A6B
S11305A0D12AA216B306C406D50660F525966CAD0D
S11305B07DAD8EAD9FAD25976150704080409040D9
S11305C025966CAF7DAF8EAF9FAF2597A20CB31C61
S11305D0C41CD51CA214B304C404D50498F0A216F8
S11305E0B306C406D50670F4615070408040904054
S11305F025966CAF7DAF8EAF9FAF2597A20CB31C31
S1130600C41CD51CA21AB30AC40AD50AC601B50172
S1130610A40193010E94AF427B018C01C601B50184
S1130620A40193010E94AF42C901DA013C014D01CA
S1130630C401B30121962CAD3DAD4EAD5FAD219704
S11306400E94D1429B01AC018701FF24EE2489A5BD
S11306509AA5ABA5BCA5A070B07057016801A82AE3
S1130660B92ACA2ADB2AA216B306C406D506E0F4C0
S113067008946108710881089108A20CB31CC41C79
S1130680D51CA214B304C404D50470F0A216B30696
S1130690C406D50648F408946108710881089108D5
S11306A0A20CB31CC41CD51C8DA59EA5AFA5B8A9CE
S11306B06F960FAC6F9704C0880F991FAA1FBB1FBA
S11306C00A94D2F78DA79EA7AFA7B8ABA21AB30A14
S11306D0C40AD50A2596ECACFDAC0EAD1FAD25972A
S11306E0D70199278827682A792A8A2A9B2A82018E
S11306F02227332729960CAF1DAF2EAF3FAF299782
S1130700A2019101407050702D962CAF3DAF4EAFB9
S11307105FAF2D97C601B50129962CAD3DAD4EAD09
S11307205FAD29970E94AF427B018C01C601B501E0
S113073029962CAD3DAD4EAD5FAD29970E94AF42D9
S1130740C901DA0161968CAF9DAFAEAFBFAF6197BF
S1130750BC01CD012D962CAD3DAD4EAD5FAD2D97B9
S11307600E94D1429B01AC018701FF24EE24ADA479
S1130770BEA4CFA4D8A8C601AA27BB2757016801E5
S1130780A82AB92ACA2ADB2AA216B306C406D506A1
S113079060F561966CAD7DAD8EAD9FAD6197615096
S11307A070408040904061966CAF7DAF8EAF9FAF3C
S11307B06197A20CB31CC41CD51CA214B304C404BA
S11307C0D50498F0A216B306C406D50670F4615099
S11307D070408040904061966CAF7DAF8EAF9FAF0C
S11307E06197A20CB31CC41CD51CA21AB30AC40A78
S11307F0D50AC601B50129962CAD3DAD4EAD5FAD10
S113080029970E94AF427B018C01C601B50129964C
S11308102CAD3DAD4EAD5FAD29970E94AF42C901ED
S1130820DA015C016D01C601B5012D962CAD3DAD1B
S11308304EAD5FAD2D970E94D1429B01AC01870163
S1130840FF24EE248DA59EA5AFA5B8A9A070B07015
S1130850E82AF92A0A2B1B2BE216F30604071507CC
S1130860C0F40894A108B108C108D108E20CF31C33
S1130870041D151DE214F3040405150550F0E216D9
S1130880F3060407150728F40894A108B108C10861
S1130890D1086196ECACFDAC0EAD1FAD6197D701EC
S11308A09927882796018501082B192B2A2B3B2B86
S11308B009AB1AAB2BAB3CAB62C26E147F0480064F
S11308C0910608F451C220E0E21620E0F20621E08D
S11308D0020720E0120788F43FEFE316F104010554
S11308E0110531F028F048E050E060E070E017C0F6
S11308F040E050E060E070E012C040E0E41640E008
S1130900F40640E0040741E0140728F048E150E011
S113091060E070E004C040E150E060E070E0D801C5
S1130920C701042E04C0B695A795979587950A9498
S1130930D2F780509F4FDC012C9130E2A32EB12CD2
S1130940C12CD12CD601C501841B950BA60BB70B6A
S1130950821B9109A109B1090097A105B10589F488
S1130960E614F7040805190508F4F2C16DA47EA481
S11309708FA498A8621473048404950408F0E8C151
S1130980F3C16E968FAF6E97082E04C0EE0CFF1C59
S1130990001F111F0A94D2F76A2D681BD201C101EE
S11309A0062E04C0B695A795979587950A94D2F715
S11309B05C016D01AE28BF28C02AD12AADA2BEA217
S11309C0CFA2D8A6720161016E960FAC6E9704C0D7
S11309D0CC0CDD1CEE1CFF1C0A94D2F7C9A2DAA2CF
S11309E0EBA2FCA264015301062E04C0D694C79462
S11309F0B794A7940A94D2F7D401C3016E960FACAE
S1130A006E9704C0880F991FAA1FBB1F0A94D2F7C0
S1130A10EDA4FEA40FA518A904C016950795F79494
S1130A20E7946A95D2F737014801682A792A8A2A15
S1130A309B2A6D8E7E8E8F8E98A2EDA0FEA00FA1B4
S1130A4018A53801882499249801870120703070F2
S1130A5065960CAF1DAF2EAF3FAF6597C601B501CC
S1130A60A40193010E94AF427B018C01C601B50130
S1130A70A40193010E94AF42C901DA011C012D01B6
S1130A80C201B10165962CAD3DAD4EAD5FAD65972C
S1130A900E94D1429B01AC018701FF24EE24AD8C5E
S1130AA0BE8CCF8CD8A0C601AA27BB2757016801EA
S1130AB0A82AB92ACA2ADB2AA216B306C406D5066E
S1130AC000F508942108310841085108EDA0FEA062
S1130AD00FA118A5AE0CBF1CC01ED11EAE14BF04BE
S1130AE0C006D10670F0A216B306C406D50648F4B3
S1130AF008942108310841085108AE0CBF1CC01EDF
S1130B00D11EA21AB30AC40AD50AC601B501A401AA
S1130B1093010E94AF427B018C01C601B501A4017F
S1130B2093010E94AF42C901DA013C014D01C401A5
S1130B30B30165962CAD3DAD4EAD5FAD65970E949A
S1130B40D1429B01AC018701FF24EE248D8D9E8D43
S1130B50AF8DB8A1A070B07057016801A82AB92A56
S1130B60CA2ADB2AA216B306C406D50600F50894E1
S1130B7061087108810891086DA17EA18FA198A5D3
S1130B80A60EB71EC81ED91EA616B706C806D906D5
S1130B9070F0A216B306C406D50648F4089461089A
S1130BA0710881089108A60EB71EC81ED91ED60169
S1130BB0C501821B930BA40BB50B898F9A8FAB8F46
S1130BC0BC8FD1019927882764015301A82AB92A27
S1130BD0CA2ADB2AA9AABAAACBAADCAA8601750169
S1130BE02FEF3FEF40E050E0E222F32204231523ED
S1130BF0A601662777276D964CAF5DAF6EAF7FAFCA
S1130C006D97A9A0BAA0CBA0DCA06FEF7FEF80E026
S1130C1090E0A622B722C822D92289A19AA1ABA129
S1130C20BCA11D0144245524C801B701A6019501A6
S1130C300E94D14269966CAF7DAF8EAF9FAF69972A
S1130C40C801B701A20191010E94D1423B014C01AC
S1130C506D966CAD7DAD8EAD9FAD6D97A601950182
S1130C600E94D1427B018C016D966CAD7DAD8EAD41
S1130C709FAD6D97A20191010E94D1425B016C016D
S1130C80A8019701260D371D481D591D69966CACA6
S1130C907DAC8EAC9FAC6997C401AA27BB27280FF3
S1130CA0391F4A1F5B1F2E153F054007510748F4A3
S1130CB0E12CF12C61E0062F112DAE0CBF1CC01EDF
S1130CC0D11ECA01AA27BB27BC01CD016A0D7B1D19
S1130CD08C1D9D1D698C7A8C8B8C9C8C661677067A
S1130CE08806990640F1661577058805990509F087
S1130CF043C0D9019927882769962CAD3DAD4EADE7
S1130D005FAD699740705070820F931FA41FB51F89
S1130D102DA53EA54FA558A96E960FAC6E9704C09D
S1130D20220F331F441F551F0A94D2F7281739077F
S1130D304A075B0708F509A91AA92BA93CA9015080
S1130D4010402040304009AB1AAB2BAB3CAB14C075
S1130D5066247724430121E030E040E050E029ABF1
S1130D603AAB4BAB5CAB0BC066247724430119AAA6
S1130D701AAA1BAA1CAA03C0662477244301FE01F5
S1130D80719688E0DF011D928A95E9F7A9A8BAA8AF
S1130D90CBA8DCA8A98ABA8ACB8ADC8A6D8A7E8A27
S1130DA08F8A988E29A93A894B895C89662D7E8918
S1130DB08F89988DC25ADF4FE2E10C940C43DF9384
S1130DC0CF93CDB7DEB7A6970FB6F894DEBF0FBEAC
S1130DD0CDBF8DA36EA381E48D8F8DA1813019F4D5
S1130DE081E08E8F02C08FEF8E8F8EA1813009F04B
S1130DF07EC081E08F8F72C080E090E0A8E4B2E40E
S1130E00898F9A8FAB8FBC8F698D7A8D8B8D9C8DDA
S1130E1020E030E44CE155E40E944C42DC01CB017B
S1130E208D8B9E8BAF8BB88F6D897E898F89988DC2
S1130E3020E030E040E85FE30E94C04088232CF4C7
S1130E4081E090E09C8B8B8B3FC06D897E898F897C
S1130E50988D20E03FEF4FE757E40E944842181670
S1130E604CF5698D7A8D8B8D9C8D20E030E040E2CD
S1130E7051E40E944C42DC01CB01BC01CD010E9433
S1130E802C41DC01CB019C8B8B8B0FC08AEF90E053
S1130E909A8B898B89899A890197F1F79A8B898B27
S1130EA08B899C8901979C8B8B8B8B899C89009760
S1130EB069F714C06D897E898F89988D0E942C41B1
S1130EC0DC01CB019C8B8B8B8B899C89988B8F87C6
S1130ED08F8598890197F1F7988B8F87CE014D966E
S1130EE064ED0E949511882309F086CF81C08EA1FC
S1130EF08F3F09F07DC08FEF8F8F72C080E090E04C
S1130F00A8E4B2E48B879C87AD87BE876B857C851C
S1130F108D859E8520E030E44CE155E40E944C42EE
S1130F20DC01CB018F839887A987BA876F81788585
S1130F3089859A8520E030E040E85FE30E94C04064
S1130F4088232CF481E090E09E838D833FC06F81E1
S1130F50788589859A8520E03FEF4FE757E40E9422
S1130F60484218164CF56B857C858D859E8520E05E
S1130F7030E040E251E40E944C42DC01CB01BC0170
S1130F80CD010E942C41DC01CB019E838D830FC0D7
S1130F908AEF90E09C838B838B819C810197F1F78E
S1130FA09C838B838D819E8101979E838D838D810C
S1130FB09E81009769F714C06F81788589859A8529
S1130FC00E942C41DC01CB019E838D838D819E8107
S1130FD09A83898389819A810197F1F79A83898316
S1130FE0CE014D9664ED0E949511882309F086CFB9
S1130FF0A6960FB6F894DEBF0FBECDBFCF91DF919A
S113100008950F931F93DF93CF93CDB7DEB7C055E9
S1131010D0400FB6F894DEBF0FBECDBFFE01E15B3A
S1131020FF4F8083FE01E05BFF4F6083FE01E95BBD
S1131030FF4F82E48083FE01E15BFF4F80818130BA
S113104009F095C0FE01E95BFF4F81E0818385C013
S1131050FE01ED5BFF4F80E090E0A8E4B2E4808302
S11310609183A283B3838E01015C1F4FFE01ED5B6C
S1131070FF4F608171818281938120E030E44CE1F3
S113108055E40E944C42DC01CB01F801808391833A
S1131090A283B383FE01FF96608171818281938173
S11310A020E030E040E85FE30E94C04088232CF455
S11310B081E090E09EAF8DAF46C0FE01FF96608157
S11310C071818281938120E03FEF4FE757E40E94D2
S11310D04842181664F5FE01ED5BFF4F6081718193
S11310E08281938120E030E040E251E40E944C424E
S11310F0DC01CB01BC01CD010E942C41DC01CB0100
S11311009EAF8DAF0FC08AEF90E09CAF8BAF8BADDD
S11311109CAD0197F1F79CAF8BAF8DAD9EAD019760
S11311209EAF8DAF8DAD9EAD009769F716C0FE01E1
S1131130FF9660817181828193810E942C41DC0140
S1131140CB019EAF8DAF8DAD9EAD9AAF89AF89AD0A
S11311509AAD0197F1F79AAF89AFCE01895B9F4FA2
S113116064ED0E949511882309F072CF81C0FE01BD
S1131170E95BFF4F8FEF818372C080E090E0A8E4C9
S1131180B2E48DAB9EABAFABB8AF6DA97EA98FA90E
S113119098AD20E030E44CE155E40E944C42DC017F
S11311A0CB0189AB9AABABABBCAB69A97AA98BA9D0
S11311B09CA920E030E040E85FE30E94C04088231F
S11311C02CF481E090E098AB8FA73FC069A97AA97D
S11311D08BA99CA920E03FEF4FE757E40E944842C7
S11311E018164CF56DA97EA98FA998AD20E030E0C2
S11311F040E251E40E944C42DC01CB01BC01CD0130
S11312000E942C41DC01CB0198AB8FA70FC08AEF61
S113121090E09EA78DA78DA59EA50197F1F79EA7A7
S11312208DA78FA598A9019798AB8FA78FA598A98B
S1131230009769F714C069A97AA98BA99CA90E948F
S11312402C41DC01CB0198AB8FA78FA598A99CA753
S11312508BA78BA59CA50197F1F79CA78BA7CE0123
S1131260895B9F4F64ED0E949511882309F085CF17
S1131270FE01E05BFF4F8081813009F081C0FE01F7
S1131280E95BFF4F81E0828372C080E090E0A8E4D4
S1131290B2E48FA398A7A9A7BAA76FA178A589A537
S11312A09AA520E030E44CE155E40E944C42DC0174
S11312B0CB018BA39CA3ADA3BEA36BA17CA18DA1E9
S11312C09EA120E030E040E85FE30E94C040882314
S11312D02CF481E090E09AA389A33FC06BA17CA188
S11312E08DA19EA120E03FEF4FE757E40E944842C2
S11312F018164CF56FA178A589A59AA520E030E0D1
S113130040E251E40E944C42DC01CB01BC01CD011E
S11313100E942C41DC01CB019AA389A30FC08AEF60
S113132090E098A38F8F8F8D98A10197F1F798A3E0
S11313308F8F89A19AA101979AA389A389A19AA1C0
S1131340009769F714C06BA17CA18DA19EA10E9496
S11313502C41DC01CB019AA389A389A19AA19E8F78
S11313608D8F8D8D9E8D0197F1F79E8F8D8FCE0180
S1131370895B9F4F64EDD9D7882309F086CF0FC1CD
S1131380FE01E05BFF4F80818F3F09F081C0FE01C9
S1131390E95BFF4F8FEF828372C080E090E0A8E4A6
S11313A0B2E4898F9A8FAB8FBC8F698D7A8D8B8DC8
S11313B09C8D20E030E44CE155E40E944C42DC0179
S11313C0CB018D8B9E8BAF8BB88F6D897E898F8976
S11313D0988D20E030E040E85FE30E94C04088231D
S11313E02CF481E090E09C8B8B8B3FC06D897E89CF
S11313F08F89988D20E03FEF4FE757E40E944842E1
S113140018164CF5698D7A8D8B8D9C8D20E030E01B
S113141040E251E40E944C42DC01CB01BC01CD010D
S11314200E942C41DC01CB019C8B8B8B0FC08AEF7B
S113143090E09A8B898B89899A890197F1F79A8B25
S1131440898B8B899C8901979C8B8B8B8B899C893D
S1131450009769F714C06D897E898F89988D0E94E1
S11314602C41DC01CB019C8B8B8B8B899C89988BC9
S11314708F878F8598890197F1F7988B8F87CE0195
S1131480895B9F4F64ED51D7882309F086CF87C0CD
S1131490FE01E05BFF4F8081823009F080C0FE01D5
S11314A0E95BFF4F82E0828372C080E090E0A8E4B1
S11314B0B2E48B879C87AD87BE876B857C858D85E1
S11314C09E8520E030E44CE155E40E944C42DC016E
S11314D0CB018F839887A987BA876F81788589859F
S11314E09A8520E030E040E85FE30E94C040882312
S11314F02CF481E090E09E838D833FC06F817885DA
S113150089859A8520E03FEF4FE757E40E944842DF
S113151018164CF56B857C858D859E8520E030E022
S113152040E251E40E944C42DC01CB01BC01CD01FC
S11315300E942C41DC01CB019E838D830FC08AEF76
S113154090E09C838B838B819C810197F1F79C8332
S11315508B838D819E8101979E838D838D819E8156
S1131560009769F714C06F81788589859A850E94F0
S11315702C41DC01CB019E838D838D819E819A83D6
S1131580898389819A810197F1F79A838983CE01AE
S1131590895B9F4F64EDC9D6882309F086CFC05B71
S11315A0DF4F0FB6F894DEBF0FBECDBFCF91DF91F2
S11315B01F910F910895DF93CF93CDB7DEB7A59711
S11315C00FB6F894DEBF0FBECDBF8DA383E48D8F1D
S11315D08DA1813009F07DC081E08E8F72C080E0E2
S11315E090E0A8E4B2E4898F9A8FAB8FBC8F698DA9
S11315F07A8D8B8D9C8D20E030E44CE155E40E9483
S11316004C42DC01CB018D8B9E8BAF8BB88F6D89E7
S11316107E898F89988D20E030E040E85FE30E9466
S1131620C04088232CF481E090E09C8B8B8B3FC0DE
S11316306D897E898F89988D20E03FEF4FE757E4CD
S11316400E94484218164CF5698D7A8D8B8D9C8DBD
S113165020E030E040E251E40E944C42DC01CB0146
S1131660BC01CD010E942C41DC01CB019C8B8B8BF6
S11316700FC08AEF90E09A8B898B89899A890197A8
S1131680F1F79A8B898B8B899C8901979C8B8B8B27
S11316908B899C89009769F714C06D897E898F892D
S11316A0988D0E942C41DC01CB019C8B8B8B8B8908
S11316B09C89988B8F878F8598890197F1F7988BF0
S11316C08F87CE014D9664ED30D6882309F087CFFD
S11316D07CC08FEF8E8F72C080E090E0A8E4B2E40B
S11316E08B879C87AD87BE876B857C858D859E8522
S11316F020E030E44CE155E40E944C42DC01CB0193
S11317008F839887A987BA876F81788589859A8519
S113171020E030E040E85FE30E94C04088232CF4DE
S113172081E090E09E838D833FC06F8178858985B9
S11317309A8520E03FEF4FE757E40E94484218168D
S11317404CF56B857C858D859E8520E030E040E2FC
S113175051E40E944C42DC01CB01BC01CD010E944A
S11317602C41DC01CB019E838D830FC08AEF90E076
S11317709C838B838B819C810197F1F79C838B8362
S11317808D819E8101979E838D838D819E8100979B
S113179069F714C06F81788589859A850E942C41E8
S11317A0DC01CB019E838D838D819E819A83898305
S11317B089819A810197F1F79A838983CE014D96A5
S11317C064EDB3D5882309F087CFA5960FB6F894B6
S11317D0DEBF0FBECDBFCF91DF910895DF93CF93CE
S11317E0CDB7DEB7A5970FB6F894DEBF0FBECDBF59
S11317F08DA384E48D8F8DA1813009F07DC081E0BB
S11318008E8F72C080E090E0A8E4B2E4898F9A8F52
S1131810AB8FBC8F698D7A8D8B8D9C8D20E030E4ED
S11318204CE155E40E944C42DC01CB018D8B9E8B34
S1131830AF8BB88F6D897E898F89988D20E030E0D9
S113184040E85FE30E94C04088232CF481E090E0EC
S11318509C8B8B8B3FC06D897E898F89988D20E00E
S11318603FEF4FE757E40E94484218164CF5698D44
S11318707A8D8B8D9C8D20E030E040E251E40E9413
S11318804C42DC01CB01BC01CD010E942C41DC01A6
S1131890CB019C8B8B8B0FC08AEF90E09A8B898B4A
S11318A089899A890197F1F79A8B898B8B899C890D
S11318B001979C8B8B8B8B899C89009769F714C04B
S11318C06D897E898F89988D0E942C41DC01CB0122
S11318D09C8B8B8B8B899C89988B8F878F85988920
S11318E00197F1F7988B8F87CE014D9664ED1DD546
S11318F0882309F087CF7CC08FEF8E8F72C080E081
S113190090E0A8E4B2E48B879C87AD87BE876B85A3
S11319107C858D859E8520E030E44CE155E40E9471
S11319204C42DC01CB018F839887A987BA876F81EA
S1131930788589859A8520E030E040E85FE30E945D
S1131940C04088232CF481E090E09E838D833FC0C7
S11319506F81788589859A8520E03FEF4FE757E4CA
S11319600E94484218164CF56B857C858D859E85B2
S113197020E030E040E251E40E944C42DC01CB0123
S1131980BC01CD010E942C41DC01CB019E838D83DF
S11319900FC08AEF90E09C838B838B819C8101979D
S11319A0F1F79C838B838D819E8101979E838D8328
S11319B08D819E81009769F714C06F817885898530
S11319C09A850E942C41DC01CB019E838D838D81FD
S11319D09E819A83898389819A810197F1F79A83F9
S11319E08983CE014D9664EDA0D4882309F087CF76
S11319F0A5960FB6F894DEBF0FBECDBFCF91DF9191
S1131A000895DF93CF93CDB7DEB7A5970FB6F894BB
S1131A10DEBF0FBECDBF8DA385E48D8F8DA1813038
S1131A2009F07DC081E08E8F72C080E090E0A8E470
S1131A30B2E4898F9A8FAB8FBC8F698D7A8D8B8D31
S1131A409C8D20E030E44CE155E40E944C42DC01E2
S1131A50CB018D8B9E8BAF8BB88F6D897E898F89DF
S1131A60988D20E030E040E85FE30E94C040882386
S1131A702CF481E090E09C8B8B8B3FC06D897E8938
S1131A808F89988D20E03FEF4FE757E40E9448424A
S1131A9018164CF5698D7A8D8B8D9C8D20E030E085
S1131AA040E251E40E944C42DC01CB01BC01CD0177
S1131AB00E942C41DC01CB019C8B8B8B0FC08AEFE5
S1131AC090E09A8B898B89899A890197F1F79A8B8F
S1131AD0898B8B899C8901979C8B8B8B8B899C89A7
S1131AE0009769F714C06D897E898F89988D0E944B
S1131AF02C41DC01CB019C8B8B8B8B899C89988B33
S1131B008F878F8598890197F1F7988B8F87CE01FE
S1131B104D9664ED0AD4882309F087CF7CC08FEFFB
S1131B208E8F72C080E090E0A8E4B2E48B879C873B
S1131B30AD87BE876B857C858D859E8520E030E4EE
S1131B404CE155E40E944C42DC01CB018F83988721
S1131B50A987BA876F81788589859A8520E030E0E6
S1131B6040E85FE30E94C04088232CF481E090E0C9
S1131B709E838D833FC06F81788589859A8520E017
S1131B803FEF4FE757E40E94484218164CF56B8527
S1131B907C858D859E8520E030E040E251E40E9402
S1131BA04C42DC01CB01BC01CD010E942C41DC0183
S1131BB0CB019E838D830FC08AEF90E09C838B833F
S1131BC08B819C810197F1F79C838B838D819E810E
S1131BD001979E838D838D819E81009769F714C040
S1131BE06F81788589859A850E942C41DC01CB011F
S1131BF09E838D838D819E819A83898389819A8135
S1131C000197F1F79A838983CE014D9664ED8DD3C4
S1131C10882309F087CFA5960FB6F894DEBF0FBED0
S1131C20CDBFCF91DF910895DF93CF9300D00F9272
S1131C30CDB7DEB789836A8389818130D1F48A8103
S1131C40813019F481E0CADD0AC08A818F3F19F41A
S1131C5081E0B1DC04C081E0C1DD81E0ACDC81E085
S1131C60D0DE81E00E944B318F3FE9F48FEF8B830C
S1131C701CC08FEFC6DE8A81813019F48FEFAEDD90
S1131C800AC08A818F3F19F48FEF95DC04C08FEF6F
S1131C90A5DD8FEF90DC8FEF0E944B318F3F19F45D
S1131CA08FEF8B8302C081E08B838B810F900F9029
S1131CB00F90CF91DF9108952F923F924F925F92B0
S1131CC06F927F928F929F92AF92BF92CF92DF9248
S1131CD0EF92FF920F931F93DF93CF9300D000D026
S1131CE0CDB7DEB79A838983ADE2B0E0EDE2F0E0F0
S1131CF0808188638C93E4E9F0E011821082E8E942
S1131D00F0E011821082EAE9F0E011821082ECE93D
S1131D10F0E011821082E0E9F0E08EEF8083E1E9E7
S1131D20F0E089E1808386E990E09C838B8389815C
S1131D309A811C014424552466247724430120E815
S1131D4036E948E950E060E070E080E090E0A22CE1
S1131D50B32CC42CD52CE62CF72C082D192D0E945D
S1131D606A00222E332E442E552E662E772E882E70
S1131D70992EA22CB32CC42CD52CE62CF72C082D90
S1131D80192D2A2D3B2D4C2D5D2D6E2D7F2D802F51
S1131D90912F0E949541DC01CB01BC01CD0120E0D3
S1131DA030E040E05FE30E945B40DC01CB01BC011A
S1131DB0CD010E942C41DC01CB01EB81FC8191839C
S1131DC080830F900F900F900F90CF91DF911F9110
S1131DD00F91FF90EF90DF90CF90BF90AF909F90C6
S1131DE08F907F906F905F904F903F902F900895C9
S1131DF01F920F9200905F000F92112400905B00DD
S1131E000F922F933F934F935F938F939F93EF93EF
S1131E10FF93CF93DF9300D000D0CDB7DEB78DEE24
S1131E2090E0FC0180818B831982A4C08DEE90E048
S1131E3029812295207FFC0120838EEE90E0FC0115
S1131E408081829586958770882F90E0817099278C
S1131E50009709F470C08FEE90E020E8FC01208325
S1131E608EEE90E02EEE30E0F90120812F7DFC0112
S1131E70208382EF90E0FC018081829586958770B3
S1131E80282F83EF90E0FC018081882F90E0880F59
S1131E90991F880F991F880F991F822B8C831A8290
S1131EA026C08C81882F90E081509048880F991F1C
S1131EB08E519D4FFC01208131818C81882F90E0CF
S1131EC001978A509D4FFC018081482F50E08A8100
S1131ED0882F90E0840F951F820F931F2AEF30E024
S1131EE0F9012081FC0120838A818F5F8A838A81A2
S1131EF08830B8F28C81882F90E001978A509D4FEA
S1131F00FC0120812F5FFC012083253041F48C816A
S1131F10882F90E001978A509D4FFC0110828C819C
S1131F20882F90E00197865F9C4FFC0120812F5FF2
S1131F30FC01208323C08EEE90E0FC018081829519
S1131F40869586958370882F90E0817099270097F5
S1131F5071F08FEE90E0FC0110828EEE90E02EEE98
S1131F6030E0F90120812F7BFC01208307C08981A7
S1131F708F5F898389818F3008F458CF8DEE90E08C
S1131F802B81FC0120838AED90E02AED30E0F901F9
S1131F902081FC0120830F900F900F900F90DF9110
S1131FA0CF91FF91EF919F918F915F914F913F91CD
S1131FB02F910F9000925B000F9000925F000F90A2
S1131FC01F901895CF93DF9300D0CDB7DEB788ED7F
S1131FD090E021E0FC01208319823EC08DEE90E068
S1131FE029812295207FFC0120838EEE90E0FC0164
S1131FF010828FEE90E0FC01108283EF90E0FC01F0
S1132000108282EF90E0FC01108281EF90E0FC01ED
S1132010108280EF90E0FC01108287EF90E0FC01D9
S1132020108286EF90E0FC01108285EF90E0FC01C5
S1132030108284EF90E0FC0110821A8207C08AEFBC
S113204090E0FC0110828A818F5F8A838A818830C4
S1132050B0F389818F5F898389818F3008F4BECF83
S113206088ED90E022E0FC01208382EE90E021E004
S1132070FC01208383EE90E028E0FC01208384EEC1
S113208090E02EE5FC01208385EE90E0FC011082B7
S11320908BED90E020EBFC0120838FED90E02FE7A7
S11320A0FC0120838EED90E02FEFFC0120837894D7
S11320B00F900F90DF91CF910895CF93DF9300D0CD
S11320C000D0CDB7DEB79C838B838DEE90E0FC010E
S11320D080818A83000089ED90E0FC0180818295F3
S11320E08F70882F90E0817099270097A1F789ED70
S11320F090E0FC018081869586958695882F90E0F6
S113210081709927009739F7198249C08DEE90E0C4
S113211029812295207FFC0120838FEE90E0FC0131
S113212080818295869586958370882321F08981A4
S11321308F5F898334C08FEE90E02FE0FC01208311
S113214083EF90E02B813C81332736952795369594
S1132150279536952795FC01208382EF90E02B810B
S11321602295220F207EFC01208386EF90E020EE52
S1132170FC01208387EF90E02FEFFC0120838FEE9A
S113218090E02FEE30E0F90120812068FC012083EB
S11321908DEE90E02A81FC01208381E00AC08981D0
S11321A08F3008F4B3CF8DEE90E02A81FC012083B8
S11321B080E00F900F900F900F90DF91CF910895D2
S11321C00F931F93CF93DF9300D0CDB7DEB78A83ED
S11321D0F9DE19822FC08981882F90E001966DDF86
S11321E08981882F90E0880F991F8C010E511D4F13
S11321F061E070E085E090E00E942743F80191835C
S113220080838981882F90E02981222F30E04981C1
S1132210442F50E060E0465F5C4FFA016083205039
S11322203D4FF90160838A509D4FFC016083898191
S11322308F5F898399818A81981768F20F900F9034
S1132240DF91CF911F910F910895CF93DF9300D029
S113225000D0CDB7DEB79B838A836C8300008C816A
S1132260882F90E00197865F9C4FFC018081882332
S1132270B1F319822CC08981882F90E02A813B8197
S1132280820F931F2C81222F30E021503048220FDF
S1132290331F2E513D4FF901408151812C81222F52
S11322A030E02150310920503D4FF9012081622F47
S11322B070E02981222F30E0260F371F240F351FAD
S11322C0F9012081FC01208389818F5F89838981C1
S11322D0883088F28C81882F90E0019780509D4F40
S11322E0FC0120812F5FFC012083253041F48C8187
S11322F0882F90E0019780509D4FFC0110828C81C3
S1132300882F90E001979C01265F3C4FF9012081C2
S11323102150865F9C4FFC01208380E00F900F903A
S11323200F900F90DF91CF910895CF93DF9300D05A
S113233000D000D0CDB7DEB79D838C836E830000C0
S113234089ED90E0FC01808182958F70882F90E068
S1132350817099270097A1F789ED90E0FC018081B5
S1132360869586958695882F90E0817099270097A9
S113237039F78DEE90E0FC0180818B831A8215C0C1
S11323808DEE90E02A812295207FFC0120838FEE40
S113239090E0FC01808182958695869583708823E0
S11323A009F406C08A818F5F8A838A818F3040F363
S11323B08A818F3011F48FEF39C082EF90E02E8143
S11323C02295220F207EFC01208383EF90E02E8152
S11323D0269526952695FC0120838FEE90E028E033
S11323E0FC012083198210C08AEF90E02981222FFA
S11323F030E04C815D81240F351FF9012081FC01FF
S1132400208389818F5F89838981883068F38FEE87
S113241090E02FEE30E0F90120812064FC0120835C
S11324208DEE90E02B81FC01208380E026960FB690
S1132430F894DEBF0FBECDBFDF91CF910895DF9337
S1132440CF9300D000D0CDB7DEB769837A838B8376
S11324509C8310924A0480914A04882329F48FEFC4
S1132460AAD881E080934A0480E00F900F900F90E7
S11324700F90CF91DF910895DF93CF9300D000D0D8
S1132480CDB7DEB769837A838B839C838FEF6FEF3D
S11324900E94010880E00F900F900F900F90CF9151
S11324A0DF910895DF93CF93CDB7DEB7A0970FB632
S11324B0F894DEBF0FBECDBF6D8F7E8F8F8F98A334
S11324C080915004882309F0EFC080E090E0AFE2EF
S11324D0B4E4898F9A8FAB8FBC8F698D7A8D8B8D85
S11324E09C8D20E030E44CE155E40E944C42DC0138
S11324F0CB018D8B9E8BAF8BB88F6D897E898F8935
S1132500988D20E030E040E85FE30E94C0408823DB
S11325102CF481E090E09C8B8B8B3FC06D897E898D
S11325208F89988D20E03FEF4FE757E40E9448429F
S113253018164CF5698D7A8D8B8D9C8D20E030E0DA
S113254040E251E40E944C42DC01CB01BC01CD01CC
S11325500E942C41DC01CB019C8B8B8B0FC08AEF3A
S113256090E09A8B898B89899A890197F1F79A8BE4
S1132570898B8B899C8901979C8B8B8B8B899C89FC
S1132580009769F714C06D897E898F89988D0E94A0
S11325902C41DC01CB019C8B8B8B8B899C89988B88
S11325A08F878F8598890197F1F7988B8F8781E0C2
S11325B06FEF0E94DF0680E090E0A6E9B4E48B8729
S11325C09C87AD87BE876B857C858D859E8520E045
S11325D030E44CE155E40E944C42DC01CB018F8392
S11325E09887A987BA876F81788589859A8520E03D
S11325F030E040E85FE30E94C04088232CF481E08F
S113260090E09E838D833FC06F81788589859A850C
S113261020E03FEF4FE757E40E94484218164CF57C
S11326206B857C858D859E8520E030E040E251E419
S11326300E944C42DC01CB01BC01CD010E942C4123
S1132640DC01CB019E838D830FC08AEF90E09C83D5
S11326508B838B819C810197F1F79C838B838D8184
S11326609E8101979E838D838D819E81009769F75A
S113267014C06F81788589859A850E942C41DC017C
S1132680CB019E838D838D819E819A8389838981E9
S11326909A810197F1F79A83898381E061E00E942E
S11326A0DF0681E08093500480E0A0960FB6F89492
S11326B0DEBF0FBECDBFCF91DF910895DF93CF93DF
S11326C000D000D0CDB7DEB769837A838B839C8337
S11326D080915804882339F48FEF61E00E94010847
S11326E081E08093580480E00F900F900F900F903A
S11326F0CF91DF910895EF92FF920F931F93DF9391
S1132700CF93CDB7DEB7CB53D1400FB6F894DEBF2D
S11327100FBECDBFFE01E65DFE4F1082FE01E75DF8
S1132720FE4F1082FE01E95DFE4F81E08083FE01D1
S1132730E55DFE4F8EE590E091838083FE01E55DCB
S1132740FE4F8BE294E093838283FE01E55DFE4FAE
S113275015821482FE01E55DFE4F40815181628144
S11327607381848195810E94D929FE01E95DFE4F20
S11327708081882F90E081309105B9F7FE01E65DF4
S1132780FE4FDE01A75DBE4F8C9180830C9497238E
S1132790FE01E65DFE4F8081482F50E0FE01E65DBC
S11327A0FE4F8081882F90E0880F991F9C01220F93
S11327B0331F220F331F820F931FFC01E45FFD4F71
S11327C01081FE01E65DFE4F8081882F90E0880F26
S11327D0991F9C01220F331F220F331F820F931F57
S11327E0FC01E35FFD4F0081FE01E65DFE4F808149
S11327F0882F90E0880F991F9C01220F331F220F0E
S1132800331F820F931FFC01E25FFD4FA081B18152
S1132810CA01880F991F9C01220F331F220F331FF7
S1132820820F931FFC01EA5FFD4F40815181628159
S1132830738184819581212F7D010E943627FE01B9
S1132840E85DFE4F8083FE01E65DFE4F80818823B4
S113285011F40C948E23FE01E65DFE4F80818130DD
S113286029F481E061E0E0D90C948E23FE01E65D59
S1132870FE4F8081823009F071C183E70E94B12349
S1132880FE01ED5DFE4F80E090E0A8E4B2E48083B9
S11328909183A283B3838E01015E1E4FFE01ED5D21
S11328A0FE4F608171818281938120E030E44CE1AC
S11328B055E40E944C42DC01CB01F80180839183F2
S11328C0A283B383FE01E15EFE4F60817181828148
S11328D0938120E030E040E85FE30E94C040882319
S11328E044F4FE01E35EFE4F81E090E09183808337
S11328F064C0FE01E15EFE4F60817181828193813B
S113290020E03FEF4FE757E40E94484218160CF0CE
S113291043C0FE01ED5DFE4F608171818281938130
S113292020E030E040E251E40E944C42DC01CB0163
S11329308E01035E1E4FBC01CD010E942C41DC01BF
S1132940CB01F801918380831FC0FE01E55EFE4F39
S11329508AEF90E091838083FE01E55EFE4F8081E3
S113296091810197F1F7FE01E55EFE4F918380832B
S1132970DE01A35EBE4FFE01E35EFE4F80819181C6
S1132980019711969C938E93FE01E35EFE4F808126
S113299091810097D1F627C08E01035E1E4FFE0180
S11329A0E15EFE4F60817181828193810E942C419E
S11329B0DC01CB01F80191838083DE01A75EBE4F69
S11329C0FE01E35EFE4F808191818D939C93FE0115
S11329D0E75EFE4F808191810197F1F7FE01E75E8A
S11329E0FE4F918380838FEF61E01ED9FE01EB5E81
S11329F0FE4F80E090E0AAEFB3E480839183A2834A
S1132A00B3838E010F5E1E4FFE01EB5EFE4F6081AD
S1132A1071818281938120E030E44CE155E40E948D
S1132A204C42DC01CB01F80180839183A283B38300
S1132A30FE01EF5EFE4F608171818281938120E00F
S1132A4030E040E85FE30E94C040882344F4FE0184
S1132A50E15FFE4F81E090E09183808364C0FE01DA
S1132A60EF5EFE4F608171818281938120E03FEFB0
S1132A704FE757E40E94484218160CF043C0FE0189
S1132A80EB5EFE4F608171818281938120E030E0B2
S1132A9040E251E40E944C42DC01CB018E01015F13
S1132AA01E4FBC01CD010E942C41DC01CB01F80179
S1132AB0918380831FC0FE01E35FFE4F8AEF90E0A5
S1132AC091838083FE01E35FFE4F808191810197B2
S1132AD0F1F7FE01E35FFE4F91838083DE01A15F86
S1132AE0BE4FFE01E15FFE4F8081918101971196F7
S1132AF09C938E93FE01E15FFE4F8081918100974C
S1132B00D1F627C08E01015F1E4FFE01EF5EFE4F1E
S1132B1060817181828193810E942C41DC01CB010F
S1132B20F80191838083DE01A55FBE4FFE01E15F62
S1132B30FE4F808191818D939C93FE01E55FFE4F52
S1132B40808191810197F1F7FE01E55FFE4F91834A
S1132B50808381E061E068D80C948E23FE01E65DF9
S1132B60FE4F8081833011F40C948E23FE01E65DC8
S1132B70FE4F8081843009F056C783E70E94B12359
S1132B80FE01E95FFE4F80E090E0A8E4B2E48083B8
S1132B909183A283B3838E010D5F1E4FFE01E95F13
S1132BA0FE4F608171818281938120E030E44CE1A9
S1132BB055E40E944C42DC01CB01F80180839183EF
S1132BC0A283B383FE01ED5FFE4F60817181828138
S1132BD0938120E030E040E85FE30E94C040882316
S1132BE044F4FE01EF5FFE4F81E090E09183808327
S1132BF064C0FE01ED5FFE4F60817181828193812B
S1132C0020E03FEF4FE757E40E94484218160CF0CB
S1132C1043C0FE01E95FFE4F60817181828193812F
S1132C2020E030E040E251E40E944C42DC01CB0160
S1132C308E010F5F1E4FBC01CD010E942C41DC01AF
S1132C40CB01F801918380831FC0FE01E150FF4F47
S1132C508AEF90E091838083FE01E150FF4F8081F1
S1132C6091810197F1F7FE01E150FF4F9183808339
S1132C70DE01AF5FBE4FFE01EF5FFE4F80819181A9
S1132C80019711969C938E93FE01EF5FFE4F808116
S1132C9091810097D1F627C08E010F5F1E4FFE0170
S1132CA0ED5FFE4F60817181828193810E942C418E
S1132CB0DC01CB01F80191838083DE01A350BF4F77
S1132CC0FE01EF5FFE4F808191818D939C93FE0105
S1132CD0E350FF4F808191810197F1F7FE01E350AA
S1132CE0FF4F918380838FEF61E00E94140EFE01F9
S1132CF0E750FF4F80E090E0AAEFB3E48083918334
S1132D00A283B3838E010B501F4FFE01E750FF4F88
S1132D10608171818281938120E030E44CE155E44B
S1132D200E944C42DC01CB01F80180839183A28391
S1132D30B383FE01EB50FF4F6081718182819381E7
S1132D4020E030E040E85FE30E94C040882344F480
S1132D50FE01ED50FF4F81E090E09183808364C0D9
S1132D60FE01EB50FF4F608171818281938120E0ED
S1132D703FEF4FE757E40E94484218160CF043C057
S1132D80FE01E750FF4F608171818281938120E0D1
S1132D9030E040E251E40E944C42DC01CB018E0160
S1132DA00D501F4FBC01CD010E942C41DC01CB0111
S1132DB0F801918380831FC0FE01EF50FF4F8AEF1B
S1132DC090E091838083FE01EF50FF4F80819181D9
S1132DD00197F1F7FE01EF50FF4F91838083DE01ED
S1132DE0AD50BF4FFE01ED50FF4F8081918101979F
S1132DF011969C938E93FE01ED50FF4F808191813B
S1132E000097D1F627C08E010D501F4FFE01EB50E5
S1132E10FF4F60817181828193810E942C41DC018A
S1132E20CB01F80191838083DE01A151BF4FFE01E4
S1132E30ED50FF4F808191818D939C93FE01E15170
S1132E40FF4F808191810197F1F7FE01E151FF4F1E
S1132E509183808381E061E00E94140E2EE533E1CA
S1132E608AE590E062E3A9010E949A2B8CE390E04A
S1132E7062E340E050E00E94CD248FEF6FEF0E94A8
S1132E8001088CE99FEF62E340E050E00E94CD240A
S1132E908CE99FEF62E340E050E00E949A2BFE0130
S1132EA0E551FF4F80E090E0AAEFB3E48083918383
S1132EB0A283B3838E0109511F4FFE01E551FF4FD9
S1132EC0608171818281938120E030E44CE155E49A
S1132ED00E944C42DC01CB01F80180839183A283E0
S1132EE0B383FE01E951FF4F608171818281938137
S1132EF020E030E040E85FE30E94C040882344F4CF
S1132F00FE01EB51FF4F81E090E09183808364C028
S1132F10FE01E951FF4F608171818281938120E03C
S1132F203FEF4FE757E40E94484218160CF043C0A5
S1132F30FE01E551FF4F608171818281938120E020
S1132F4030E040E251E40E944C42DC01CB018E01AE
S1132F500B511F4FBC01CD010E942C41DC01CB0160
S1132F60F801918380831FC0FE01ED51FF4F8AEF6A
S1132F7090E091838083FE01ED51FF4F8081918128
S1132F800197F1F7FE01ED51FF4F91838083DE013C
S1132F90AB51BF4FFE01EB51FF4F808191810197EF
S1132FA011969C938E93FE01EB51FF4F808191818A
S1132FB00097D1F627C08E010B511F4FFE01E95136
S1132FC0FF4F60817181828193810E942C41DC01D9
S1132FD0CB01F80191838083DE01AF51BF4FFE0125
S1132FE0EB51FF4F808191818D939C93FE01EF51B2
S1132FF0FF4F808191810197F1F7FE01EF51FF4F5F
S1133000918380830E94022EFE01EF5CFE4F208399
S1133010FE01EE5CFE4F3083FE01ED5CFE4F40830B
S1133020FE01EC5CFE4F5083FE01EB5CFE4F6083BF
S1133030FE01EA5CFE4F7083CE018F5C9E4F29E552
S113304034E0C95CDE4F39832883C753D140C75C61
S1133050DE4F99838883C953D14036E0C55CDE4F87
S11330603883CB53D140C75CDE4FE881F981C95323
S1133070D1400080C75CDE4F28813981C953D140DB
S11330802F5F3F4FC75CDE4F39832883C953D1403C
S1133090C95CDE4FE881F981C753D1400082C95C25
S11330A0DE4F28813981C753D1402F5F3F4FC95C20
S11330B0DE4F39832883C753D140C55CDE4F388146
S11330C0CB53D1403150C55CDE4F3883CB53D14014
S11330D0C55CDE4F8881CB53D140882321F6809193
S11330E0590490915A04805B9F4F90935A048093A3
S11330F0590480915B0490915C04499790935C041B
S113310080935B044091590450915A0460915B048C
S113311070915C0480915D0490915E0422E30FEF52
S1133120EE24FF240E943627FE01E352FF4F80E085
S113313090E0A8E4B2E480839183A283B3838E01F8
S113314007521F4FFE01E352FF4F6081718182815C
S1133150938120E030E44CE155E40E944C42DC01D0
S1133160CB01F80180839183A283B383FE01E752EC
S1133170FF4F608171818281938120E030E040E8DB
S11331805FE30E94C040882344F4FE01E952FF4FEC
S113319081E090E09183808364C0FE01E752FF4F99
S11331A0608171818281938120E03FEF4FE757E492
S11331B00E94484218160CF043C0FE01E352FF4F30
S11331C0608171818281938120E030E040E251E4AA
S11331D00E944C42DC01CB018E0109521F4FBC01FD
S11331E0CD010E942C41DC01CB01F8019183808345
S11331F01FC0FE01EB52FF4F8AEF90E09183808362
S1133200FE01EB52FF4F808191810197F1F7FE019E
S1133210EB52FF4F91838083DE01A952BF4FFE0121
S1133220E952FF4F80819181019711969C938E936F
S1133230FE01E952FF4F808191810097D1F627C0AA
S11332408E0109521F4FFE01E752FF4F60817181C9
S1133250828193810E942C41DC01CB01F80191838E
S11332608083DE01AD52BF4FFE01E952FF4F8081E2
S113327091818D939C93FE01ED52FF4F808191814A
S11332800197F1F7FE01ED52FF4F9183808389E1AD
S113329090E062E340E050E00E949A2BFE01E1538B
S11332A0FF4F80E090E0A8E4B2E480839183A2839E
S11332B0B3838E0105531F4FFE01E153FF4F60811D
S11332C071818281938120E030E44CE155E40E94D5
S11332D04C42DC01CB01F80180839183A283B38348
S11332E0FE01E553FF4F608171818281938120E06B
S11332F030E040E85FE30E94C040882344F4FE01CC
S1133300E753FF4F81E090E09183808364C0FE0126
S1133310E553FF4F608171818281938120E03FEF0B
S11333204FE757E40E94484218160CF043C0FE01D0
S1133330E153FF4F608171818281938120E030E00D
S113334040E251E40E944C42DC01CB018E01075360
S11333501F4FBC01CD010E942C41DC01CB01F801BF
S1133360918380831FC0FE01E953FF4F8AEF90E0F1
S113337091838083FE01E953FF4F808191810197FE
S1133380F1F7FE01E953FF4F91838083DE01A753D8
S1133390BF4FFE01E753FF4F808191810197119642
S11333A09C938E93FE01E753FF4F80819181009798
S11333B0D1F627C08E0107531F4FFE01E553FF4F7F
S11333C060817181828193810E942C41DC01CB0157
S11333D0F80191838083DE01AB53BF4FFE01E753B5
S11333E0FF4F808191818D939C93FE01EB53FF4F9E
S11333F0808191810197F1F7FE01EB53FF4F918397
S113340080838EE091E066E940E050E00E94CD24A4
S1133410FE01EF53FF4F80E090E0A8E4B2E4808324
S11334209183A283B3838E0103541F4FFE01EF5394
S1133430FF4F608171818281938120E030E44CE10F
S113344055E40E944C42DC01CB01F8018083918356
S1133450A283B383FE01E354FF4F608171818281B3
S1133460938120E030E040E85FE30E94C04088237D
S113347044F4FE01E554FF4F81E090E091838083A2
S113348064C0FE01E354FF4F6081718182819381A6
S113349020E03FEF4FE757E40E94484218160CF033
S11334A043C0FE01EF53FF4F60817181828193819C
S11334B020E030E040E251E40E944C42DC01CB01C8
S11334C08E0105541F4FBC01CD010E942C41DC012B
S11334D0CB01F801918380831FC0FE01E754FF4FA5
S11334E08AEF90E091838083FE01E754FF4F80814F
S11334F091810197F1F7FE01E754FF4F9183808397
S1133500DE01A554BF4FFE01E554FF4F8081918138
S1133510019711969C938E93FE01E554FF4F808191
S113352091810097D1F627C08E0105541F4FFE01EB
S1133530E354FF4F60817181828193810E942C4109
S1133540DC01CB01F80191838083DE01A954BF4FD4
S1133550FE01E554FF4F808191818D939C93FE0180
S1133560E954FF4F808191810197F1F7FE01E954FD
S1133570FF4F918380838DE790E06EE140E050E05F
S11335800E94CD2486EF9FEF62E340E050E00E946A
S11335909A2B88E290E06EE140E050E00E94CD2456
S11335A08FEF61E00E94140EFE01ED54FF4F80E0A6
S11335B090E0AAEFB3E480839183A283B3838E0166
S11335C001551F4FFE01ED54FF4F608171818281CF
S11335D0938120E030E44CE155E40E944C42DC014C
S11335E0CB01F80180839183A283B383FE01E1556B
S11335F0FF4F608171818281938120E030E040E857
S11336005FE30E94C040882344F4FE01E355FF4F6A
S113361081E090E09183808364C0FE01E155FF4F17
S1133620608171818281938120E03FEF4FE757E40D
S11336300E94484218160CF043C0FE01ED54FF4F9F
S1133640608171818281938120E030E040E251E425
S11336500E944C42DC01CB018E0103551F4FBC017B
S1133660CD010E942C41DC01CB01F80191838083C0
S11336701FC0FE01E555FF4F8AEF90E091838083E0
S1133680FE01E555FF4F808191810197F1F7FE011D
S1133690E555FF4F91838083DE01A355BF4FFE01A3
S11336A0E355FF4F80819181019711969C938E93EE
S11336B0FE01E355FF4F808191810097D1F627C029
S11336C08E0103551F4FFE01E155FF4F608171814B
S11336D0828193810E942C41DC01CB01F80191830A
S11336E08083DE01A755BF4FFE01E355FF4F808164
S11336F091818D939C93FE01E755FF4F80819181C9
S11337000197F1F7FE01E755FF4F9183808381E034
S11337100E94DB0A81E00E94EE0BFE01EB55FF4F95
S113372080E090E0A8E4B2E480839183A283B38331
S11337308E010F551F4FFE01EB55FF4F60817181C4
S11337408281938120E030E44CE155E40E944C42B4
S1133750DC01CB01F80180839183A283B383FE0152
S1133760EF55FF4F608171818281938120E030E0C9
S113377040E85FE30E94C040882344F4FE01E15620
S1133780FF4F81E090E09183808364C0FE01EF5598
S1133790FF4F608171818281938120E03FEF4FE789
S11337A057E40E94484218160CF043C0FE01EB5542
S11337B0FF4F608171818281938120E030E040E29B
S11337C051E40E944C42DC01CB018E0101561F4F93
S11337D0BC01CD010E942C41DC01CB01F801918395
S11337E080831FC0FE01E356FF4F8AEF90E0918370
S11337F08083FE01E356FF4F808191810197F1F7A9
S1133800FE01E356FF4F91838083DE01A156BF4F33
S1133810FE01E156FF4F80819181019711969C939F
S11338208E93FE01E156FF4F808191810097D1F67E
S113383027C08E0101561F4FFE01EF55FF4F6081D7
S11338407181828193810E942C41DC01CB01F801BA
S113385091838083DE01A556BF4FFE01E156FF4FE1
S1133860808191818D939C93FE01E556FF4F808169
S113387091810197F1F7FE01E556FF4F9183808313
S11338808AE090E062E340E050E00E949A2BFE015F
S1133890E956FF4F80E090E0A8E4B2E4808391838E
S11338A0A283B3838E010D561F4FFE01E956FF4FCD
S11338B0608171818281938120E030E44CE155E4A0
S11338C00E944C42DC01CB01F80180839183A283E6
S11338D0B383FE01ED56FF4F608171818281938134
S11338E020E030E040E85FE30E94C040882344F4D5
S11338F0FE01EF56FF4F81E090E09183808364C026
S1133900FE01ED56FF4F608171818281938120E039
S11339103FEF4FE757E40E94484218160CF043C0AB
S1133920FE01E956FF4F608171818281938120E01D
S113393030E040E251E40E944C42DC01CB018E01B4
S11339400F561F4FBC01CD010E942C41DC01CB015D
S1133950F801918380831FC0FE01E157FF4F8AEF76
S113396090E091838083FE01E157FF4F8081918134
S11339700197F1F7FE01E157FF4F91838083DE0148
S1133980AF56BF4FFE01EF56FF4F808191810197E3
S113399011969C938E93FE01EF56FF4F8081918187
S11339A00097D1F627C08E010F561F4FFE01ED562A
S11339B0FF4F60817181828193810E942C41DC01DF
S11339C0CB01F80191838083DE01A357BF4FFE0131
S11339D0EF56FF4F808191818D939C93FE01E357B5
S11339E0FF4F808191810197F1F7FE01E357FF4F6B
S11339F0918380838EEC9FEF62E340E050E0CDD76B
S1133A008DED9FEF62E340E050E00E949A2B81E04D
S1133A1061E00E94DF0683E290E062E340E050E070
S1133A200E949A2B7BC6FE01E65DFE4F80818530A5
S1133A3029F481E06FEF0E94DF0670C6FE01E65DA7
S1133A40FE4F8081863009F469C6FE01E65DFE4FB3
S1133A508081873009F001C38FEF0E94EE0BFE01D5
S1133A60E757FF4F80E090E4ACE9B5E480839183AD
S1133A70A283B3838E010B571F4FFE01E757FF4FFD
S1133A80608171818281938120E030E44CE155E4CE
S1133A900E944C42DC01CB01F80180839183A28314
S1133AA0B383FE01EB57FF4F608171818281938163
S1133AB020E030E040E85FE30E94C040882344F403
S1133AC0FE01ED57FF4F81E090E09183808364C055
S1133AD0FE01EB57FF4F608171818281938120E069
S1133AE03FEF4FE757E40E94484218160CF043C0DA
S1133AF0FE01E757FF4F608171818281938120E04D
S1133B0030E040E251E40E944C42DC01CB018E01E2
S1133B100D571F4FBC01CD010E942C41DC01CB018C
S1133B20F801918380831FC0FE01EF57FF4F8AEF96
S1133B3090E091838083FE01EF57FF4F8081918154
S1133B400197F1F7FE01EF57FF4F91838083DE0168
S1133B50AD57BF4FFE01ED57FF4F80819181019713
S1133B6011969C938E93FE01ED57FF4F80819181B6
S1133B700097D1F627C08E010D571F4FFE01EB575A
S1133B80FF4F60817181828193810E942C41DC010D
S1133B90CB01F80191838083DE01A158BF4FFE0160
S1133BA0ED57FF4F808191818D939C93FE01E158E5
S1133BB0FF4F808191810197F1F7FE01E158FF4F9A
S1133BC09183808388E39FEF62E340E050E0E5D691
S1133BD081E06FEF0E94140E2CE332E18AE590E05D
S1133BE062E3A9010E949A2BFE01E558FF4F80E091
S1133BF090E0A8E4B2E480839183A283B3838E012E
S1133C0009581F4FFE01E558FF4F60817181828181
S1133C10938120E030E44CE155E40E944C42DC0105
S1133C20CB01F80180839183A283B383FE01E95819
S1133C30FF4F608171818281938120E030E040E810
S1133C405FE30E94C040882344F4FE01EB58FF4F19
S1133C5081E090E09183808364C0FE01E958FF4FC6
S1133C60608171818281938120E03FEF4FE757E4C7
S1133C700E94484218160CF043C0FE01E558FF4F5D
S1133C80608171818281938120E030E040E251E4DF
S1133C900E944C42DC01CB018E010B581F4FBC012A
S1133CA0CD010E942C41DC01CB01F801918380837A
S1133CB01FC0FE01ED58FF4F8AEF90E0918380838F
S1133CC0FE01ED58FF4F808191810197F1F7FE01CC
S1133CD0ED58FF4F91838083DE01AB58BF4FFE0147
S1133CE0EB58FF4F80819181019711969C938E939D
S1133CF0FE01EB58FF4F808191810097D1F627C0D8
S1133D008E010B581F4FFE01E958FF4F60817181EE
S1133D10828193810E942C41DC01CB01F8019183C3
S1133D208083DE01AF58BF4FFE01EB58FF4F808107
S1133D3091818D939C93FE01EF58FF4F8081918177
S1133D400197F1F7FE01EF58FF4F9183808384E6DA
S1133D5090E062E340E050E020D6FE01E359FF4FDB
S1133D6080E090E0A8ECB2E480839183A283B383E3
S1133D708E0107591F4FFE01E359FF4F6081718186
S1133D808281938120E030E44CE155E40E944C426E
S1133D90DC01CB01F80180839183A283B383FE010C
S1133DA0E759FF4F608171818281938120E030E087
S1133DB040E85FE30E94C040882344F4FE01E959CF
S1133DC0FF4F81E090E09183808364C0FE01E75956
S1133DD0FF4F608171818281938120E03FEF4FE743
S1133DE057E40E94484218160CF043C0FE01E35900
S1133DF0FF4F608171818281938120E030E040E255
S1133E0051E40E944C42DC01CB018E0109591F4F41
S1133E10BC01CD010E942C41DC01CB01F80191834E
S1133E2080831FC0FE01EB59FF4F8AEF90E091831E
S1133E308083FE01EB59FF4F808191810197F1F757
S1133E40FE01EB59FF4F91838083DE01A959BF4FD7
S1133E50FE01E959FF4F80819181019711969C934E
S1133E608E93FE01E959FF4F808191810097D1F62D
S1133E7027C08E0109591F4FFE01E759FF4F60818A
S1133E807181828193810E942C41DC01CB01F80174
S1133E9091838083DE01AD59BF4FFE01E959FF4F85
S1133EA0808191818D939C93FE01ED59FF4F808118
S1133EB091810197F1F7FE01ED59FF4F91838083C2
S1133EC08FEF61E00E940108FE01E15AFF4F80E09C
S1133ED090E0A8ECB2E480839183A283B3838E0143
S1133EE0055A1F4FFE01E15AFF4F608171818281A3
S1133EF0938120E030E44CE155E40E944C42DC0123
S1133F00CB01F80180839183A283B383FE01E55A38
S1133F10FF4F608171818281938120E030E040E82D
S1133F205FE30E94C040882344F4FE01E75AFF4F38
S1133F3081E090E09183808364C0FE01E55AFF4FE5
S1133F40608171818281938120E03FEF4FE757E4E4
S1133F500E94484218160CF043C0FE01E15AFF4F7C
S1133F60608171818281938120E030E040E251E4FC
S1133F700E944C42DC01CB018E01075A1F4FBC0149
S1133F80CD010E942C41DC01CB01F8019183808397
S1133F901FC0FE01E95AFF4F8AEF90E091838083AE
S1133FA0FE01E95AFF4F808191810197F1F7FE01EB
S1133FB0E95AFF4F91838083DE01A75ABF4FFE0168
S1133FC0E75AFF4F80819181019711969C938E93BC
S1133FD0FE01E75AFF4F808191810097D1F627C0F7
S1133FE08E01075A1F4FFE01E55AFF4F6081718110
S1133FF0828193810E942C41DC01CB01F8019183E1
S11340008083DE01AB5ABF4FFE01E75AFF4F808128
S113401091818D939C93FE01EB5AFF4F8081918196
S11340200197F1F7FE01EB5AFF4F918380838AE1F8
S11340309FEF66E940E050E0B0D48FEF62E00E9469
S1134040010881E06FEF0E94140E8CE49FEF66E993
S113405040E050E00E949A2B61C3FE01E65DFE4FF2
S11340608081883009F038C28FEF6FEF0E94140E00
S1134070FE01EF5AFF4F80E090E0AAEFB3E48083A3
S11340809183A283B3838E01035B1F4FFE01EF5A1A
S1134090FF4F608171818281938120E030E44CE1A3
S11340A055E40E944C42DC01CB01F80180839183EA
S11340B0A283B383FE01E35BFF4F60817181828140
S11340C0938120E030E040E85FE30E94C040882311
S11340D044F4FE01E55BFF4F81E090E0918380832F
S11340E064C0FE01E35BFF4F608171818281938133
S11340F020E03FEF4FE757E40E94484218160CF0C7
S113410043C0FE01EF5AFF4F608171818281938128
S113411020E030E040E251E40E944C42DC01CB015B
S11341208E01055B1F4FBC01CD010E942C41DC01B7
S1134130CB01F801918380831FC0FE01E75BFF4F31
S11341408AEF90E091838083FE01E75BFF4F8081DB
S113415091810197F1F7FE01E75BFF4F9183808323
S1134160DE01A55BBF4FFE01E55BFF4F80819181BE
S1134170019711969C938E93FE01E55BFF4F80811E
S113418091810097D1F627C08E01055B1F4FFE0178
S1134190E35BFF4F60817181828193810E942C4196
S11341A0DC01CB01F80191838083DE01A95BBF4F61
S11341B0FE01E55BFF4F808191818D939C93FE010D
S11341C0E95BFF4F808191810197F1F7FE01E95B83
S11341D0FF4F9183808381E06FEF0E94140EFE01F4
S11341E0ED5BFF4F80E090E0AAEFB3E4808391831E
S11341F0A283B3838E01015C1F4FFE01ED5BFF4F71
S1134200608171818281938120E030E44CE155E446
S11342100E944C42DC01CB01F80180839183A2838C
S1134220B383FE01FF96608171818281938120E0D6
S113423030E040E85FE30E94C04088232CF481E032
S113424090E09EAF8DAF46C0FE01FF966081718104
S11342508281938120E03FEF4FE757E40E94484278
S1134260181664F5FE01ED5BFF4F60817181828158
S1134270938120E030E040E251E40E944C42DC01B2
S1134280CB01BC01CD010E942C41DC01CB019EAFCE
S11342908DAF0FC08AEF90E09CAF8BAF8BAD9CAD20
S11342A00197F1F79CAF8BAF8DAD9EAD01979EAF9B
S11342B08DAF8DAD9EAD009769F716C0FE01FF96D8
S11342C060817181828193810E942C41DC01CB0148
S11342D09EAF8DAF8DAD9EAD9AAF89AF89AD9AADCE
S11342E00197F1F79AAF89AF86E490E062E340E08A
S11342F050E053D38FEF6FEF0E94140E80E090E0F4
S1134300AAEFB3E48DAB9EABAFABB8AF6DA97EA9FA
S11343108FA998AD20E030E44CE155E40E944C4272
S1134320DC01CB0189AB9AABABABBCAB69A97AA975
S11343308BA99CA920E030E040E85FE30E94C040E4
S113434088232CF481E090E098AB8FA73FC069A943
S11343507AA98BA99CA920E03FEF4FE757E40E947C
S1134360484218164CF56DA97EA98FA998AD20E096
S113437030E040E251E40E944C42DC01CB01BC013C
S1134380CD010E942C41DC01CB0198AB8FA70FC05B
S11343908AEF90E09EA78DA78DA59EA50197F1F7C2
S11343A09EA78DA78FA598A9019798AB8FA78FA5D6
S11343B098A9009769F714C069A97AA98BA99CA93F
S11343C00E942C41DC01CB0198AB8FA78FA598A943
S11343D09CA78BA78BA59CA50197F1F79CA78BA7FE
S11343E081E00E94DB0A80E090E0AAEFB3E48FA3AF
S11343F098A7A9A7BAA76FA178A589A59AA520E02F
S113440030E44CE155E40E944C42DC01CB018BA327
S11344109CA3ADA3BEA36BA17CA18DA19EA120E012
S113442030E040E85FE30E94C04088232CF481E040
S113443090E09AA389A33FC06BA17CA18DA19EA10A
S113444020E03FEF4FE757E40E94484218164CF52E
S11344506FA178A589A59AA520E030E040E251E457
S11344600E944C42DC01CB01BC01CD010E942C41D5
S1134470DC01CB019AA389A30FC08AEF90E098A333
S11344808F8F8F8D98A10197F1F798A38F8F89A1B2
S11344909AA101979AA389A389A19AA1009769F780
S11344A014C06BA17CA18DA19EA10E942C41DC01B2
S11344B0CB019AA389A389A19AA19E8F8D8F8D8DFB
S11344C09E8D0197F1F79E8F8D8F8EED9EEF66E99D
S11344D040E050E062D222C1FE01E65DFE4F8081E1
S11344E0893009F08BC081E06FEF0E94140E81EFD8
S11344F09FEF62E340E050E00E949A2B8AEA90E04A
S113450062E340E050E049D28FEF6FEF0E94140E57
S113451080E090E0AAEFB3E4898F9A8FAB8FBC8FD1
S1134520698D7A8D8B8D9C8D20E030E44CE155E4CF
S11345300E944C42DC01CB018D8B9E8BAF8BB88FDC
S11345406D897E898F89988D20E030E040E85FE3B3
S11345500E94C04088232CF481E090E09C8B8B8BDC
S11345603FC06D897E898F89988D20E03FEF4FE7AA
S113457057E40E94484218164CF5698D7A8D8B8D4C
S11345809C8D20E030E040E251E40E944C42DC018A
S1134590CB01BC01CD010E942C41DC01CB019C8BE1
S11345A08B8B0FC08AEF90E09A8B898B89899A89CB
S11345B00197F1F79A8B898B8B899C8901979C8B46
S11345C08B8B8B899C89009769F714C06D897E89D0
S11345D08F89988D0E942C41DC01CB019C8B8B8BA5
S11345E08B899C89988B8F878F8598890197F1F7A0
S11345F0988B8F8781E00E94DB0A90C0FE01E65D04
S1134600FE4F80818A3009F089C084E690E062E33D
S113461040E050E00E949A2B8CE791E062E340E096
S113462050E0BBD18FEF0E94DB0A80E090E4ACE95C
S1134630B5E48B879C87AD87BE876B857C858D852C
S11346409E8520E030E44CE155E40E944C42DC01BC
S1134650CB018F839887A987BA876F8178858985ED
S11346609A8520E030E040E85FE30E94C040882360
S11346702CF481E090E09E838D833FC06F81788528
S113468089859A8520E03FEF4FE757E40E9448422E
S113469018164CF56B857C858D859E8520E030E071
S11346A040E251E40E944C42DC01CB01BC01CD014B
S11346B00E942C41DC01CB019E838D830FC08AEFC5
S11346C090E09C838B838B819C810197F1F79C8381
S11346D08B838D819E8101979E838D838D819E81A5
S11346E0009769F714C06F81788589859A850E943F
S11346F02C41DC01CB019E838D838D819E819A8325
S1134700898389819A810197F1F79A83898384ED5A
S11347109EEF62E340E050E040D1FFCFDE01A65DB2
S1134720BE4FFE01E65DFE4F80818F5F8C93FE01DC
S1134730E65DFE4F80818B3010F40C94C8130C940A
S1134740B513DF93CF93CDB7DEB70E94CC300E9470
S11347508031813019F40E941F33F9CF0E947B13FA
S1134760F6CFCF93DF93CDB7DEB7A5970FB6F89406
S1134770DEBF0FBECDBF8DA38DA18D8F72C080E033
S113478090E0A8E4B2E489839A83AB83BC8320E0FD
S113479030E44CE155E469817A818B819C810E94EB
S11347A04C42DC01CB018D839E83AF83B88720E02C
S11347B030E040E85FE36D817E818F8198850E94BF
S11347C0C04088232CF481E090E09A8789873FC019
S11347D020E03FEF4FE757E46D817E818F8198851C
S11347E00E94484218164CF520E030E040E251E4C3
S11347F069817A818B819C810E944C42DC01CB01CE
S1134800BC01CD010E942C41DC01CB019A87898730
S11348100FC08AEF90E09C878B878B859C850197DE
S1134820F1F79C878B8789859A8501979A87898771
S113483089859A85009769F714C06D817E818F817F
S113484098850E942C41DC01CB019A878987898550
S11348509A859E878D878D859E850197F1F79E8722
S11348608D87CE014D9663EC0E949511882309F043
S113487086CF80E58D8F72C080E090E0A8E4B2E43A
S11348808F87988BA98BBA8B20E030E44CE155E4F8
S11348906F85788989899A890E944C42DC01CB0111
S11348A08B8B9C8BAD8BBE8B20E030E040E85FE3CC
S11348B06B897C898D899E890E94C04088232CF451
S11348C081E090E0988F8F8B3FC020E03FEF4FE76F
S11348D057E46B897C898D899E890E944842181609
S11348E04CF520E030E040E251E46F857889898915
S11348F09A890E944C42DC01CB01BC01CD010E948B
S11349002C41DC01CB01988F8F8B0FC08AEF90E094
S11349109A8F898F898D9A8D0197F1F79A8F898F54
S11349208F89988D0197988F8F8B8F89988D009799
S113493069F714C06B897C898D899E890E942C41FA
S1134940DC01CB01988F8F8B8F89988D9C8F8B8FF7
S11349508B8D9C8D0197F1F79C8F8B8FCE014D969B
S113496063EC0E949511882309F086CFCE014D9601
S113497061E00E9425118D8D8D3429F08D8D823555
S113498011F080E001C0F8CEA5960FB6F894DEBF12
S11349900FBECDBFDF91CF910895CF93DF93CDB7F5
S11349A0DEB7CA54D1090FB6F894DEBF0FBECDBF2F
S11349B09E012A5B3F4FF90191838083CE01885B7E
S11349C09F4FFC016083CE01875B9F4FFC015183A5
S11349D0408386E58EAFCE01885B9F4FFC018081CA
S11349E08FAF72C080E090E0A8E4B2E48E839F832E
S11349F0A887B98720E030E44CE155E46E817F81DB
S1134A00888599850E944C42DC01CB018A879B876B
S1134A10AC87BD8720E030E040E85FE36A857B85B2
S1134A208C859D850E94C04088232CF481E090E011
S1134A309F878E873FC020E03FEF4FE757E46A85AA
S1134A407B858C859D850E94484218164CF520E094
S1134A5030E040E251E46E817F81888599850E942F
S1134A604C42DC01CB01BC01CD010E942C41DC0194
S1134A70CB019F878E870FC08AEF90E0998B888B3C
S1134A80888999890197F1F7998B888B8E859F8501
S1134A9001979F878E878E859F85009769F714C03D
S1134AA06A857B858C859D850E942C41DC01CB0128
S1134AB09F878E878E859F859B8B8A8B8A899B890E
S1134AC00197F1F79B8B8A8BCE01CE9663EC0E9403
S1134AD09511882309F086CF84E48EAFCE018A5BDA
S1134AE09F4FFC0180819181892F990F990B8FAF82
S1134AF0CE018A5B9F4FFC012081CE01805C9F4FD9
S1134B00FC01208372C080E090E0A8E4B2E48C8BC6
S1134B109D8BAE8BBF8B20E030E44CE155E46C8977
S1134B207D898E899F890E944C42DC01CB01888F4C
S1134B30998FAA8FBB8F20E030E040E85FE3688D57
S1134B40798D8A8D9B8D0E94C04088232CF481E04E
S1134B5090E09D8F8C8F3FC020E03FEF4FE757E4FC
S1134B60688D798D8A8D9B8D0E94484218164CF56C
S1134B7020E030E040E251E46C897D898E899F8990
S1134B800E944C42DC01CB01BC01CD010E942C41AE
S1134B90DC01CB019D8F8C8F0FC08AEF90E09F8F3B
S1134BA08E8F8E8D9F8D0197F1F79F8F8E8F8C8DB9
S1134BB09D8D01979D8F8C8F8C8D9D8D009769F7AE
S1134BC014C0688D798D8A8D9B8D0E942C41DC01E7
S1134BD0CB019D8F8C8F8C8D9D8D99A388A388A1EB
S1134BE099A10197F1F799A388A3CE01CE9663EC1E
S1134BF00E949511882309F086CF0E943A31AA2792
S1134C0097FDA095BA2F89839A83AB83BC8380E5F3
S1134C108EAF72C080E090E0A8E4B2E48AA39BA3C4
S1134C20ACA3BDA320E030E44CE155E46AA17BA130
S1134C308CA19DA10E944C42DC01CB018EA39FA3B9
S1134C40A8A7B9A720E030E040E85FE36EA17FA108
S1134C5088A599A50E94C04088232CF481E090E0A7
S1134C609BA78AA73FC020E03FEF4FE757E46EA120
S1134C707FA188A599A50E94484218164CF520E00A
S1134C8030E040E251E46AA17BA18CA19DA10E9485
S1134C904C42DC01CB01BC01CD010E942C41DC0162
S1134CA0CB019BA78AA70FC08AEF90E09DA78CA792
S1134CB08CA59DA50197F1F79DA78CA78AA59BA517
S1134CC001979BA78AA78AA59BA5009769F714C09B
S1134CD06EA17FA188A599A50E942C41DC01CB017E
S1134CE09BA78AA78AA59BA59FA78EA78EA59FA5EC
S1134CF00197F1F79FA78EA7CE01CE9663EC0E9491
S1134D009511882309F086CFCE01CE9661E00E94EA
S1134D1025118EAD893411F480E09EC08EAD8335AB
S1134D2011F482E099C08EAD853411F481E094C011
S1134D3080E090E0A8E4B2E488AB99ABAAABBBAB4B
S1134D4020E030E44CE155E468A979A98AA99BA93B
S1134D500E944C42DC01CB018CAB9DABAEABBFAB34
S1134D6020E030E040E85FE36CA97DA98EA99FA90B
S1134D700E94C04088232CF481E090E099AF88AF72
S1134D803FC020E03FEF4FE757E46CA97DA98EA90F
S1134D909FA90E94484218164CF520E030E040E2FA
S1134DA051E468A979A98AA99BA90E944C42DC0113
S1134DB0CB01BC01CD010E942C41DC01CB0199AF98
S1134DC088AF0FC08AEF90E09BAF8AAF8AAD9BADEE
S1134DD00197F1F79BAF8AAF88AD99AD019799AF71
S1134DE088AF88AD99AD009769F714C06CA97DA907
S1134DF08EA99FA90E942C41DC01CB0199AF88AFF9
S1134E0088AD99AD9DAF8CAF8CAD9DAD0197F1F799
S1134E109DAF8CAFCE01875B9F4FFC018081918158
S1134E200097C9F09E01275B3F4F89819A81AB812E
S1134E30BC81F90120813181BC01CD01F9010995C1
S1134E408D838D81813011F481E006C08D818230A3
S1134E5011F483E001C0DBCEC65BDF4F0FB6F894DC
S1134E60DEBF0FBECDBFDF91CF910895EF92FF92C9
S1134E700F93CF93DF93CDB7DEB7CF54D1090FB6DD
S1134E80F894DEBF0FBECDBFFE01EA5BFF4F408347
S1134E9051836283738384839583CE01845B9F4FA4
S1134EA0FC012083CE01835B9F4FFC010083CE0174
S1134EB0825B9F4FFC01F182E08286E58EAFCE01DA
S1134EC0845B9F4FFC0180818FAF72C080E090E0D3
S1134ED0A8E4B2E48E839F83A887B98720E030E4F6
S1134EE04CE155E46E817F81888599850E944C420E
S1134EF0DC01CB018A879B87AC87BD8720E030E04B
S1134F0040E85FE36A857B858C859D850E94C0406F
S1134F1088232CF481E090E09F878E873FC020E0B7
S1134F203FEF4FE757E46A857B858C859D850E941A
S1134F30484218164CF520E030E040E251E46E811E
S1134F407F81888599850E944C42DC01CB01BC019C
S1134F50CD010E942C41DC01CB019F878E870FC0BD
S1134F608AEF90E0998B888B888999890197F1F76A
S1134F70998B888B8E859F8501979F878E878E85D9
S1134F809F85009769F714C06A857B858C859D850C
S1134F900E942C41DC01CB019F878E878E859F85E3
S1134FA09B8B8A8B8A899B890197F1F79B8B8A8BD0
S1134FB0CE01CE9663EC0E949511882309F086CF2A
S1134FC087E48EAFCE018A5B9F4FFC018081918183
S1134FD0892F990F990B8FAFCE018A5B9F4FFC01EC
S1134FE080819181282FCE01805C9F4FFC0120831A
S1134FF0CE018A5B9F4FFC0182819381892F990F97
S1135000990B282FCE018F5B9F4FFC012083CE018B
S11350108A5B9F4FFC0182819381282FCE018E5B96
S11350209F4FFC012083CE018D5B9F4FFC011082BA
S1135030CE01835B9F4FFC012081CE018C5B9F4F8F
S1135040FC01208372C080E090E0A8E4B2E48C8B81
S11350509D8BAE8BBF8B20E030E44CE155E46C8932
S11350607D898E899F890E944C42DC01CB01888F07
S1135070998FAA8FBB8F20E030E040E85FE3688D12
S1135080798D8A8D9B8D0E94C04088232CF481E009
S113509090E09D8F8C8F3FC020E03FEF4FE757E4B7
S11350A0688D798D8A8D9B8D0E94484218164CF527
S11350B020E030E040E251E46C897D898E899F894B
S11350C00E944C42DC01CB01BC01CD010E942C4169
S11350D0DC01CB019D8F8C8F0FC08AEF90E09F8FF6
S11350E08E8F8E8D9F8D0197F1F79F8F8E8F8C8D74
S11350F09D8D01979D8F8C8F8C8D9D8D009769F769
S113510014C0688D798D8A8D9B8D0E942C41DC01A1
S1135110CB019D8F8C8F8C8D9D8D99A388A388A1A5
S113512099A10197F1F799A388A3CE01CE9663ECD8
S11351300E949511882309F086CF0E943A31AA274C
S113514097FDA095BA2F89839A83AB83BC8380E5AE
S11351508EAF72C080E090E0A8E4B2E48AA39BA37F
S1135160ACA3BDA320E030E44CE155E46AA17BA1EB
S11351708CA19DA10E944C42DC01CB018EA39FA374
S1135180A8A7B9A720E030E040E85FE36EA17FA1C3
S113519088A599A50E94C04088232CF481E090E062
S11351A09BA78AA73FC020E03FEF4FE757E46EA1DB
S11351B07FA188A599A50E94484218164CF520E0C5
S11351C030E040E251E46AA17BA18CA19DA10E9440
S11351D04C42DC01CB01BC01CD010E942C41DC011D
S11351E0CB019BA78AA70FC08AEF90E09DA78CA74D
S11351F08CA59DA50197F1F79DA78CA78AA59BA5D2
S113520001979BA78AA78AA59BA5009769F714C055
S11352106EA17FA188A599A50E942C41DC01CB0138
S11352209BA78AA78AA59BA59FA78EA78EA59FA5A6
S11352300197F1F79FA78EA7CE01CE9663EC0E944B
S11352409511882309F086CFCE01CE9661E00E94A5
S113525025118EAD893411F480E09EC08EAD833566
S113526011F482E099C08EAD853411F481E094C0CC
S113527080E090E0A8E4B2E488AB99ABAAABBBAB06
S113528020E030E44CE155E468A979A98AA99BA9F6
S11352900E944C42DC01CB018CAB9DABAEABBFABEF
S11352A020E030E040E85FE36CA97DA98EA99FA9C6
S11352B00E94C04088232CF481E090E099AF88AF2D
S11352C03FC020E03FEF4FE757E46CA97DA98EA9CA
S11352D09FA90E94484218164CF520E030E040E2B5
S11352E051E468A979A98AA99BA90E944C42DC01CE
S11352F0CB01BC01CD010E942C41DC01CB0199AF53
S113530088AF0FC08AEF90E09BAF8AAF8AAD9BADA8
S11353100197F1F79BAF8AAF88AD99AD019799AF2B
S113532088AF88AD99AD009769F714C06CA97DA9C1
S11353308EA99FA90E942C41DC01CB0199AF88AFB3
S113534088AD99AD9DAF8CAF8CAD9DAD0197F1F754
S11353509DAF8CAFCE01825B9F4FFC018081918118
S11353600097C9F09E01225B3F4F89819A81AB81EE
S1135370BC81F90120813181BC01CD01F90109957C
S11353808D838D81813011F481E006C08D8182305E
S113539011F483E001C0DBCEC15BDF4F0FB6F8949C
S11353A0DEBF0FBECDBFDF91CF910F91FF90EF9085
S11353B008951F93CF93DF93CDB7DEB7E0970FB671
S11353C0F894DEBF0FBECDBF4BA75CA76DA77EA729
S11353D08FA798AB89E48D8F8BA59CA5892F990FF6
S11353E0990B8E8F8BA59CA58F8F8DA59EA5892F3C
S11353F0990F990B88A38DA59EA589A31AA28FA5A1
S113540098A98BA372C080E090E0A8E4B2E48983F9
S11354109A83AB83BC8320E030E44CE155E469819A
S11354207A818B819C810E944C42DC01CB018D836B
S11354309E83AF83B88720E030E040E85FE36D816E
S11354407E818F8198850E94C04088232CF481E05E
S113545090E09A8789873FC020E03FEF4FE757E409
S11354606D817E818F8198850E94484218164CF583
S113547020E030E040E251E469817A818B819C81B3
S11354800E944C42DC01CB01BC01CD010E942C41A5
S1135490DC01CB019A8789870FC08AEF90E09C8753
S11354A08B878B859C850197F1F79C878B878985F2
S11354B09A8501979A87898789859A85009769F7DC
S11354C014C06D817E818F8198850E942C41DC01FE
S11354D0CB019A87898789859A859E878D878D8553
S11354E09E850197F1F79E878D87CE014D9663ECDB
S11354F00E949511882309F086CF80E58D8F72C0B4
S113550080E090E0A8E4B2E48F87988BA98BBA8BF3
S113551020E030E44CE155E46F85788989899A89E3
S11355200E944C42DC01CB018B8B9C8BAD8BBE8BE0
S113553020E030E040E85FE36B897C898D899E89B7
S11355400E94C04088232CF481E090E0988F8F8BD8
S11355503FC020E03FEF4FE757E46B897C898D899A
S11355609E890E94484218164CF520E030E040E243
S113557051E46F85788989899A890E944C42DC01BB
S1135580CB01BC01CD010E942C41DC01CB01988FE1
S11355908F8B0FC08AEF90E09A8F898F898D9A8DB7
S11355A00197F1F79A8F898F8F89988D0197988F3A
S11355B08F8B8F89988D009769F714C06B897C89CC
S11355C08D899E890E942C41DC01CB01988F8F8BA1
S11355D08F89988D9C8F8B8F8B8D9C8D0197F1F784
S11355E09C8F8B8FCE014D9663EC0E94951188237E
S11355F009F086CFCE014D9661E00E9425118E8D73
S1135600882F90E0382F22278F8D882F90E0822BCF
S1135610932B9EA38DA388A1882F90E0382F222757
S113562089A1882F90E0822B932B98A78FA38AA11E
S1135630882F90E0382F22278BA1882F90E0822B8F
S1135640932B9AA789A72DA13EA18BA59CA5A9015F
S1135650481B590BCA01AA2797FDA095BA2FBC0174
S1135660CD010E945A41DC01CB01BF7711E020E05B
S113567030E040EA50E4BC01CD010E9448421816D3
S11356800CF010E081E08127882309F448C02FA1A1
S113569038A58DA59EA5A901481B590BCA01AA27A7
S11356A097FDA095BA2FBC01CD010E945A41DC019F
S11356B0CB01BF7711E020E030E040EA50E4BC01C8
S11356C0CD010E94484218160CF010E081E08127B9
S11356D0882329F129A53AA58FA598A9A901481BD2
S11356E0590BCA01AA2797FDA095BA2FBC01CD0179
S11356F00E945A41DC01CB01BF7711E020E030E089
S113570040EA50E4BC01CD010E94484218160CF056
S113571010E081E08127882311F080E001C05ACE97
S1135720E0960FB6F894DEBF0FBECDBFDF91CF91E8
S11357301F910895CF93DF93CDB7DEB7CA54D10933
S11357400FB6F894DEBF0FBECDBF9E012A5B3F4F5C
S1135750F90191838083CE01885B9F4FFC016083B4
S1135760CE01875B9F4FFC015183408386E58EAF5A
S1135770CE01885B9F4FFC0180818FAF72C080E0B7
S113578090E0A8E4B2E48E839F83A887B98720E0E1
S113579030E44CE155E46E817F81888599850E94CF
S11357A04C42DC01CB018A879B87AC87BD8720E014
S11357B030E040E85FE36A857B858C859D850E94A7
S11357C0C04088232CF481E090E09F878E873FC0FF
S11357D020E03FEF4FE757E46A857B858C859D8504
S11357E00E94484218164CF520E030E040E251E4B3
S11357F06E817F81888599850E944C42DC01CB01B2
S1135800BC01CD010E942C41DC01CB019F878E8716
S11358100FC08AEF90E0998B888B888999890197CA
S1135820F1F7998B888B8E859F8501979F878E874B
S11358308E859F85009769F714C06A857B858C8562
S11358409D850E942C41DC01CB019F878E878E852C
S11358509F859B8B8A8B8A899B890197F1F79B8B08
S11358608A8BCE01CE9663EC0E949511882309F0B1
S113587086CF84E58EAFCE018A5B9F4FFC01808189
S11358809181892F990F990B8FAFCE018A5B9F4F1E
S1135890FC012081CE01805C9F4FFC01208372C0FB
S11358A080E090E0A8E4B2E48C8B9D8BAE8BBF8B40
S11358B020E030E44CE155E46C897D898E899F8930
S11358C00E944C42DC01CB01888F998FAA8FBB8F39
S11358D020E030E040E85FE3688D798D8A8D9B8D10
S11358E00E94C04088232CF481E090E09D8F8C8F2F
S11358F03FC020E03FEF4FE757E4688D798D8A8DF4
S11359009B8D0E94484218164CF520E030E040E29E
S113591051E46C897D898E899F890E944C42DC0107
S1135920CB01BC01CD010E942C41DC01CB019D8F38
S11359308C8F0FC08AEF90E09F8F8E8F8E8D9F8DFE
S11359400197F1F79F8F8E8F8C8D9D8D01979D8F81
S11359508C8F8C8D9D8D009769F714C0688D798D1F
S11359608A8D9B8D0E942C41DC01CB019D8F8C8FF5
S11359708C8D9D8D99A388A388A199A10197F1F796
S113598099A388A3CE01CE9663EC0E949511882337
S113599009F086CF6FD4AA2797FDA095BA2F8983E3
S11359A09A83AB83BC8380E58EAF72C080E090E0C5
S11359B0A8E4B2E48AA39BA3ACA3BDA320E030E493
S11359C04CE155E46AA17BA18CA19DA10E944C42AB
S11359D0DC01CB018EA39FA3A8A7B9A720E030E0E8
S11359E040E85FE36EA17FA188A599A50E94C0400D
S11359F088232CF481E090E09BA78AA73FC020E095
S1135A003FEF4FE757E46EA17FA188A599A50E94B7
S1135A10484218164CF520E030E040E251E46AA117
S1135A207BA18CA19DA10E944C42DC01CB01BC0155
S1135A30CD010E942C41DC01CB019BA78AA70FC09A
S1135A408AEF90E09DA78CA78CA59DA50197F1F7FF
S1135A509DA78CA78AA59BA501979BA78AA78AA522
S1135A609BA5009769F714C06EA17FA188A599A58D
S1135A700E942C41DC01CB019BA78AA78AA59BA588
S1135A809FA78EA78EA59FA50197F1F79FA78EA725
S1135A90CE01CE9663EC0E949511882309F086CF3F
S1135AA0CE01CE9661E00E9425118EAD893411F4A9
S1135AB080E09EC08EAD833511F482E099C08EAD36
S1135AC0853411F481E094C080E090E0A8E4B2E46D
S1135AD088AB99ABAAABBBAB20E030E44CE155E416
S1135AE068A979A98AA99BA90E944C42DC01CB012F
S1135AF08CAB9DABAEABBFAB20E030E040E85FE3E6
S1135B006CA97DA98EA99FA90E94C04088232CF46A
S1135B1081E090E099AF88AF3FC020E03FEF4FE7CE
S1135B2057E46CA97DA98EA99FA90E944842181622
S1135B304CF520E030E040E251E468A979A98AA953
S1135B409BA90E944C42DC01CB01BC01CD010E9407
S1135B502C41DC01CB0199AF88AF0FC08AEF90E0F4
S1135B609BAF8AAF8AAD9BAD0197F1F79BAF8AAF2C
S1135B7088AD99AD019799AF88AF88AD99AD00977D
S1135B8069F714C06CA97DA98EA99FA90E942C4114
S1135B90DC01CB0199AF88AF88AD99AD9DAF8CAFD7
S1135BA08CAD9DAD0197F1F79DAF8CAFCE01875BB6
S1135BB09F4FFC01808191810097C9F09E01275B72
S1135BC03F4F89819A81AB81BC81F9012081318168
S1135BD0BC01CD01F90109958D838D81813011F4CA
S1135BE081E006C08D81823011F483E001C0DBCEF8
S1135BF0C65BDF4F0FB6F894DEBF0FBECDBFDF919B
S1135C00CF9108952F923F924F925F926F927F921D
S1135C108F929F92AF92BF92CF92DF92EF92FF92B8
S1135C200F931F93CF93DF93CDB7DEB7A2970FB631
S1135C30F894DEBF0FBECDBF80E58D8B72C080E0CF
S1135C4090E0A8E4B2E489839A83AB83BC8320E028
S1135C5030E44CE155E469817A818B819C810E9416
S1135C604C42DC01CB018D839E83AF83B88720E057
S1135C7030E040E85FE36D817E818F8198850E94EA
S1135C80C04088232CF481E090E09A8789873FC044
S1135C9020E03FEF4FE757E46D817E818F81988547
S1135CA00E94484218164CF520E030E040E251E4EE
S1135CB069817A818B819C810E944C42DC01CB01F9
S1135CC0BC01CD010E942C41DC01CB019A8789875C
S1135CD00FC08AEF90E09C878B878B859C8501970A
S1135CE0F1F79C878B8789859A8501979A8789879D
