:1000000049C0000066C0000064C0000062C000007B
:1000100060C000005EC000005CC000005AC000006C
:1000200058C0000056C0000054C0000052C000007C
:100030000C94781E4EC000004CC000004AC0000066
:1000400048C0000046C000000DC7000042C00000CC
:1000500040C000000C94BF203CC000000C947D20E8
:1000600038C0000036C0000034C0000032C00000BC
:1000700030C000002EC000002CC000002AC00000CC
:100080000C944D2126C000000C940B2122C00000CE
:1000900020C0000011241FBECFEFD0E1DEBFCDBFD6
:1000A00014E0A0E0B1E0E8EBFDE500E00BBF02C02A
:1000B00007900D92A638B107D9F728E0A6E8B4E07A
:1000C00001C01D92A232B207E1F70E9421130C94E5
:1000D000DA2E96CFCF93DF93CDB7DEB7A6970FB6C4
:1000E000F894DEBF0FBECDBF8DA36EA381E48D8FCC
:1000F0008DA1813019F481E08E8F02C08FEF8E8F39
:100100008EA1813009F07EC081E08F8F72C080E0C7
:1001100090E0A8E4B2E489839A83AB83BC8320E0B7
:1001200030E44CE155E469817A818B819C810E94A5
:100130009B2ADC01CB018D839E83AF83B88720E0AF
:1001400030E040E85FE36D817E818F8198850E9479
:100150004D2988232CF481E090E09A8789873FC05D
:1001600020E03FEF4FE757E46D817E818F819885D6
:100170000E94972A18164CF520E030E040E251E446
:1001800069817A818B819C810E949B2ADC01CB0151
:10019000BC01CD010E94B929DC01CB019A87898776
:1001A0000FC08AEF90E09C878B878B859C85019799
:1001B000F1F79C878B8789859A8501979A8789872C
:1001C00089859A85009769F714C06D817E818F813A
:1001D00098850E94B929DC01CB019A878987898596
:1001E0009A859E878D878D859E850197F1F79E87DD
:1001F0008D87CE014D9664ED0E94CF09882309F0CA
:1002000086CF81C08EA18F3F09F07DC08FEF8F8F89
:1002100072C080E090E0A8E4B2E48F87988BA98B4D
:10022000BA8B20E030E44CE155E46F857889898908
:100230009A890E949B2ADC01CB018B8B9C8BAD8B16
:10024000BE8B20E030E040E85FE36B897C898D89DC
:100250009E890E944D2988232CF481E090E0988F9C
:100260008F8B3FC020E03FEF4FE757E46B897C89DD
:100270008D899E890E94972A18164CF520E030E05F
:1002800040E251E46F85788989899A890E949B2A86
:10029000DC01CB01BC01CD010E94B929DC01CB01FD
:1002A000988F8F8B0FC08AEF90E09A8F898F898DFE
:1002B0009A8D0197F1F79A8F898F8F89988D019781
:1002C000988F8F8B8F89988D009769F714C06B89F1
:1002D0007C898D899E890E94B929DC01CB01988F88
:1002E0008F8B8F89988D9C8F8B8F8B8D9C8D019799
:1002F000F1F79C8F8B8FCE014D9664ED0E94CF0954
:10030000882309F086CFA6960FB6F894DEBF0FBEFD
:10031000CDBFDF91CF910895CF93DF93CDB7DEB7F7
:10032000C254D1090FB6F894DEBF0FBECDBF9E01F7
:100330002F5B3F4FF9018083CE018E5B9F4FFC0105
:10034000608382E489AFCE018F5B9F4FFC01808187
:10035000813009F07DC081E08AAF72C080E090E01A
:10036000A8E4B2E489839A83AB83BC8320E030E4C1
:100370004CE155E469817A818B819C810E949B2AA2
:10038000DC01CB018D839E83AF83B88720E030E012
:1003900040E85FE36D817E818F8198850E944D29C1
:1003A00088232CF481E090E09A8789873FC020E081
:1003B0003FEF4FE757E46D817E818F8198850E94E2
:1003C000972A18164CF520E030E040E251E46981AC
:1003D0007A818B819C810E949B2ADC01CB01BC012C
:1003E000CD010E94B929DC01CB019A8789870FC012
:1003F0008AEF90E09C878B878B859C850197F1F72E
:100400009C878B8789859A8501979A8789878985B3
:100410009A85009769F714C06D817E818F819885D8
:100420000E94B929DC01CB019A87898789859A8541
:100430009E878D878D859E850197F1F79E878D8795
:10044000CE01C99664EDABD7882309F087CF7CC075
:100450008FEF8AAF72C080E090E0A8E4B2E48F87AB
:10046000988BA98BBA8B20E030E44CE155E46F8582
:10047000788989899A890E949B2ADC01CB018B8B20
:100480009C8BAD8BBE8B20E030E040E85FE36B8956
:100490007C898D899E890E944D2988232CF481E0D6
:1004A00090E0988F8F8B3FC020E03FEF4FE757E4FD
:1004B0006B897C898D899E890E94972A18164CF534
:1004C00020E030E040E251E46F85788989899A899B
:1004D0000E949B2ADC01CB01BC01CD010E94B929FD
:1004E000DC01CB01988F8F8B0FC08AEF90E09A8F41
:1004F000898F898D9A8D0197F1F79A8F898F8F89CE
:10050000988D0197988F8F8B8F89988D009769F7B9
:1005100014C06B897C898D899E890E94B929DC0170
:10052000CB01988F8F8B8F89988D9C8F8B8F8B8D24
:100530009C8D0197F1F79C8F8B8FCE01C99664ED4E
:100540002ED7882309F087CFCE018E5B9F4FFC0109
:100550008081813009F07DC081E08BAF72C080E086
:1005600090E0A8E4B2E48D8F9E8FAF8FB8A320E017
:1005700030E44CE155E46D8D7E8D8F8D98A10E9405
:100580009B2ADC01CB0189A39AA3ABA3BCA320E0E7
:1005900030E040E85FE369A17AA18BA19CA10E94B1
:1005A0004D2988232CF481E090E09EA38DA33FC0C9
:1005B00020E03FEF4FE757E469A17AA18BA19CA10E
:1005C0000E94972A18164CF520E030E040E251E4F2
:1005D0006D8D7E8D8F8D98A10E949B2ADC01CB01B1
:1005E000BC01CD010E94B929DC01CB019EA38DA3E2
:1005F0000FC08AEF90E098A78FA38FA198A50197CD
:10060000F1F798A78FA38DA19EA101979EA38DA31B
:100610008DA19EA1009769F714C069A17AA18BA151
:100620009CA10E94B929DC01CB019EA38DA38DA1C1
:100630009EA19AA789A789A59AA50197F1F79AA7DC
:1006400089A7CE01C99664EDAAD6882309F087CF81
:1006500084C0CE018E5B9F4FFC0180818F3F09F0EB
:100660007CC08FEF8BAF72C080E090E0A8E4B2E472
:100670008BA79CA7ADA7BEA720E030E44CE155E4D2
:100680006BA57CA58DA59EA50E949B2ADC01CB01B4
:100690008FA798ABA9ABBAAB20E030E040E85FE3AE
:1006A0006FA578A989A99AA90E944D2988232CF4BD
:1006B00081E090E09CAB8BAB3FC020E03FEF4FE789
:1006C00057E46FA578A989A99AA90E94972A1816B4
:1006D0004CF520E030E040E251E46BA57CA58DA50F
:1006E0009EA50E949B2ADC01CB01BC01CD010E948A
:1006F000B929DC01CB019CAB8BAB0FC08AEF90E03A
:100700009EAB8DAB8DA99EA90197F1F79EAB8DABEA
:100710008BA99CA901979CAB8BAB8BA99CA900973B
:1007200069F714C06FA578A989A99AA90E94B92967
:10073000DC01CB019CAB8BAB8BA99CA998AF8FAB99
:100740008FA998AD0197F1F798AF8FABCE01C996FD
:1007500064ED25D6882309F087CFCE5BDF4F0FB637
:10076000F894DEBF0FBECDBFDF91CF910895CF9338
:10077000DF93CDB7DEB7A5970FB6F894DEBF0FBEF7
:10078000CDBF8DA383E48D8F8DA1813009F07DC015
:1007900081E08E8F72C080E090E0A8E4B2E48983AB
:1007A0009A83AB83BC8320E030E44CE155E469815B
:1007B0007A818B819C810E949B2ADC01CB018D83F5
:1007C0009E83AF83B88720E030E040E85FE36D812F
:1007D0007E818F8198850E944D2988232CF481E0A9
:1007E00090E09A8789873FC020E03FEF4FE757E4CA
:1007F0006D817E818F8198850E94972A18164CF50D
:1008000020E030E040E251E469817A818B819C8173
:100810000E949B2ADC01CB01BC01CD010E94B929B9
:10082000DC01CB019A8789870FC08AEF90E09C8713
:100830008B878B859C850197F1F79C878B878985B2
:100840009A8501979A87898789859A85009769F79C
:1008500014C06D817E818F8198850E94B929DC0149
:10086000CB019A87898789859A859E878D878D8513
:100870009E850197F1F79E878D87CE014D9664ED99
:100880008ED5882309F087CF7CC08FEF8E8F72C002
:1008900080E090E0A8E4B2E48F87988BA98BBA8BB4
:1008A00020E030E44CE155E46F85788989899A89A4
:1008B0000E949B2ADC01CB018B8B9C8BAD8BBE8B6A
:1008C00020E030E040E85FE36B897C898D899E8978
:1008D0000E944D2988232CF481E090E0988F8F8B23
:1008E0003FC020E03FEF4FE757E46B897C898D895B
:1008F0009E890E94972A18164CF520E030E040E2CD
:1009000051E46F85788989899A890E949B2ADC0144
:10091000CB01BC01CD010E94B929DC01CB01988F2C
:100920008F8B0FC08AEF90E09A8F898F898D9A8D77
:100930000197F1F79A8F898F8F89988D0197988FFA
:100940008F8B8F89988D009769F714C06B897C898C
:100950008D899E890E94B929DC01CB01988F8F8BEC
:100960008F89988D9C8F8B8F8B8D9C8D0197F1F744
:100970009C8F8B8FCE014D9664ED11D5882309F0A5
:1009800087CFA5960FB6F894DEBF0FBECDBFDF911F
:10099000CF910895CF93DF93CDB7DEB7A5970FB66C
:1009A000F894DEBF0FBECDBF8DA384E48D8F8DA1E3
:1009B000813009F07DC081E08E8F72C080E090E0D0
:1009C000A8E4B2E489839A83AB83BC8320E030E45B
:1009D0004CE155E469817A818B819C810E949B2A3C
:1009E000DC01CB018D839E83AF83B88720E030E0AC
:1009F00040E85FE36D817E818F8198850E944D295B
:100A000088232CF481E090E09A8789873FC020E01A
:100A10003FEF4FE757E46D817E818F8198850E947B
:100A2000972A18164CF520E030E040E251E4698145
:100A30007A818B819C810E949B2ADC01CB01BC01C5
:100A4000CD010E94B929DC01CB019A8789870FC0AB
:100A50008AEF90E09C878B878B859C850197F1F7C7
:100A60009C878B8789859A8501979A87898789854D
:100A70009A85009769F714C06D817E818F81988572
:100A80000E94B929DC01CB019A87898789859A85DB
:100A90009E878D878D859E850197F1F79E878D872F
:100AA000CE014D9664ED7BD4882309F087CF7CC0BE
:100AB0008FEF8E8F72C080E090E0A8E4B2E48F8761
:100AC000988BA98BBA8B20E030E44CE155E46F851C
:100AD000788989899A890E949B2ADC01CB018B8BBA
:100AE0009C8BAD8BBE8B20E030E040E85FE36B89F0
:100AF0007C898D899E890E944D2988232CF481E070
:100B000090E0988F8F8B3FC020E03FEF4FE757E496
:100B10006B897C898D899E890E94972A18164CF5CD
:100B200020E030E040E251E46F85788989899A8934
:100B30000E949B2ADC01CB01BC01CD010E94B92996
:100B4000DC01CB01988F8F8B0FC08AEF90E09A8FDA
:100B5000898F898D9A8D0197F1F79A8F898F8F8967
:100B6000988D0197988F8F8B8F89988D009769F753
:100B700014C06B897C898D899E890E94B929DC010A
:100B8000CB01988F8F8B8F89988D9C8F8B8F8B8DBE
:100B90009C8D0197F1F79C8F8B8FCE014D9664ED64
:100BA000FED3882309F087CFA5960FB6F894DEBF51
:100BB0000FBECDBFDF91CF910895CF93DF93CDB717
:100BC000DEB7A5970FB6F894DEBF0FBECDBF8DA3DD
:100BD00085E48D8F8DA1813009F07DC081E08E8FFD
:100BE00072C080E090E0A8E4B2E489839A83AB838A
:100BF000BC8320E030E44CE155E469817A818B814B
:100C00009C810E949B2ADC01CB018D839E83AF8354
:100C1000B88720E030E040E85FE36D817E818F811E
:100C200098850E944D2988232CF481E090E09A87D2
:100C300089873FC020E03FEF4FE757E46D817E8119
:100C40008F8198850E94972A18164CF520E030E095
:100C500040E251E469817A818B819C810E949B2AC8
:100C6000DC01CB01BC01CD010E94B929DC01CB0123
:100C70009A8789870FC08AEF90E09C878B878B8546
:100C80009C850197F1F79C878B8789859A850197C9
:100C90009A87898789859A85009769F714C06D813D
:100CA0007E818F8198850E94B929DC01CB019A87CA
:100CB000898789859A859E878D878D859E850197F1
:100CC000F1F79E878D87CE014D9664ED68D388231A
:100CD00009F087CF7CC08FEF8E8F72C080E090E0EC
:100CE000A8E4B2E48F87988BA98BBA8B20E030E41C
:100CF0004CE155E46F85788989899A890E949B2AFD
:100D0000DC01CB018B8B9C8BAD8BBE8B20E030E06C
:100D100040E85FE36B897C898D899E890E944D291B
:100D200088232CF481E090E0988F8F8B3FC020E0E7
:100D30003FEF4FE757E46B897C898D899E890E943C
:100D4000972A18164CF520E030E040E251E46F8518
:100D5000788989899A890E949B2ADC01CB01BC0190
:100D6000CD010E94B929DC01CB01988F8F8B0FC078
:100D70008AEF90E09A8F898F898D9A8D0197F1F78C
:100D80009A8F898F8F89988D0197988F8F8B8F89F4
:100D9000988D009769F714C06B897C898D899E892D
:100DA0000E94B929DC01CB01988F8F8B8F89988D98
:100DB0009C8F8B8F8B8D9C8D0197F1F79C8F8B8FE8
:100DC000CE014D9664EDEBD2882309F087CFA5962E
:100DD0000FB6F894DEBF0FBECDBFDF91CF9108955F
:100DE000CF93DF9300D0CDB7DEB789836A83898143
:100DF0008130C9F48A81813019F481E0CBDD0AC0E9
:100E00008A818F3F19F481E0B2DC04C081E0C2DD49
:100E100081E0ADDC81E0D1DE81E00E945E200097C0
:100E2000D9F48FEF1AC08FEFC8DE8A81813019F4B0
:100E30008FEFB0DD0AC08A818F3F19F48FEF97DC06
:100E400004C08FEFA7DD8FEF92DC8FEF0E945E2052
:100E5000009711F48FEF01C081E00F900F90DF91A8
:100E6000CF9108951F920F9200905F000F9211246E
:100E700000905B000F922F933F934F935F938F935C
:100E80009F93EF93FF93CF93DF9300D000D0CDB724
:100E9000DEB78DEE90E0FC0180818B831982A4C0C7
:100EA0008DEE90E029812295207FFC0120838EEE3B
:100EB00090E0FC018081829586958770882F90E074
:100EC00081709927009709F470C08FEE90E020E8B8
:100ED000FC0120838EEE90E02EEE30E0F9012081BF
:100EE0002F7DFC01208382EF90E0FC0180818295C0
:100EF00086958770282F83EF90E0FC018081882FF2
:100F000090E0880F991F880F991F880F991F822BD7
:100F10008C831A8226C08C81882F90E08150904863
:100F2000880F991F8A579B4FFC01208131818C814A
:100F3000882F90E0019786569B4FFC018081482FB7
:100F400050E08A81882F90E0840F951F820F931FB5
:100F50002AEF30E0F9012081FC0120838A818F5F34
:100F60008A838A818830B8F28C81882F90E001973B
:100F700086569B4FFC0120812F5FFC01208325308A
:100F800041F48C81882F90E0019786569B4FFC019D
:100F900010828C81882F90E0019782559B4FFC0135
:100FA00020812F5FFC01208323C08EEE90E0FC01A6
:100FB00080818295869586958370882F90E08170D8
:100FC0009927009771F08FEE90E0FC0110828EEE71
:100FD00090E02EEE30E0F90120812F7BFC01208390
:100FE00007C089818F5F898389818F3008F458CF4A
:100FF0008DEE90E02B81FC0120838AED90E02AEDBC
:1010000030E0F9012081FC0120830F900F900F90B8
:101010000F90DF91CF91FF91EF919F918F915F9111
:101020004F913F912F910F9000925B000F90009293
:101030005F000F901F901895CF93DF9300D0CDB72E
:10104000DEB788ED90E021E0FC01208319823EC0EC
:101050008DEE90E029812295207FFC0120838EEE89
:1010600090E0FC0110828FEE90E0FC01108283EF93
:1010700090E0FC01108282EF90E0FC01108281EF91
:1010800090E0FC01108280EF90E0FC01108287EF7D
:1010900090E0FC01108286EF90E0FC01108285EF69
:1010A00090E0FC01108284EF90E0FC0110821A8233
:1010B00007C08AEF90E0FC0110828A818F5F8A83EB
:1010C0008A818830B0F389818F5F898389818F30ED
:1010D00008F4BECF88ED90E022E0FC01208382EE90
:1010E00090E021E0FC01208383EE90E028E0FC0109
:1010F000208384EE90E02EE5FC01208385EE90E0D5
:10110000FC0110828BED90E020EBFC0120838FED41
:1011100090E02FE7FC0120838EED90E02FEFFC01A3
:10112000208378940F900F90DF91CF910895CF9303
:10113000DF9300D000D0CDB7DEB79C838B838DEEDC
:1011400090E0FC0180818A83000089ED90E0FC0141
:10115000808182958F70882F90E081709927009709
:10116000A1F789ED90E0FC018081869586958695B2
:10117000882F90E081709927009739F7198249C02C
:101180008DEE90E029812295207FFC0120838FEE57
:1011900090E0FC01808182958695869583708823F6
:1011A00021F089818F5F898334C08FEE90E02FE03A
:1011B000FC01208383EF90E02B813C81332736951F
:1011C00027953695279536952795FC01208382EF44
:1011D00090E02B812295220F207EFC01208386EF58
:1011E00090E020EEFC01208387EF90E02FEFFC01E0
:1011F00020838FEE90E02FEE30E0F901208120680F
:10120000FC0120838DEE90E02A81FC01208381E0A7
:101210000AC089818F3008F4B3CF8DEE90E02A8127
:10122000FC01208380E00F900F900F900F90DF91D2
:10123000CF9108950F931F93CF93DF9300D0CDB735
:10124000DEB78A83F9DE19822FC08981882F90E06A
:1012500001966DDF8981882F90E0880F991F8C019E
:101260000A571B4F61E070E085E090E00E94FE2A83
:10127000F801918380838981882F90E02981222F32
:1012800030E04981442F50E060E042555B4FFA0165
:1012900060832C553B4FF901608386569B4FFC01C0
:1012A000608389818F5F898399818A81981768F229
:1012B0000F900F90DF91CF911F910F910895CF93D1
:1012C000DF9300D000D0CDB7DEB79B838A836C83D9
:1012D00000008C81882F90E0019782559B4FFC0184
:1012E00080818823B1F319822CC08981882F90E0F6
:1012F0002A813B81820F931F2C81222F30E02150C5
:101300003048220F331F2A573B4FF901408151814A
:101310002C81222F30E0215031092C553B4FF9010F
:101320002081622F70E02981222F30E0260F371FA5
:10133000240F351FF9012081FC01208389818F5FF3
:1013400089838981883088F28C81882F90E0019789
:101350008C559B4FFC0120812F5FFC0120832530A1
:1013600041F48C81882F90E001978C559B4FFC01B4
:1013700010828C81882F90E001979C0122553B4F71
:10138000F9012081215082559B4FFC01208380E090
:101390000F900F900F900F90DF91CF910895CF9302
:1013A000DF9300D000D000D0CDB7DEB79D838C8313
:1013B0006E83000089ED90E0FC01808182958F7042
:1013C000882F90E0817099270097A1F789ED90E030
:1013D000FC018081869586958695882F90E08170A6
:1013E0009927009739F78DEE90E0FC0180818B837F
:1013F0001A8215C08DEE90E02A812295207FFC0193
:1014000020838FEE90E0FC01808182958695869501
:101410008370882309F406C08A818F5F8A838A815A
:101420008F3040F38A818F3011F48FEF39C082EF13
:1014300090E02E812295220F207EFC01208383EFF5
:1014400090E02E81269526952695FC0120838FEE2F
:1014500090E028E0FC012083198210C08AEF90E020
:101460002981222F30E04C815D81240F351FF90145
:101470002081FC01208389818F5F89838981883065
:1014800068F38FEE90E02FEE30E0F90120812064C8
:10149000FC0120838DEE90E02B81FC01208380E015
:1014A00026960FB6F894DEBF0FBECDBFDF91CF9169
:1014B0000895CF93DF93CDB7DEB7DF91CF91089535
:1014C000CF93DF93CDB7DEB78091BA049091BB0480
:1014D0002091BA043091BB04F9012081622F209140
:1014E000BC04422F50E021E030E0042E02C0220F65
:1014F000331F0A94E2F720952623FC012083DF9115
:10150000CF910895CF93DF93CDB7DEB78091BA0422
:101510009091BB042091BA043091BB04F901208161
:10152000622F2091BC04422F50E021E030E0042ED5
:1015300002C0220F331F0A94E2F7262BFC012083FE
:10154000DF91CF910895CF93DF93CDB7DEB7289782
:101550000FB6F894DEBF0FBECDBF8C834D835E8384
:101560006F8378871982ACDF2091B8043091B90479
:101570008C818064F90109958C81883119F08C8106
:101580008131C9F5809106018130A9F52091B80417
:101590003091B9048D819E81AF81B885072E7FE09F
:1015A000B695A795979587957A95D1F7702DF901FE
:1015B00009952091B8043091B9048D819E81AF8145
:1015C000B885689416F8B695A7959795879516945B
:1015D000D1F7F90109952091B8043091B9048D81B2
:1015E000880FF90109952091B8043091B90480E081
:1015F000F901099530C02091B8043091B9048D816A
:101600009E81AF81B8858B2F9927AA27BB27F90127
:1016100009952091B8043091B9048D819E81AF81E4
:10162000B885CD01AA27BB27F90109952091B804F7
:101630003091B9048D819E81AF81B885892F9A2F11
:10164000AB2FBB27F90109952091B8043091B9045B
:101650008D81F90109958C81882341F42091B8048A
:101660003091B90485E9F90109950BC08C8181316C
:1016700041F42091B8043091B9048FEFF901099534
:1016800013C012C089818F5F89838981893C60F092
:1016900081E191E0892F8F9381E191E08F9309DFC0
:1016A0000F900F908FEF1BC02091B8043091B904B8
:1016B0008FEFF90109958B838B8188231CF31A82A4
:1016C0000AC02091B8043091B9048FEFF90109954F
:1016D0008A818F5F8A838A81883098F38B812896EC
:1016E0000FB6F894DEBF0FBECDBFDF91CF91089546
:1016F000CF93DF9300D000D000D0CDB7DEB78A8380
:101700004B835C836D837E838B819C81AD81BE81A5
:10171000AC01BD018A8117DF8983F4DE89812696B9
:101720000FB6F894DEBF0FBECDBFDF91CF91089505
:10173000CF92DF92EF92FF92CF93DF9300D000D051
:1017400000D0CDB7DEB78A834B835C836D837E8305
:101750008B819C81AD81BE81AC01BD018A81F3DEAC
:10176000898389818F3F09F447C02091B804309163
:10177000B9048FEFF9010995882F90E0A0E0B0E05F
:10178000F82EEE24DD24CC242091B8043091B90445
:101790008FEFF9010995882F90E0A0E0B0E0DC011F
:1017A00099278827C82AD92AEA2AFB2A2091B8042F
:1017B0003091B9048FEFF9010995882F90E0982FA7
:1017C0008827AA2797FDA095BA2FC82AD92AEA2ADE
:1017D000FB2A2091B8043091B9048FEFF9010995E3
:1017E000882F90E0A0E0B0E08C299D29AE29BF2988
:1017F0008B839C83AD83BE832091B8043091B90460
:101800008FEFF90109957EDE89818F3F21F48FEFFB
:101810009FEFDC0104C08B819C81AD81BE81BC0146
:10182000CD0126960FB6F894DEBF0FBECDBFDF9177
:10183000CF91FF90EF90DF90CF900895CF93DF93FB
:10184000CDB7DEB72E970FB6F894DEBF0FBECDBF73
:10185000998788877B876A874C873E872D878D8508
:101860009E859093BB048093BA048C858093BC04BE
:101870008A859B859093B9048093B804888599855F
:10188000FC0109953FDE1A8219820CC02091B80430
:101890003091B9048FEFF901099589819A810196F8
:1018A0009A83898389819A818C3391057CF340E006
:1018B00050E0BA0180E01CDF813011F08FEF97C05B
:1018C0004AEA51E060E070E088E032DFDC01CB0101
:1018D0008B839C83AD83BE831A82198240E050E0E3
:1018E000BA0187E305DF40E050E060E070E489E2A0
:1018F000FFDE8F8389819A8101969A83898389810A
:101900009A818E31910594F08B819C81AD81BE814D
:10191000AA27BB278A3AF1E09F07A105B10511F478
:101920008FEF65C08DE48093BD0403C08F81882351
:10193000A9F68B819C81AD81BE81AA27BB278A3AFB
:1019400021E09207A105B105F9F482E38093BD047B
:1019500040E050E0BA018AE3EBDEDC01CB018B838F
:101960009C83AD83BE838B819C81AD81BE818827A2
:101970009927AA27B0740097A105B10569F181E004
:101980008093060181E033C08091BD048D3409F558
:101990001A82198216C089819A8101969A83898355
:1019A00089819A81893C910564F087E291E0892FD1
:1019B0008F9387E291E08F937CDD0F900F908FEFF4
:1019C00016C040E050E0BA0181E092DE882319F7AA
:1019D00003C081E38093BD0440E052E060E070E02A
:1019E00080E186DE882311F08FEF01C081E02E9622
:1019F0000FB6F894DEBF0FBECDBFDF91CF91089533
:101A0000CF93DF93CDB7DEB72A970FB6F894DEBF3A
:101A10000FBECDBF9E838D834F83588769877A879A
:101A200000002091B8043091B9048FEFF9010995B5
:101A30008823B9F32091B8043091B9048FEFF901EC
:101A400009958F819885A985BA85AC01BD0188E18A
:101A50007ADD8B831BC08F819885A985BA85AC01FF
:101A6000BD0188E170DD8B838B81882F90E0292F69
:101A70002F938F938AE391E0892F8F938AE391E0EC
:101A80008F9317DD0F900F900F900F908B8188230D
:101A900011F72091B8043091B9048FEFF90109953D
:101AA0002091B8043091B9048FEFF90109952ADD2E
:101AB0002091B8043091B9048EEFF90109951A828A
:101AC000198213C02091B8043091B90489819A8198
:101AD0004D815E81840F951FFC018081F90109957C
:101AE00089819A8101969A83898389819A81811556
:101AF000F2E09F073CF32091B8043091B9048FEFD6
:101B0000F90109952091B8043091B9048FEFF901DA
:101B10000995D6DC00002091B8043091B9048FEF0C
:101B2000F90109958B838B81882F90E0817099272B
:101B3000009789F38B81869587708C831A8219822E
:101B40000CC02091B8043091B9048FEFF9010995C8
:101B500089819A8101969A83898389819A818830C3
:101B600091057CF38C81823011F481E014C0CADCD1
:101B70008B81882F90E0292F2F938F9387E591E019
:101B8000892F8F9387E591E08F9393DC0F900F90CF
:101B90000F900F908FEF2A960FB6F894DEBF0FBE0E
:101BA000CDBFDF91CF9108950F931F93CF93DF9314
:101BB000CDB7DEB729970FB6F894DEBF0FBECDBF05
:101BC0009D838C834E835F83688779871A8219820D
:101BD00000002091B8043091B9048FEFF901099504
:101BE0008823B9F38E819F81A885B985AC01BD0199
:101BF00081E1A9DC8B838B818823A1F08B81882FE5
:101C000090E0292F2F938F9387E791E0892F8F936F
:101C100087E791E08F934DDC0F900F900F900F901E
:101C20008FEF69C017C089819A8101969A83898351
:101C300089819A818132F3E09F0764F081E991E024
:101C4000892F8F9381E991E08F9333DC0F900F9070
:101C50008FEF51C02091B8043091B9048FEFF90192
:101C600009958E3F01F71A82198215C089819A81E0
:101C70002C813D818901080F191F2091B8043091F2
:101C8000B9048FEFF9010995F801808389819A8160
:101C900001969A83898389819A818115F2E09F0751
:101CA0002CF32091B8043091B9048FEFF901099514
:101CB0002091B8043091B9048FEFF901099522DC25
:101CC0001A8219820CC02091B8043091B9048FEFA8
:101CD000F901099589819A8101969A83898389817D
:101CE0009A81883091057CF38E819F819093CF06F5
:101CF0008093CE0681E029960FB6F894DEBF0FBE22
:101D0000CDBFDF91CF911F910F910895CF93DF93B6
:101D100000D000D0CDB7DEB78091CC069091CD0633
:101D20009A8389831C821B8271C089819A81CC012C
:101D3000A0E0B0E0AC01BD018EEB94E035DF8A811C
:101D40008F9389818F9384EA91E0892F8F9384EA1E
:101D500091E08F93AEDB0F900F900F900F901C824D
:101D60001B8248C08B819C8182549B4FFC018081E7
:101D70008823D9F58B819C81019682549B4FFC016D
:101D80008081882391F58B819C819C0136952795D4
:101D90008091C4069091C50649815A81BA01681B99
:101DA000790BCB01982F8827820F931F9093CB0636
:101DB0008093CA068091CA069091CB06292F2F9353
:101DC0008F9388EB91E0892F8F9388EB91E08F932D
:101DD00070DB0F900F900F900F9089819A819093F4
:101DE000CD068093CC0681E022C08B819C81029637
:101DF0009C838B838B819C81811572E0970708F40B
:101E0000B1CF89819A8101969A8389832091C606F0
:101E10003091C7068091C4069091C506280F391FDE
:101E200089819A818217930708F47FCF8FEF0F90F3
:101E30000F900F900F90DF91CF910895CF93DF9384
:101E4000CDB7DEB740E050E0BA018EEB94E0ACDEF7
:101E50008091CB048093D0068091CD04882F90E0B0
:101E6000382F22278091CC04882F90E0822B932B4F
:101E70009C018091BE069091BF06820F931F9093A4
:101E8000C5068093C4068091D504882F90E0382F32
:101E900022278091D404882F90E0822B932B90935B
:101EA000C7068093C6062091C4063091C50680916E
:101EB000CE04682F70E04091C6065091C706649F1B
:101EC000C001659F900D749F900D1124820F931F88
:101ED0009093C3068093C2068091CF04282F30E0F0
:101EE0008091D004882F90E0982F8827822B932B05
:101EF000880F991F82959295907F9827807F9827C9
:101F0000892F992786959093C9068093C8062091BA
:101F1000C2063091C3068091C8069091C906820F0F
:101F2000931F9093C1068093C0068091C406909140
:101F3000C5069093CD068093CC06E8DE8091BE0660
:101F40009091BF06292F2F938F9380ED91E0892FD9
:101F50008F9380ED91E08F93ACDA0F900F900F90FC
:101F60000F908091D006882F90E0292F2F938F9388
:101F70008EEE91E0892F8F938EEE91E08F9399DA18
:101F80000F900F900F900F908091C4069091C5060E
:101F9000292F2F938F9382E192E0892F8F9382E1F3
:101FA00092E08F9386DA0F900F900F900F908091B0
:101FB000C6069091C706292F2F938F938AE292E04D
:101FC000892F8F938AE292E08F9373DA0F900F90AC
:101FD0000F900F908091C2069091C306292F2F93E6
:101FE0008F938CE392E0892F8F938CE392E08F9311
:101FF00060DA0F900F900F900F908091C80690912B
:10200000C906292F2F938F9385E592E0892F8F930F
:1020100085E592E08F934DDA0F900F900F900F901F
:102020008091C0069091C106292F2F938F9388E647
:1020300092E0892F8F9388E692E08F933ADA0F909F
:102040000F900F900F908091C2069091C306CC0123
:10205000A0E0B0E0AC01BD018EEB94E0A5DD88E12D
:1020600090E00E94182B9093D8068093D706809119
:10207000D7069091D806FC0110868091D7069091E2
:10208000D8062091C2063091C306FC01358724870B
:102090002091D7063091D8068091D7069091D80626
:1020A000FC01118A108AFC0180899189F901938BC6
:1020B000828B8091D7069091D806FC0111862091E1
:1020C000D7063091D8068091D7069091D806FC01AA
:1020D000178A168AFC0186899789F901958B848B6A
:1020E0008091D7069091D806FC01138612868091C4
:1020F000D2068F5F8093D2068091D4068F5F809343
:10210000D4061092D30681E08093D10681E0DF915E
:10211000CF910895CF93DF93CDB7DEB72C970FB64D
:10212000F894DEBF0FBECDBF9B878A876C871C8269
:102130001B828091D7069091D8069E838D830FC015
:102140008D819E81FC0191858C85981709F40BC0C7
:102150008D819E81FC01848995899E838D838D81EB
:102160009E81009769F78D819E81009711F48FEF12
:102170005FC28D819E81FC01848595859A838983C8
:102180002091CE063091CF068D819E81FC01848501
:1021900095852817390769F08D819E81FC0184851A
:1021A0009585CC01A0E0B0E0AC01BD018EEB94E0E0
:1021B000FBDC8C85882309F03FC02EC08B819C817D
:1021C0008115F2E09F0718F11C821B8289819A8198
:1021D00001969A8389838091C2069091C3062981D2
:1021E0003A81281B390B8091C8069091C906821745
:1021F000930710F480E01CC289819A81CC01A0E091
:10220000B0E0AC01BD018EEB94E0CEDC05C08B816B
:102210009C8180969C838B838B819C8182549B4F75
:10222000FC018081882341F08B819C8182549B4FEB
:10223000FC018081853E11F61F8217C08F81282FF7
:1022400030E08B819C81820F931F2F81222F30E001
:102250004A855B85240F351FF901208182549B4FED
:10226000FC0120838F818F5F8F838F81882F90E087
:102270002A853B85820F931FFC018081882319F0FA
:102280008F818830D8F20FC08F81282F30E08B816A
:102290009C81820F931F82549B4F20E2FC0120837C
:1022A0008F818F5F8F838F81883070F38B819C81CA
:1022B0009C01285F3F4F8B819C810A96AC01425460
:1022C0005B4F64E5FA01608382549B4FFC014081BF
:1022D000C90182549B4FFC0140838B819C810996EC
:1022E00082549B4F28E5FC0120838B819C810B96B7
:1022F00082549B4F20E2FC0120831F8216C08F81F5
:10230000282F30E08B819C81820F931F0C962F81A8
:10231000222F30E0295F3E4FF901208182549B4FEC
:10232000FC0120838F818F5F8F838F818A3038F308
:102330008B819C814A962091CA063091CB068254AB
:102340009B4FFC0120838B819C814B962091CA0678
:102350003091CB06232F332782549B4FFC012083DF
:102360008B819C814C9682549B4FFC0110828B8107
:102370009C814D9682549B4FFC0110828B819C81E5
:102380004E9682549B4FFC0110828B819C814F960C
:1023900082549B4FFC0110828B819C814696825413
:1023A0009B4F28E4FC0120838B819C8147968254BB
:1023B0009B4F27E7FC0120838B819C8148968254A8
:1023C0009B4F21E9FC0120838B819C81499682549B
:1023D0009B4F26E4FC0120838A818F9389818F9310
:1023E0008BE993E0892F8F938BE993E08F9361D8EA
:1023F0000F900F900F900F908091CA069091CB068E
:10240000292F2F938F9385ED93E0892F8F9385ED5F
:1024100093E08F934ED80F900F900F900F9089817B
:102420009A81CC01A0E0B0E0AC01BD018EEB94E05C
:10243000E7DA8F3F11F480E0FBC086E190E00E9474
:10244000182B998788878885998529813A81FC018D
:1024500037872687888599852B813C81FC01318BC4
:10246000208B8091CA069091CB06880F991F9C0102
:10247000232F332726958091C4069091C506820F9D
:10248000931F9A8389838091CA069091CB06880F07
:10249000991F8E7F91709C838B8389819A81CC0157
:1024A000A0E0B0E0AC01BD018EEB94E07DDB8F3F9E
:1024B00011F480E0BDC08B819C8101969C01225467
:1024C0003B4F4FEFF901408382549B4FFC01208129
:1024D0008B819C8182549B4FFC0120838A818F9346
:1024E00089818F9385EF93E0892F8F9385EF93E018
:1024F0008F930E94590A0F900F900F900F9089812F
:102500009A81CC01A0E0B0E0AC01BD018EEB94E07B
:1025100077DA8F3F11F48FEF8BC08091D106282F8F
:1025200081E0820F8093D10688859985FC012187FF
:102530008091CA069091CB06AC014250510980911E
:10254000D006882F90E0489F9001499F300D589FFA
:10255000300D11248091C0069091C106280F391FBB
:1025600088859985FC01338722872091CA0630919E
:10257000CB0688859985FC013587248788859985D0
:102580002C85FC0120871F8215C08F81882F90E049
:102590002F81222F30E04A855B85240F351FF901FA
:1025A000408128853985820F931FFC0140838F81EC
:1025B0008F5F8F838F81883040F3A8DB8885998572
:1025C000FC01158A148A8091D5069091D606009751
:1025D00099F02091D5063091D60688859985FC0121
:1025E000338B228B8091D5069091D606288539852C
:1025F000FC01358B248B05C088859985FC01138AE5
:10260000128A888599859093D6068093D506888509
:102610009985FC0186859785CC01A0E0B0E0AC01EE
:10262000BD018EEB94E0C0DA88859985FC01818537
:102630002C960FB6F894DEBF0FBECDBFDF91CF91C1
:102640000895CF93DF93CDB7DEB70E94BC1E6FEF26
:1026500081E00E94F0060E94B621F9CFCF93DF936C
:10266000CDB7DEB7A5970FB6F894DEBF0FBECDBFCE
:102670008DA38DA18D8F72C080E090E0A8E4B2E4BC
:1026800089839A83AB83BC8320E030E44CE155E43A
:1026900069817A818B819C810E949B2ADC01CB011C
:1026A0008D839E83AF83B88720E030E040E85FE30E
:1026B0006D817E818F8198850E944D2988232CF41D
:1026C00081E090E09A8789873FC020E03FEF4FE7A5
:1026D00057E46D817E818F8198850E94972A181614
:1026E0004CF520E030E040E251E469817A818B8151
:1026F0009C810E949B2ADC01CB01BC01CD010E9480
:10270000B929DC01CB019A8789870FC08AEF90E055
:102710009C878B878B859C850197F1F79C878B879E
:1027200089859A8501979A87898789859A850097EF
:1027300069F714C06D817E818F8198850E94B929C7
:10274000DC01CB019A87898789859A859E878D8749
:102750008D859E850197F1F79E878D87CE014D96D9
:1027600063EC0E94CF09882309F086CF80E58D8F26
:1027700072C080E090E0A8E4B2E48F87988BA98BC8
:10278000BA8B20E030E44CE155E46F857889898983
:102790009A890E949B2ADC01CB018B8B9C8BAD8B91
:1027A000BE8B20E030E040E85FE36B897C898D8957
:1027B0009E890E944D2988232CF481E090E0988F17
:1027C0008F8B3FC020E03FEF4FE757E46B897C8958
:1027D0008D899E890E94972A18164CF520E030E0DA
:1027E00040E251E46F85788989899A890E949B2A01
:1027F000DC01CB01BC01CD010E94B929DC01CB0178
:10280000988F8F8B0FC08AEF90E09A8F898F898D78
:102810009A8D0197F1F79A8F898F8F89988D0197FB
:10282000988F8F8B8F89988D009769F714C06B896B
:102830007C898D899E890E94B929DC01CB01988F02
:102840008F8B8F89988D9C8F8B8F8B8D9C8D019713
:10285000F1F79C8F8B8FCE014D9663EC0E94CF09D0
:10286000882309F086CFCE014D9661E00E945F0972
:102870008D8D8D3429F08D8D823511F080E001C071
:10288000F8CEA5960FB6F894DEBF0FBECDBFDF9190
:10289000CF910895CF93DF93CDB7DEB7CA54D10956
:1028A0000FB6F894DEBF0FBECDBF9E012A5B3F4F2F
:1028B000F90191838083CE01885B9F4FFC01608387
:1028C000CE01875B9F4FFC015183408386E58EAF2D
:1028D000CE01885B9F4FFC0180818FAF72C080E08A
:1028E00090E0A8E4B2E48E839F83A887B98720E0B4
:1028F00030E44CE155E46E817F81888599850E94A2
:102900009B2ADC01CB018A879B87AC87BD8720E0AF
:1029100030E040E85FE36A857B858C859D850E9479
:102920004D2988232CF481E090E09F878E873FC05B
:1029300020E03FEF4FE757E46A857B858C859D85D6
:102940000E94972A18164CF520E030E040E251E44E
:102950006E817F81888599850E949B2ADC01CB014D
:10296000BC01CD010E94B929DC01CB019F878E8774
:102970000FC08AEF90E0998B888B8889998901979D
:10298000F1F7998B888B8E859F8501979F878E871E
:102990008E859F85009769F714C06A857B858C8535
:1029A0009D850E94B929DC01CB019F878E878E858A
:1029B0009F859B8B8A8B8A899B890197F1F79B8BDB
:1029C0008A8BCE01CE9663EC0E94CF09882309F052
:1029D00086CF84E48EAFCE018A5B9F4FFC0180815D
:1029E0009181892F990F990B8FAFCE018A5B9F4FF1
:1029F000FC012081CE01805C9F4FFC01208372C0CE
:102A000080E090E0A8E4B2E48C8B9D8BAE8BBF8B12
:102A100020E030E44CE155E46C897D898E899F8902
:102A20000E949B2ADC01CB01888F998FAA8FBB8FD4
:102A300020E030E040E85FE3688D798D8A8D9B8DE2
:102A40000E944D2988232CF481E090E09D8F8C8F8B
:102A50003FC020E03FEF4FE757E4688D798D8A8DC6
:102A60009B8D0E94972A18164CF520E030E040E23A
:102A700051E46C897D898E899F890E949B2ADC01A3
:102A8000CB01BC01CD010E94B929DC01CB019D8F96
:102A90008C8F0FC08AEF90E09F8F8E8F8E8D9F8DD1
:102AA0000197F1F79F8F8E8F8C8D9D8D01979D8F54
:102AB0008C8F8C8D9D8D009769F714C0688D798DF2
:102AC0008A8D9B8D0E94B929DC01CB019D8F8C8F53
:102AD0008C8D9D8D99A388A388A199A10197F1F769
:102AE00099A388A3CE01CE9663EC0E94CF098823D8
:102AF00009F086CF0E94E91FAA2797FDA095BA2F5B
:102B000089839A83AB83BC8380E58EAF72C080E0FB
:102B100090E0A8E4B2E48AA39BA3ACA3BDA320E009
:102B200030E44CE155E46AA17BA18CA19DA10E94F7
:102B30009B2ADC01CB018EA39FA3A8A7B9A720E005
:102B400030E040E85FE36EA17FA188A599A50E94CF
:102B50004D2988232CF481E090E09BA78AA73FC0F1
:102B600020E03FEF4FE757E46EA17FA188A599A52C
:102B70000E94972A18164CF520E030E040E251E41C
:102B80006AA17BA18CA19DA10E949B2ADC01CB01A3
:102B9000BC01CD010E94B929DC01CB019BA78AA70A
:102BA0000FC08AEF90E09DA78CA78CA59DA50197EB
:102BB000F1F79DA78CA78AA59BA501979BA78AA73C
:102BC0008AA59BA5009769F714C06EA17FA188A56F
:102BD00099A50E94B929DC01CB019BA78AA78AA5E8
:102BE0009BA59FA78EA78EA59FA50197F1F79FA7ED
:102BF0008EA7CE01CE9663EC0E94CF09882309F000
:102C000086CFCE01CE9661E00E945F098EAD8934F9
:102C100011F480E09EC08EAD833511F482E099C03E
:102C20008EAD853411F481E094C080E090E0A8E49A
:102C3000B2E488AB99ABAAABBBAB20E030E44CE18B
:102C400055E468A979A98AA99BA90E949B2ADC015D
:102C5000CB018CAB9DABAEABBFAB20E030E040E82E
:102C60005FE36CA97DA98EA99FA90E944D298823A5
:102C70002CF481E090E099AF88AF3FC020E03FEFB7
:102C80004FE757E46CA97DA98EA99FA90E94972AB6
:102C900018164CF520E030E040E251E468A979A92B
:102CA0008AA99BA90E949B2ADC01CB01BC01CD0112
:102CB0000E94B929DC01CB0199AF88AF0FC08AEF20
:102CC00090E09BAF8AAF8AAD9BAD0197F1F79BAFC8
:102CD0008AAF88AD99AD019799AF88AF88AD99ADAE
:102CE000009769F714C06CA97DA98EA99FA90E94BD
:102CF000B929DC01CB0199AF88AF88AD99AD9DAF03
:102D00008CAF8CAD9DAD0197F1F79DAF8CAFCE012F
:102D1000875B9F4FFC01808191810097C9F09E01E4
:102D2000275B3F4F89819A81AB81BC81F90120816A
:102D30003181BC01CD01F90109958D838D818130EF
:102D400011F481E006C08D81823011F483E001C06E
:102D5000DBCEC65BDF4F0FB6F894DEBF0FBECDBF34
:102D6000DF91CF910895EF92FF920F93CF93DF936E
:102D7000CDB7DEB7CF54D1090FB6F894DEBF0FBE82
:102D8000CDBFFE01EA5BFF4F4083518362837383B3
:102D900084839583CE01845B9F4FFC012083CE0109
:102DA000835B9F4FFC010083CE01825B9F4FFC0140
:102DB000F182E08286E58EAFCE01845B9F4FFC01FD
:102DC00080818FAF72C080E090E0A8E4B2E48E838F
:102DD0009F83A887B98720E030E44CE155E46E81F9
:102DE0007F81888599850E949B2ADC01CB018A8797
:102DF0009B87AC87BD8720E030E040E85FE36A85D1
:102E00007B858C859D850E944D2988232CF481E04B
:102E100090E09F878E873FC020E03FEF4FE757E469
:102E20006A857B858C859D850E94972A18164CF5AE
:102E300020E030E040E251E46E817F818885998511
:102E40000E949B2ADC01CB01BC01CD010E94B92963
:102E5000DC01CB019F878E870FC08AEF90E0998BB2
:102E6000888B888999890197F1F7998B888B8E8552
:102E70009F8501979F878E878E859F85009769F72D
:102E800014C06A857B858C859D850E94B929DC01EB
:102E9000CB019F878E878E859F859B8B8A8B8A89A6
:102EA0009B890197F1F79B8B8A8BCE01CE9663ECC1
:102EB0000E94CF09882309F086CF87E48EAFCE0128
:102EC0008A5B9F4FFC0180819181892F990F990B1B
:102ED0008FAFCE018A5B9F4FFC0180819181282FAB
:102EE000CE01805C9F4FFC012083CE018A5B9F4F07
:102EF000FC0182819381892F990F990B282FCE0194
:102F00008F5B9F4FFC012083CE018A5B9F4FFC01AA
:102F100082819381282FCE018E5B9F4FFC012083FD
:102F2000CE018D5B9F4FFC011082CE01835B9F4FD2
:102F3000FC012081CE018C5B9F4FFC01208372C07D
:102F400080E090E0A8E4B2E48C8B9D8BAE8BBF8BCD
:102F500020E030E44CE155E46C897D898E899F89BD
:102F60000E949B2ADC01CB01888F998FAA8FBB8F8F
:102F700020E030E040E85FE3688D798D8A8D9B8D9D
:102F80000E944D2988232CF481E090E09D8F8C8F46
:102F90003FC020E03FEF4FE757E4688D798D8A8D81
:102FA0009B8D0E94972A18164CF520E030E040E2F5
:102FB00051E46C897D898E899F890E949B2ADC015E
:102FC000CB01BC01CD010E94B929DC01CB019D8F51
:102FD0008C8F0FC08AEF90E09F8F8E8F8E8D9F8D8C
:102FE0000197F1F79F8F8E8F8C8D9D8D01979D8F0F
:102FF0008C8F8C8D9D8D009769F714C0688D798DAD
:103000008A8D9B8D0E94B929DC01CB019D8F8C8F0D
:103010008C8D9D8D99A388A388A199A10197F1F723
:1030200099A388A3CE01CE9663EC0E94CF09882392
:1030300009F086CFCED7AA2797FDA095BA2F89830E
:103040009A83AB83BC8380E58EAF72C080E090E052
:10305000A8E4B2E48AA39BA3ACA3BDA320E030E420
:103060004CE155E46AA17BA18CA19DA10E949B2A01
:10307000DC01CB018EA39FA3A8A7B9A720E030E075
:1030800040E85FE36EA17FA188A599A50E944D2924
:1030900088232CF481E090E09BA78AA73FC020E022
:1030A0003FEF4FE757E46EA17FA188A599A50E9445
:1030B000972A18164CF520E030E040E251E46AA16E
:1030C0007BA18CA19DA10E949B2ADC01CB01BC01AC
:1030D000CD010E94B929DC01CB019BA78AA70FC0B3
:1030E0008AEF90E09DA78CA78CA59DA50197F1F78D
:1030F0009DA78CA78AA59BA501979BA78AA78AA5B0
:103100009BA5009769F714C06EA17FA188A599A51A
:103110000E94B929DC01CB019BA78AA78AA59BA5A0
:103120009FA78EA78EA59FA50197F1F79FA78EA7B2
:10313000CE01CE9663EC0E94CF09882309F086CF9A
:10314000CE01CE9661E00E945F098EAD893411F404
:1031500080E09EC08EAD833511F482E099C08EADC3
:10316000853411F481E094C080E090E0A8E4B2E4FA
:1031700088AB99ABAAABBBAB20E030E44CE155E4A3
:1031800068A979A98AA99BA90E949B2ADC01CB0185
:103190008CAB9DABAEABBFAB20E030E040E85FE373
:1031A0006CA97DA98EA99FA90E944D2988232CF482
:1031B00081E090E099AF88AF3FC020E03FEF4FE75C
:1031C00057E46CA97DA98EA99FA90E94972A181679
:1031D0004CF520E030E040E251E468A979A98AA9E1
:1031E0009BA90E949B2ADC01CB01BC01CD010E945E
:1031F000B929DC01CB0199AF88AF0FC08AEF90E00D
:103200009BAF8AAF8AAD9BAD0197F1F79BAF8AAFB9
:1032100088AD99AD019799AF88AF88AD99AD00970A
:1032200069F714C06CA97DA98EA99FA90E94B9292C
:10323000DC01CB0199AF88AF88AD99AD9DAF8CAF64
:103240008CAD9DAD0197F1F79DAF8CAFCE01825B48
:103250009F4FFC01808191810097C9F09E01225B04
:103260003F4F89819A81AB81BC81F90120813181F5
:10327000BC01CD01F90109958D838D81813011F457
:1032800081E006C08D81823011F483E001C0DBCE85
:10329000C15BDF4F0FB6F894DEBF0FBECDBFDF912D
:1032A000CF910F91FF90EF9008951F93CF93DF93ED
:1032B000CDB7DEB7E0970FB6F894DEBF0FBECDBF37
:1032C0004BA75CA76DA77EA78FA798AB89E48D8FCE
:1032D0008BA59CA5892F990F990B8E8F8BA59CA5EB
:1032E0008F8F8DA59EA5892F990F990B88A38DA5EA
:1032F0009EA589A31AA28FA598A98BA372C080E06E
:1033000090E0A8E4B2E489839A83AB83BC8320E095
:1033100030E44CE155E469817A818B819C810E9483
:103320009B2ADC01CB018D839E83AF83B88720E08D
:1033300030E040E85FE36D817E818F8198850E9457
:103340004D2988232CF481E090E09A8789873FC03B
:1033500020E03FEF4FE757E46D817E818F819885B4
:103360000E94972A18164CF520E030E040E251E424
:1033700069817A818B819C810E949B2ADC01CB012F
:10338000BC01CD010E94B929DC01CB019A87898754
:103390000FC08AEF90E09C878B878B859C85019777
:1033A000F1F79C878B8789859A8501979A8789870A
:1033B00089859A85009769F714C06D817E818F8118
:1033C00098850E94B929DC01CB019A878987898574
:1033D0009A859E878D878D859E850197F1F79E87BB
:1033E0008D87CE014D9663EC0E94CF09882309F0AA
:1033F00086CF80E58D8F72C080E090E0A8E4B2E4D3
:103400008F87988BA98BBA8B20E030E44CE155E490
:103410006F85788989899A890E949B2ADC01CB0172
:103420008B8B9C8BAD8BBE8B20E030E040E85FE364
:103430006B897C898D899E890E944D2988232CF473
:1034400081E090E0988F8F8B3FC020E03FEF4FE707
:1034500057E46B897C898D899E890E94972A18166A
:103460004CF520E030E040E251E46F8578898989AD
:103470009A890E949B2ADC01CB01BC01CD010E94EC
:10348000B929DC01CB01988F8F8B0FC08AEF90E0B8
:103490009A8F898F898D9A8D0197F1F79A8F898FED
:1034A0008F89988D0197988F8F8B8F89988D009732
:1034B00069F714C06B897C898D899E890E94B9291E
:1034C000DC01CB01988F8F8B8F89988D9C8F8B8F90
:1034D0008B8D9C8D0197F1F79C8F8B8FCE014D9634
:1034E00063EC0E94CF09882309F086CFCE014D9668
:1034F00061E00E945F098E8D882F90E0382F22278F
:103500008F8D882F90E0822B932B9EA38DA388A173
:10351000882F90E0382F222789A1882F90E0822BD6
:10352000932B98A78FA38AA1882F90E0382F22276A
:103530008BA1882F90E0822B932B9AA789A72DA18E
:103540003EA18BA59CA5A901481B590BCA01AA271E
:1035500097FDA095BA2FBC01CD010E94E729DC019F
:10356000CB01BF7711E020E030E040EA50E4BC013D
:10357000CD010E94972A18160CF010E081E08127F7
:10358000882309F448C02FA138A58DA59EA5A901BF
:10359000481B590BCA01AA2797FDA095BA2FBC0159
:1035A000CD010E94E729DC01CB01BF7711E020E0CB
:1035B00030E040EA50E4BC01CD010E94972A181681
:1035C0000CF010E081E08127882329F129A53AA594
:1035D0008FA598A9A901481B590BCA01AA2797FDD5
:1035E000A095BA2FBC01CD010E94E729DC01CB01D7
:1035F000BF7711E020E030E040EA50E4BC01CD01AB
:103600000E94972A18160CF010E081E08127882389
:1036100011F080E001C05ACEE0960FB6F894DEBFFC
:103620000FBECDBFDF91CF911F910895CF93DF9350
:10363000CDB7DEB7CA54D1090FB6F894DEBF0FBEBE
:10364000CDBF9E012A5B3F4FF90191838083CE015C
:10365000885B9F4FFC016083CE01875B9F4FFC011D
:103660005183408386E58EAFCE01885B9F4FFC017E
:1036700080818FAF72C080E090E0A8E4B2E48E83D6
:103680009F83A887B98720E030E44CE155E46E8140
:103690007F81888599850E949B2ADC01CB018A87DE
:1036A0009B87AC87BD8720E030E040E85FE36A8518
:1036B0007B858C859D850E944D2988232CF481E093
:1036C00090E09F878E873FC020E03FEF4FE757E4B1
:1036D0006A857B858C859D850E94972A18164CF5F6
:1036E00020E030E040E251E46E817F818885998559
:1036F0000E949B2ADC01CB01BC01CD010E94B929AB
:10370000DC01CB019F878E870FC08AEF90E0998BF9
:10371000888B888999890197F1F7998B888B8E8599
:103720009F8501979F878E878E859F85009769F774
:1037300014C06A857B858C859D850E94B929DC0132
:10374000CB019F878E878E859F859B8B8A8B8A89ED
:103750009B890197F1F79B8B8A8BCE01CE9663EC08
:103760000E94CF09882309F086CF84E58EAFCE0171
:103770008A5B9F4FFC0180819181892F990F990B62
:103780008FAFCE018A5B9F4FFC012081CE01805C10
:103790009F4FFC01208372C080E090E0A8E4B2E477
:1037A0008C8B9D8BAE8BBF8B20E030E44CE155E4DD
:1037B0006C897D898E899F890E949B2ADC01CB01BF
:1037C000888F998FAA8FBB8F20E030E040E85FE3BD
:1037D000688D798D8A8D9B8D0E944D2988232CF4CC
:1037E00081E090E09D8F8C8F3FC020E03FEF4FE75E
:1037F00057E4688D798D8A8D9B8D0E94972A1816C3
:103800004CF520E030E040E251E46C897D898E89FE
:103810009F890E949B2ADC01CB01BC01CD010E9443
:10382000B929DC01CB019D8F8C8F0FC08AEF90E00E
:103830009F8F8E8F8E8D9F8D0197F1F79F8F8E8F2B
:103840008C8D9D8D01979D8F8C8F8C8D9D8D00977C
:1038500069F714C0688D798D8A8D9B8D0E94B92976
:10386000DC01CB019D8F8C8F8C8D9D8D99A388A3BE
:1038700088A199A10197F1F799A388A3CE01CE96CB
:1038800063EC0E94CF09882309F086CFA2D3AA2730
:1038900097FDA095BA2F89839A83AB83BC8380E57B
:1038A0008EAF72C080E090E0A8E4B2E48AA39BA34C
:1038B000ACA3BDA320E030E44CE155E46AA17BA1B8
:1038C0008CA19DA10E949B2ADC01CB018EA39FA30A
:1038D000A8A7B9A720E030E040E85FE36EA17FA190
:1038E00088A599A50E944D2988232CF481E090E0B9
:1038F0009BA78AA73FC020E03FEF4FE757E46EA1A8
:103900007FA188A599A50E94972A18164CF520E05A
:1039100030E040E251E46AA17BA18CA19DA10E940C
:103920009B2ADC01CB01BC01CD010E94B929DC013D
:10393000CB019BA78AA70FC08AEF90E09DA78CA719
:103940008CA59DA50197F1F79DA78CA78AA59BA59E
:1039500001979BA78AA78AA59BA5009769F714C022
:103960006EA17FA188A599A50E94B929DC01CB0190
:103970009BA78AA78AA59BA59FA78EA78EA59FA573
:103980000197F1F79FA78EA7CE01CE9663EC0E9418
:10399000CF09882309F086CFCE01CE9661E00E9440
:1039A0005F098EAD893411F480E09EC08EAD833501
:1039B00011F482E099C08EAD853411F481E094C099
:1039C00080E090E0A8E4B2E488AB99ABAAABBBABD3
:1039D00020E030E44CE155E468A979A98AA99BA9C3
:1039E0000E949B2ADC01CB018CAB9DABAEABBFAB85
:1039F00020E030E040E85FE36CA97DA98EA99FA993
:103A00000E944D2988232CF481E090E099AF88AF83
:103A10003FC020E03FEF4FE757E46CA97DA98EA996
:103A20009FA90E94972A18164CF520E030E040E24A
:103A300051E468A979A98AA99BA90E949B2ADC0163
:103A4000CB01BC01CD010E94B929DC01CB0199AFAA
:103A500088AF0FC08AEF90E09BAF8AAF8AAD9BAD75
:103A60000197F1F79BAF8AAF88AD99AD019799AFF8
:103A700088AF88AD99AD009769F714C06CA97DA98E
:103A80008EA99FA90E94B929DC01CB0199AF88AF0B
:103A900088AD99AD9DAF8CAF8CAD9DAD0197F1F721
:103AA0009DAF8CAFCE01875B9F4FFC0180819181E0
:103AB0000097C9F09E01275B3F4F89819A81AB81B6
:103AC000BC81F90120813181BC01CD01F901099549
:103AD0008D838D81813011F481E006C08D8182302B
:103AE00011F483E001C0DBCEC65BDF4F0FB6F89464
:103AF000DEBF0FBECDBFDF91CF910895CF93DF938F
:103B00001F92CDB7DEB789838981882F90E0880F17
:103B1000991F8752994FFC0180819181FC0123817B
:103B20008981882F90E0880F991F8752994FFC0157
:103B300080819181FC018481282B8981882F90E0EC
:103B4000880F991F8752994FFC0180819181FC0158
:103B50008581922F982B81E0992309F080E00F90C6
:103B6000DF91CF910895CF93DF9300D0CDB7DEB72B
:103B70008A8319828A81882F90E0880F991F875243
:103B8000994FFC0180819181FC0180819181029794
:103B9000FC018081882F90E02A81222F30E0220FC3
:103BA000331F2752394FF90120813181F9012281D8
:103BB000222F30E0022E02C0959587950A94E2F7F5
:103BC0008170898389810F900F90DF91CF91089543
:103BD000EF92FF920F931F93CF93DF931F92CDB776
:103BE000DEB7809107078F5F8093070780910707F3
:103BF000833014F01092070719821CC08981882F26
:103C000090E0880F991F8752994FFC01E080F18066
:103C100080910707082F112707FD10958981A3DFE1
:103C2000282FC701800F911F0396FC0120838981F3
:103C30008F5F89838091010799819817F8F20F901F
:103C4000DF91CF911F910F91FF90EF9008950F9307
:103C50001F93CF93DF9300D0CDB7DEB79A838983CC
:103C600080E890E0FC01108281E890E029E0FC010E
:103C7000208308E810E089819A81CC01A0E0B0E0BF
:103C8000BC01CD010E94E529DC01CB019C01AD0105
:103C900060E876E988E19BE40E945129DC01CB01D0
:103CA00020E030E040E05FE3BC01CD010E94E92864
:103CB000DC01CB01BC01CD010E94B929DC01CB01A3
:103CC000F801918380838FE690E022E0FC0120835D
:103CD0008FE590E02FE530E0F90120812068FC01BC
:103CE00020830F900F90DF91CF911F910F91089536
:103CF0001F920F9200905F000F92112400905B00C2
:103D00000F922F933F934F935F936F937F938F9374
:103D10009F93AF93BF93EF93FF93CF93DF93CDB771
:103D2000DEB756DF8091020790910307A091040748
:103D3000B09105070196A11DB11D809302079093D4
:103D40000307A0930407B0930507DF91CF91FF917C
:103D5000EF91BF91AF919F918F917F916F915F9103
:103D60004F913F912F910F9000925B000F90009226
:103D70005F000F901F901895CF93DF93CDB7DEB7FC
:103D80006C970FB6F894DEBF0FBECDBF83E390E013
:103D90002FEFFC01208384E390E0FC01108280E09F
:103DA00090E0AFE2B4E489839A83AB83BC8320E0E4
:103DB00030E44CE155E469817A818B819C810E94D9
:103DC0009B2ADC01CB018D839E83AF83B88720E0E3
:103DD00030E040E85FE36D817E818F8198850E94AD
:103DE0004D2988232CF481E090E09A8789873FC091
:103DF00020E03FEF4FE757E46D817E818F8198850A
:103E00000E94972A18164CF520E030E040E251E479
:103E100069817A818B819C810E949B2ADC01CB0184
:103E2000BC01CD010E94B929DC01CB019A878987A9
:103E30000FC08AEF90E09C878B878B859C850197CC
:103E4000F1F79C878B8789859A8501979A8789875F
:103E500089859A85009769F714C06D817E818F816D
:103E600098850E94B929DC01CB019A8789878985C9
:103E70009A859E878D878D859E850197F1F79E8710
:103E80008D8725E230E040E062E370E28BE090E273
:103E90000E941E0C8F3F11F00E941E0F80E090E0E8
:103EA000AFE2B4E48F87988BA98BBA8B20E030E423
:103EB0004CE155E46F85788989899A890E949B2A0B
:103EC000DC01CB018B8B9C8BAD8BBE8B20E030E07B
:103ED00040E85FE36B897C898D899E890E944D292A
:103EE00088232CF481E090E0988F8F8B3FC020E0F6
:103EF0003FEF4FE757E46B897C898D899E890E944B
:103F0000972A18164CF520E030E040E251E46F8526
:103F1000788989899A890E949B2ADC01CB01BC019E
:103F2000CD010E94B929DC01CB01988F8F8B0FC086
:103F30008AEF90E09A8F898F898D9A8D0197F1F79A
:103F40009A8F898F8F89988D0197988F8F8B8F8902
:103F5000988D009769F714C06B897C898D899E893B
:103F60000E94B929DC01CB01988F8F8B8F89988DA6
:103F70009C8F8B8F8B8D9C8D0197F1F79C8F8B8FF6
:103F800060E087E294E00E948A108093060788EE42
:103F900093E05DDE84E00E941A0900002BD081309E
:103FA0009105E1F3109202071092030710920407A3
:103FB000109205071092150810921D081092100813
:103FC0006C960FB6F894DEBF0FBECDBFDF91CF91D8
:103FD0000895CF93DF93CDB7DEB78091020790911C
:103FE0000307A0910407B0910507BC01CD01DF9143
:103FF000CF910895CF93DF93CDB7DEB780911408AA
:104000007DDD882319F480E090E002C081E090E03B
:10401000DF91CF910895CF93DF93CDB7DEB784E2E0
:1040200090E024E230E0F90120812760FC01208348
:1040300084E290E024E230E0F9012081277FFC0156
:10404000208385E290E025E230E0F90120812160C3
:10405000FC0120838CE490E022E5FC012083DF91C9
:10406000CF910895CF93DF931F92CDB7DEB78983A9
:1040700085E290E025E230E0F90120812E7FFC010D
:1040800020838EE490E02981FC01208300008DE4F0
:1040900090E0FC0180818823D4F785E290E025E25E
:1040A00030E0F90120812160FC0120838EE490E062
:1040B000FC0180810F90DF91CF910895CF93DF9322
:1040C0001F92CDB7DEB789838981813041F4809119
:1040D000120814DD813059F481E090E00AC080912B
:1040E00017080CDD813019F482E090E002C080E016
:1040F00090E00F90DF91CF9108951F920F92009062
:104100005F000F92112400905B000F922F933F935A
:104110008F939F93EF93FF93CF93DF93CDB7DEB74A
:10412000809148078823D1F080914807815080937F
:10413000480786EC90E020914907222F30E0285F65
:10414000384FF9012081FC012083809149078F5F5E
:1041500080934907803411F410924907DF91CF9181
:10416000FF91EF919F918F913F912F910F9000922E
:104170005B000F9000925F000F901F9018951F92A8
:104180000F9200905F000F92112400905B000F923D
:104190002F933F938F939F93EF93FF93CF93DF934F
:1041A0001F92CDB7DEB780EC90E0FC01808189835F
:1041B0008981882F90E08C7199270097D1F48091A4
:1041C0008A07882F90E026EC30E0F9012081865B99
:1041D000984FFC01208380918A078F5F80938A0724
:1041E000803411F410928A0780918B078F5F80933F
:1041F0008B070F90DF91CF91FF91EF919F918F915E
:104200003F912F910F9000925B000F9000925F0002
:104210000F901F9018951F920F9200905F000F92C1
:10422000112400905B000F922F933F938F939F93E5
:10423000EF93FF93CF93DF93CDB7DEB78091CC0799
:104240008823D1F08091CC0781508093CC078EECED
:1042500090E02091CD07222F30E02457384FF9010C
:104260002081FC0120838091CD078F5F8093CD0753
:10427000803411F41092CD07DF91CF91FF91EF912F
:104280009F918F913F912F910F9000925B000F9023
:1042900000925F000F901F9018951F920F92009050
:1042A0005F000F92112400905B000F922F933F93B9
:1042B0008F939F93EF93FF93CF93DF931F92CDB78D
:1042C000DEB788EC90E0FC01808189838981882FAA
:1042D00090E08C7199270097D1F480910E08882F77
:1042E00090E02EEC30E0F90120818253984FFC01E0
:1042F000208380910E088F5F80930E08803411F424
:1043000010920E0880910F088F5F80930F080F9016
:10431000DF91CF91FF91EF919F918F913F912F91DD
:104320000F9000925B000F9000925F000F901F9023
:104330001895CF93DF9300D000D0CDB7DEB7698357
:104340007A838B839C8380911D08882339F461E0F4
:1043500081E00E948C0181E080931D0880E00F9035
:104360000F900F900F90DF91CF910895EF92FF92F1
:104370000F931F93CF93DF93CDB7DEB7C659D10903
:104380000FB6F894DEBF0FBECDBF19821A8281E04E
:104390008B83CE018F569F4F2EE530E0FC01318399
:1043A0002083CE018F569F4F2BE234E0FC013383F4
:1043B0002283CE018F569F4FFC01158214829E01ED
:1043C0002F563F4FF9014081F9015181F901628176
:1043D000F9017381F9018481F90195810E945519D0
:1043E0008B81882F90E08130910509F0F9CF8A8187
:1043F0008983E8C68981882F90E0880F991F9C01E6
:10440000220F331F220F331F820F931F8D5C9B4F90
:10441000FC01208131818981882F90E0880F991FCC
:10442000AC01440F551F440F551F840F951F8E5C20
:104430009B4FFC0170818981882F90E0880F991F24
:10444000AC01440F551F440F551F840F951F8F5CFF
:104450009B4FFC0160818981882F90E0880F991F14
:10446000AC01440F551F440F551F840F951FFC01CD
:10447000E55DFB4F7901072F262F40815181628135
:104480007381848195810E94B3168C8389818823EE
:1044900009F495C68981813009F078C06FEF8FEFFC
:1044A0000E94F00680E090E0AAEFB3E48D839E8343
:1044B000AF83B88720E030E44CE155E46D817E8124
:1044C0008F8198850E949B2ADC01CB0189879A877E
:1044D000AB87BC8720E030E040E85FE369857A8500
:1044E0008B859C85DAD688232CF481E090E09E872A
:1044F0008D873DC020E03FEF4FE757E469857A851F
:104500008B859C850E94972A181644F520E030E0A0
:1045100040E251E46D817E818F8198850E949B2AC3
:10452000DC01CB01BC01CD0124D7DC01CB019E878E
:104530008D870FC08AEF90E0988B8F878F85988941
:104540000197F1F7988B8F878D859E8501979E87C0
:104550008D878D859E85009769F713C069857A855B
:104560008B859C8506D7DC01CB019E878D878D8549
:104570009E859A8B898B89899A890197F1F79A8B05
:10458000898B6FEF81E00E94F00619C68981823025
:1045900009F050C183E70E942E1380E090E0A8E468
:1045A000B2E48B8B9C8BAD8BBE8B20E030E44CE176
:1045B00055E46B897C898D899E89BDD7DC01CB014F
:1045C0008F8B988FA98FBA8F20E030E040E85FE3AF
:1045D0006F89788D898D9A8D60D688232CF481E03F
:1045E00090E09C8F8B8F3BC020E03FEF4FE757E47C
:1045F0006F89788D898D9A8D9AD718163CF520E0B1
:1046000030E040E251E46B897C898D899E8993D7A3
:10461000DC01CB01BC01CD01ACD6DC01CB019C8F10
:104620008B8F0FC08AEF90E09E8F8D8F8D8D9E8D2A
:104630000197F1F79E8F8D8F8B8D9C8D01979C8FAD
:104640008B8F8B8D9C8D009769F713C06F89788D48
:10465000898D9A8D8ED6DC01CB019C8F8B8F8B8DB3
:104660009C8D98A38F8F8F8D98A10197F1F798A3B8
:104670008F8F6FEF8FEF0E94F00680E090E0AAEF3F
:10468000B3E489A39AA3ABA3BCA320E030E44CE13C
:1046900055E469A17AA18BA19CA14DD7DC01CB0186
:1046A0008DA39EA3AFA3B8A720E030E040E85FE36E
:1046B0006DA17EA18FA198A5F0D588232CF481E06F
:1046C00090E09AA789A73BC020E03FEF4FE757E46F
:1046D0006DA17EA18FA198A52AD718163CF520E0E0
:1046E00030E040E251E469A17AA18BA19CA123D7DB
:1046F000DC01CB01BC01CD013CD6DC01CB019AA78A
:1047000089A70FC08AEF90E09CA78BA78BA59CA5DB
:104710000197F1F79CA78BA789A59AA501979AA75E
:1047200089A789A59AA5009769F713C06DA17EA1F5
:104730008FA198A51ED6DC01CB019AA789A789A5D0
:104740009AA59EA78DA78DA59EA50197F1F79EA777
:104750008DA76FEF81E00E94F00680E090E0AAEF65
:10476000B3E48FA798ABA9ABBAAB20E030E44CE13F
:1047700055E46FA578A989A99AA9DDD6DC01CB01FA
:104780008BAB9CABADABBEAB20E030E040E85FE371
:104790006BA97CA98DA99EA980D588232CF481E0E2
:1047A00090E098AF8FAB3BC020E03FEF4FE757E47E
:1047B0006BA97CA98DA99EA9BAD618163CF520E054
:1047C00030E040E251E46FA578A989A99AA9B3D64F
:1047D000DC01CB01BC01CD01CCD5DC01CB0198AF14
:1047E0008FAB0FC08AEF90E09AAF89AF89AD9AADD9
:1047F0000197F1F79AAF89AF8FA998AD019798AF5C
:104800008FAB8FA998AD009769F7D9C46BA97CA924
:104810008DA99EA9AED5DC01CB0198AF8FAB8FA936
:1048200098AD9CAF8BAF8BAD9CAD0197F1F79CAF72
:104830008BAFC5C48981833009F4C1C489818430B8
:1048400009F022C383E70E942E1380E090E0A8E4E1
:10485000B2E49E01235C3F4FF90180839183A283E0
:10486000B3838E010F5B1F4F20E030E44CE155E431
:10487000CE01CD96FC0160817181828193815BD6EE
:10488000DC01CB01F80180839183A283B383CE0145
:104890008F5B9F4F20E030E040E85FE3FC016081E8
:1048A000718182819381F9D488234CF4CE018B5B92
:1048B0009F4F21E030E0FC013183208368C0CE01AE
:1048C0008F5B9F4F20E03FEF4FE757E4FC01608193
:1048D0007181828193812BD618160CF047C020E09D
:1048E00030E040E251E4CE01CD96FC01608171815F
:1048F0008281938120D6DC01CB018E010B5B1F4F9F
:10490000BC01CD0136D5DC01CB01F8019183808358
:1049100024C0CE01895B9F4F2AEF30E0FC01318338
:104920002083CE01895B9F4FFC018081918101979B
:10493000F1F79E01295B3F4FF90191838083CE01FE
:104940008B5B9F4F9E012B5B3F4FF9012081318193
:1049500021503109FC0131832083CE018B5B9F4FB5
:10496000FC01808191810097A1F62BC08E010B5B29
:104970001F4FCE018F5B9F4FFC016081718182814F
:104980009381F7D4DC01CB01F80191838083CE01C0
:10499000875B9F4F9E012B5B3F4FF9012081318147
:1049A000FC0131832083CE01875B9F4FFC01808116
:1049B00091810197F1F79E01275B3F4FF9019183A8
:1049C00080836FEF8FEF0E94F0069E01255B3F4FC3
:1049D00080E090E0AAEFB3E4F90180839183A283A1
:1049E000B3838E01015B1F4FCE01855B9F4F20E09B
:1049F00030E44CE155E4FC01608171818281938156
:104A00009AD5DC01CB01F80180839183A283B38323
:104A1000CE01815B9F4F20E030E040E85FE3FC0186
:104A2000608171818281938138D488234CF4CE01D6
:104A30008D5A9F4F21E030E0FC013183208369C013
:104A4000CE01815B9F4F20E03FEF4FE757E4FC0131
:104A500060817181828193816AD518160CF048C0FB
:104A6000CE01855B9F4F20E030E040E251E4FC0145
:104A700060817181828193815ED5DC01CB018E01E1
:104A80000D5A1F4FBC01CD0174D4DC01CB01F801DC
:104A90009183808324C0CE018B5A9F4F2AEF30E050
:104AA000FC0131832083CE018B5A9F4FFC01808112
:104AB00091810197F1F79E012B5A3F4FF9019183A4
:104AC0008083CE018D5A9F4F9E012D5A3F4FF90191
:104AD0002081318121503109FC0131832083CE01B5
:104AE0008D5A9F4FFC01808191810097A1F62BC0C8
:104AF0008E010D5A1F4FCE01815B9F4FFC016081DB
:104B000071818281938135D4DC01CB01F8019183DD
:104B10008083CE01895A9F4F9E012D5A3F4FF90144
:104B200020813181FC0131832083CE01895A9F4F3E
:104B3000FC01808191810197F1F79E01295A3F4F35
:104B4000F901918380836FEF81E00E94F0069E015E
:104B5000275A3F4F80E090E0AAEFB3E4F901808349
:104B60009183A283B3838E01035A1F4FCE01875ACC
:104B70009F4F20E030E44CE155E4FC0160817181FD
:104B800082819381D8D4DC01CB01F80180839183A9
:104B9000A283B383CE01835A9F4F20E030E040E8E8
:104BA0005FE3FC01608171818281938176D38823E8
:104BB0004CF4CE018F599F4F21E030E0FC0131834E
:104BC000208369C0CE01835A9F4F20E03FEF4FE71B
:104BD00057E4FC016081718182819381A8D4181609
:104BE0000CF048C0CE01875A9F4F20E030E040E2F1
:104BF00051E4FC0160817181828193819CD4DC014C
:104C0000CB018E010F591F4FBC01CD01B2D3DC0186
:104C1000CB01F8019183808324C0CE018D599F4F31
:104C20002AEF30E0FC0131832083CE018D599F4F64
:104C3000FC01808191810197F1F79E012D593F4F31
:104C4000F90191838083CE018F599F4F9E012F5987
:104C50003F4FF9012081318121503109FC0131831D
:104C60002083CE018F599F4FFC0180819181009755
:104C7000A1F62BC08E010F591F4FCE01835A9F4FB3
:104C8000FC01608171818281938173D3DC01CB014E
:104C9000F80191838083CE018B599F4F9E012F593C
:104CA0003F4FF90120813181FC0131832083CE0106
:104CB0008B599F4FFC01808191810197F1F79E01F3
:104CC0002B593F4FF9019183808349E951E262E317
:104CD00086EA9FEF0E94161B40E050E062E380E509
:104CE00090E00E944A146FEF81E00E948C019E01C7
:104CF00029593F4F80E090E0AAE7B3E4F9018083AF
:104D00009183A283B3838E0105591F4FCE01895928
:104D10009F4F20E030E44CE155E4FC01608171815B
:104D20008281938108D4DC01CB01F80180839183D7
:104D3000A283B383CE0185599F4F20E030E040E845
:104D40005FE3FC016081718182819381A6D2882317
:104D50004CF4CE0181599F4F21E030E0FC013183BA
:104D6000208369C0CE0185599F4F20E03FEF4FE778
:104D700057E4FC016081718182819381D8D3181638
:104D80000CF048C0CE0189599F4F20E030E040E24E
:104D900051E4FC016081718182819381CCD3DC017B
:104DA000CB018E0101591F4FBC01CD01E2D2DC01C4
:104DB000CB01F8019183808324C0CE018F589F4F8F
:104DC0002AEF30E0FC0131832083CE018F589F4FC2
:104DD000FC01808191810197F1F79E012F583F4F8F
:104DE000F90191838083CE0181599F4F9E01215902
:104DF0003F4FF9012081318121503109FC0131837C
:104E00002083CE0181599F4FFC01808191810097C1
:104E1000A1F62BC08E0101591F4FCE0185599F4F1E
:104E2000FC016081718182819381A3D2DC01CB017D
:104E3000F80191838083CE018D589F4F9E012159A7
:104E40003F4FF90120813181FC0131832083CE0164
:104E50008D589F4FFC01808191810197F1F79E0150
:104E60002D583F4FF9019183808340E050E062E389
:104E70008AE590E00E94161B40E050E062E380EB80
:104E80009FEF0E944A149BC18981853009F497C124
:104E90008981863009F087C19E012B583F4F80E001
:104EA00090E0A8E4B2E4F90180839183A283B38304
:104EB0008E0107581F4FCE018B589F4F20E030E4E2
:104EC0004CE155E4FC01608171818281938133D38F
:104ED000DC01CB01F80180839183A283B383CE01EF
:104EE00087589F4F20E030E040E85FE3FC0160819D
:104EF000718182819381D1D188234CF4CE01835872
:104F00009F4F21E030E0FC013183208369C0CE0156
:104F100087589F4F20E03FEF4FE757E4FC01608147
:104F200071818281938103D318160CF048C0CE01A1
:104F30008B589F4F20E030E040E251E4FC0160815B
:104F4000718182819381F7D2DC01CB018E010358FC
:104F50001F4FBC01CD010DD2DC01CB01F8019183C3
:104F6000808324C0CE0181589F4F2AEF30E0FC019E
:104F700031832083CE0181589F4FFC018081918134
:104F80000197F1F79E0121583F4FF90191838083EA
:104F9000CE0183589F4F9E0123583F4FF901208136
:104FA000318121503109FC0131832083CE018358A6
:104FB0009F4FFC01808191810097A1F62BC08E014B
:104FC00003581F4FCE0187589F4FFC0160817181AC
:104FD00082819381CED1DC01CB01F8019183808362
:104FE000CE018F579F4F9E0123583F4FF9012081DB
:104FF0003181FC0131832083CE018F579F4FFC010B
:10500000808191810197F1F79E012F573F4FF90160
:105010009183808362E08FEF0E94F0069E012D57FE
:105020003F4F80E090E0AAE7B4E4F90180839183E8
:10503000A283B3838E0109571F4FCE018D579F4F17
:1050400020E030E44CE155E4FC0160817181828113
:10505000938171D2DC01CB01F80180839183A2831B
:10506000B383CE0189579F4F20E030E040E85FE3F3
:10507000FC0160817181828193810FD188234CF47E
:10508000CE0185579F4F21E030E0FC013183208322
:1050900069C0CE0189579F4F20E03FEF4FE757E4AB
:1050A000FC01608171818281938141D218160CF0DC
:1050B00048C0CE018D579F4F20E030E040E251E4E0
:1050C000FC01608171818281938135D2DC01CB0149
:1050D0008E0105571F4FBC01CD014BD1DC01CB0127
:1050E000F8019183808324C0CE0183579F4F2AEF1C
:1050F00030E0FC0131832083CE0183579F4FFC01B8
:10510000808191810197F1F79E0123573F4FF9016B
:1051100091838083CE0185579F4F9E0125573F4F36
:10512000F9012081318121503109FC013183208333
:10513000CE0185579F4FFC01808191810097A1F698
:105140002BC08E0105571F4FCE0189579F4FFC0181
:1051500060817181828193810CD1DC01CB01F801E6
:1051600091838083CE0181579F4F9E0125573F4FEA
:10517000F90120813181FC0131832083CE018157E7
:105180009F4FFC01808191810197F1F79E0121578A
:105190003F4FF9019183808381E00E94B70381E052
:1051A0000E94CA04FFCF8981873029F46FEF8FEF07
:1051B0000E946A0004C08981883009F4FFCF898188
:1051C0008F5F89838981893008F414C9000008C978
:1051D0005058BB27AA270ED070C161D130F066D1DC
:1051E00020F031F49F3F11F41EF456C10EF4E09507
:1051F000E7FB4CC1E92F72D180F3BA17620773073E
:105200008407950718F071F49EF58AC10EF4E095B5
:105210000B2EBA2FA02D0B01B90190010C01CA0170
:10522000A0011124FF27591B99F0593F50F4503E1B
:1052300068F11A16F040A22F232F342F4427585F0D
:10524000F3CF469537952795A795F0405395C9F725
:105250007EF41F16BA0B620B730B840BBAF09150DD
:10526000A1F0FF0FBB1F661F771F881FC2F70EC07C
:10527000BA0F621F731F841F48F48795779567954F
:10528000B795F7959E3F08F0B3CF9395880F08F038
:105290009927EE0F979587950895D4D008F481E06B
:1052A00008950CD00AC102D140F0F9D030F021F4B9
:1052B0005F3F19F0EBC0511134C1EEC00FD198F32C
:1052C0009923C9F35523B1F3951B550BBB27AA2787
:1052D00062177307840738F09F5F5F4F220F331FF9
:1052E000441FAA1FA9F333D00E2E3AF0E0E830D0C5
:1052F00091505040E695001CCAF729D0FE2F27D0C8
:10530000660F771F881FBB1F261737074807AB0795
:10531000B0E809F0BB0B802DBF01FF2793585F4F0A
:105320002AF09E3F510568F0B1C0FBC05F3FECF32F
:10533000983EDCF3869577956795B795F7959F5FCF
:10534000C9F7880F911D9695879597F90895E1E023
:10535000660F771F881FBB1F621773078407BA0782
:1053600020F0621B730B840BBA0BEE1F88F7E095DD
:105370000895BCD088F09F5790F0B92F9927B75166
:10538000A0F0D1F0660F771F881F991F1AF0BA9509
:10539000C9F712C0B13081F0C3D0B1E00895C0C0E8
:1053A000672F782F8827B85F39F0B93FCCF38695FF
:1053B00077956795B395D9F73EF49095809570955C
:1053C00061957F4F8F4F9F4F0895E89409C097FBD9
:1053D0003EF490958095709561957F4F8F4F9F4FCC
:1053E0009923A9F0F92F96E9BB279395F695879510
:1053F00077956795B795F111F8CFFAF4BB0F11F4D3
:1054000060FF1BC06F5F7F4F8F4F9F4F16C0882379
:1054100011F096E911C0772321F09EE8872F762FAF
:1054200005C0662371F096E8862F70E060E02AF0F0
:105430009A95660F771F881FDAF7880F96958795DC
:1054400097F90895990F0008550FAA0BE0E8FEEFB1
:1054500016161706E807F907C0F012161306E40738
:10546000F50798F0621B730B840B950B39F40A2631
:1054700061F0232B242B252B21F408950A2609F40F
:10548000A140A6958FEF811D811D089597F99F6713
:1054900080E870E060E008959FEF80EC08950024BC
:1054A0000A941616170618060906089500240A9489
:1054B00012161306140605060895092E0394000C0F
:1054C00011F4882352F0BB0F40F4BF2B11F460FF9E
:1054D00004C06F5F7F4F8F4F9F4F089557FD9058C7
:1054E000440F551F59F05F3F71F04795880F97FBA8
:1054F000991F61F09F3F79F0879508951216130662
:105500001406551FF2CF4695F1DF08C01616170690
:105510001806991FF1CF86957105610508940895C5
:10552000E894BB2766277727CB0197F908958ADF90
:1055300008F48FEF08950BD0C0CFB1DF28F0B6DFAD
:1055400018F0952309F0A2CFA7CF1124EACFC6DF28
:10555000A0F3959FD1F3950F50E0551F629FF00186
:10556000729FBB27F00DB11D639FAA27F00DB11DDF
:10557000AA1F649F6627B00DA11D661F829F222768
:10558000B00DA11D621F739FB00DA11D621F839FEF
:10559000A00D611D221F749F3327A00D611D231FC5
:1055A000849F600D211D822F762F6A2F11249F5713
:1055B00050408AF0E1F088234AF0EE0FFF1FBB1F36
:1055C000661F771F881F91505040A9F79E3F5105D5
:1055D00070F05CCFA6CF5F3FECF3983EDCF386958E
:1055E00077956795B795F795E7959F5FC1F7FE2B80
:1055F000880F911D9695879597F908950F931F939E
:10560000CF93DF93869F8001879F100D969F100D8B
:105610001124C8010DD0EC01009721F0A80160E031
:1056200070E02DD1CE01DF91CF911F910F910895A0
:10563000CF93DF938230910510F482E090E0E09107
:105640002008F091210820E030E0A0E0B0E03097A1
:1056500039F14081518148175907B8F04817590767
:1056600071F482819381109729F013969C938E9305
:1056700012972CC0909321088093200827C02115F1
:10568000310531F04217530718F0A901DB0101C0C1
:10569000EF019A01BD01DF010280F381E02DD7CF38
:1056A00021153105F9F0281B390B2430310580F420
:1056B0008A819B816115710521F0FB0193838283AF
:1056C00004C09093210880932008FE01329644C0C4
:1056D000FE01E20FF31F8193919322503109398328
:1056E00028833AC020911E0830911F08232B41F4D3
:1056F000209102013091030130931F0820931E086E
:1057000020910001309101012115310541F42DB79F
:105710003EB74091040150910501241B350BE091E7
:105720001E08F0911F08E217F307A0F42E1B3F0B91
:105730002817390778F0AC014E5F5F4F2417350703
:1057400048F04E0F5F1F50931F0840931E0881932F
:10575000919302C0E0E0F0E0CF01DF91CF91089596
:10576000CF93DF93009709F487C0FC01329713822F
:105770001282C0912008D0912108209781F42081C5
:105780003181280F391F80911E0890911F088217C0
:10579000930779F5F0931F08E0931E086DC0DE01B2
:1057A00020E030E0AE17BF0750F412964D915C91A7
:1057B00013979D014115510509F1DA01F3CFB38328
:1057C000A28340815181840F951F8A179B0771F432
:1057D0008D919C911197840F951F029691838083E0
:1057E00012968D919C911397938382832115310595
:1057F00029F4F0932108E09320083EC0D9011396C4
:10580000FC93EE9312974D915D91A40FB51FEA178B
:10581000FB0779F480819181840F951F0296D9014D
:1058200011969C938E938281938113969C938E9371
:105830001297E0E0F0E08A819B81009719F0FE0169
:10584000EC01F9CFCE01029628813981820F931F96
:1058500020911E0830911F082817390769F43097E6
:1058600029F4109221081092200802C0138212829B
:10587000D0931F08C0931E08DF91CF910895DC01DB
:1058800001C06D9341505040E0F708952F923F9230
:105890004F925F926F927F928F929F92AF92BF9240
:1058A000CF92DF92EF92FF920F931F93CF93DF93EC
:1058B000CDB7DEB72C970FB6F894DEBF0FBECDBFC5
:1058C0007C016B018A01FC0117821682838181FFB2
:1058D000B0C1CE0101964C01F7019381F60193FD11
:1058E000859193FF81916F01882309F49EC18532D0
:1058F00039F493FD859193FF81916F01853221F4F5
:10590000B70190E0C7D1E8CF512C312C20E02032F4
:10591000A0F48B3269F030F4803259F0833269F4AC
:1059200020612CC08D3239F0803339F4216026C0DB
:105930002260246023C0286021C027FD27C030EDED
:10594000380F3A3078F426FF06C0FAE05F9E300D3B
:105950001124532E13C08AE0389E300D1124332EAB
:1059600020620CC08E3221F426FD5FC1206406C087
:105970008C3611F4206802C0883641F4F60193FD9C
:10598000859193FF81916F018111C1CF982F9F7DE8
:105990009554933028F40C5F1F4FFFE3F9830DC03B
:1059A000833631F0833771F0833509F057C021C059
:1059B000F801808189830E5F1F4F44244394512C4A
:1059C000540114C03801F2E06F0E711CF801A08080
:1059D000B18026FF03C0652D70E002C06FEF7FEF3E
:1059E000C5012C874CD12C0183012C852F77222EC9
:1059F00016C03801F2E06F0E711CF801A080B18072
:105A000026FF03C0652D70E002C06FEF7FEFC50178
:105A10002C872AD12C012C852068222E830123FC7F
:105A200019C0832D90E048165906A0F4B70180E212
:105A300090E030D13A94F5CFF50127FC859127FE0F
:105A400081915F01B70190E025D131103A94F1E0E6
:105A50004F1A51084114510479F7DEC0843611F011
:105A6000893631F5F80127FF07C060817181828195
:105A700093810C5F1F4F08C060817181882777FD7B
:105A80008095982F0E5F1F4F2F76B22E97FF09C07B
:105A900090958095709561957F4F8F4F9F4F2068AF
:105AA000B22E2AE030E0A40127D1A82EA81843C0C6
:105AB000853729F42F7EB22E2AE030E025C0F22F60
:105AC000F97FBF2E8F36C1F018F4883579F0ADC05C
:105AD000803719F0883721F0A8C02F2F2061B22E0F
